:020000041000EA
:10000000002008205D0100101B0100101D010010E0
:100010001101001011010010110100101101001058
:100020001901001019010010190100101F01001022
:10003000110100101901001021010010230100100E
:100040001101001011010010110100101101001028
:100050001101001011010010110100101101001018
:100060001101001011010010110100101101001008
:1000700011010010110100101101001011010010F8
:1000800011010010110100101101001011010010E8
:1000900011010010110100101101001011010010D8
:1000A00011010010110100101101001011010010C8
:1000B00011010010110100101101001011010010B8
:1000C00011010010110100101101001011010010A8
:1000D0001101001011010010110100101101001098
:1000E0001101001011010010110100101101001088
:1000F0001101001011010010110100101101001078
:100100001101001011010010110100101101001067
:10011000EFF30580103800BE00BE00BE00BE00BE7A
:1001200000BE00BEF2EB88719C120210C8120210D1
:10013000A001001090A31AE7D3DEFFFF42012110B7
:10014000FF010000E8290200793512AB4FF00000F2
:100150001E49086006C881F3088810474FF05040D8
:10016000006810B14FF00000F2E70DA40ECC00299A
:1001700002D000F012F8F9E71549164A002000E015
:1001800001C19142FCD11449884714498847144958
:10019000884700BEFDE701C901C29A42FBD3704700
:1001A000C81202101001002068190020202B021034
:1001B0000000082000000820202B0210001008205A
:1001C00000100820000000007047000008ED00E06B
:1001D00068190020B4790120F17E0110D13000109F
:1001E000E97E0110F8B500BF0348044B834202D0FA
:1001F000034B03B1184770476819002068190020A5
:1002000000000000064B0749C91A891048BF013198
:10021000491003D0044B0BB101481847704700BF89
:1002200068190020681900200000000010B5064C75
:10023000237843B9FFF7D8FF044B13B10448AFF359
:1002400000800123237010BDC01B002000000000AF
:1002500038BB011008B5044B1BB104490448AFF387
:100260000080BDE80840CDE700000000C41B00206E
:1002700038BB01102DE9F04F0E46ADF20C4D70B3B6
:10028000037863B32F2B00F09080564B82AC1A8812
:100290002F2A00F09D8000904FF400712046524AB2
:1002A00017F0E0FD0022237802AF3A70002B00F037
:1002B0008C802F2B1FD063780134002BF9D13B7831
:1002C000002B00F08280FF22394630461BF0FEF9F9
:1002D000002386F8FF300DF20C4DBDE8F08FFF22B1
:1002E000304640491BF0F2F9002386F8FF300DF24A
:1002F0000C4DBDE8F08F4FF0000A42F62E680DF568
:10030000847914F8015F2F2DFBD0002DD7D0002366
:1003100009F8035014F8015F013345B12F2D06D0C1
:10032000FF2BF5D114F8015F0DB12F2DFAD109F88B
:1003300003A0B9F800302E2B08D0434509D0384629
:100340001BF054F9FF2800F1010313D1002DD8D17F
:10035000B5E799F802B0BBF1000FF0D12F21384674
:100360001BF0E8F960B3B8422AD980F800B0002D3C
:10037000C7D1A4E72F223A5499F8002082B1FE2871
:1003800000F102032CD04946384403E00133B3F5B1
:10039000807F25D000F8012F11F8012F002AF5D118
:1003A0000022FA54002DACD189E782AC014640F21C
:1003B000FF1220461BF08AF9002384F8FF3171E711
:1003C00000233B70002D9CD179E72F233B807AE7F7
:1003D00003464FF400712046044A17F043FD61E7DD
:1003E000FF23DDE76012002040BB01103CBB011081
:1003F000034B1B780BB106F037BC17F063BE00BF90
:10040000A77901200FB430B5C3B046AB53F8042B25
:100410004FF4807102A8019317F03AFD9DF808008F
:1004200048B10D4D02AC2B7853B106F01DFC14F809
:10043000010F0028F7D143B0BDE8304004B0704749
:1004400017F040FE14F8010F0028ECD143B0BDE8CE
:10045000304004B0704700BFA77901201AB10146AF
:100460000348FFF7CFBF02460248FFF7CBBF00BFEC
:100470004CBB01105CBB011030B51C4BC1B01A78ED
:1004800092B16C4608B1037863BBFF22204618493D
:100490001BF01CF900222046164984F8FF2005F0C5
:1004A00035FEB8B941B030BD4E20134C134D2B78FA
:1004B00043B106F0D9FB14F8010F0028F2D02B78D5
:1004C000002BF6D117F0FEFD14F8010F0028EED135
:1004D00041B030BD06F05AF801460948FFF792FFD7
:1004E00041B030BD2146FFF7C5FED3E7A679012014
:1004F000601200205D04001068BB0110A779012084
:100500008CBB01102DE9F04FADF5017D08B10378EA
:10051000C3B975204C4C4D4D2B784BB106F0A4FB64
:1005200014F8010F0028F7D10DF5017DBDE8F08F1B
:1005300017F0C8FD14F8010F0028EDD10DF5017D6D
:10054000BDE8F08F002211461BF092FA044604F039
:100550003BFB00286ED16946204604F0F5FC0028DC
:100560004ED12146E8466FF00F093948FFF74AFFA0
:10057000364D384F384E04AC0DF5047AA9EB080916
:10058000364809EB0401FFF73DFFC3461BF8011B8A
:100590003046FFF737FFA345F8D12020DFF8C8B079
:1005A0002A78A2B306F060FB1BF8010F0028F7D1F0
:1005B000C34603E006F058FBA3450DD01BF8010B22
:1005C0002A78395C11F0970F08BF2E20002AF1D14C
:1005D00017F078FDA345F1D17C20DFF890B02A78A0
:1005E000E2B106F041FB1BF8010F0028F7D11034EF
:1005F000544508F11008C3D10DF5017DBDE8F08F19
:1006000004F09CFD01461648FFF7FCFE8CE717F04E
:1006100059FD1BF8010F0028C2D1C9E717F052FDA0
:100620001BF8010F0028DAD11034544508F11008E6
:10063000A6D1E1E704F082FD01460A480DF5017DEF
:10064000BDE8F04FFFF7DEBE94BB0110A779012093
:10065000D4BB011091110210E8BB0110E0BB0110E6
:10066000C0BB0110ACBB0110F0BB0110F4BB01100A
:1006700070B5384BD4B01A78002A37D008B1037857
:1006800063B97520344C354D2B783BB306F0ECFA4A
:1006900014F8010F0028F7D154B070BD14A9FFF76A
:1006A000E9FD694614A805F003FE002847D12B4E4A
:1006B0004022684604A905F01FFE00282CDD04AC8A
:1006C000251803E006F0D0FAA542F1D0337814F8EB
:1006D000010B002BF6D117F0F5FCF5E717F0F2FC53
:1006E00014F8010F0028CFD154B070BD4E201C4C1F
:1006F0001A4D2B7843B106F0B7FA14F8010F002811
:10070000CAD02B78002BF6D117F0DCFC14F8010FBF
:100710000028EED154B070BD431D00D038B90F4B46
:100720000A201B7893B106F09FFA54B070BD40B216
:1007300005F02CFF01460B48FFF764FEACE705F01F
:1007400025FF01460848FFF75DFEA5E717F0BAFC54
:10075000A2E700BFA6790120F8BB0110A77901200C
:1007600068BB011018BC01100CBC0110214B1B7898
:10077000002B3DD02DE9F04100251F4CDFF8808093
:10078000ADF5A16D04F5116742AB581914F8013CA1
:10079000C5F5806604F1100C5BB123464246314634
:1007A000CDF800C017F05EFB00281CDB86421ADD86
:1007B00005449134A742E7D10026104B02AC93E8E0
:1007C000070084E807002046267305F0EBFF2A4661
:1007D000204642A906F08CF9B0FA80F040090DF5E8
:1007E000A16DBDE8F08100200DF5A16DBDE8F0819F
:1007F00000207047A6790120DD1B002034BC0110C9
:100800002CBC011030B5404BE1B01B78002B4FD011
:1008100008B103786BB975203C4D3D4C2378002B13
:100820003ED006F021FA15F8010F0028F6D161B08C
:1008300030BD7F22014668461AF048FF00229DF82D
:1008400000308DF87F206A4623B947E012F8013F57
:10085000002B43D0202BF9D10023144604F8013B90
:100860005378202B03D114F8013F202BFBD020A973
:100870006846FFF7FFFC20A805F094FF20461AF019
:10088000B5FE2146024620A806F032F90028CED057
:1008900005F07CFE20A902461E48FFF7B3FDC6E71F
:1008A00017F010FC15F8010F0028B7D161B030BD6A
:1008B0004E20194D164C237843B106F0D5F915F8A2
:1008C000010F0028B3D02378002BF6D117F0FAFBE4
:1008D00015F8010F0028EED161B030BD75200B4D29
:1008E0000B4C237843B106F0BFF915F8010F00282F
:1008F0009DD02378002BF6D117F0E4FB15F8010FFB
:100900000028EED193E700BFA679012044BC011076
:10091000A779012060BC011068BB01102DE9F84FD8
:1009200004789846002C00F0858082460F460546E4
:100930009146964A135D5B0703D15F2C01D02D2CA5
:1009400078D115F8014F002CF4D10126904D15F8FF
:10095000013C33B1284651461AF06AFD002800F0E8
:1009600081800134102C06F1910605F19105EED13C
:10097000884D2B78002B00F0C18095F89130002B2A
:1009800000F0BB8095F82231002B00F0E58095F84F
:10099000B331002B00F0E28095F84432002B00F0D8
:1009A000DF8095F8D532002B00F0DC8095F86633B7
:1009B000002B00F0D98095F8F733002B00F0D6809B
:1009C00095F88834002B00F0BE8095F81935002B7F
:1009D00000F0CE8095F8AA35002B00F0CB8095F87A
:1009E0003B36002B00F0C88095F8CC36002B00F089
:1009F000C58095F85D37002B00F0C48095F8EE3780
:100A0000002B00F0BD8095F87F38002B00F0BC80F3
:100A1000B8F1000F0CD061205F4C604D2B78002B9B
:100A200000F0898006F020F914F8010F0028F5D1B4
:100A3000BDE8F88FB8F1000FFAD06120584C574D3F
:100A40002B7843B106F010F914F8010F0028EFD00D
:100A50002B78002BF6D117F035FB14F8010F002886
:100A6000EED1E5E701224B4D04EBC40304EB031385
:100A7000EA54741E2E4450461AF0B8FD0F288346DF
:100A800030D90023DAF80410DAF80820DAF8000088
:100A900071603060B260BAF80C109AF80E20113410
:100AA0002C44B181B273F37338461AF09FFD0546AA
:100AB0007F2D28BF7F25394620462A461AF006FB9F
:100AC00000236355B9F1000F02D0364B1B78FBB9F8
:100AD000B8F1000FACD022463146BDE8F84F32489D
:100AE000FFF790BC0246514630461AF0EFFA002359
:100AF00011342C4406F80B30D6E7012303EBC30274
:100B000003EB021301229E181C46EA542E44B2E75E
:100B1000FFF72CFE0028DBD1B8F1000F88D0612050
:100B2000224F1E4D2B7883B106F09EF817F8010F67
:100B30000028F7D1CFE717F0C5FA14F8010F002805
:100B40007FF46CAF74E70823D8E717F0BBFA17F807
:100B5000010F0028E6D1BEE70223CFE70323CDE74C
:100B60000423CBE70523C9E70623C7E70723C5E727
:100B70000923C3E70A23C1E70B23BFE70C23BDE723
:100B80000E23BBE70D23B9E70F23B7E7911102103E
:100B9000DD1B0020DC1B002088BC0110A779012090
:100BA00070BC0110A6790120C4BC01109CBC0110CE
:100BB0002DE9F0434FF4116200215548ADF2145D68
:100BC0001AF07AFB534B1B781BB90DF2145DBDE88C
:100BD000F0830024504B04AE93E80700347386E89A
:100BE00007006946304605F063FB07460028ECD154
:100BF00044AC40F2FF326846214605F07DFB0028F8
:100C0000E3DB275432462046444937601AF0D8FDCA
:100C100004460028D9D0424D20461AF0E7FC90B196
:100C2000421E2244C4F1010005E011F001010AD185
:100C3000D042517007D012F80139093BDBB2172BB3
:100C400045FA03F1F1D9204603780446202B00F140
:100C50000100F9D0092BF7D033B1232B04D03D216B
:100C600020461AF07DFB40B9324600202B491AF08D
:100C7000A7FD04460028CFD1A7E78046204608F804
:100C8000017B1AF0B3FC90B1421E2244C4F1010072
:100C900005E011F001010AD1D042517007D012F8DD
:100CA0000139093BDBB2172B45FA03F1F1D9434671
:100CB00093F800909846B9F1200F03F10103F7D0A3
:100CC000B9F1090FF4D0B9F1000FCDD040461AF0B8
:100CD0008DFC01280AD9B9F1220F0ED0B9F1270FE6
:100CE00004D1404410F8013C272B0BD0002341468F
:100CF00020461A46FFF712FEB6E7404410F8013CC2
:100D0000222BF3D1002308F1010800F8013CEDE7A4
:100D1000DC1B0020A679012034BC0110E80502107C
:100D2000ECFF7FFF38B5002800F05A8203780446B4
:100D3000202B03D114F8013F202BFBD0002B00F017
:100D40004F822378662B23D020460D491AF070FB82
:100D5000002800F0BD8520460A491AF069FB0028EA
:100D600000F018845520084D084C2378002B00F023
:100D7000848505F079FF15F8010F0028F5D138BDFD
:100D800034C901107CCA0110E4CB0110A7790120FD
:100D90006378732BD8D1A378002BD5D14620AF4DE3
:100DA000AF4C2378002B00F05F8505F05DFF15F850
:100DB000010F0028F5D12020AA4D2378002B00F048
:100DC0004A8505F051FF15F8010F0028F5D12020C4
:100DD000A54D2378002B00F0358505F045FF15F86B
:100DE000010F0028F5D12020A04D2378002B00F022
:100DF000208505F039FF15F8010F0028F5D12020D6
:100E00009B4D2378002B00F00B8505F02DFF15F886
:100E1000010F0028F5D12020964D2378002B00F0FB
:100E2000F68405F021FF15F8010F0028F5D12020E8
:100E3000914D2378002B00F0E18405F015FF15F8A3
:100E4000010F0028F5D120208C4D2378002B00F0D5
:100E5000CC8405F009FF15F8010F0028F5D12020FA
:100E6000874D2378002B00F0B78405F0FDFE15F8C0
:100E7000010F0028F5D12020824D2378002B00F0AF
:100E8000A28405F0F1FE15F8010F0028F5D120200D
:100E90007D4D2378002B00F08D8405F0E5FE15F8DC
:100EA000010F0028F5D12020784D2378002B00F089
:100EB000788405F0D9FE15F8010F0028F5D120201F
:100EC000734D2378002B00F0638405F0CDFE15F8F8
:100ED000010F0028F5D120206E4D2378002B00F063
:100EE0004E8405F0C1FE15F8010F0028F5D1202031
:100EF000694D2378002B00F0398405F0B5FE15F814
:100F0000010F0028F5D12020644D2378002B00F03C
:100F1000248405F0A9FE15F8010F0028F5D1202042
:100F20005F4D2378002B00F00F8405F09DFE15F82F
:100F3000010F0028F5D120205A4D2378002B00F016
:100F4000FB8305F091FE15F8010F0028F5D1202054
:100F5000554D2378002B00F0E78305F085FE15F84A
:100F6000010F0028F5D12020504D2378002B00F0F0
:100F7000D38305F079FE15F8010F0028F5D1202064
:100F80004B4D2378002B00F0BF8305F06DFE15F864
:100F9000010F0028F5D12020464D2378002B00F0CA
:100FA000AB8305F061FE15F8010F0028F5D1202074
:100FB000414D2378002B00F0978305F055FE15F87E
:100FC000010F0028F5D120203C4D2378002B00F0A4
:100FD000838305F049FE15F8010F0028F5D1202084
:100FE000374D2378002B00F06F8305F03DFE15F898
:100FF000010F0028F5D12020324D2378002B00F07E
:101000005B8305F031FE15F8010F0028F5D1202093
:101010002D4D2378002B00F0478305F025FE15F8B1
:10102000010F0028F5D12020284D2378002B00F057
:10103000338305F019FE15F8010F0028F5D12020A3
:10104000234D2378002B00F01F8305F00DFE15F8CB
:10105000010F0028F5D120201E4D3DE048C10110B0
:10106000A77901205CC101108CC10110C8C1011019
:1010700004C2011034C201105CC2011084C201100C
:10108000ACC20110D8C2011008C3011034C3011052
:101090006CC30110A4C30110D8C3011018C40110FF
:1010A0003CC401106CC401109CC40110D8C40110D0
:1010B00010C501104CC5011098C50110D4C5011010
:1010C00010C6011048C6011088C60110D0C6011014
:1010D00000C7011030C701102378002B00F0B48244
:1010E00005F0C2FD15F8010F0028F5D12020344D80
:1010F0002378002B00F0A08205F0B6FD15F8010F53
:101100000028F5D120202F4D2378002B00F08C8271
:1011100005F0AAFD15F8010F0028F5D120202A4D71
:101120002378002B00F0788205F09EFD15F8010F62
:101130000028F5D12020254D2378002B00F0948243
:1011400005F092FD15F8010F0028F5D12020204D63
:101150002378002B00F0808205F086FD15F8010F42
:101160000028F5D120201B4D2378002B00F084822D
:1011700005F07AFD15F8010F0028F5D12020164D55
:101180002378002B00F0408205F06EFD15F8010F6A
:101190000028F5D12020114D23784BB105F064FDD6
:1011A00015F8010F00283FF4EAAD2378002BF5D1A4
:1011B00016F088FF15F8010F0028EDD138BD00BFEB
:1011C00060C70110A4C70110E0C7011028C80110B2
:1011D00058C8011088C80110C0C80110F8C8011013
:1011E0005320AD4DAD4C2378002B00F0CB8105F0A2
:1011F0003BFD15F8010F0028F5D12020A84D2378DC
:10120000002B00F0B78105F02FFD15F8010F002825
:10121000F5D12020A34D2378002B00F0A38105F009
:1012200023FD15F8010F0028F5D120209E4D2378CD
:10123000002B00F08F8105F017FD15F8010F002835
:10124000F5D12020994D2378002B00F07B8105F00B
:101250000BFD15F8010F0028F5D12020944D2378BF
:10126000002B00F0678105F0FFFC15F8010F002846
:10127000F5D120208F4D2378002B00F0538105F00D
:10128000F3FC15F8010F0028F5D120208A4D2378B2
:10129000002B00F03F8105F0E7FC15F8010F002856
:1012A000F5D12020854D2378002B00F02B8105F00F
:1012B000DBFC15F8010F0028F5D12020804D2378A4
:1012C000002B00F0178105F0CFFC15F8010F002866
:1012D000F5D120207B4D2378002B00F0D58005F040
:1012E000C3FC15F8010F0028F5D12020764D237896
:1012F000002B00F0C18005F0B7FC15F8010F0028A5
:10130000F5D10A20714D2378002B00F0AD8005F057
:10131000ABFC15F8010F0028F5D120206C4D237887
:10132000002B00F0998005F09FFC15F8010F0028B4
:10133000F5D12020674D2378002B00F0858005F043
:1013400093FC15F8010F0028F5D10A20624D23788F
:10135000002B72D005F088FC15F8010F0028F6D19B
:1013600020205E4D2378002B60D005F07DFC15F821
:10137000010F0028F6D12020594D2378002B4ED0A4
:1013800005F072FC15F8010F0028F6D12020554D0C
:101390002378002B3CD005F067FC15F8010F0028DE
:1013A000F6D12020504D23785BB305F05DFC15F895
:1013B000010F0028F7D10A204C4D2378D3B105F056
:1013C00053FC15F8010F0028F7D15420484D23781D
:1013D0004BB105F049FC15F8010F00283FF4CFACE4
:1013E0002378002BF5D116F06DFE15F8010F0028BB
:1013F000EDD138BD16F066FE15F8010F0028DCD1DE
:10140000E3E716F05FFE15F8010F0028CBD1D2E715
:1014100016F058FE15F8010F0028B9D1C1E716F0F3
:1014200051FE15F8010F0028A7D1AFE716F04AFECC
:1014300015F8010F002895D19DE716F043FE15F829
:10144000010F002883D18BE716F03CFE15F8010F41
:1014500000287FF470AF78E716F034FE15F8010F1E
:1014600000287FF45CAF64E716F02CFE15F8010F3E
:1014700000287FF448AF50E716F024FE15F8010F5E
:1014800000287FF434AF3CE716F01CFE15F8010F7E
:1014900000287FF420AF28E7D4BC0110A7790120F1
:1014A000E8BC01101CBD011050BD011084BD01102D
:1014B000C0BD0110F0BD011020BE011050BE0110D2
:1014C0007CBE0110ACBE0110E0BE011004BF0110D3
:1014D00018BF011048BF011070BF011080BF01107C
:1014E000D4BF011028C0011078C00110C8C001107D
:1014F00014C1011016F0E6FD15F8010F00287FF465
:10150000DEAEE6E616F0DEFD15F8010F00287FF4EA
:10151000CAAED2E616F0D6FD15F8010F00287FF40A
:10152000B6AEBEE616F0CEFD15F8010F00287FF42A
:10153000A2AEAAE616F0C6FD15F8010F00287FF44A
:101540008EAE96E616F0BEFD15F8010F00287FF46A
:101550007AAE82E616F0B6FD15F8010F00287FF48A
:1015600066AE6EE616F0AEFD15F8010F00287FF4AA
:1015700052AE5AE616F0A6FD15F8010F00287FF4CA
:101580003EAE46E616F09EFD15F8010F00287FF4EA
:101590002AAE32E64120C94DC94C2378002B00F019
:1015A000848105F061FB15F8010F0028F5D120209A
:1015B000C44D2378002B00F0708105F055FB15F821
:1015C000010F0028F5D12020BF4D2378002B00F01B
:1015D0005C8105F049FB15F8010F0028F5D12020AA
:1015E000BA4D23784BB105F03FFB15F8010F0028E9
:1015F0003FF4C5AB2378002BF5D116F063FD15F849
:10160000010F0028EDD138BD16F05CFD15F8010F73
:1016100000287FF4B5ADBDE516F054FD15F8010FB7
:1016200000287FF47DAD85E516F04CFD15F8010F1F
:1016300000287FF469AD71E516F044FD15F8010F3F
:1016400000287FF455AD5DE516F03CFD15F8010F5F
:1016500000287FF441AD49E516F034FD15F8010F7F
:1016600000287FF475AD7DE516F02CFD15F8010F0F
:1016700000287FF461AD69E516F024FD15F8010F2F
:1016800000287FF471AD79E516F01CFD15F8010F07
:1016900000287FF4D6ACDEE416F014FD15F8010F37
:1016A00000287FF4C2ACCAE416F00CFD15F8010F57
:1016B00000287FF4AEACB6E416F004FD15F8010F77
:1016C00000287FF49AACA2E416F0FCFC15F8010F98
:1016D00000287FF486AC8EE416F0F4FC15F8010FB8
:1016E00000287FF472AC7AE416F0ECFC15F8010FD8
:1016F00000287FF45EAC66E416F0E4FC15F8010FF8
:1017000000287FF44AAC52E416F0DCFC15F8010F17
:1017100000287FF436AC3EE416F0D4FC15F8010F37
:1017200000287FF422AC2AE416F0CCFC15F8010F57
:1017300000287FF40EAC16E416F0C4FC15F8010F77
:1017400000287FF4FAAB02E416F0BCFC15F8010F98
:1017500000287FF4E6ABFFF7EEBB16F0B3FC15F8FC
:10176000010F00287FF4D1ABFFF7D9BB16F0AAFC1C
:1017700015F8010F00287FF4BCABFFF7C4BB16F0CF
:10178000A1FC15F8010F00287FF4A7ABFFF7AFBB52
:1017900016F098FC15F8010F00287FF492ABFFF7C4
:1017A0009ABB16F08FFC15F8010F00287FF47DAB73
:1017B000FFF785BB16F086FC15F8010F00287FF4B3
:1017C00068ABFFF770BB16F07DFC15F8010F002821
:1017D0007FF453ABFFF75BBB16F074FC15F8010FF9
:1017E00000287FF43EABFFF746BB16F06BFC15F804
:1017F000010F00287FF429ABFFF731BB16F062FC24
:1018000015F8010F00287FF414ABFFF71CBB16F08E
:1018100059FC15F8010F00287FF4FFAAFFF707BB5A
:1018200016F050FC15F8010F00287FF4EAAAFFF724
:10183000F2BA16F047FC15F8010F00287FF4D5AA7C
:10184000FFF7DDBA16F03EFC15F8010F00287FF413
:10185000C0AAFFF7C8BA16F035FC15F8010F00282A
:101860007FF4ABAAFFF7B3BA16F02CFC15F8010F02
:1018700000287FF496AAFFF79EBA16F023FC15F80D
:10188000010F00287FF471AA38BD16F01BFC15F873
:10189000010F00287FF499AEA1E616F013FC15F8AD
:1018A000010F00287FF485AE8DE616F00BFC15F8CD
:1018B000010F00287FF471AE79E600BF84CA0110E1
:1018C000A779012098CA0110D4CA011058CB011081
:1018D0004C20364D364C2378002B60D005F0C4F9EF
:1018E00015F8010F0028F6D12020324D2378002B67
:1018F0004ED005F0B9F915F8010F0028F6D12020D7
:101900002D4D2378002B3CD005F0AEF915F8010FD2
:101910000028F6D12020294D23785BB305F0A4F9E7
:1019200015F8010F0028F7D12020254D2378D3B1D9
:1019300005F09AF915F8010F0028F7D12020214D64
:1019400023784BB105F090F915F8010F00283FF40A
:1019500016AA2378002BF5D116F0B4FB15F8010F69
:101960000028EDD138BD16F0ADFB15F8010F0028A9
:10197000DCD1E3E716F0A6FB15F8010F0028CBD168
:10198000D2E716F09FFB15F8010F0028B9D1C1E787
:1019900016F098FB15F8010F0028A7D1AFE716F055
:1019A00091FB15F8010F002895D19DE73CC9011066
:1019B000A77901204CC9011090C90110D4C90110A8
:1019C00010CA011044CA01102DE9F04FE3B00446DB
:1019D00019F00CFE002800F0EF80BB4D221812F821
:1019E000013D093BDBB2172B45FA03F140F2E780DA
:1019F0002778212F00F0EE8000223B462546CDE9D6
:101A00000222CDE9042201E015F8013F202BFBD092
:101A1000092BF9D04BB3002202A908E001F8013BE1
:101A200015F8013F3BB1202B05D0092B03D0013223
:101A3000102AF3D10F224FF0000802AB03F8028006
:101A40009DF808308BB1A14E16F8013C08F1010851
:101A500033B1304602A919F0EBFC002800F0D28027
:101A6000B8F1100F06F19106EED1002F00F0F380CF
:101A7000DFF870A2DFF87C92DAF800B0BBF1000F5B
:101A800040F33A81D9F80080914E08F11F0043429B
:101A900003F01F0300F01F0058BF5842214606EB19
:101AA000C01019F0C5FC0546002800F03A82204617
:101AB00019F09CFD05467F2D28BF7F2506EBC81633
:101AC0002A462146304619F001FB002308F101089F
:101AD000B3EB080202F01F02735508F01F0358BF52
:101AE0005342BBF11F0FC9F8003040F322817C2123
:101AF000204619F035FC002800F0CA810546002375
:101B0000204605F8013B19F071FD98B1421E2244B0
:101B10006D48C4F1010605E011F001010AD1D64279
:101B2000517007D012F80139093BDBB2172B40FA8C
:101B300003F1F1D9284606780546202E00F1010070
:101B4000F9D0092EF7D0284619F050FDA0B1421E59
:101B50002A445D48C5F1010605E011F001010AD1F2
:101B6000D642517007D012F80139093BDBB2172B6E
:101B700040FA03F1F1D92E78002E00F0E7802846D4
:101B8000544919F055FC002800F0E08028465249DD
:101B900019F04EFC002800F0D9804F204F4D504ED8
:101BA0003378002B00F0CA8005F05EF815F8010FBD
:101BB0000028F5D10023237063B0BDE8F08F11F049
:101BC000010141F0A180013811707FF408AF63B0CA
:101BD000BDE8F08F6378212B45D0601C19F068FABE
:101BE000031E40F3A6813F4A013B1268934280F2F4
:101BF000A081DFF80091364ED9F80050AD1A1D448F
:101C000040353EE02A4615F8017B202FFAD0092FF7
:101C1000F8D0354BF61A002F00F0298110363344E6
:101C200022AE009280213046304A16F01BF9214640
:101C3000304619F0FDFB50B1304619F0D7FC05468F
:101C4000314620462A4619F041FA00236355277889
:101C5000002F7FF40DAF7C21204619F081FB002876
:101C60007FF44CAFA8E7A378002BB6D11D4B1B68BF
:101C7000002B40F35E81DFF87C90154ED9F80050C0
:101C80003F356B4203F01F0305F01F0558BF5D424F
:101C900006EBC515284619F0A9FC02467F2A28BF85
:101CA0007F2229462046154619F010FA00232146C6
:101CB0000F486355FEF7A6FB204619F097FC002855
:101CC0003FF47AAF277897E6ECFF7FFFDD1B00201B
:101CD000E825002048CC011050CC011058CC011050
:101CE000A7790120E8350020DC1B002040CC011042
:101CF00064BB0110EC350020204619F077FC074644
:101D00007F2F28BF7F27D9F80050A64E3A4606EB12
:101D1000C5162146304619F0D9F900226B1CF25540
:101D2000D21A02F01F0203F01F0358BF5342C9F832
:101D300000300BF10103CAF80030D8E616F0C2F902
:101D400015F8010F00287FF42BAF33E72378002B21
:101D50003FF432AF012004F075FF27780125002FF2
:101D60006AD0234603E013F8017F002F64D0202FB0
:101D7000F9D19846002308F8013B20468A4919F01A
:101D800057FB00285AD02046884919F051FB0028FB
:101D900000F084802046864919F04AFB0746002857
:101DA00000F05E812046834919F042FB0746002877
:101DB00000F09A812046804919F03AFB0746002836
:101DC00000F0C78020467D4919F032FB002800F062
:101DD0001F8420467A4919F02BFB002800F09884D4
:101DE0002046784919F024FB002800F0DC852046C5
:101DF000754919F01DFB002800F00C862046734938
:101E000019F016FB002800F071862046704919F081
:101E10000FFB002800F0AB8626786C2E40F0B686CB
:101E20006378732B40F0B286A378002B40F0AE8627
:101E30004046FEF721FB04E0B8469EE74046FEF729
:101E400071FF012D7FF4B8AE624B00201C7804F0C6
:101E5000F9FE002C3FF4B0AE5F4B0A201B78002B3C
:101E600000F0278463B0BDE8F04F04F0FDBE1036EB
:101E70001E44304619F0BAFB02467F2A28BF7F2253
:101E80001546314622AE304619F020F97755CEE698
:101E90002778002F3FF490AE054662E7229022AEED
:101EA000CDE92300CDE92500CDE927002990B8F13F
:101EB000000F00F0C98043461A781946202A03F122
:101EC0000103F9D0092AF7D0002A00F04D863046E8
:101ED0000023424F08E00133202B00F0E88300F894
:101EE000012B11F8012F12B1BC5C2407F3D500229D
:101EF000F2543478002C00F0A7803046344919F0B1
:101F000097FA50B16C2C40F069817378732B40F0D4
:101F10006581B378002B40F061813148FEF702FF04
:101F20008FE77C21204619F01BFA00287FF4E6ADEC
:101F300017E768202B4D284E3378002B00F088805F
:101F400004F092FE15F8010F0028F5D1002323704C
:101F5000B2E6B8F1000F00F0F284404619F046FBFB
:101F60007F28024628BF7F2222AEB4184146304661
:101F700019F0ACF8002332462370144612F8013BE6
:101F8000202BFAD0092BF8D0002B00F0AC83204690
:101F900019F02CFBC0B3431E134EE218C4F101002C
:101FA0002AE000BFE825002080CC011088CC011079
:101FB00088CE011068CE011080CE0110C8D001106B
:101FC00074D10110BCCF011090D10110C4D1011007
:101FD0008CCC0110AC790120A7790120911102105D
:101FE00028CD011024CC0110ECFF7FFF11F001017E
:101FF0000AD1D042517007D012F80139093BDBB247
:10200000172B46FA03F1F1D923787BB16B4E16F802
:10201000013C013733B13046214619F009FA002856
:1020200000F07584102F06F19106F0D17520644CF4
:10203000644E3378002B00F08C8304F015FE14F806
:10204000010F0028F5D1FCE60020FEF76BFEF8E654
:1020500016F038F815F8010F00287FF46DAF75E71A
:10206000B8F1000F00F0CF82404619F0BFFA7F2888
:10207000024628BF7F2202AB9C18414602A819F0F5
:1020800025F8002202AB22701E4613F8014B202CCB
:10209000FAD0092CF8D0002C40F03A82DFF834A1B5
:1020A000DAF80020002A00F009837FF7CAAEDFF8D3
:1020B0002891454E454C3946D9F8003001379A1AD7
:1020C0000A444032534203F01F0302F01F0258BF7C
:1020D0005A4206EBC21239462046FEF793F9DAF867
:1020E00000209742E7DBACE6B8F1000F00F03A833E
:1020F000404619F07BFA7F28024628BF7F2222AE95
:10210000B4184146304618F0E1FF002332462370F0
:10211000164612F8013B202BFAD0092BF8D0002BE1
:1021200000F05283324601E0092B06D03D2B04D04B
:1021300012F8013F23B1202BF6D1002102F8011B38
:1021400011781446202902F10102F9D00929F7D0AB
:10215000002B00F02F82002900F02C82204619F07D
:1021600045FA20B3431E1A4FE218C4F1010005E0FE
:1021700011F001010AD1D042517007D012F8013993
:10218000093BDBB2172B47FA03F1F1D9204619F0CE
:102190002DFA01280BD92378222B00F03285272B2A
:1021A00005D1204410F8013C272B00F03085012395
:1021B000214630461A46FEF7B1FB42E6DD1B002001
:1021C00070D00110A7790120E8250020B0CF0110C0
:1021D000ECFF7FFFE8350020EC3500203378632BDF
:1021E00006D17378642B03D1B378002B3FF495AEFE
:1021F00030469D4919F01CF900283FF48EAE304658
:102200009A4919F015F900283FF487AE30469849ED
:1022100019F00EF900283FF480AE3046954919F0C8
:1022200007F900283FF479AE3046934919F000F9D8
:1022300000283FF472AE3378722B06D173786D2B81
:1022400003D1B378002B3FF468AE3378632B06D10B
:102250007378702B03D1B378002B3FF45EAE304619
:10226000864919F0E5F800283FF457AE3046844916
:1022700019F0DEF800283FF450AE3046814919F0DD
:10228000D7F800283FF449AE30467F4919F0D0F81E
:1022900000283FF442AE30467C4919F0C9F80028C6
:1022A0003FF43BAE30467A4919F0C2F800283FF4BB
:1022B00034AE3046774919F0BBF800283FF42DAE14
:1022C0003046754919F0B4F800283FF426AE304680
:1022D000724919F0ADF800283FF41FAE304670493E
:1022E00019F0A6F800283FF418AE30466D4919F0F1
:1022F0009FF800283FF411AE30466B4919F098F86A
:1023000000283FF40AAE3046684919F091F80028D9
:102310003FF403AE3046664919F08AF800283FF4CE
:10232000FCAD3046634919F083F800283FF4F5AD61
:102330003046614919F07CF800283FF4EEAD304694
:102340005E4919F075F8002800F05F8630465C4958
:1023500019F06EF8002800F058863046594919F0F7
:1023600067F8002800F051863046574919F060F8A8
:10237000002800F055863046544919F059F80028D5
:1023800000F04E863046524919F052F8002800F00D
:10239000478630464F4919F04BF8002800F0408638
:1023A00030464D4919F044F8002800F0398630468F
:1023B0004A4919F03DF8002800F022863046484985
:1023C00019F036F8002800F01B863046454919F010
:1023D0002FF8002800F014863046434919F028F8F9
:1023E00080B13046414919F023F858B13046404990
:1023F00019F01EF830B130463E4919F019F800289E
:1024000040F008863C4C01E0FDF7F2FF14F8010BA8
:102410000028F9D1394C01E0FDF7EAFF14F8010B6F
:102420000028F9D1364C01E0FDF7E2FF14F8010B6A
:102430000028F9D1334C01E0FDF7DAFF14F8010B65
:102440000028F9D1304C01E0FDF7D2FF14F8010B60
:102450000028F9D12D4C01E0FDF7CAFF14F8010B5B
:102460000028F9D1EDE400BF94CC011098CC011004
:102470009CCC0110A4CC0110ACCC0110B4CC011048
:10248000B8CC0110C0CC0110C8CC0110CCCC0110CC
:102490007C030210D0CC0110D8CC0110E0CC01108C
:1024A000E8CC0110F0CC0110F8CC011000CD0110E7
:1024B00008CD011014CD01101CCD01102CCD011040
:1024C00034CD011038CD011040CD011058CD011090
:1024D00060CD011068CD011014F301107CCA011009
:1024E00028CD011034C9011068CE011080CE011032
:1024F00088CE011088CC011070CE01108CC1011063
:1025000090CE0110D0CE011004CF011034CF0110B5
:102510003046974918F08CFF0746002800F02482C7
:1025200004223046934919F08FF838B1052230461D
:10253000914919F089F8002840F04C82722C14BFA0
:10254000052304233344184613F8012B202AFAD01C
:10255000092AF8D018F0ACFD421E00F17582874BB5
:1025600019688A4280F27082854B864F1B6822ACC4
:102570005B1A134440335A4202F01F0203F01F0358
:1025800058BF534207EBC317384619F02FF80646D9
:102590007F2E28BF7F2639463246204618F096FD0A
:1025A000002321467848A355FDF72CFF2046FFF76E
:1025B0000BFA46E433789BB14FF00008734C14F8E3
:1025C000013C013733B12046314618F031FF002875
:1025D00000F0B380102F08F1910804F19104EED1BE
:1025E00061206B4C6B4E337833B104F03DFB14F833
:1025F000010F0028F7D124E415F064FD14F8010F51
:102600000028F0D11DE4424602ACDFF8B88134E581
:102610004D20614C5F4E3378002B32D004F024FB08
:1026200014F8010F0028F6D14FF4A0725B48114650
:10263000FDF7E8FE20205A4C33784BB304F014FB2E
:1026400014F8010F0028F7D12020564C33788BB1B5
:1026500004F00AFB14F8010F0028F7D12020524C97
:102660003378E3B104F000FB14F8010F0028F7D130
:10267000FFF7E7BB15F026FD14F8010F0028E5D1A0
:10268000ECE715F01FFD14F8010F0028C3D1CBE7CC
:1026900015F018FD14F8010F0028CDD1D4E715F07E
:1026A00011FD14F8010F0028DAD1FFF7CABB1F2370
:1026B0001DE463B0BDE8F04F15F004BD68203B4C4D
:1026C000344E33783BB104F0CFFA14F8010F0028F0
:1026D000F7D1FFF7B6BB15F0F5FC14F8010F002891
:1026E000EFD1FFF7AEBB7520314C2A4E33783BB1AA
:1026F00004F0BAFA14F8010F0028F7D1FFF7A1BBD4
:1027000015F0E0FC14F8010F0028EFD1FFF799BB9A
:10271000284BD3E9004613F07FFA001B4FF47A727E
:102720004FF0000361EB060119F0CAF902460B46AF
:102730002148FDF767FEFFF784BB204908F111022D
:1027400008F101080A441E484144FDF75BFEFFF70B
:1027500078BB15F0B7FC14F8010F00287FF469ACC2
:10276000FFF76FBB22AE42463446DFF85880C8E41C
:10277000BCCF0110D8CF0110E0CF0110E835002008
:10278000EC350020E825002064BB0110DD1B002093
:1027900044D00110A7790120D0D00110FCD0011045
:1027A0001CD101103CD1011058D10110A0CF011053
:1027B00058D00110B01B00207CD10110DC1B002080
:1027C000C4BC011074070210AA4C237833B1AA4884
:1027D00004F11102611CFDF715FE012794F89130F8
:1027E00033B1A64AA448A2F110010137FDF70AFE51
:1027F00094F8223133B1A24A9F48A2F11001013767
:10280000FDF700FE94F8B33133B19E4A9A48A2F125
:1028100010010137FDF7F6FD94F8443233B19A4ABE
:102820009548A2F110010137FDF7ECFD94F8D5327F
:1028300033B1964A9048A2F110010137FDF7E2FD4D
:1028400094F8663333B1924A8B48A2F110010137F4
:10285000FDF7D8FD94F8F73333B18E4A8648A2F1DC
:1028600010010137FDF7CEFD94F8883433B18A4A60
:102870008148A2F110010137FDF7C4FD94F8193524
:1028800033B1864A7C48A2F110010137FDF7BAFD49
:1028900094F8AA3533B1824A7748A2F11001013782
:1028A000FDF7B0FD94F83B3633B17E4A7248A2F191
:1028B00010010137FDF7A6FD94F8CC3633B17A4A02
:1028C0006D48A2F110010137FDF79CFD94F85D37CA
:1028D000002B00F02281754A6748A2F11001FDF734
:1028E00091FD94F8EE372BB1714A6348A2F11001C3
:1028F000FDF788FD94F87F38002B3FF4A2AA6D4ABB
:102900005D48A2F11001FDF77DFDFFF79ABA01467F
:102910009122701E18F0D0FC674B1B78F3B1FDF7C5
:1029200025FFD8B97520654C654E337873B104F036
:102930009BF914F8010F0028F7D1FFF782BA22AEF5
:1029400042463446DFF8A081FFF710BB15F0BAFB12
:1029500014F8010F0028E8D1FFF773BA214659484F
:10296000FDF750FDFFF76DBA4FF48052014656480F
:1029700018F0A2FC6820554A554B564C504E176033
:102980001F6033783BB104F06FF914F8010F002891
:10299000F7D1FFF756BA15F095FB14F8010F002890
:1029A000EFD1FFF74EBA01F0BDFC1B204A4C444E5C
:1029B00033783BB104F058F914F8010F0028F7D12F
:1029C000FFF73FBA15F07EFB14F8010F0028EFD196
:1029D000FFF737BA304618F06BFB421E014600F194
:1029E0007E813A4B1868824280F27981384B1B68AD
:1029F0001B1A134440335A4202F01F0203F01F0314
:102A000058BF5342304A354802EBC312FDF7FAFC77
:102A1000FFF717BA01F000FE011E80F2A0804220ED
:102A20002F4C274E33783BB104F01EF914F8010FF8
:102A30000028F7D1FFF705BA15F044FB14F8010F91
:102A40000028EFD1FFF7FDB96820264C1C4E3378E3
:102A50003BB104F009F914F8010F0028F7D1FFF792
:102A6000F0B915F02FFB14F8010F0028EFD1FFF794
:102A7000E8B900BFDC1B0020C4BC01107E1C002094
:102A80000F1D0020A01D0020311E0020C21E0020AE
:102A9000531F0020E41F0020752000200621002085
:102AA0009721002028220020B92200204A2300205C
:102AB000DB2300206C240020A679012084D00110A3
:102AC000A7790120B0D00110E8250020E8350020CA
:102AD000EC350020C4CF011088D10110B0CF011017
:102AE00098D10110E8CF011074070210B8F1000F5F
:102AF00000F0938098F80030002B00F08E80404664
:102B000018F0D6FA80F30804E0B201F069FD21461E
:102B1000BB48FDF777FCFFF794B994F8EE37002B2C
:102B20007FF4E2AE94F87F38002B7FF4E8AE002FFC
:102B30007FF487A96120B34CB34E33783BB104F0E6
:102B400093F814F8010F0028F7D1FFF77AB915F0C0
:102B5000B9FA14F8010F0028EFD1FFF772B9AB48AA
:102B6000FDF750FCFFF76DB91346FFF7C0B903F04E
:102B7000BBF9B0FA80F3A64A5B09137003F006FDB7
:102B80000146A448FDF73EFCFFF75BB92046A24989
:102B900018F04EFC00283FF44BA9632E52D1637805
:102BA000642B4FD1A378002B4CD1994B1B78002B71
:102BB00000F00582B8F1000F00F01F8298F80020A5
:102BC000964B002A08BF9846404622A9FDF752FBC3
:102BD00022A803F0E9FC0446002840F00582904B4F
:102BE000FF22184622A918F071FD8E4E014680F88A
:102BF000FF40FF22304618F069FD86F8FF40FFF7DE
:102C000020B9204410F8013C222B7FF4D0AA0023E5
:102C1000013400F8013CFFF7CABA7520824C7A4EA5
:102C200033783BB104F020F814F8010F0028F7D1F5
:102C3000FFF707B915F046FA14F8010F0028EFD195
:102C4000FFF7FFB82046794918F0F2FB002800F0A2
:102C50008E812046764918F0EBFB002800F0828137
:102C60002046744918F0E4FB002800F05D812046FE
:102C7000714918F0DDFB0646002800F0338120463C
:102C80006E4918F0D5FB002800F0B58020466C494D
:102C900018F0CEFB002800F08F802046694918F01C
:102CA000C7FB002867D02046674918F0C1FB002801
:102CB00057D02046654918F0BBFB002846D0204677
:102CC000634918F0B5FB88BB624E4F4F16F8014BB5
:102CD00014B33B782046E3B103F0C6FFF6E7752056
:102CE0005D4C494E33783BB103F0BEFF14F8010F41
:102CF0000028F7D1FFF7A5B815F0E4F914F8010F93
:102D00000028EFD1FFF79DB800287EF471AEFEF7E2
:102D100053BF15F0D7F9D9E7642012F0C3FE64223F
:102D20002146204613F0BCFAFFF78BB841462046F7
:102D300011F066FE78B13A4BFF221846394918F077
:102D4000C5FC002280F8FF20FFF77BB84046FDF766
:102D5000D9FBFFF776B821464048FDF753FBFFF754
:102D600070B801F031FF02F0E9F901463C48FDF787
:102D700049FBFFF766B8264B1B78002B00F0A080BC
:102D8000B8F1000F00F0908098F80030002B00F0B0
:102D90008B80404622A9FDF76DFA22A803F002FDC0
:102DA00000283FF44EA803F0F1FB22A902462D486B
:102DB000FDF728FBFFF745B8154B1B78002B61D0BA
:102DC000B8F1000F52D098F80030002B4ED022AE50
:102DD00040463146FDF74EFA304603F007FC002826
:102DE0003FF42FA803F0D2FB314602461E48FDF700
:102DF00009FBFFF726B84046FDF704FDFFF721B8B1
:102E0000ECD1011028D00110A7790120B4D1011014
:102E1000A67901200CD2011018D2011038BB011084
:102E20006012002060130020D0D1011094CC01105A
:102E300098CC011028D201109CCC0110A4CC011018
:102E4000ACCC011080D20110A4D20110BCD2011070
:102E5000C4D20110CCD2011008D00110DCD2011074
:102E6000ACD2011098D2011070D20110854C864E60
:102E700014F8010B00283EF4E4AF337873B103F08B
:102E8000F3FEF5E7814C804E14F8010B00283EF468
:102E9000D8AF33782BB103F0E7FEF5E715F012F960
:102EA000E6E715F00FF9EFE7794C774E14F8010BD0
:102EB00000283EF4C6AF337873B103F0D5FEF5E7D2
:102EC000724C714E14F8010B00283EF4BAAF3378FF
:102ED0002BB103F0C9FEF5E715F0F4F8E6E715F0BD
:102EE000F1F8EFE76B4B1B78002B49D0B8F1000FDE
:102EF0002CD098F800304BB3404622A9FDF7BAF920
:102F00003246314622A803F0F3FD821D3EF499AF0C
:102F100000283EF496AF03F039FB22A902465E4832
:102F2000FDF770FAFEF78DBFB8F1000F3AD098F8B0
:102F30000030002B36D0544E08F1FF3818F8010F3E
:102F400088B3337843B303F08FFEF7E7534C4E4E0C
:102F500014F8010B00283EF474AF33786BB103F022
:102F600083FEF5E74046FDF783FBFEF76ABF4C4959
:102F70004C48FDF747FAFEF764BF15F0A3F8E7E702
:102F8000424C414E14F8010B00283EF45AAF3378FE
:102F90002BB103F069FEF5E715F094F8CEE715F0D4
:102FA00091F8EFE7384E337823B10A2003F05CFE46
:102FB000FEF747BF0A2015F085F8FEF742BF4E2006
:102FC000324C314E33783BB103F04EFE14F8010F12
:102FD0000028F7D1FEF735BF15F074F814F8010F8B
:102FE0000028EFD1FEF72DBF03F0D0FA22A9024648
:102FF0002D48FDF707FAFEF724BFDFF8D080E3E5A0
:103000003046FDF78FFEFEF71CBF2848FDF78AFE0D
:10301000FEF717BF31462648FDF7F4F9FEF711BF5A
:10302000244C01E0FDF7E4F914F8010B0028F9D174
:10303000214C01E0FDF7DCF914F8010B0028F9D16F
:103040001E4C01E0FDF7D4F914F8010B0028F9D16A
:103050001B4C01E0FDF7CCF914F8010B0028F9D165
:10306000184C01E0FDF7C4F914F8010B0028F9D160
:10307000154C01E0FDF7BCF914F8010B0028F9D15B
:10308000FEF7DFBE58D20110A779012068BB0110FE
:1030900084D20110A679012048D2011030D201104B
:1030A0006012002064BB01101CD2011034C9011051
:1030B00064CF011048CD011070CD0110A0CD0110DA
:1030C000D0CD011000CE011030CE011038BB011060
:1030D0002DE9F047A2B06946984802AB01AA12F068
:1030E000D1FF18B99549964811F020FDDDE901128C
:1030F000009812F005FF15F03BF8FA2012F0D2FC10
:10310000172011F0EFFC0126172346EC443046EC63
:10311000403012F081FD804689468A4BDFF840C27C
:10312000FF2218468849CCE90089002718F0CEFA1A
:1031300080F8FF7001F0BEF9FF2001F051FA142071
:1031400012F0B0FC814D00F0CDFAFF2001F048FAFA
:1031500038462E7001F0E6F81B207D4C2B78002BB2
:1031600000F0D58003F080FD14F8010F0028F5D1A0
:1031700040F2DC5012F096FC01F026FD002800F031
:10318000D2804D20734C2B78002B00F0B88003F0D8
:103190006BFD14F8010F0028F5D100246A496E4830
:1031A000FDF730F98022002102A818F085F82646A4
:1031B000DFF8B091DFF89081674F002014F0E0FF56
:1031C000831C73D0002875DB1B2831DC072835DD14
:1031D000A0F10803132B31D801A252F823F000BF4D
:1031E000BD3200103D320010753200103D3200102B
:1031F0003D320010753200103D3200103D3200109B
:103200003D3200103D3200103D3200103D320010C2
:103210003D3200103D3200103D3200103D320010B2
:103220003D3200103D3200103D320010BB31001025
:103230007F2843D0A0F1B403032BBED9C0B219F844
:10324000003013F0970FB8D07E2CB6DC04F1010AE1
:1032500004F188030DEB03040AF188022B786A4419
:1032600004F8800C02F8806C002B58D003F0FCFCB2
:103270005446A2E72B780A20002B3DD003F0F4FC43
:1032800004F188036B4403F8806C14B102A8FEF7C4
:103290009BFB414638468DF80860FDF7B3F80020E7
:1032A00014F06EFF831C4FF000048BD101F022F963
:1032B000002889DA142012F0F5FB7EE7002CEED00E
:1032C0000820013C04F188036B44DFF89CA003F85C
:1032D000806C2B784BB103F0C7FC1AF8010F002863
:1032E0003FF46BAF2B78002BF5D114F0EBFE1AF8FE
:1032F000010F0028EDD160E714F0E4FEC0E714F000
:10330000E1FE14F8010F00287FF43DAF45E714F00B
:10331000D9FE14F8010F00287FF420AF28E714F03D
:10332000D1FE544649E702F0DFFD00287FF429AFC3
:1033300001220A4B1A70FDF73BFC22E788070200C6
:10334000F8D201106013002060120020A77901203C
:1033500088D101102CD301104CD30110A679012083
:10336000B01B0020911102105CD301102DE9F04F29
:10337000002485B00D258246914627460091019391
:1033800044EC40500E2544EC40504FF0010B2A23F2
:10339000264E5A4630460DF109018DF8093018F0D5
:1033A000A3FB4BEC405022464FEA1A2161F307027F
:1033B0006AF30F224FEA192161F3174269F31F6282
:1033C00003923046042203A918F08EFB44EC4050CF
:1033D0002B2230468DF80A200DF10A015A4618F0CA
:1033E00083FB4BEC4050009803AA019B1146020A54
:1033F00062F3070460F30F241A0A62F3174463F3BD
:103400001F6404223046039418F06EFB47EC4050D2
:103410002C245A4630460DF10B018DF80B4018F064
:1034200063FB4BEC405005B0BDE8F08F00800840D6
:103430002DE9F04F0024854987B04FF43E72A1F189
:10344000280017F0B9FE28222021814817F034FF08
:1034500013214FF4484926467E487F4A7F4F804BD0
:10346000DFF814B203F5727A0460116004974FF02C
:103470000004002140F2D7387A4B01911868059674
:10348000030C03F0FC02030A03F0FC0362F30704DD
:103490000292039300F0FC0063F30F247249049F2F
:1034A0006F4A01EB08060639A8F57073424401EB38
:1034B0000805009760E04FF0000E22F80F9CA3F182
:1034C000150C4F060AF80CE04BBF4FF0000E864675
:1034D000A5F800902C80A3F1120C8F060AF80CE0DE
:1034E0004BBF4FF0000E864622F8099C22F8094C8B
:1034F000A3F10F0CCF060AF80CE04BBF4FF0000E03
:103500008646A6F800903480A3F10C0C0F070AF849
:103510000CE04BBF4FF0000E864622F8039C22F8C9
:10352000034CA3F1090C4F070AF80CE04BBF4FF016
:10353000000E8646A2F800901480A3F1060C8F07B7
:103540000AF80CE04BBF4FF0000E8646A2F803903D
:10355000A2F80340A3F1030CC9070AF80CE02CD42D
:10356000D4800AF803001833984502F1180206F1D6
:10357000180605F1180527D0009F17F8011F2039FC
:103580005FFA81FCBCF15E0F88BF4FF4F8710097C1
:10359000019F98BF090139441BF901C01BF80110B4
:1035A000BCF1000F87DB029F864602F80F7C039F69
:1035B000A3F1150C02F80E7C83E74FF00001A2F88E
:1035C00006900AF80310CEE7019B08F570780133E6
:1035D000019343F6D77398457FF460AF059E234C63
:1035E00006F10F039BB240F23F1231460020FFF775
:1035F000BDFE4FF4705220461D4918F075FAE3687D
:103600005F0703D5A368E3685D07FBD4174BDA684F
:10361000D006FCD4DB68590704D5144B9A68DA68E5
:103620005207FBD4012311490D220B6243EC4020C9
:10363000049A06F110039EB20E4B28329A4204926D
:103640007FF415AF07B0BDE8F08F00BF54380020FD
:10365000243B0020D4250020D82500202B38002032
:10366000B4390120F0240020AE3901200080084048
:103670007C3D01204B3B002060D301100EB42DE9AE
:10368000F04183B00AAB4FF00E084FF000060193F3
:1036900046EC40800D2446EC40403623104F01227A
:1036A00038460DF103018DF8033018F01DFA0122A0
:1036B000154642EC404042EC408046EC4040019BC5
:1036C00038461B680DF103018DF8033018F00CFA31
:1036D00045EC404003B0BDE8F04103B0704700BF87
:1036E000008008402DE9F04F0A2083B011F0FAF96C
:1036F0000B2011F0F7F90C2011F0F4F90D2011F066
:10370000F1F90E2011F0EEF90F2011F0EBF901277D
:103710000A2347EC44300B2647EC44600D2447EC69
:1037200044404FF00E0947EC44904FF00F0A47EC2D
:1037300044A0DFF80C83BD49404617F06DFA022122
:10374000BB4BD8F804205960D8F80030B94983F051
:10375000070303F0CF030B60B74B02F002025A607D
:1037600039460A2011F06CF93946304611F068F9F3
:1037700039460C2011F064F939460C2011F092F909
:1037800047EC404047EC40A000225046114611F063
:1037900075F900223946504611F070F947EC40A007
:1037A0004FF0000B42F21070002112F063F95A46FC
:1037B0005046594611F062F93A465946504611F0C2
:1037C0005DF94BEC40A042F21070002112F052F96A
:1037D0005A465946504611F051F95A463946504614
:1037E00011F04CF947EC40A00021944812F042F946
:1037F0004BEC40904BEC4040E0233A4640460DF104
:1038000007018DF8073018F06FF947EC404047EC9E
:1038100040904BEC40403A4640460DF107018DF890
:1038200007B018F061F947EC404047EC40904BEC92
:1038300040404FF003033A4640460DF107018DF832
:10384000073018F051F947EC404047EC40904BEC02
:1038500040404FF0090C3A4640460DF107018DF803
:1038600007C018F041F947EC404047EC40904BEC62
:10387000404008233A4640460DF107018DF80730D5
:1038800018F032F947EC404047EC40904BEC404098
:103890004FF016033A4640460DF107018DF8073008
:1038A00018F022F947EC404047EC40904BEC404088
:1038B0004FF00A0240468DF807200DF107013A4605
:1038C00018F012F947EC404047EC40904BEC404078
:1038D0003F2240468DF807200DF107013A4618F0C7
:1038E00003F947EC404047EC40904BEC40404FF030
:1038F000780E3A4640460DF107018DF807E018F0C2
:10390000F3F847EC404047EC40904BEC40404C22F1
:1039100040468DF807200DF107013A4618F0E4F80B
:1039200047EC404047EC40904BEC40404FF0090CD6
:103930003A4640460DF107018DF807C018F0D4F85B
:1039400047EC404047EC40904BEC40404FF00A02BF
:1039500040468DF807200DF107013A4618F0C4F8EB
:1039600047EC404047EC40904BEC404008233A463F
:1039700040460DF107018DF8073018F0B5F847EC17
:10398000404047EC40904BEC40404FF016033A4625
:1039900040460DF107018DF8073018F0A5F847EC07
:1039A000404047EC40904BEC40401A2240468DF896
:1039B00007200DF107013A4618F096F847EC404011
:1039C00047EC40904BEC40403A4640460DF1070131
:1039D0008DF807A018F088F847EC40404BEC409079
:1039E0004BEC4040E12240468DF807200DF10701E5
:1039F0003A4618F079F847EC404047EC40904BECE1
:103A000040403A4640460DF107018DF807B018F0E6
:103A10006BF847EC404047EC40904BEC40404FF097
:103A200016033A4640460DF107010BE040787D0150
:103A300000B008400090084000A00840400D03007E
:103A4000008008408DF8073018F04EF847EC4040F1
:103A500047EC40904BEC404019233A4640460DF16C
:103A600007018DF8073018F03FF847EC404047EC6D
:103A700040904BEC40404FF003033A4640460DF176
:103A800007018DF8073018F02FF847EC404047EC5D
:103A900040904BEC40403A4640460DF107018DF80E
:103AA00007A018F021F847EC404047EC40904BEC61
:103AB000404005233A4640460DF107018DF8073096
:103AC00018F012F847EC404047EC40904BEC404077
:103AD00032233A4640460DF107018DF8073018F0C1
:103AE00003F847EC404047EC40904BEC4040452306
:103AF0003A4640460DF107018DF8073017F0F4FF04
:103B000047EC404047EC40904BEC404046233A465F
:103B100040460DF107018DF8073017F0E5FF47EC3F
:103B2000404047EC40904BEC404004233A4640462E
:103B30000DF107018DF8073017F0D6FF47EC404034
:103B400047EC40904BEC40403A4640460DF10701AF
:103B50008DF8079017F0C8FF47EC404047EC4090C5
:103B60004BEC40403A4640460DF107018DF80740C6
:103B700017F0BAFF47EC404047EC40904BEC404018
:103B800035233A4640460DF107018DF8073017F00E
:103B9000ABFF47EC404047EC40904BEC40403723B4
:103BA0003A4640460DF107018DF8073017F09CFFAB
:103BB00047EC404047EC40904BEC40403A46404692
:103BC0000DF107018DF807A017F08EFF47EC40407C
:103BD0004BEC40904BEC4040C0233A4640460DF140
:103BE00007018DF8073017F07FFF47EC404047ECA6
:103BF00040904BEC404017233A4640460DF10701F8
:103C00008DF8073017F070FF47EC404047EC4090CC
:103C10004BEC404015233A4640460DF107018DF824
:103C2000073017F061FF47EC40404BEC40904BEC05
:103C30004040C1233A4640460DF107018DF8073058
:103C400017F052FF47EC404047EC40904BEC4040AF
:103C500041233A4640460DF107018DF8073017F031
:103C600043FF47EC40404BEC40904BEC4040C523B9
:103C70003A4640460DF107018DF8073017F034FF42
:103C800047EC404047EC40904BEC40403A464046C1
:103C90000DF107018DF807B017F026FF47EC404003
:103CA00047EC40904BEC404012233A4640460DF121
:103CB00007018DF8073017F017FF47EC404047EC3D
:103CC00040904BEC404080233A4640460DF10701BE
:103CD0008DF8073017F008FF47EC40404BEC409060
:103CE0004BEC40404FF0360A3A4640460DF1070192
:103CF0008DF807A017F0F8FE47EC404047EC4090E5
:103D00004BEC404048233A4640460DF107018DF800
:103D1000073017F0E9FE47EC40404BEC40904BEC8D
:103D200040403A2240468DF807200DF107013A46FF
:103D300017F0DAFE47EC404047EC40904BEC404037
:103D4000662240468DF807200DF107013A4617F02C
:103D5000CBFE47EC40404BEC40904BEC4040B02257
:103D600040468DF807200DF107013A4617F0BCFEDA
:103D700047EC404047EC40904BEC40403A464046D0
:103D80000DF107018DF807B017F0AEFE47EC40408B
:103D90004BEC40904BEC4040B12240468DF8072060
:103DA0000DF107013A4617F09FFE47EC404047EC03
:103DB00040904BEC4040A02240468DF807200DF18A
:103DC00007013A4617F090FE47EC40404BEC40901C
:103DD0004BEC4040212240468DF807200DF10701B1
:103DE0003A4617F081FE47EC40404BEC40904BECDC
:103DF0004040B42240468DF807200DF107013A46B5
:103E000017F072FE47EC404047EC40904BEC4040CE
:103E10004FF002033A4640460DF107018DF8073096
:103E200017F062FE47EC40404BEC40904BEC4040BA
:103E3000B62240468DF807200DF107013A4617F0EB
:103E400053FE47EC404047EC40904BEC40404FF075
:103E500002033A4640460DF107018DF8073017F08E
:103E600043FE47EC404047EC40904BEC40404FF065
:103E700002033A4640460DF107018DF8073017F06E
:103E800033FE47EC404047EC40904BEC40403B2237
:103E900040468DF807200DF107013A4617F024FE41
:103EA00047EC40404BEC40904BEC4040B722404642
:103EB0008DF807200DF107013A4617F015FE47EC83
:103EC000404047EC40904BEC4040C62240468DF8C5
:103ED00007200DF107013A4617F006FE47EC404077
:103EE0004BEC40904BEC4040E92240468DF80720D7
:103EF0000DF107013A4617F0F7FD47EC404047EC5B
:103F000040904BEC40403A4640460DF107018DF899
:103F100007B017F0E9FD47EC40404BEC40904BEC0C
:103F20004040F72240468DF807200DF107013A4640
:103F300017F0DAFD47EC404047EC40904BEC404036
:103F4000A92240468DF807200DF107013A4617F0E7
:103F5000CBFD47EC404047EC40904BEC40405122B9
:103F600040468DF807200DF107013A4617F0BCFDD9
:103F700047EC404047EC40904BEC40402C22404600
:103F80008DF807200DF107013A4617F0ADFD47EC1B
:103F9000404047EC40904BEC4040822240468DF838
:103FA00007200DF107013A4617F09EFD47EC40400F
:103FB0004BEC40904BEC4040112240468DF80720DE
:103FC0000DF107013A4617F08FFD47EC404078208D
:103FD00011F068FD4BEC40904BEC404029224046EC
:103FE0008DF807200DF107013A4617F07DFD47ECEB
:103FF0004040782011F056FD482339461A46504675
:1040000003B0BDE8F04FFFF739BB00BF002170B52A
:104010000A460C464FEA104C4FEA102E0CF0FC0CEE
:104020000EF0FC0E00F0FC006CF3070260F30701D9
:104030006EF30704244B6CF30F2160F30F246EF32F
:104040000F226EF317416CF3174460F3174203F528
:1040500070756EF31F6460F31F616CF31F6243F8A9
:10406000041C43E903240C339D42F8D140F23F1372
:1040700000211A4608464FF4A074144E144DFFF761
:1040800075F94FF470722946104817F02DFD013C68
:10409000F7D1F3685D0704D50C4B9A68DA685407CA
:1040A000FBD40A4AD368D806FCD4D368590704D590
:1040B000064B9A68DA685207FBD4012303490D22A4
:1040C0000B6243EC402070BD903801200080084016
:1040D00084380120B0F5A07F03D2B1F5A07F0B4654
:1040E00000D3704730B5144683B00246FFF73EF95F
:1040F000210C230A21F0030123F0030324F003021F
:104100008DF805304FF001050E238DF804108DF861
:10411000062045EC40300D244FF0000343EC4040B6
:10412000032201A9034817F0DFFC45EC404003B02F
:1041300030BD00BF008008402DE9F04F4FF0000473
:10414000203A0F46D1B25E2988BF4FF4F876A646D2
:104150008046E7B0709D714998BF16014FEA134B36
:104160004FEA154A0AF0FC0A0BF0FC0B0E4403F070
:10417000FC00190A2B0A03F0FC0301F0FC016BF3AD
:1041800007046AF3070E039363F30F2E05F0FC0C8C
:10419000172240F29719CDE90487029161F30F24A9
:1041A0000DF121030DF11B05CDF804A06FE0804651
:1041B000029F03F809BC03F8087CA2F115070DF172
:1041C000180A0AF807804F0654BFE0468046A2F15D
:1041D00012070DF1180A54BFA5F800E02C800AF868
:1041E00007808F0654BFE0468046A2F10F070DF10D
:1041F000180A54BF23F803EC23F8034C0AF807808D
:10420000CF0654BFE0468046A2F10C070DF1180A14
:1042100054BFA3F800E01C800AF807800F0754BFC2
:10422000E0468046A2F109070DF1180A54BFA3F831
:1042300003E0A3F803400AF807804F0754BFE046A5
:104240008046A2F106070DF1180A54BFA3F806E054
:10425000DC800AF807808F0754BFE0468046A2F151
:1042600003070DF1180A54BFA3F809E0A3F80940A9
:104270000AF80780CF0718D4A3F80CE00AF802C0A8
:1042800018324A4503F1180305F1180517D016F83E
:10429000011F0F068BD4019FE04603F8097C039FA2
:1042A00003F8087CA2F1150789E706A99C818854C8
:1042B00018324A4503F1180305F11805E7D1DDE985
:1042C0000487174C07F10F0308F107029BB2394628
:1042D000404692B2FFF74AF84FF4C072204606A952
:1042E00017F002FCE3685E0703D5A368E3685D0787
:1042F000FBD40B4AD368D806FCD4D368590704D53D
:10430000074B9A68DA685207FBD4012304490D224F
:104310000B6243EC402067B0BDE8F08F5FD3011023
:104320000080084010B50446084B4FF44872202125
:1043300007481C6016F0C0FF2046FFF767FE002309
:104340000449054A0B60136010BD00BFF024002033
:104350002C380020D4250020D82500200A2834D06D
:104360000D28024652D0F0B52B4D08282B6883B09B
:104370004FEA031189B232D02038C0B25F2828BF7B
:104380003F22264C264827680068264E03EB83030D
:10439000009006EBC303F800DA5580B24FF44843AF
:1043A000FFF7CAFE23680133272B02DC236003B02A
:1043B000F0BD00222B6822600133132B2B60F6DD49
:1043C00003B0BDE8F040FFF733B80020124A1349AC
:1043D000136808600133132B13601BDC70470F4C0C
:1043E00020680028E3DD20220E4D03EB830305EB5C
:1043F000C3050B4B01381B68206000932A54C00092
:104400004FF4484380B2FFF797FED0E70022034BFA
:104410001A607047FFF70CB8D8250020D42500207B
:10442000F02400202C38002010B586B08DF8140040
:104430008DF8151011F0F0FB4CF250334FF0FF34B3
:104440006FF00042C01841F10001844272EB010399
:104450003CBF20461146002405AA0223CDE90201F3
:1044600000941F21124816F0E7FD102011F01AFBEE
:10447000ADF8164011F0D0FB4CF250334FF0FF3442
:104480006FF00042C01841F10001844272EB010359
:104490003CBF204611460024CDE9020102231F2122
:1044A0000DF116020094024816F0E4FD06B010BDAE
:1044B0001815002008B542F210710C4816F096FD50
:1044C0000321062010F0BCFA0321072010F0B8FAEF
:1044D00000220121062010F0D1FA0022012107203C
:1044E00010F0CCFA0122024B1A6008BD181500200A
:1044F000F0350020374B1B68002B68D0092310B51E
:1045000086B08DF8153011F087FB4CF250334FF028
:10451000FF346FF00042C01841F10001844272EB99
:1045200001033CBF204611460024CDE902010123CE
:104530001F2129480DF11502009416F07DFDA042BF
:104540003FDB102011F0AEFAADF8164011F064FB1D
:104550004CF250334FF0FF346FF00042C01841F17D
:104560000001844272EB01033CBF20461146002447
:10457000CDE9020102231F2117480DF11602009414
:1045800016F078FDA0421CDBBDF81600C8B147F656
:104590000363984218D047F6026398420ED0C3B224
:1045A000012B4FEA10200CD10C4B1B6823B1A0F15A
:1045B0006103192B98BF603806B010BD0122074B6C
:1045C0001A604FF0FF30F7E7044B1C60F9E74FF03B
:1045D000FF307047F035002018150020BC25002062
:1045E00038B50C4D2B686BB1F028014628BFF0217F
:1045F0004B1E0E2B044698BF10218520FFF714FF99
:104600002B6803B938BD2146BDE838408A20FFF742
:104610000BBF00BFF03500202A4B1B68002B4ED08B
:104620000B2310B586B08DF8153011F0F5FA4CF269
:1046300050334FF0FF346FF00042C01841F10001D9
:10464000844272EB01033CBF204611460024CDE9B1
:10465000020101231F211C480DF11502009416F0E0
:10466000EBFCA04228DB102011F01CFAADF816403C
:1046700011F0D2FA4CF250334FF0FF346FF0004299
:10468000C01841F10001844272EB01033CBF204697
:1046900011460024CDE9020102231F210A480DF131
:1046A0001602009416F0E6FCA04205DBBDF81600E9
:1046B000C0F3062006B010BD4FF0FF30FAE74FF010
:1046C000FF307047F0350020181500202DE9F84321
:1046D0004FF000084FF00809FF244FF0010746464D
:1046E0001323E20942EC4030022011F09FFA122518
:1046F00047EC40504FF050435B680220C3F3004347
:1047000043EA48035FFA83F811F090FA46EC405010
:104710006400B9F10109E4B2E2D14046BDE8F88392
:104720002DE9F04108254FF001084FF0000704463D
:104730001323E20942EC4030022011F077FA1226EE
:1047400048EC40604FF0504302205B6811F06EFA75
:1047500047EC40606400013DE4B2E9D1BDE8F0817E
:104760002DE9F04742F2107406460D4682B004E08F
:10477000052011F05BFA013C03D0FFF7A7FFFF28EB
:10478000F6D100234FEA1569C5F30748C5F307279B
:10479000ECB26D4666F3070369F30F2368F3174322
:1047A00067F31F638DF804400DF1050A009315F8B7
:1047B000010BFFF7B5FFAA45F9D1B3005BB283F057
:1047C0001203DAB2002B4FEA4202C0F200815B0012
:1047D0005BB2002BD2B2C0F202815300DAB25BB2FC
:1047E000002B4FEA4202C0F20581D3B252B2002A36
:1047F000C0F208815A00D3B252B2002AC0F20B8133
:104800005A00D3B252B25B00002AB8BF83F0120341
:10481000DBB289EA030919F0800F4FEA490940F039
:104820003E815FFA89F24FFA89F3002B4FEA420288
:10483000C0F22F81D3B252B2002AC0F2FF805A00D8
:10484000D3B252B2002AC0F202815A00D3B252B29D
:10485000002AC0F205815A00D3B252B2002AC0F237
:1048600008815A00D3B252B2002AC0F20B815A001A
:10487000D3B252B25B00002AB8BF83F01203DBB29E
:1048800088EA030818F0800F4FEA480840F03C819E
:104890005FFA88F24FFA88F3002B4FEA4202C0F227
:1048A0002D81D3B252B2002AC0F221815A00D3B274
:1048B00052B2002AC0F2F9805A00D3B252B2002A92
:1048C000C0F2FC805A00D3B252B2002AC0F2FF807C
:1048D0005A00D3B252B2002AC0F202815A00D3B2B7
:1048E00052B25B00002AB8BF83F01203DBB25F4014
:1048F00017F0800F4FEA470740F05F81FAB27BB2B2
:10490000002B4FEA4202C0F25281D3B252B2002AC7
:10491000C0F246815A00D3B252B2002AC0F23981A5
:104920005A00D3B252B2002AC0F22C815A00D3B23C
:1049300052B2002AC0F21F815A00D3B252B2002AEA
:10494000C0F212815A00D3B252B25B00002AB8BF43
:1049500083F01203DBB25C40220600F1FE806200AD
:10496000D3B252B2002AC0F2F1805A00D3B252B28E
:10497000002AC0F2E4805A00D3B252B2002AC0F238
:10498000D7805A00D3B252B2002AC0F2CA805A006D
:10499000D3B252B2002AC0F2BD805A00D3B252B292
:1049A000002A44DB5A00D3B252B2002A3ADB5B0041
:1049B000D8B240F00100FFF7B3FE0824FFF786FEEF
:1049C000030601D5013CF9D102B0BDE8F08782F0C1
:1049D000120253B2002B02F0FE02BFF6FEAE5200EE
:1049E00082F0120253B2002B02F0FE024FEA4202A2
:1049F000BFF6FBAE82F012035AB2002A03F0FE03A8
:104A0000BFF6F8AE5B0083F012035AB2002A03F03F
:104A1000FE03BFF6F5AE5B0083F012035AB203F05B
:104A2000FE03F0E6580080F01200C0B2C1E75B0060
:104A300083F012035AB203F0FE03B6E75B0083F083
:104A400012035AB2002A03F0FE03BFF6FEAE5B006B
:104A500083F012035AB2002A03F0FE03BFF6FBAE46
:104A60005B0083F012035AB2002A03F0FE03BFF684
:104A7000F8AE5B0083F012035AB2002A03F0FE0383
:104A8000BFF6F5AE5B0083F012035AB203F0FE03EB
:104A9000F0E682F012035AB203F0FE03CCE689F08E
:104AA000120253B202F0FE02BFE65B0083F0120373
:104AB0005AB2002A03F0FE03BFF604AF5B0083F096
:104AC00012035AB2002A03F0FE03BFF601AF5B00E7
:104AD00083F012035AB2002A03F0FE03BFF6FEAEC3
:104AE0005B0083F012035AB203F0FE03F9E65B00A9
:104AF00083F012035AB203F0FE03DAE682F01203E7
:104B00005AB203F0FE03CEE688F0120253B202F06E
:104B1000FE02C1E65B0083F012035AB203F0FE030B
:104B20003EE75B0083F012035AB203F0FE0331E765
:104B30005B0083F012035AB203F0FE0324E75B002C
:104B400083F012035AB203F0FE0317E75B0083F011
:104B500012035AB203F0FE030AE7630083F0120364
:104B60005AB203F0FE03FDE65B0083F012035AB273
:104B700003F0FE03E9E65B0083F012035AB203F090
:104B8000FE03DCE65B0083F012035AB203F0FE037F
:104B9000CFE65B0083F012035AB203F0FE03C2E6D5
:104BA0005B0083F012035AB203F0FE03B5E682F015
:104BB00012035AB203F0FE03A9E687F0120253B2C1
:104BC00002F0FE029CE600BF2DE9F04FDFF874937F
:104BD00085B0D9F800501DB1002005B0BDE8F08FB8
:104BE00016200FF07FFF162045EC440001212A46D5
:104BF0000FF044FF12204FF05042824657684FF0AA
:104C0000010407F4800301930FF06CFF13200FF0F1
:104C100069FF10200FF066FF11200FF063FF504670
:104C200005210FF00DFF052113200FF009FF0521CD
:104C300010200FF005FF052111200FF001FF44ECBB
:104C400044A04FF0130844EC4480102745EC447016
:104C5000112644EC4460022150460FF033FF4046D9
:104C600002210FF02FFF2A46384601210FF006FFE0
:104C7000384601210FF016FF45EC40A044EC40807F
:104C800044EC406044EC4060052010F0CFFFFFF79B
:104C90001DFD022010F006FF0A24FFF717FD013C5E
:104CA000FBD1112344EC4030052010F0BFFF42F24D
:104CB0001074FFF70BFD04E0052010F0B7FF013C76
:104CC00018D0FFF703FDFF28F6D100214020FFF7A1
:104CD00047FD11264FF00103044643EC40600520D8
:104CE00010F0A4FFFFF7F2FC012C15D0019B7BB95B
:104CF000012072E711234FF0010242EC4030052001
:104D000010F094FFFFF7E2FC019B0BB9022064E76F
:104D1000032005B0BDE8F08F4FF0000343EC406086
:104D2000052010F083FF42F21076FFF7CFFC05E07C
:104D3000052010F07BFF013E00F0AA80FFF7C6FCC3
:104D4000FF28F5D14FF4D5714820FFF709FD012860
:104D500000F0DE800026019611234FF0010242ECA4
:104D60004030052010F062FFFFF7B0FC42F21078EF
:104D700011274FF0000A4FF0010BFDB94AEC4070CB
:104D8000052010F053FF42F21074FFF79FFC04E07F
:104D9000052010F04BFF013C3CD0FFF797FCFF28AB
:104DA000F6D100217720FFF7DBFC4BEC4070C0F31D
:104DB0008005052010F03AFFFFF788FC4AEC4070B0
:104DC000052010F033FF42F21074FFF77FFC04E07F
:104DD000052010F02BFF013C1CD0FFF777FCFF28CB
:104DE000F6D1002D0BBF3146002169204120FFF78D
:104DF000B7FC04464BEC4070052010F017FFFFF79E
:104E000065FC9CB14FF4FA7010F010FFB8F1010886
:104E1000B3D17BE711234FF0010242EC4030052073
:104E200010F004FFFFF752FC0220D6E6444D019B30
:104E30002C60002B38D111234FF0000242EC40309F
:104E4000052010F0F3FE42F21074FFF73FFC04E07F
:104E5000052010F0EBFE013CDCD0FFF737FCFF280B
:104E6000F6D14FF400715020FFF77AFC11234FF078
:104E70000102044642EC4030052010F0D7FEFFF757
:104E800025FC002C7FF434AF0123C9F80030A3E6E1
:104E900011234FF0010242EC4030052010F0C6FE15
:104EA0000196FFF713FC61E744EC4070052010F019
:104EB000BDFE42F21074FFF709FC04E0052010F07B
:104EC000B5FE013C16D0FFF701FCFF28F6D100210A
:104ED0007A20FFF745FC68B904AE03ACFFF7F6FB98
:104EE00004F8010BB442F9D19DF80C305B0644BFC5
:104EF00001232B6011234FF0010242EC40300520CA
:104F000010F094FEFFF7E2FB2B68002BBCD192E778
:104F100004AE03ACFFF7DAFB04F8010BA642F9D1AB
:104F20009DF80E30012B7FF415AF9DF80F30A3F1E3
:104F3000AA03B3FA83F35B0901939E070CE700BF52
:104F400004360020F43500202DE9F843DFF8E48032
:104F50000746D8F800300D460326002B54D0334BBB
:104F60001B68002B59D0B94611234FF0000242ECC8
:104F70004030052010F05AFE42F21074FFF7A6FBF5
:104F800004E0052010F052FE013C2ED0FFF79EFBFE
:104F9000FF28F6D149465120FFF7E2FB814620BBAE
:104FA000234C04E0022010F041FE013C1DD0FFF72D
:104FB0008DFBFE28F6D16C1E05F2FF15FFF786FB70
:104FC00004F8010FA542F9D1FFF780FBFFF77EFB44
:104FD00011234FF0010242EC4030052010F026FE74
:104FE000FFF774FB4846BDE8F88311234FF0010238
:104FF00042EC4030052010F019FEFFF767FB00235C
:10500000013EC8F800300BD0FFF7DEFD81460028D6
:10501000E8D1064B1B68002BA5D14FEA4729A3E72F
:105020004FF002094846BDE8F88300BF043600206F
:10503000A0860100F4350020F8B53D4B07461B68FB
:105040000D46002B6AD03B4B1B68002B4AD0112326
:105050004FF0000242EC4030052010F0E7FD42F234
:105060001074FFF733FB04E0052010F0DFFD013C76
:1050700047D0FFF72BFBFF28F6D139465820FFF722
:105080006FFB064680BBFFF721FBFE20FFF748FBC6
:105090006C1E05F2FF1514F8010FFFF741FBA54246
:1050A000F9D1FFF713FBFFF711FBFFF70FFB00F040
:1050B0001F03052B18D1204C04E0052010F0B6FD8D
:1050C000013C32D0FFF702FBFF28F6D111234FF04D
:1050D000010242EC4030052010F0A8FDFFF7F6FA7F
:1050E0003046F8BD7F02B2E711234FF0010242ECD7
:1050F00040300126052010F099FDFFF7E7FA304611
:10510000F8BD11234FF0010242EC40300226052089
:1051100010F08CFDFFF7DAFA3046F8BDFFF754FDCA
:10512000064600288FD03046F8BD0226CEE700BFE5
:10513000F435002004360020A086010003289ABF21
:10514000024B53F820000248704700BF6CD9011091
:1051500050D9011030B503788E46202B85B05ED033
:1051600042788DF80030202A5CD083788DF80120B9
:10517000202B5AD0C2788DF80230202A58D00379DB
:105180008DF80320202B56D042798DF80430202A48
:1051900054D083798DF80520202B52D0C2798DF818
:1051A0000630202A50D008238DF807201A46017AAD
:1051B000202916D1417A202949D1817A202946D146
:1051C0000025C27A10330DEB030CC169C2F3001243
:1051D0006846DEE900430CF8105CA047012005B0EA
:1051E00030BD2E2410336B4403F8104C447A02F186
:1051F00010056D44202C02F1020305F80F1CDFD0CE
:10520000817A10336B44202903F8104C02F1030318
:10521000D6D010336B4403F8101C131DD0E70022C6
:105220001346C4E701221346C1E702221346BEE734
:1052300003221346BBE704221346B8E705221346B0
:10524000B5E706221346B2E707221346AFE72E243E
:1052500010330DEB030101F8104C531CB0E700BFF5
:1052600070B54FF020341B4B0C604C601380937072
:1052700003785BB30024184EA646A44610E0BEF1A6
:10528000020F0ADCF55C05F00305022D04BF203B8C
:10529000DBB202F80E300EF1010E10F8013FABB197
:1052A0002E2B14D0002CEAD1BCF1070FF5DCF55CF5
:1052B00005F00305022D04BF203BDBB201F80C30E2
:1052C00010F8013F0CF1010C002BE9D170BD012455
:1052D000E3E700BF20202000911102102DE9F843E0
:1052E0002A4B0E461B78A3B1294F4FF00308B9464D
:1052F000284BC0F3D6141B6885001C444946204641
:10530000FFF722FED0B1B8F10108F7D14FF0FF301E
:1053100036E01F4F4FF00308B9461E4BC0F316246A
:105320001B6845001C4449462046FFF70DFE48B364
:10533000B8F10108F7D14FF0FF3021E0C5F30800C4
:105340003B5826F0704603F0704333433B502046F1
:105350000F49FFF771FE0028D8D103250C4E3146C6
:105360002046FFF7F1FD08B1013DF8D10A4B08498D
:1053700018682044FFF760FE003818BF0120404243
:10538000BDE8F883C5F308003E52E0E7A5790120A7
:1053900008360020E0250020E42500202DE9F84310
:1053A0002C4B1B7893B12C4E2C4FD6F800903B68B9
:1053B0004B4499450AD22A4DDFF8A8800324294698
:1053C0004846FFF7C1FD28B1013CF8D10024204632
:1053D000BDE8F88398F800303068ABB9A9EB000459
:1053E00024021F4B04F58071012C01D91A881AB3CD
:1053F0000134A14203F10203F6D13B6809F101092E
:1054000018444845DAD8E1E7A9EB0004E401144B5D
:1054100004F18001012C03D91A6832F0704215D0D2
:1054200001348C4203F10403F4D13B6809F1010912
:1054300018444845C2D8C9E74FF6FF712046FFF728
:105440004DFF0028C2D12046BDE8F8836FF07041BF
:10545000F4E700BFA8790120E0250020E425002022
:1054600008360020A5790120214B2DE9F0411B7859
:10547000204E0325B04683B11F4BC0F3D6171B68DF
:1054800084001F4441463846FFF75EFDF8B1013DF8
:10549000F8D16FF07040BDE8F081174BC0F31627CC
:1054A0001B6844001F4441463846FFF74DFD28B1B4
:1054B000013DF8D14FF6FF70BDE8F081C4F308005C
:1054C00033185B78305C40EA0320BDE8F081C4F318
:1054D0000800321893785478315C180440EA0420AC
:1054E000D378084340EA036020F07040BDE8F081C3
:1054F000A579012008360020E02500202DE9F04F95
:10550000154683B000293AD1012840F2BE810C46ED
:105510008346C54EDFF82483C44B1B78002B40F034
:1055200065814FF6F7721FFA8BF3934294BF002305
:105530000123002B40F028823278D8F80010ABF11C
:10554000020002FB0011002A00F04781DFF8E4921C
:10555000CDF804B00095CA468B461D46032405EBE2
:105560000B0751463846FFF7EFFC002800F0AE80ED
:10557000013CF6D14FF0FF3003B0BDE8F08FAC4BEB
:105580001B885B0103F2FF135FEA632B00F09B8033
:10559000A84C4FF00008A246DFF8A492D9F800709A
:1055A0005146474438460326FFF7CEFC38B1013E4A
:1055B000E0D051463846FFF7C7FC0028F7D12378E2
:1055C000002B00F03F81E52B00F03C8194F8203067
:1055D000002B00F05381E52B00F0508194F840300F
:1055E000002B00F05081E52B00F04D8194F86030E5
:1055F000002B00F08B81E52B00F0888194F880303F
:10560000002B00F08881E52B00F0858194F8A03014
:10561000002B00F08581E52B00F0828194F8C030EA
:10562000002B00F08281E52B00F07F8194F8E030C0
:10563000002B00F07F81E52B00F07C8194F8003195
:10564000002B00F07981E52B00F0768194F8203171
:10565000002B00F07981E52B00F0768194F8403141
:10566000002B00F07381E52B00F0708194F860311D
:10567000002B00F07381E52B00F0708194F88031ED
:10568000002B00F07081E52B00F06D8194F8A031C3
:10569000002B00F06D81E52B00F06A8194F8C03199
:1056A000002B00F06A81E52B00F0678194F8E0316F
:1056B000002B00F06481E52B00F0618108F1010806
:1056C000C3457FF46BAF6FF0060055E799F80030E3
:1056D000002B00F09180E52B00F08E8099F82030AF
:1056E000002B00F0C880E52B00F0C58099F8403011
:1056F000002B00F0C580E52B00F0C28099F86030E7
:10570000002B00F00081E52B00F0FD8099F880303F
:10571000002B00F0FD80E52B00F0FA8099F8A03016
:10572000002B00F0FA80E52B00F0F78099F8C030EC
:10573000002B00F0F780E52B00F0F48099F8E030C2
:10574000002B00F0F480E52B00F0F18099F8003197
:10575000002B00F0F380E52B00F0F08099F8203169
:10576000002B00F0EE80E52B00F0EB8099F8403143
:10577000002B00F0ED80E52B00F0EA8099F8603115
:10578000002B00F0E880E52B00F0E58099F88031EF
:10579000002B00F0E580E52B00F0E28099F8A031C5
:1057A000002B00F0E280E52B00F0DF8099F8C0319B
:1057B000002B00F0DF80E52B00F0DC8099F8E03171
:1057C000002B00F0DE80E52B00F0DB803378013524
:1057D000AB423FF6C3AEDDE9005B5846FFF744FE3F
:1057E00001285C4640F2D080834695E6124B9B45EB
:1057F00094BF002301239CE6009D0E4C2868696835
:10580000AA68EB680FC428696969AA69EB690FC4C3
:1058100038460849FFF710FC003818BF0120404205
:1058200003B0BDE8F08F00BFAA790120A57901205F
:10583000A279012008360020F7FFFF0FDC250020A9
:1058400000360020594C28686968AA68EB68D9F8C6
:1058500000600FC428696969AA69EB690FC45349DC
:1058600008EB0600FFF7E8FB003818BF01204042B4
:1058700003B0BDE8F08F009D4D4CBFE74C4CE2E714
:10588000009D4C4CBAE74B4CDDE7FFF787FD064621
:1058900000283FF418AF484BDFF854811F6898F890
:1058A00000404FF400720021023E404815F004FD14
:1058B00004FB067728686968AA68EB683B4E0FC648
:1058C00028696969AA69EB690FC674B10024203E92
:1058D0003146E019FFF7B0FB00287FF44BAE34B13E
:1058E00098F800300134A342F2D8002044E6214663
:1058F0004FF40072304615F0DFFC98F80030012BB1
:10590000F3D90124E4E7009D2C4C77E72B4C9AE770
:10591000009D2B4C72E72A4C95E7009D294C6DE7C2
:10592000284C90E7009D284C68E7274C8BE7009DAA
:10593000264C63E7254C86E7254C84E7009D244CE4
:105940005CE7009D234C59E7224C7CE7224C7AE728
:10595000009D214C52E7009D204C4FE71F4C72E701
:10596000009D1F4C4AE71E4C6DE7009D1D4C45E70E
:105970001C4C68E7009D1C4C40E71B4C63E71B4C2C
:1059800061E7009D194C39E7FFF708FD064600283E
:105990003FF499AE002C3FF47EAF01462046FFF75E
:1059A0009DFC00283FF477AFE6E500BF08360020F5
:1059B0002836002048360020DC25002068360020EC
:1059C00088360020A8360020C8360020E83600209F
:1059D000083700202837002048370020683700208B
:1059E00088370020A8370020C8370020E83700207B
:1059F000AA7901202DE9F04F924B934AD3F80090F9
:105A0000037815782F2B04468B4695B085F0010559
:105A100003D114F8013F2F2BFBD0002B00F0718134
:105A20002F2B4FF00006894FDFF8348200F05781AA
:105A30008DF814306378621C002B00F070812F2BDE
:105A400000F071818DF81530A378A21C002B00F0B6
:105A50006F812F2B00F070818DF81630E378E21CF7
:105A6000002B00F06E812F2B00F06F818DF8173026
:105A70002379221D002B00F06D812F2B00F06E8109
:105A80008DF818306379621D002B00F06C812F2B8C
:105A900000F06E818DF81930A379A21D002B00F063
:105AA0006C812F2B00F06D818DF81A30E379E21DA7
:105AB000002B00F06B812F2B00F06C818DF81B30D8
:105AC000237A04F10802002B00F088812F2B00F0CC
:105AD0008D818DF81C30637A04F10902002B00F0EF
