:020000041000EA
:10000000002008205D0100101B0100101D010010E0
:100010001101001011010010110100101101001058
:100020001901001019010010190100101F01001022
:10003000110100101901001021010010230100100E
:100040001101001011010010110100101101001028
:100050001101001011010010110100101101001018
:100060001101001011010010110100101101001008
:1000700011010010110100101101001011010010F8
:1000800011010010110100101101001011010010E8
:1000900011010010110100101101001011010010D8
:1000A00011010010110100101101001011010010C8
:1000B00011010010110100101101001011010010B8
:1000C00011010010110100101101001011010010A8
:1000D0001101001011010010110100101101001098
:1000E0001101001011010010110100101101001088
:1000F0001101001011010010110100101101001078
:100100001101001011010010110100101101001067
:10011000EFF30580103800BE00BE00BE00BE00BE7A
:1001200000BE00BEF2EB8871E02703100C2803101C
:10013000A001001090A31AE7D3DEFFFF42012110B7
:10014000FF010000A4460300793512AB4FF0000018
:100150001E49086006C881F3088810474FF05040D8
:10016000006810B14FF00000F2E70DA40ECC00299A
:1001700002D000F012F8F9E71549164A002000E015
:1001800001C19142FCD11449884714498847144958
:10019000884700BEFDE701C901C29A42FBD3704700
:1001A0000C28031010010020E0200020DC47031081
:1001B0000000082000000820DC4703100010082081
:1001C00000100820000000007047000008ED00E06B
:1001D000E0200020C8A1052039260210D16B0010B4
:1001E000FD250210F8B500BF0348044B834202D03E
:1001F000034B03B118477047E0200020E0200020A7
:1002000000000000064B0749C91A891048BF013198
:10021000491003D0044B0BB101481847704700BF89
:10022000E0200020E02000200000000010B5064C77
:10023000237843B9FFF7D8FF044B13B10448AFF359
:1002400000800123237010BD38230020000000002F
:1002500028C3021008B5044B1BB104490448AFF38E
:100260000080BDE80840CDE7000000003C230020EE
:1002700028C30210C0B138B5044626F08DFB90B1FA
:10028000421E0A4D2244C4F1010012F80139093B13
:10029000DBB2172B45FA03F105D811F0010102D1A9
:1002A000D0425170F1D138BD704700BFECFF7FFFE5
:1002B000F8B5D3F8E8500F2D21DC16465A681C46D5
:1002C00007461AB1196826F095FBC0B905EB45033E
:1002D00005EB830508350C223946601926F0CCFB66
:1002E0000020D4F8E83003EB430203EB8202E1186C
:1002F00022440133107581F8D860C4F8E830F8BDA5
:100300002DE9F04F0E46ADF20C4D70B3037863B398
:100310002F2B00F09080564B82AC1A882F2A00F0C9
:100320009D8000904FF400712046524A22F0C4F89C
:100330000022237802AF3A70002B00F08C802F2B24
:100340001FD063780134002BF9D13B78002B00F0EB
:100350008280FF223946304626F08EFB002386F845
:10036000FF300DF20C4DBDE8F08FFF2230464049C2
:1003700026F082FB002386F8FF300DF20C4DBDE81D
:10038000F08F4FF0000A42F62E680DF5847914F8CC
:10039000015F2F2DFBD0002DD7D0002309F803508B
:1003A00014F8015F013345B12F2D06D0FF2BF5D195
:1003B00014F8015F0DB12F2DFAD109F803A0B9F897
:1003C00000302E2B08D0434509D0384626F0E4FAF9
:1003D000FF2800F1010313D1002DD8D1B5E799F81A
:1003E00002B0BBF1000FF0D12F21384626F078FB88
:1003F00060B3B8422AD980F800B0002DC7D1A4E775
:100400002F223A5499F8002082B1FE2800F102030D
:100410002CD04946384403E00133B3F5807F25D022
:1004200000F8012F11F8012F002AF5D10022FA540B
:10043000002DACD189E782AC014640F2FF12204684
:1004400026F01AFB002384F8FF3171E700233B708C
:10045000002D9CD179E72F233B807AE703464FF4A8
:1004600000712046044A22F027F861E7FF23DDE708
:100470004814002030C302102CC302102DE9F04FA5
:1004800099B009F063FD834609F066FD824609F0E4
:1004900077FD039009F07AFD8146002009F04AFDBE
:1004A0000DF134084E4809F04BFD2021282240462A
:1004B00025F06CFE00238DF85C3009F021FF044626
:1004C00009F080FF08AD23461421002875D0284686
:1004D000444A21F0F1FF284626F05EFA04462946F8
:1004E000414D2246404625F05BFD284626F054FA51
:1004F000C4F11E01814204F1010363DB0246294677
:1005000008EB030025F04CFD1FF0FEFC00294FD046
:100510004FF47A7200232BF0C3FE3449344AA1FB16
:100520000031344B8909A3FB0003A2FB01404009C1
:10053000A2FB00425209C2EB0212A0EB8202C0EB06
:100540000010A1EB8001019110215B0D0DEB01006A
:100550000092294A21F0B0FF04A826F01DFA0246B5
:10056000C0F1270004A9404425F01AFD1321002002
:100570001B4F0DF133040DF15B06C8F1010509F0C5
:10058000F1FC281914F8012F00231321009709F01A
:1005900003FDA642F5D1584609F0CCFC504609F0BF
:1005A000CFFC4946039809F0DDFC19B0BDE8F08F97
:1005B0000E4AA2FB00208009AFE728460F4A21F02F
:1005C0007BFF88E7821C511A42F62E62E01C28F855
:1005D000032029444044C3F11D0225F0E1FC93E7C8
:1005E000808080003CC3021048140020D34D62106C
:1005F00089888888B17C219550C3021048C30210B5
:1006000008B5064C064D23781BB12B780BB1FFF7CC
:1006100035FF4FF4FA601FF0BDFBF4E7B7A10520EA
:10062000BCA105200E4B1A7832B90E4B1B780BB1CA
:100630000CF024BE22F028B90B4A126872B10346AE
:100640000A4830B40A4D04682D68611CA94203D2DF
:10065000135500230160535430BC7047704700BFEE
:10066000B9A10520B7A10520DC7E0020E47E002092
:10067000E07E00200E4B1B783BB90E4B20201B78F0
:100680000BB10CF0FBBD22F0FFB80B4B1B686BB13C
:100690000A490B480A6810B40468501CA04202D2F0
:1006A000202408609C525DF8044B7047704700BFDF
:1006B000B9A10520B7A10520DC7E0020E47E002042
:1006C000E07E00200FB4F0B5ADF5037D88AB53F8A4
:1006D000042B4FF4007102A8019321F003FF9DF851
:1006E000080068B1274E284D0DF10904337883B90D
:1006F0002B785BB10CF0C2FD14F8010B0028F5D18A
:100700000DF5037DBDE8F04004B0704722F0BCF861
:10071000F2E7DFF880E0DEF8002082B11B4E1C4FCC
:10072000D6F800C039680CF101058D4204D202F8F8
:100730000C0000203560505522782AB9E0E7227875
:10074000002ADDD0114E124F4FF0000CDEF80050A1
:10075000E6463F683068411C35B1B94204D22A549C
:100760009C46084605F801E014F8012F002AF2D152
:10077000BCF1000FC4D030600DF5037DBDE8F04042
:1007800004B07047B9A10520B7A10520E47E002080
:10079000E07E0020DC7E0020F8B505460F461646B8
:1007A00009F0D4FB044666B14CF6C80009F0C2FB60
:1007B00029460B48FFF786FF2046BDE8F84009F0C0
:1007C000B9BB4FF4484009F0B5FB2A463946054805
:1007D000FFF778FF2046BDE8F84009F0ABBB00BF4B
:1007E00060C3021070C30210214B1B78002B3DD058
:1007F0002DE9F04100251F4C1F4FDFF88480ADF636
:10080000083D42AB581914F8013CC5F5206604F1C7
:10081000100C5BB1234642463146CDF800C021F0B2
:100820004BFE00281DDB86421BDD054404F211143B
:10083000A742E6D10026114B02AC93E8070084E8FA
:100840000700204626730BF025FF2A46204642A9C2
:100850000CF0C6F8B0FA80F040090DF6083DBDE88E
:10086000F08100200DF6083DBDE8F08100207047C2
:10087000B4A105208D2300209D34002084C30210E4
:100880007CC302102DE9F041374BC0B01D78A5B1F3
:100890006C4610B10378002B44D1FF222046334927
:1008A00026F0EAF800222046314984F8FF200BF0B8
:1008B00093FB70BB40B0BDE8F0812E4F4E203B78DB
:1008C0002D4C2E4E53B9337803B30CF0D7FC14F8EB
:1008D000010B0028EED03B78002BF4D0DFF8A8C045
:1008E000DCF8002012B3264FDFF8A0E0D7F8008034
:1008F000DEF8001008F101068E4204D202F808006A
:1009000000203E6090552278B2B9D3E721F0BCFFB9
:10091000DDE70BF0B3FD01461A48FFF7D3FE40B008
:10092000BDE8F0812146FFF7EBFCBBE72278002A07
:10093000C0D0134FDFF854E0DCF80060DEF800C0F0
:100940004FF0000E3868411C36B1614504D2325474
:100950001D46084606F801E014F8012F002AF2D1DE
:10096000002DA7D03860A5E7B4A1052048140020C9
:1009700099070010B9A1052095C30210B7A1052061
:10098000E47E0020B8C30210DC7E0020E07E002060
:100990002DE9F041A14BADF5806D1E78002E00F0E1
:1009A0009F8008B103789BB975209D4C9D4D9E4E4C
:1009B0002B78002B60D13378002B5AD00CF05EFCE2
:1009C00014F8010B0028F3D10DF5806DBDE8F0811E
:1009D00040F2FF12014680A826F04EF800229DF852
:1009E00000328DF8FF2380AA2BB9D3E012F8013F23
:1009F000002B00F0CF80202BF8D10023144604F800
:100A0000013B5378202B03D114F8013F202BFBD05E
:100A1000002B40F01381834D75202B78804C824E43
:100A200063B93378002B00F0B2800CF027FC14F887
:100A3000010B0028C8D02B78002BF2D07B4DD5F8C5
:100A400000C0BCF1000F00F016817949794FD1F850
:100A500000E03A680EF10106964205D20CF80E004D
:100A600000200E600CF806002278002A40F0098170
:100A7000AAE721F009FFA3E76C4DD5F800C0BCF14F
:100A8000000F76D06A496B4FD1F800E03A680EF15A
:100A90000106964205D20CF80E0000200E600CF8FC
:100AA00006002278002A8FD04FF0000CE6462E6810
:100AB0003F680D68681C36B1B84204D272559C4636
:100AC000054606F800E014F8012F002AF2D1BCF127
:100AD000000F3FF479AF0D600DF5806DBDE8F0813A
:100AE000504D4E202B78544C4F4F63B93B78002B20
:100AF0003CD00CF0C3FB14F8010B00283FF464AFAA
:100B00002B78002BF2D0494DD5F800C0BCF1000F76
:100B100036D04749474FD1F800803A6808F1010EB6
:100B2000964506D200220CF80800C1F800E00CF847
:100B30000E202278002A3FF447AF4FF0000ED5F880
:100B400000C03F680D68681CBCF1000F07D08742E9
:100B500005D90CF805201E4605460CF800E014F8EF
:100B6000012F002AEFD1002EB5D12DE721F08CFE08
:100B7000C1E72278002A3FF427AF2D492D4F93E794
:100B80002278002A3FF420AF29492A4FD5E721F0E7
:100B90007BFE4CE7234D75202B78214C224E63B908
:100BA0003378002B36D00CF069FB14F8010B0028C9
:100BB0003FF40AAF2B78002BF2D01C4DD5F800C0C3
:100BC000BCF1000F50D01A491A4FD1F800E03A6832
:100BD0000EF10106964205D20CF80E0000200E60C0
:100BE0000CF806002278002A3FF4EEAE4FF0000C1D
:100BF000E6462E683F680D68681C36B1B84204D2DC
:100C000072559C46054606F800E014F8012F002AAC
:100C1000F2D15CE721F038FEC7E700BFB4A10520A0
:100C2000C1C30210B9A10520B7A10520DC7E0020B8
:100C3000E47E0020E07E002095C30210694680A873
:100C4000FFF75EFB204640A9FFF75AFB684640A924
:100C50000BF0D0FF00283FF4B7AE0BF00FFC0146BD
:100C60001248FFF72FFDAFE62278002A3FF4ACAE22
:100C70000F49104FBAE72278002A3FF4A5AE0C497D
:100C80000C4F4FF0000CE6462E683F680D68681C5C
:100C900036B1B84204D272559C46054606F800E0CB
:100CA00014F8012F002AF2D111E700BFDCC30210B3
:100CB000E47E0020E07E00202DE9F84F047898467D
:100CC000002C00F08A8082460F4605469146A64ACF
:100CD000135D5B0703D15F2C01D02D2C7DD115F85E
:100CE000014F002CF4D10126A04D15F8013C33B181
:100CF0002846514625F072FD002800F09D80013401
:100D0000102C06F2111605F21115EED1984D2B7824
:100D1000002B00F0DD8095F81131002B00F0D7801A
:100D200095F82232002B00F0AB8195F83333002B7D
:100D300000F0A88195F84434002B00F0A58195F8C7
:100D40005535002B00F0A28195F86636002B00F097
:100D5000A78195F87737002B00F0A48195F88838A3
:100D6000002B00F0518195F89939002B00F09C81FF
:100D700095F8AA3A002B00F09B8195F8BB3B002B1D
:100D800000F0948195F8CC3C002B00F0938195F80D
:100D9000DD3D002B00F0908195F8EE3E002B00F039
:100DA0008D8195F8FF3F002B00F08A81B8F1000F8C
:100DB00011D061206F4C704D704E2B78002B40F09D
:100DC000ED803378002B00F0CC800CF057FA14F84B
:100DD000010B0028F1D1BDE8F88FB8F1000FFAD06F
:100DE000654D61202A78664C644E62B93378002BD9
:100DF00000F094800CF042FA14F8010B0028EAD0BD
:100E00002A78002AF2D0DFF88CA1DAF80030002B23
:100E100000F087805B4D5C4FD5F800E039680EF13B
:100E200001068E4204D203F80E0000202E60985571
:100E30002378002B7BD1CEE701224D4D04EB041328
:100E400004EB0313EA54741E2E44504625F0A4FD0F
:100E50000F28834630D90023DAF80410DAF8082086
:100E6000DAF8000071603060B260BAF80C109AF8DD
:100E70000E2011342C44B181B273F373384625F03F
:100E80008BFD0546FF2D28BFFF25394620462A4603
:100E900025F086F800236355B9F1000F02D03B4BD3
:100EA0001B78FBB9B8F1000F95D022463146BDE85A
:100EB000F84F3748FFF706BC02465146304625F04A
:100EC0006FF8002311342C4406F80B30D6E70123C9
:100ED00003EB031203EB021301229E181C46EA5493
:100EE0002E44B2E7FFF780FC81460028DAD1B8F142
:100EF000000F3FF470AF6120DFF89C801E4D1F4F44
:100F00002A78002A40F085803B78002B7ED00CF0B8
:100F1000B5F918F8010B0028F2D1C6E721F0B4FCAE
:100F20006AE72378002B3FF456AF164D164F4FF06B
:100F3000000CE646DAF800603F682868411C36B1CC
:100F40008F4204D933549446084606F801E014F859
:100F5000013F002BF2D1BCF1000F3FF43CAF286001
:100F600039E721F091FC32E7592303108D2300204B
:100F70008C23002001C40210B9A10520B7A10520CF
:100F8000E9C30210E47E0020E07E0020B4A1052029
:100F90003CC40210DC7E002015C40210DFF82CA136
:100FA000DAF800204AB3474D474FD5F800E03968DA
:100FB0000EF101068E4204D202F80E0000202E60CF
:100FC00090552278002A3FF406AF4FF0000CE64619
:100FD000DAF800603F682868411C36B18F4204D9B6
:100FE00032549C46084606F801E014F8012F002A06
:100FF000F2D1BCF1000FB2D1EDE62278002A3FF425
:10100000EAAE304D304FE0E7082361E721F03CFCC9
:101010007FE7DFF8B8A0DAF800C0BCF1000F37D0E6
:10102000284D294F2B68396803F1010E8E4506D2F1
:101030000CF803000023C5F800E00CF80E3098F817
:101040000030002B3FF431AF4FF0000EDAF800C053
:101050003F682868411CBCF1000F07D0B94205D297
:101060000CF80030914608460CF801E018F8013FF2
:10107000002BEFD1B9F1000F3FF417AF286014E750
:10108000022325E7032323E7042321E705231FE7A2
:1010900098F80030002B3FF408AF0A4D0A4FD3E711
:1010A000062315E7072313E7092311E70B230FE7AF
:1010B0000A230DE70C230BE70D2309E70E2307E7AF
:1010C0000F2305E7E47E0020E07E0020DC7E002088
:1010D0002DE9F041002800F04B8303780446202BD3
:1010E00003D114F8013F202BFBD0002B00F04083EC
:1010F0002378662B2CD02046104925F06FFB002862
:1011000002F0CF8320460E4925F068FB002801F04D
:10111000168255200B4D0C4C0C4E2378002B42F0C0
:10112000F1823378002B02F0E9820CF0A7F815F871
:10113000010B0028F1D1BDE8F08100BF50D10210B1
:1011400098D2021001D40210B9A10520B7A1052040
:101150006378732BCFD1A378002BCCD14620AC4C35
:10116000AC4D2378AC4E002B41F006833378002B36
:1011700001F0A0830CF082F8237815F8010B002809
:10118000F1D12020A54DA44E002B41F0608333788F
:10119000002B01F057830CF071F8237815F8010B40
:1011A0000028F1D120209E4D9B4E002B41F017834B
:1011B0003378002B02F09D820CF060F8237815F84C
:1011C000010B0028F1D12020964D934E002B42F0C8
:1011D0005D823378002B02F054820CF04FF82378B4
:1011E00015F8010B0028F1D120208F4D8A4E002BDD
:1011F00042F014823378002B02F00B820CF03EF8A0
:10120000237815F8010B0028F1D12020874D824E5C
:10121000002B42F0CB813378002B02F0C2810CF01E
:101220002DF8237815F8010B0028F1D12020804DEE
:10123000794E002B42F082813378002B02F07981C5
:101240000CF01CF8237815F8010B0028F1D12020B0
:10125000784D714E002B42F039813378002B02F02B
:101260002A810CF00BF8237815F8010B0028F1D136
:101270002020714D684E002B42F0EA803378002B1D
:1012800002F0E1800BF0FAFF237815F8010B00283B
:10129000F1D12020694D604E002B42F0A1803378BF
:1012A000002B02F098800BF0E9FF237815F8010B72
:1012B0000028F1D12020624D574E002B42F058807B
:1012C0003378002B02F04F800BF0D8FF237815F80D
:1012D000010B0028F1D120205A4D4F4E002B42F037
:1012E0000F803378002B02F006800BF0C7FF2378C5
:1012F00015F8010B0028F1D12020534D464E002B4C
:1013000041F0C6873378002B01F0BD870BF0B6FFA4
:10131000237815F8010B0028F1D120204B4D3E4ECB
:10132000002B41F07D873378002B01F06E870BF0A6
:10133000A5FF237815F8010B0028F1D12020444D9A
:10134000354E002B41F02E873378002B01F0258796
:101350000BF094FF237815F8010B0028F1D1202021
:101360003C4D2D4E002B41F0E5863378002B01F0EB
:10137000DC860BF083FF237815F8010B0028F1D1F0
:101380002020354D244E002B41F09C863378002BD5
:1013900001F093860BF072FF237815F8010B0028FB
:1013A000F1D120202D4D1C4E002B41F05386337877
:1013B000002B01F04A860BF061FF237815F8010B32
:1013C0000028F1D12020264D134E002B41F00A8633
:1013D0003378002B01F001860BF050FF237815F8CD
:1013E000010B0028F1D120201E4D0B4E002B41F0A7
:1013F000C1853378002B01F0B2850BF03FFF2378D5
:1014000015F8010B0028F1D12020174D2EE000BF68
:10141000B9A105202DC90210B7A1052041C90210AC
:1014200071C90210ADC90210E9C9021019CA02102F
:1014300041CA021069CA021091CA0210BDCA021044
:10144000EDCA021019CB021051CB021089CB021049
:10145000C1CB0210F5CB021035CC021059CC0210D2
:1014600089CC0210B9CC0210F5CC0210AA4E002B88
:1014700041F042853378002B01F039850BF0FEFEF8
:10148000237815F8010B0028F1D12020A34DA24E9E
:10149000002B41F0F9843378002B01F0F0840BF03D
:1014A000EDFE237815F8010B0028F1D120209C4D8A
:1014B000994E002B41F0B0843378002B01F0A784C3
:1014C0000BF0DCFE237815F8010B0028F1D1202069
:1014D000944D914E002B41F067843378002B01F03E
:1014E0005E840BF0CBFE237815F8010B0028F1D1B8
:1014F00020208D4D884E002B41F01E843378002B28
:1015000001F015840BF0BAFE237815F8010B0028C2
:10151000F1D12020854D804E002B41F0D5833378CA
:10152000002B01F0C6830BF0A9FE237815F8010B00
:101530000028F1D120207E4D774E002B41F086838C
:101540003378002B01F07D830BF098FE237815F89B
:10155000010B0028F1D12020764D6F4E002B41F079
:101560003D833378002B01F034830BF087FE237822
:1015700015F8010B0028F1D120206F4D664E002B8D
:1015800041F0F4823378002B01F0EB820BF076FE11
:10159000237815F8010B0028F1D12020674D5E4E0D
:1015A000002B41F0AB823378002B01F0A2820BF0CC
:1015B00065FE237815F8010B0028F1D12020604D3D
:1015C000554E002B41F062823378002B01F0598296
:1015D0000BF054FE237815F8010B0028F1D12020E0
:1015E000584D4D4E002B41F019823378002B01F0FD
:1015F00009820BF043FE237815F8010B0028F1D186
:101600002020514D444E002B41F0C9813378002BEE
:1016100001F0C0810BF032FE237815F8010B002891
:10162000F1D12020494D3C4E002B41F08081337890
:10163000002B01F077810BF021FE237815F8010BC8
:101640000028F1D12020424D334E002B41F037814C
:101650003378002B01F03C800BF010FE237815F856
:10166000010B0028F1D120203A4D2B4E002B40F0E9
:10167000FC873378002B00F0F3870BF0FFFD237815
:1016800015F8010B0028F1D12020334D224E002BFC
:1016900040F0B3873378002B01F052800BF0EEFD61
:1016A000237815F8010B0028F1D120202B4D1A4E7C
:1016B000002B41F012803378002B01F046800BF0B4
:1016C000DDFD237815F8010B0028F1D12020244DF1
:1016D000114EDFF89880234F6BB93378002B00F060
:1016E00088870BF0CBFD15F8010F00283FF423ADE0
:1016F0002378002BF1D0D8F80030002BF3D01A4A11
:101700003968D2F800C04A1C6245ECD25854002116
:101710003A609954E7E700BFB7A105202DCD02102C
:1017200069CD0210B5CD0210F1CD02102DCE021000
:1017300065CE0210A5CE0210EDCE02101DCF021014
:101740004DCF02107DCF0210C1CF0210FDCF02108D
:1017500045D0021075D00210A5D00210DDD00210C5
:1017600014D10210E47E0020E07E0020DC7E002008
:101770005320AC4CAC4D2378AC4E002B40F0AC86E3
:101780003378002B00F09D860BF078FD237815F858
:10179000010B0028F1D12020A54DA44E002B40F0D4
:1017A0005D863378002B00F054860BF067FD2378BC
:1017B00015F8010B0028F1D120209E4D9B4E002BE7
:1017C00040F014863378002B00F00B860BF056FDAA
:1017D000237815F8010B0028F1D12020964D934E67
:1017E000002B40F0CB853378002B00F0C2850BF046
:1017F00045FD237815F8010B0028F1D120208F4DED
:101800008A4E002B40F082853378002B00F07985DA
:101810000BF034FD237815F8010B0028F1D12020BE
:10182000874D824E002B40F039853378002B00F035
:1018300030850BF023FD237815F8010B0028F1D13A
:101840002020804D794E002B40F0F0843378002B1F
:1018500000F0E0840BF012FD237815F8010B00284E
:10186000F1D12020784D714E002B40F0A0843378C8
:10187000002B00F097840BF001FD237815F8010B85
:101880000028F1D12020714D684E002B40F0578484
:101890003378002B00F04E840BF0F0FC237815F821
:1018A000010B0028F1D12020694D604E002B40F043
:1018B0000E843378002B00F005840BF0DFFC2378D6
:1018C00015F8010B0028F1D12020624D574E002B56
:1018D00040F0C6833378002B00F0BE830BF0CEFCC3
:1018E000237815F8010B0028F1D120205A4D4F4ED6
:1018F000002B40F07F833378002B00F077830BF0D0
:10190000BDFC237815F8010B0028F1D12020534DA0
:10191000464E002B40F038833378002B00F02A83AA
:101920000BF0ACFC237815F8010B0028F1D1202036
:101930004B4D3E4E002B40F0EB823378002B00F0F5
:10194000E3820BF09BFC237815F8010B0028F1D102
:101950000A20444D354E002B40F0A4823378002BF2
:1019600000F09C820BF08AFC237815F8010B00280C
:10197000F1D120203C4D2D4E002B40F05D8233787C
:10198000002B00F055820BF079FC237815F8010B41
:101990000028F1D12020354D244E002B40F0168236
:1019A0003378002B00F00E820BF068FC237815F8DA
:1019B000010B0028F1D10A202D4D1C4E002B40F0C8
:1019C000CF813378002B00F0C7810BF057FC2378D0
:1019D00015F8010B0028F1D12020264D134E002BC5
:1019E00040F088813378002B00F072810BF046FCC8
:1019F000237815F8010B0028F1D120201E4D0B4E45
:101A0000002B40F033813378002B00F02B810BF05A
:101A100035FC237815F8010B0028F1D12020174D53
:101A20002EE000BFB9A105204DC40210B7A10520CA
:101A300061C4021095C40210C9C40210FDC4021092
:101A400039C5021069C5021099C50210CDC5021032
:101A5000FDC5021029C6021055C6021085C6021027
:101A6000B9C60210DDC60210F1C602102DC7021061
:101A700055C7021065C70210B9C702100DC8021081
:101A8000954E002B40F0BC803378002B00F0B480E2
:101A90000BF0F4FB237815F8010B0028F1D120207E
:101AA0008E4D8D4E002B75D13378002B6ED00BF000
:101AB000E5FB237815F8010B0028F3D10A20884DA7
:101AC000854E002B32D1337863B30BF0D7FB2378EC
:101AD00015F8010B0028F4D15420824D7E4EDFF81A
:101AE0001082814F5BB93378CBB10BF0C7FB15F88F
:101AF000010F00283FF41FAB2378002BF3D0D8F858
:101B00000030002BF3D0794A3968D2F800C04A1C63
:101B10006245ECD2585400213A609954E7E720F02E
:101B2000B3FEE4E720F0B0FE2378D1E7704A1168F5
:101B300071B16D4F6D4ED7F800C0D6F800E00CF1D2
:101B40000106764504D201F80C0000203E6088555D
:101B500028780028C0D04FF0000EF0461768624980
:101B6000624A0E68D2F800C0721C37B1944504D99D
:101B7000B8559E46164607F8028015F8010F002852
:101B8000F2D1BEF1000FA7D00E60A5E720F07CFED9
:101B900023788FE7564A116871B1534F534ED7F8E7
:101BA00000C0D6F800E00CF10106764504D201F839
:101BB0000C0000203E608855287800283FF47EAF56
:101BC0004FF0000EF04617684749484A0E68D2F8B1
:101BD00000C0721C37B1944504D9B8559E461646CC
:101BE00007F8028015F8010F0028F2D1BEF1000FAE
:101BF0003FF464AF0E6061E720F046FE23784AE7C9
:101C00003B4A116871B1384F384ED7F800C0D6F84A
:101C100000E00CF10106764504D201F80C0000202A
:101C20003E608855287800283FF439AF4FF0000E09
:101C3000F04617682C492D4A0E68D2F800C0721C75
:101C400037B1944504D9B8559E46164607F8028028
:101C500015F8010F0028F2D1BEF1000F3FF41FAFBD
:101C60000E601CE720F010FE2378D3E6204A1168AE
:101C700071B11D4F1D4ED7F800C0D6F800E00CF131
:101C80000106764504D201F80C0000203E6088551C
:101C9000287800283FF4C2AE4FF0000EF0461768D7
:101CA0001149124A0E68D2F800C0721C37B194452F
:101CB00004D9B8559E46164607F8028015F8010F5C
:101CC0000028F2D1BEF1000F3FF4A8AE0E60A5E6E9
:101CD00020F0DAFD23788CE6B7A105205DC802105C
:101CE000ADC80210F8C80210E47E0020E07E00209B
:101CF000DC7E0020A14A116871B1A14FA14ED7F836
:101D000000C0D6F800E00CF10106764504D201F8D7
:101D10000C0000203E608855287800283FF46DAE06
:101D20004FF0000EF04617689549964A0E68D2F8B3
:101D300000C0721C37B1944504D9B8559E4616466A
:101D400007F8028015F8010F0028F2D1BEF1000F4C
:101D50003FF453AE0E6050E620F096FD237837E650
:101D6000864A116871B1864F864ED7F800C0D6F802
:101D700000E00CF10106764504D201F80C000020C9
:101D80003E608855287800283FF426AE4FF0000EBC
:101D9000F04617687A497B4A0E68D2F800C0721C78
:101DA00037B1944504D9B8559E46164607F80280C7
:101DB00015F8010F0028F2D1BEF1000F3FF40CAE70
:101DC0000E6009E620F060FD2378F0E56B4A1168AB
:101DD00071B16B4F6B4ED7F800C0D6F800E00CF134
:101DE0000106764504D201F80C0000203E608855BB
:101DF000287800283FF4DFAD4FF0000EF04617685A
:101E00005F49604A0E68D2F800C0721C37B1944531
:101E100004D9B8559E46164607F8028015F8010FFA
:101E20000028F2D1BEF1000F3FF4C5AD0E60C2E54F
:101E300020F02AFD2378A9E5504A116871B1504F6E
:101E4000504ED7F800C0D6F800E00CF101067645F8
:101E500004D201F80C0000203E6088552878002844
:101E60003FF498AD4FF0000EF04617684449454ADC
:101E70000E68D2F800C0721C37B1944504D9B85529
:101E80009E46164607F8028015F8010F0028F2D189
:101E9000BEF1000F3FF47EAD0E607BE520F0F4FC58
:101EA000237862E5354A116871B1354F354ED7F860
:101EB00000C0D6F800E00CF10106764504D201F826
:101EC0000C0000203E608855287800283FF451AD72
:101ED0004FF0000EF046176829492A4A0E68D2F8DA
:101EE00000C0721C37B1944504D9B8559E461646B9
:101EF00007F8028015F8010F0028F2D1BEF1000F9B
:101F00003FF437AD0E6034E520F0BEFC23781BE5CE
:101F10001A4A116871B11A4F1A4ED7F800C0D6F894
:101F200000E00CF10106764504D201F80C00002017
:101F30003E608855287800283FF40AAD4FF0000E27
:101F4000F04617680E490F4A0E68D2F800C0721C9E
:101F500037B1944504D9B8559E46164607F8028015
:101F600015F8010F0028F2D1BEF1000F3FF4F0ACDC
:101F70000E60EDE420F088FC2378D4E4DC7E0020C1
:101F8000E47E0020E07E0020A54A116871B1A54FD3
:101F9000A54ED7F800C0D6F800E00CF10106764552
:101FA00004D201F80C0000203E60885528780028F3
:101FB0003FF4BDAC4FF0000EF046176899499A4ABD
:101FC0000E68D2F800C0721C37B1944504D9B855D8
:101FD0009E46164607F8028015F8010F0028F2D138
:101FE000BEF1000F3FF4A3AC0E60A0E420F04CFC67
:101FF000237887E48A4A116871B18A4F8A4ED7F8EC
:1020000000C0D6F800E00CF10106764504D201F8D4
:102010000C0000203E608855287800283FF476ACFC
:102020004FF0000EF04617687E497F4A0E68D2F8DE
:1020300000C0721C37B1944504D9B8559E46164667
:1020400007F8028015F8010F0028F2D1BEF1000F49
:102050003FF45CAC0E6059E420F016FC237840E4B9
:102060006F4A116871B16F4F6F4ED7F800C0D6F844
:1020700000E00CF10106764504D201F80C000020C6
:102080003E608855287800283FF42FAC4FF0000EB2
:10209000F04617686349644A0E68D2F800C0721CA3
:1020A00037B1944504D9B8559E46164607F80280C4
:1020B00015F8010F0028F2D1BEF1000F3FF415AC66
:1020C0000E6012E420F0E0FB2378FFF7F9BB544ADE
:1020D000116871B1534F544ED7F800C0D6F800E0E4
:1020E0000CF10106764504D201F80C0000203E6098
:1020F0008855287800283FF4E7AB4FF0000EF046F3
:1021000017684849484A0E68D2F800C0721C37B1B7
:10211000944504D9B8559E46164607F8028015F82E
:10212000010F0028F2D1BEF1000F3FF4CDAB0E60DD
:10213000FFF7CABB20F0A8FB2378FFF7B0BB384AF3
:10214000116871B1374F384ED7F800C0D6F800E0AB
:102150000CF10106764504D201F80C0000203E6027
:102160008855287800283FF49EAB4FF0000EF046CB
:1021700017682C492C4A0E68D2F800C0721C37B17F
:10218000944504D9B8559E46164607F8028015F8BE
:10219000010F0028F2D1BEF1000F3FF484AB0E60B6
:1021A000FFF781BB20F070FB2378FFF767BB1C4A69
:1021B000116871B11B4F1C4ED7F800C0D6F800E073
:1021C0000CF10106764504D201F80C0000203E60B7
:1021D0008855287800283FF455AB4FF0000EF046A4
:1021E00017681049104A0E68D2F800C0721C37B147
:1021F000944504D9B8559E46164607F8028015F84E
:10220000010F0028F2D1BEF1000F3FF43BAB0E608E
:10221000FFF738BB20F038FB2378FFF71EBB00BF69
:10222000DC7E0020E47E0020E07E0020A74A1168CA
:1022300071B1A74FA74ED7F800C0D6F800E00CF157
:102240000106764504D201F80C0000203E60885556
:10225000287800283FF405AB4FF0000EF0461768D1
:102260009B499C4A0E68D2F800C0721C37B1944555
:1022700004D9B8559E46164607F8028015F8010F96
:102280000028F2D1BEF1000F3FF4EBAA0E60FFF779
:10229000E8BA20F0F9FA2378FFF7CEBA8B4A116832
:1022A00071B18B4F8B4ED7F800C0D6F800E00CF11F
:1022B0000106764504D201F80C0000203E608855E6
:1022C000287800283FF4BCAA4FF0000EF0461768AB
:1022D0007F49804A0E68D2F800C0721C37B194451D
:1022E00004D9B8559E46164607F8028015F8010F26
:1022F0000028F2D1BEF1000F3FF4A2AA0E60FFF752
:102300009FBA20F0C1FA2378FFF785BA6F4A1168A7
:1023100071B16F4F6F4ED7F800C0D6F800E00CF1E6
:102320000106764504D201F80C0000203E60885575
:10233000287800283FF473AA4FF0000EF046176883
:102340006349644A0E68D2F800C0721C37B19445E4
:1023500004D9B8559E46164607F8028015F8010FB5
:102360000028F2D1BEF1000F3FF459AA0E60FFF72A
:1023700056BA20F089FA2378FFF73CBA534A11681D
:1023800071B1534F534ED7F800C0D6F800E00CF1AE
:102390000106764504D201F80C0000203E60885505
:1023A000287800283FF42AAA4FF0000EF04617685C
:1023B0004749484A0E68D2F800C0721C37B19445AC
:1023C00004D9B8559E46164607F8028015F8010F45
:1023D0000028F2D1BEF1000F3FF410AA0E60FFF703
:1023E0000DBA20F051FA2378FFF7F3B9374A116894
:1023F00071B1374F374ED7F800C0D6F800E00CF176
:102400000106764504D201F80C0000203E60885594
:10241000287800283FF4E1A94FF0000EF046176835
:102420002B492C4A0E68D2F800C0721C37B1944573
:1024300004D9B8559E46164607F8028015F8010FD4
:102440000028F2D1BEF1000F3FF4C7A90E60FFF7DC
:10245000C4B920F019FA2378FFF7AAB91B4A11680A
:1024600071B11B4F1B4ED7F800C0D6F800E00CF13D
:102470000106764504D201F80C0000203E60885524
:10248000287800283FF498A94FF0000EF04617680E
:102490000F49104A0E68D2F800C0721C37B194453B
:1024A00004D9B8559E46164607F8028015F8010F64
:1024B0000028F2D1BEF1000F3FF47EA90E60FFF7B5
:1024C0007BB920F0E1F92378FFF761B9DC7E0020C9
:1024D000E47E0020E07E00209E4A116871B19E4F8C
:1024E0009E4ED7F800C0D6F800E00CF10106764504
:1024F00004D201F80C0000203E608855287800289E
:102500003FF449A94FF0000EF04617689249934AEC
:102510000E68D2F800C0721C37B1944504D9B85582
:102520009E46164607F8028015F8010F0028F2D1E2
:10253000BEF1000F3FF42FA90E60FFF72CB9412028
:10254000874C884D2378884E002B41F07781337873
:10255000002B01F06E810AF091FE237815F8010B33
:102560000028F1D12020814D7F4E002B41F02E819B
:102570003378002B01F025810AF080FE237815F8CE
:10258000010B0028F1D12020794D774E002B41F02E
:10259000E5803378002B01F0D5800AF06FFE2378B8
:1025A00015F8010B0028F1D12020724D6E4EDFF896
:1025B000A481694F6BB93378002B01F0BF800AF01A
:1025C0005DFE15F8010F00283EF4B5AD2378002B11
:1025D000F1D0D8F80030002BF3D0604A3968D2F837
:1025E00000C04A1C6245ECD2585400213A6099540C
:1025F000E7E720F049F9FFF776B8564A116871B15C
:10260000554F564ED7F800C0D6F800E00CF1010641
:10261000764504D201F80C0000203E6088552878E9
:1026200000283FF442A84FF0000EF04617684A49D0
:102630004A4A0E68D2F800C0721C37B1944504D9DA
:10264000B8559E46164607F8028015F8010F002877
:10265000F2D1BEF1000F3FF428A80E60FFF725B8B5
:1026600020F012F92378FFF70BB83A4A116871B1DC
:10267000394F3A4ED7F800C0D6F800E00CF1010609
:10268000764504D201F80C0000203E608855287879
:1026900000283EF4F9AF4FF0000EF04617682E49BF
:1026A0002E4A0E68D2F800C0721C37B1944504D986
:1026B000B8559E46164607F8028015F8010F002807
:1026C000F2D1BEF1000F3EF4DFAF0E60FEF7DCBFCB
:1026D00020F0DAF82378FEF7C2BF1E4A116871B104
:1026E0001D4F1E4ED7F800C0D6F800E00CF10106D1
:1026F000764504D201F80C0000203E608855287809
:1027000000283EF4E3AF4FF0000EF0461768124980
:10271000124A0E68D2F800C0721C37B1944504D931
:10272000B8559E46164607F8028015F8010F002896
:10273000F2D1BEF1000F3EF4C9AF0E60FEF7C6BF86
:1027400020F0A2F82378FEF7ACBF20F09DF82378A4
:10275000FEF7B8BFDC7E0020E47E0020E07E002093
:10276000B9A10520A1D20210B7A10520B5D202104F
:10277000F1D2021074D30210A54A116871B1A54FAD
:10278000A54ED7F800C0D6F800E00CF1010676455A
:1027900004D201F80C0000203E60885528780028FB
:1027A0003EF4EFAC4FF0000EF046176899499A4A94
:1027B0000E68D2F800C0721C37B1944504D9B855E0
:1027C0009E46164607F8028015F8010F0028F2D140
:1027D000BEF1000F3EF4D5AC0E60FEF7D2BC8C4AC1
:1027E000116871B18B4F8C4ED7F800C0D6F800E05D
:1027F0000CF10106764504D201F80C0000203E6081
:102800008855287800283EF4DEAC4FF0000EF046E4
:1028100017688049804A0E68D2F800C0721C37B130
:10282000944504D9B8559E46164607F8028015F817
:10283000010F0028F2D1BEF1000F3EF4C4AC0E60CF
:10284000FEF7C1BC20F020F82378FEF7A7BC704A41
:10285000116871B16F4F704ED7F800C0D6F800E024
:102860000CF10106764504D201F80C0000203E6010
:102870008855287800283EF495AC4FF0000EF046BD
:1028800017686449644A0E68D2F800C0721C37B1F8
:10289000944504D9B8559E46164607F8028015F8A7
:1028A000010F0028F2D1BEF1000F3EF47BAC0E60A8
:1028B000FEF778BC1FF0E8FF2378FEF75EBC544AB1
:1028C000116871B1534F544ED7F800C0D6F800E0EC
:1028D0000CF10106764504D201F80C0000203E60A0
:1028E0008855287800283EF4BEAE4FF0000EF04622
:1028F00017684849484A0E68D2F800C0721C37B1C0
:10290000944504D9B8559E46164607F8028015F836
:10291000010F0028F2D1BEF1000F3EF4A4AE0E600C
:10292000FEF7A1BE1FF0B0FF2378FEF787BE384A3E
:10293000116871B1374F384ED7F800C0D6F800E0B3
:102940000CF10106764504D201F80C0000203E602F
:102950008855287800283EF475AE4FF0000EF046FA
:1029600017682C492C4A0E68D2F800C0721C37B187
:10297000944504D9B8559E46164607F8028015F8C6
:10298000010F0028F2D1BEF1000F3EF45BAE0E60E5
:10299000FEF758BE1FF078FF2378FEF73EBE1C4AB4
:1029A000116871B11B4F1C4ED7F800C0D6F800E07B
:1029B0000CF10106764504D201F80C0000203E60BF
:1029C0008855287800283EF42CAE4FF0000EF046D3
:1029D00017681049104A0E68D2F800C0721C37B14F
:1029E000944504D9B8559E46164607F8028015F856
:1029F000010F0028F2D1BEF1000F3EF412AE0E60BE
:102A0000FEF70FBE1FF040FF2378FEF7F5BD00BFB5
:102A1000DC7E0020E47E0020E07E0020A74A1168D2
:102A200071B1A74FA74ED7F800C0D6F800E00CF15F
:102A30000106764504D201F80C0000203E6088555E
:102A4000287800283EF4DCAD4FF0000EF046176801
:102A50009B499C4A0E68D2F800C0721C37B194455D
:102A600004D9B8559E46164607F8028015F8010F9E
:102A70000028F2D1BEF1000F3EF4C2AD0E60FEF7A9
:102A8000BFBD1FF001FF2378FEF7A5BD8B4A11687B
:102A900071B18B4F8B4ED7F800C0D6F800E00CF127
:102AA0000106764504D201F80C0000203E608855EE
:102AB000287800283EF493AD4FF0000EF0461768DA
:102AC0007F49804A0E68D2F800C0721C37B1944525
:102AD00004D9B8559E46164607F8028015F8010F2E
:102AE0000028F2D1BEF1000F3EF479AD0E60FEF782
:102AF00076BD1FF0C9FE2378FEF75CBD6F4A1168F2
:102B000071B16F4F6F4ED7F800C0D6F800E00CF1EE
:102B10000106764504D201F80C0000203E6088557D
:102B2000287800283EF44AAD4FF0000EF0461768B2
:102B30006349644A0E68D2F800C0721C37B19445EC
:102B400004D9B8559E46164607F8028015F8010FBD
:102B50000028F2D1BEF1000F3EF430AD0E60FEF75A
:102B60002DBD1FF091FE2378FEF713BD534A116867
:102B700071B1534F534ED7F800C0D6F800E00CF1B6
:102B80000106764504D201F80C0000203E6088550D
:102B9000287800283EF401AD4FF0000EF04617688B
:102BA0004749484A0E68D2F800C0721C37B19445B4
:102BB00004D9B8559E46164607F8028015F8010F4D
:102BC0000028F2D1BEF1000F3EF4E7AC0E60FEF734
:102BD000E4BC1FF059FE2378FEF7CABC374A1168DF
:102BE00071B1374F374ED7F800C0D6F800E00CF17E
:102BF0000106764504D201F80C0000203E6088559D
:102C0000287800283EF4B8AC4FF0000EF046176864
:102C10002B492C4A0E68D2F800C0721C37B194457B
:102C200004D9B8559E46164607F8028015F8010FDC
:102C30000028F2D1BEF1000F3EF49EAC0E60FEF70C
:102C40009BBC1FF021FE2378FEF781BC1B4A116854
:102C500071B11B4F1B4ED7F800C0D6F800E00CF145
:102C60000106764504D201F80C0000203E6088552C
:102C7000287800283EF46FAC4FF0000EF04617683D
:102C80000F49104A0E68D2F800C0721C37B1944543
:102C900004D9B8559E46164607F8028015F8010F6C
:102CA0000028F2D1BEF1000F3EF455AC0E60FEF7E5
:102CB00052BC1FF0E9FD2378FEF738BCDC7E002013
:102CC000E47E0020E07E0020A74A116871B1A74F82
:102CD000A74ED7F800C0D6F800E00CF10106764503
:102CE00004D201F80C0000203E60885528780028A6
:102CF0003EF420AC4FF0000EF04617689B499C4A0A
:102D00000E68D2F800C0721C37B1944504D9B8558A
:102D10009E46164607F8028015F8010F0028F2D1EA
:102D2000BEF1000F3EF406AC0E60FEF703BC1FF0D0
:102D3000ABFD2378FEF7E9BB8B4A116871B18B4F6D
:102D40008B4ED7F800C0D6F800E00CF101067645AE
:102D500004D201F80C0000203E6088552878002835
:102D60003EF4D7AB4FF0000EF04617687F49804A1B
:102D70000E68D2F800C0721C37B1944504D9B8551A
:102D80009E46164607F8028015F8010F0028F2D17A
:102D9000BEF1000F3EF4BDAB0E60FEF7BABB1FF0F4
:102DA00073FD2378FEF7A0BB6F4A116871B16F4FB6
:102DB0006F4ED7F800C0D6F800E00CF1010676455A
:102DC00004D201F80C0000203E60885528780028C5
:102DD0003EF48EAB4FF0000EF04617686349644A2C
:102DE0000E68D2F800C0721C37B1944504D9B855AA
:102DF0009E46164607F8028015F8010F0028F2D10A
:102E0000BEF1000F3EF474AB0E60FEF771BB1FF015
:102E10003BFD2378FEF757BB534A116871B1534FFE
:102E2000534ED7F800C0D6F800E00CF10106764505
:102E300004D201F80C0000203E6088552878002854
:102E40003EF445AB4FF0000EF04617684749484A3C
:102E50000E68D2F800C0721C37B1944504D9B85539
:102E60009E46164607F8028015F8010F0028F2D199
:102E7000BEF1000F3EF42BAB0E60FEF728BB1FF037
:102E800003FD2378FEF70EBB374A116871B1374F47
:102E9000374ED7F800C0D6F800E00CF101067645B1
:102EA00004D201F80C0000203E60885528780028E4
:102EB0003EF4FCAA4FF0000EF04617682B492C4A4E
:102EC0000E68D2F800C0721C37B1944504D9B855C9
:102ED0009E46164607F8028015F8010F0028F2D129
:102EE000BEF1000F3EF4E2AA0E60FEF7DFBA1FF05B
:102EF000CBFC2378FEF7C5BA1B4A116871B11B4F92
:102F00001B4ED7F800C0D6F800E00CF1010676455C
:102F100004D201F80C0000203E6088552878002873
:102F20003EF4B3AA4FF0000EF04617680F49104A5E
:102F30000E68D2F800C0721C37B1944504D9B85558
:102F40009E46164607F8028015F8010F0028F2D1B8
:102F5000BEF1000F3EF499AA0E60FEF796BA1FF07C
:102F600093FC2378FEF74CBADC7E0020E47E002040
:102F7000E07E0020A74A116871B1A74FA74ED7F88D
:102F800000C0D6F800E00CF10106764504D201F845
:102F90000C0000203E608855287800283EF434AAB2
:102FA0004FF0000EF04617689B499C4A0E68D2F815
:102FB00000C0721C37B1944504D9B8559E461646D8
:102FC00007F8028015F8010F0028F2D1BEF1000FBA
:102FD0003EF41AAA0E60FEF717BA1FF055FC2378CC
:102FE000FEF7FDB98B4A116871B18B4F8B4ED7F844
:102FF00000C0D6F800E00CF10106764504D201F8D5
:103000000C0000203E608855287800283EF4EBA98B
:103010004FF0000EF04617687F49804A0E68D2F8DC
:1030200000C0721C37B1944504D9B8559E46164667
:1030300007F8028015F8010F0028F2D1BEF1000F49
:103040003EF4D1A90E60FEF7CEB91FF01DFC237827
:10305000FEF7B4B96F4A116871B16F4F6F4ED7F870
:1030600000C0D6F800E00CF10106764504D201F864
:103070000C0000203E608855287800283EF4A2A964
:103080004FF0000EF04617686349644A0E68D2F8A4
:1030900000C0721C37B1944504D9B8559E461646F7
:1030A00007F8028015F8010F0028F2D1BEF1000FD9
:1030B0003EF488A90E60FEF785B91FF0E5FB237882
:1030C000FEF76BB9534A116871B1534F534ED7F89D
:1030D00000C0D6F800E00CF10106764504D201F8F4
:1030E0000C0000203E608855287800283EF459A93D
:1030F0004FF0000EF04617684749484A0E68D2F86C
:1031000000C0721C37B1944504D9B8559E46164686
:1031100007F8028015F8010F0028F2D1BEF1000F68
:103120003EF43FA90E60FEF73CB91FF0ADFB2378DB
:10313000FEF722B9374A116871B1374F374ED7F8C9
:1031400000C0D6F800E00CF10106764504D201F883
:103150000C0000203E608855287800283EF410A915
:103160004FF0000EF04617682B492C4A0E68D2F833
:1031700000C0721C37B1944504D9B8559E46164616
:1031800007F8028015F8010F0028F2D1BEF1000FF8
:103190003EF4F6A80E60FEF7F3B81FF075FB237837
:1031A000FEF7D9B81B4A116871B11B4F1B4ED7F8F7
:1031B00000C0D6F800E00CF10106764504D201F813
:1031C0000C0000203E608855287800283EF4C7A8EF
:1031D0004FF0000EF04617680F49104A0E68D2F8FB
:1031E00000C0721C37B1944504D9B8559E461646A6
:1031F00007F8028015F8010F0028F2D1BEF1000F88
:103200003EF4ADA80E60FEF7AAB81FF03DFB237890
:10321000FEF790B8DC7E0020E47E0020E07E0020F7
:10322000A74A116871B1A74FA74ED7F800C0D6F8CA
:1032300000E00CF10106764504D201F80C000020F4
:103240003E608855287800283EF478A84FF0000E9C
:10325000F04617689B499C4A0E68D2F800C0721C61
:1032600037B1944504D9B8559E46164607F80280F2
:1032700015F8010F0028F2D1BEF1000F3EF45EA850
:103280000E60FEF75BB81FF0FFFA2378FEF741B837
:103290008B4A116871B18B4F8B4ED7F800C0D6F8AE
:1032A00000E00CF10106764504D201F80C00002084
:1032B0003E608855287800283EF42FA84FF0000E75
:1032C000F04617687F49804A0E68D2F800C0721C29
:1032D00037B1944504D9B8559E46164607F8028082
:1032E00015F8010F0028F2D1BEF1000F3EF415A829
:1032F0000E60FEF712B81FF0C7FA2378FDF7F8BF8B
:103300006F4A116871B16F4F6F4ED7F800C0D6F891
:1033100000E00CF10106764504D201F80C00002013
:103320003E608855287800283DF4E6AF4FF0000E47
:10333000F04617686349644A0E68D2F800C0721CF0
:1033400037B1944504D9B8559E46164607F8028011
:1033500015F8010F0028F2D1BEF1000F3DF4CCAFFB
:103360000E60FDF7C9BF1FF08FFA2378FDF7AFBFDE
:10337000534A116871B1534F534ED7F800C0D6F875
:1033800000E00CF10106764504D201F80C000020A3
:103390003E608855287800283DF49DAF4FF0000E20
:1033A000F04617684749484A0E68D2F800C0721CB8
:1033B00037B1944504D9B8559E46164607F80280A1
:1033C00015F8010F0028F2D1BEF1000F3DF483AFD4
:1033D0000E60FDF780BF1FF057FA2378FDF766BF38
:1033E000374A116871B1374F374ED7F800C0D6F859
:1033F00000E00CF10106764504D201F80C00002033
:103400003E608855287800283DF454AF4FF0000EF8
:10341000F04617682B492C4A0E68D2F800C0721C7F
:1034200037B1944504D9B8559E46164607F8028030
:1034300015F8010F0028F2D1BEF1000F3DF43AAFAC
:103440000E60FDF737BF1FF01FFA2378FDF71DBF91
:103450001B4A116871B11B4F1B4ED7F800C0D6F83C
:1034600000E00CF10106764504D201F80C000020C2
:103470003E608855287800283DF40BAF4FF0000ED1
:10348000F04617680F49104A0E68D2F800C0721C47
:1034900037B1944504D9B8559E46164607F80280C0
:1034A00015F8010F0028F2D1BEF1000F3DF4F1AE86
:1034B0000E60FDF7EEBE1FF0E7F92378FDF7D4BEEE
:1034C000DC7E0020E47E0020E07E0020A04A11681F
:1034D00071B1A04FA04ED7F800C0D6F800E00CF1B3
:1034E0000106764504D201F80C0000203E608855A4
:1034F000287800283DF4BCAE4FF0000EF046176867
:103500009449954A0E68D2F800C0721C37B19445B0
:1035100004D9B8559E46164607F8028015F8010FE3
:103520000028F2D1BEF1000F3DF4A2AE0E60FDF70F
:103530009FBE1FF0A9F92378FDF785BE844A116864
:1035400071B1844F844ED7F800C0D6F800E00CF17A
:103550000106764504D201F80C0000203E60885533
:10356000287800283DF473AE4FF0000EF04617683F
:103570007849794A0E68D2F800C0721C37B1944578
:1035800004D9B8559E46164607F8028015F8010F73
:103590000028F2D1BEF1000F3DF459AE0E60FDF7E8
:1035A00056BE1FF071F92378FDF73CBE684A1168DA
:1035B00071B1684F684ED7F800C0D6F800E00CF142
:1035C0000106764504D201F80C0000203E608855C3
:1035D000287800283DF42AAE4FF0000EF046176818
:1035E0005C495D4A0E68D2F800C0721C37B1944540
:1035F00004D9B8559E46164607F8028015F8010F03
:103600000028F2D1BEF1000F3DF410AE0E60FDF7C0
:103610000DBE1FF039F92378FDF7F3BD4C4A116850
:1036200071B14C4F4C4ED7F800C0D6F800E00CF109
:103630000106764504D201F80C0000203E60885552
:10364000287800283DF4E1AD4FF0000EF0461768F1
:103650004049414A0E68D2F800C0721C37B1944507
:1036600004D9B8559E46164607F8028015F8010F92
:103670000028F2D1BEF1000F3DF4C7AD0E60FDF79A
:10368000C4BD1FF001F92378FDF7AABD304A1168C7
:1036900071B1304F304ED7F800C0D6F800E00CF1D1
:1036A0000106764504D201F80C0000203E608855E2
:1036B000287800283DF498AD4FF0000EF0461768CA
:1036C0002449254A0E68D2F800C0721C37B19445CF
:1036D00004D9B8559E46164607F8028015F8010F22
:1036E0000028F2D1BEF1000F3DF47EAD0E60FDF773
:1036F0007BBD1FF0C9F82378FDF761BD1FF0C4F84A
:10370000FDF715BD124AD2F800C0BCF1000F00F061
:1037100065821049104FD1F800E03C680EF10106B7
:10372000A64205D20CF80E0000200E600CF8060030
:103730002878002840F05882FDF7FDBC1FF0A4F85F
:10374000FEF73FBF1FF0A0F82378FEF729BF00BFA8
:10375000DC7E0020E47E0020E07E0020A84A116884
:1037600071B1A84FA84ED7F800C0D6F800E00CF110
:103770000106764504D201F80C0000203E60885511
:10378000287800283EF410AF4FF0000EF04617687E
:103790009C499D4A0E68D2F800C0721C37B194450E
:1037A00004D9B8559E46164607F8028015F8010F51
:1037B0000028F2D1BEF1000F3EF4F6AE0E60FEF727
:1037C000F3BE1FF061F82378FEF7D9BE8C4A11686A
:1037D00071B18C4F8C4ED7F800C0D6F800E00CF1D8
:1037E0000106764504D201F80C0000203E608855A1
:1037F000287800283EF4C7AE4FF0000EF046176858
:103800008049814A0E68D2F800C0721C37B19445D5
:1038100004D9B8559E46164607F8028015F8010FE0
:103820000028F2D1BEF1000F3EF4ADAE0E60FEF7FF
:10383000AABE1FF029F82378FEF790BE704A1168DF
:1038400071B1704F704ED7F800C0D6F800E00CF19F
:103850000106764504D201F80C0000203E60885530
:10386000287800283EF47EAE4FF0000EF046176830
:103870006449654A0E68D2F800C0721C37B194459D
:1038800004D9B8559E46164607F8028015F8010F70
:103890000028F2D1BEF1000F3EF464AE0E60FEF7D8
:1038A00061BE4C20594C5A4D23785A4E002B40F0A3
:1038B00063813378002B00F05B8109F0DFFC237813
:1038C00015F8010B0028F1D12020534D514E002B4B
:1038D00040F01C813378002B00F0148109F0CEFCFD
:1038E000237815F8010B0028F1D120204B4D494ECB
:1038F000002B40F0D5803378002B00F0CD8009F00C
:10390000BDFC237815F8010B0028F1D12020444D8F
:10391000404E002B40F08E803378002B00F08680E4
:1039200009F0ACFC237815F8010B0028F1D1202018
:103930003C4D384E002B32D1337863B309F09EFCF6
:10394000237815F8010B0028F4D12020364D314E94
:10395000DFF8AC802B4F5BB93378CBB109F08EFC2C
:1039600015F8010F00283DF4E6AB2378002BF3D0C7
:10397000D8F80030002BF3D0234A3968D2F800C0C1
:103980004A1C6245ECD2585400213A609954E7E74A
:103990001EF07AFFE4E71EF077FF2378D1E7184A9C
:1039A000116871B1174F184ED7F800C0D6F800E073
:1039B0000CF10106764504D201F80C0000203E60AF
:1039C000885528780028C0D04FF0000EF0461768C0
:1039D0000C490D4A0E68D2F800C0721C37B19445EC
:1039E00004D9B8559E46164607F8028015F8010F0F
:1039F0000028F2D1BEF1000FA7D00E60A5E700BFEE
:103A0000DC7E0020E47E0020E07E0020B9A10520BD
:103A100059D10210B7A1052069D10210ADD1021011
:103A2000F1D102102DD2021060D202101EF02CFF34
:103A3000237878E7794A116871B1794F794ED7F8D0
:103A400000C0D6F800E00CF10106764504D201F87A
:103A50000C0000203E608855287800283FF467AFAE
:103A60004FF0000EF04617686D496E4A0E68D2F8A6
:103A700000C0721C37B1944504D9B8559E4616460D
:103A800007F8028015F8010F0028F2D1BEF1000FEF
:103A90003FF44DAF0E604AE71EF0F6FE237831E7A3
:103AA0005E4A116871B15E4F5E4ED7F800C0D6F81D
:103AB00000E00CF10106764504D201F80C0000206C
:103AC0003E608855287800283FF420AF4FF0000E64
:103AD000F04617685249534A0E68D2F800C0721C6B
:103AE00037B1944504D9B8559E46164607F802806A
:103AF00015F8010F0028F2D1BEF1000F3FF406AF18
:103B00000E6003E71EF0C0FE2378EAE6434A116820
:103B100071B1434F434ED7F800C0D6F800E00CF126
:103B20000106764504D201F80C0000203E6088555D
:103B3000287800283FF4D9AE4FF0000EF046176801
:103B40003749384A0E68D2F800C0721C37B1944524
:103B500004D9B8559E46164607F8028015F8010F9D
:103B60000028F2D1BEF1000F3FF4BFAE0E60BCE6FC
:103B70001EF08AFE2378A3E6284A116871B1284F07
:103B8000284ED7F800C0D6F800E00CF101067645C3
:103B900004D201F80C0000203E60885528780028E7
:103BA0003FF492AE4FF0000EF04617681C491D4AD4
:103BB0000E68D2F800C0721C37B1944504D9B855CC
:103BC0009E46164607F8028015F8010F0028F2D12C
:103BD000BEF1000F3FF478AE0E6075E6287800283D
:103BE0003DF4A9AA0E490F4F4FF0000CE6461668A7
:103BF0003F680C68621C36B1974204D930559C4628
:103C0000144606F802E015F8010F0028F2D1BCF1C5
:103C1000000F3DF490AA0C60FDF78DBADC7E002009
:103C2000E47E0020E07E00202DE9F04F0378054679
:103C3000ADF54B7D8BB10246002406E014B93E2B56
:103C400000F0998012F8013F3BB1222BF6D112F817
:103C5000013F84F00104002BF7D11C461E46284684
:103C600022F09AFE98B1421E2A44AB48C5F10107E2
:103C700005E011F001010AD1D742517007D012F8C6
:103C80000139093BDBB2172B40FA03F1F1D97C2152
:103C9000284622F03BFD002800F02D810746002336
:103CA000284607F8013B22F077FEA0B1421E2A44C5
:103CB0009948C5F1010C06E011F001010BD11CEB94
:103CC000020F517007D012F80139093BDBB2172BF4
:103CD00040FA03F1F0D9384690F800800746B8F171
:103CE000200F00F10100F7D0B8F1090FF4D03846E9
:103CF00022F052FEB0B1421E3A448748C7F1010C8F
:103D000006E011F001010BD11CEB020F517007D03E
:103D100012F80139093BDBB2172B40FA03F1F0D955
:103D200097F80080B8F1000F4FD038467B4922F059
:103D300055FD002849D03846794922F04FFD00282A
:103D400043D04F20774CDFF81C82774E98F8002044
:103D5000002A40F0AA813378002B00F0A38109F0FB
:103D60008DFA14F8010B0028F0D100232B700DF50B
:103D70004B7DBDE8F08F53783E2B18BF02F8014B06
:103D800000F04883164612F8013B202BFAD0092B8D
:103D9000F8D0304622F000FE00283FF460AF5E4FBE
:103DA000321807E011F001017FF459AF11700028BB
:103DB0003FF455AF12F8013D0138093BDBB2172B38
:103DC00047FA03F13FF64BAFECE72B78002BCED050
:103DD000012009F041FA01230293002E00F09380A4
:103DE0003378002B00F0F880504B93F80090B9F135
:103DF000000F40F008812F78222F00F0898029469B
:103E00001FB908E011F8017F2FB1202FFAD10F461A
:103E1000002307F8013B2846454922F0DFFC002833
:103E200000F0B4802846434922F0D8FC002800F076
:103E300057812846404922F0D1FC8046002800F0F6
:103E4000F98028463D4922F0C9FC8046002800F050
:103E5000ED8228463A4922F0C1FC8046002800F055
:103E60001B842846374922F0B9FC002800F08E85D3
:103E70002846354922F0B2FC002800F0F08328469D
:103E8000324922F0ABFC002801F06280284630491C
:103E900022F0A4FC002801F01C8128462D4922F0C4
:103EA0009DFC002801F0478228462B4922F096FC11
:103EB000002801F0BE832846284922F08FFC002804
:103EC00001F0FB842846264922F088FC002801F0F6
:103ED000E58495F80080B8F16C0F41F01A846B7896
:103EE000732B41F01684AB78002B41F012843846D6
:103EF000FCF7C8FC4DE02B78002B3FF438AF029064
:103F0000002E7FF46DAF2F78B146222F7FF477AF6C
:103F10006F78691C5FBB7EE7ECFF7FFF50D4021017
:103F200058D4021061D40210B7A10520B4A1052015
:103F300088D4021090D402108CD602106CD60210D5
:103F400084D60210CCD8021078D902108CD9021075
:103F500074DA0210C0D70210C8DA021000DB0210B7
:103F600094D40210B9A1052011F8017F37B1222F96
:103F7000FAD14B780131202B3FF449AF28467A49DA
:103F8000002722F02BFC00287FF44CAF3846FDF7C9
:103F90009FF8029B13BBB9F1000F3FF4E8AE00227B
:103FA000724B30464AA91A70714FFCF7A9F9DFF835
:103FB000D0A14AA8002C37D108F06CFB3A68DAF897
:103FC00000104AA808F00CFD0023CAF800303B603E
:103FD0000DF54B7DBDE8F08F99460CE7654B002051
:103FE0001D7809F039F9002DD5D0604B1B78002BD6
:103FF00040F08B84604B0A201B78002B00F02C8350
:1040000009F03CF9C7E700224FF4005001215B4B57
:104010005B4F1A703B60DFF854815A4B544F186065
:104020003A6088F80010E6E63A68DAF8001008F01E
:1040300003FFC9E7002F00F07A84384622F0ACFC79
:10404000FF28024628BFFF220AAD05EB020A3946C7
:10405000284621F0A5FF00238AF80030AA4615F86B
:10406000017B202FFAD0092FF8D0002F40F0978243
:10407000454D2B68002B40F068846820434DDFF8E5
:10408000EC803D4F98F80010002940F037833B78D2
:10409000002B00F0FE8209F0F1F815F8010B002862
:1040A000F0D176E71EF0F0FB5BE6DFF8D4A0914696
:1040B000DAF80060002E00F08B812D4F314B39680B
:1040C0001A6801F1010C944505D270540021C7F81B
:1040D00000C006F80C102178002940F07F8144E6EA
:1040E0004A900DF5947ACDE94B00CDE94D00CDE92C
:1040F0004F005190002F00F0238439460B780A4678
:10410000202B01F10101F9D0092BF7D0002B01F090
:10411000B982574600211E4D08E00131202900F0E8
:104120000C8407F8013B12F8013F13B1E85C00076B
:10413000F3D500230AF801309AF80050002D00F062
:10414000FF835046134922F049FB40B16C2D25D125
:104150009AF80130732B21D19AF80230F3B90E4846
:10416000FCF7B6FF15E700BF88D40210B9A10520FF
:10417000E47E0020BEA10520B7A1052080450520D2
:10418000DC7E0020E07E0020C07E0020A5D702104B
:104190005923031094D402102CD502109AF8003041
:1041A000632B00F04E825046B14922F017FB0028E5
:1041B000D5D05046AF4922F011FB0028CFD0504651
:1041C000AD4922F00BFB0028C9D05046AB4922F084
:1041D00005FB0028C3D05046A94922F0FFFA002869
:1041E000BDD09AF80030722B07D19AF801306D2BB0
:1041F00003D19AF80230002BB1D09AF80030632B2B
:1042000007D19AF80130702B03D19AF80230002BB5
:10421000A5D09AF800306D2B07D19AF80130762B93
:1042200003D19AF80230002B99D05046954922F0DC
:10423000D5FA002893D05046934922F0CFFA0028AF
:104240008DD05046914922F0C9FA002887D05046B7
:104250008F4922F0C3FA002881D050468D4922F0C0
:10426000BDFA00283FF47BAF50468B4922F0B6FAE6
:1042700000283FF474AF5046884922F0AFFA002876
:104280003FF46DAF5046864922F0A8FA00283FF46B
:1042900066AF5046834922F0A1FA00283FF45FAF91
:1042A0005046814922F09AFA00283FF458AF504610
:1042B0007E4922F093FA00283FF451AF50467C49E2
:1042C00022F08CFA00283FF44AAF5046794922F098
:1042D00085FA00283FF443AF5046774922F07EFA32
:1042E00000283FF43CAF5046744922F077FA00288A
:1042F0003FF435AF5046724922F070FA002802F0C0
:104300000F8050466F4922F069FA002802F00880B9
:1043100050466D4922F062FA002802F001805046B2
:104320006A4922F05BFA002801F0C88750466849C4
:1043300022F054FA002801F0C1875046654922F066
:104340004DFA002801F0BA875046634922F046FA38
:10435000002801F0B3875046604922F03FFA002858
:1043600001F0AC8750465E4922F038FA002801F08F
:10437000A08750465B4922F031FA002801F0998766
:104380005046594922F02AFA002801F092875046F7
:10439000564922F023FA002801F059875046544923
:1043A00022F01CFA002801F052875046514922F0B1
:1043B00015FA002801F04B8750464F4922F00EFABB
:1043C000002801F0448751464C48FCF77BF9E0E5B2
:1043D000217800293FF4C9AC494F4A4B4FF0000EF9
:1043E0004A46F046DAF80060D3F800C03868431C4B
:1043F00036B1634504D231549646184606F8038018
:1044000014F8011F0029F2D1BEF1000F3FF4ADAC4A
:104410003860AAE402F8024B13781646202B02F10A
:104420000102F9D0092BF7D00124B2E4002F00F0EB
:104430002A81384622F0B0FAFF28024628BFFF2220
:104440000DF5947A0AEB02053946504621F0A8FD95
:10445000002352462B70174612F8013B202BFAD04E
:10446000092BF8D0002B00F01D843A464EE000BF27
:104470009CD40210A0D40210A4D40210ACD4021018
:10448000B4D40210BCD40210C4D40210CCD4021094
:10449000D0D4021008110310D4D40210DCD40210BE
:1044A000E4D40210ECD40210F4D40210FCD40210B4
:1044B00004D502100CD5021018D5021020D5021018
:1044C00030D5021038D502103CD5021044D5021068
:1044D0005CD5021064D502106CD50210640F031075
:1044E00098D202102CD5021050D102106CD60210B6
:1044F00084D602108CD6021090D4021068D7021015
:10450000E47E0020E07E0020092B06D03D2B04D065
:1045100012F8013F23B1202BF6D1002102F8011B34
:1045200011781546202902F10102F9D00929F7D0A6
:10453000002B00F05B81002900F05881284622F012
:104540002BFA28B3431EDFF83CC3EA18C5F101007B
:1045500005E011F001010AD1D042517007D012F8E4
:104560000139093BDBB2172B4CFA03F1F1D928468C
:1045700022F012FA01280BD92B78222B01F0778038
:10458000272B05D1431EEA5C2B44272A01F07580B6
:104590000123294638461A46FCF78EFBF9E45046BB
:1045A000A84922F01BF90546002800F02A850422BC
:1045B0005046A54922F01EFA38B105225046A349BB
:1045C00022F018FA002840F05386722F14BF0523FA
:1045D00004235344184613F8012B202AFAD0092A41
:1045E000F8D021F0C9F9421E00F1A985984B19684D
:1045F0008A4280F2A485974B974D1B685B1A13443F
:1046000080335A4202F03F0203F03F0358BF534247
:1046100005EB0325284622F0BFF90746FF2F28BFE8
:10462000FF2729464AAD3A46284621F0B9FC002327
:1046300029468A48EB55FCF745F8284602F0FCF974
:10464000A7E49AF80130642B7FF4ADAD9AF80230FC
:10465000002B3FF484ADA6E51EF016F99BE4804BD9
:10466000D3E900571BF050FC401B4FF47A724FF017
:10467000000361EB070127F01BFE02460B46794859
:10468000FCF720F885E40DF5947A3A465546764FC6
:10469000DAE61EF0F9F800E5002F00F05284384603
:1046A00022F07AF9FF28024628BFFF220DF5947AFE
:1046B0000AEB02053946504621F072FC00235246AF
:1046C0002B70154612F8013B202BFAD0092BF8D09D
:1046D000002B40F092827520644DDFF8AC81644F6E
:1046E00098F80010002946D13B78002B40D008F004
:1046F000C5FD15F8010B0028F2D14AE4DFF88CA1C2
:10470000DAF800C0BCF1000F00F01384594F5A4B87
:10471000D7F800801A6808F1010E964506D20022EB
:104720000CF80800C7F800E00CF80E202A78002AE0
:104730003FF42FAC4FF0000EDAF800C0F246D3F889
:1047400000803B68581CBCF1000F07D0804505D99C
:104750000CF803208E4603460CF800A015F8012F34
:10476000002AEFD1BEF1000F3FF413AC3B6010E420
:104770001EF08AF8BDE7DFF814A1DAF800C0BCF13A
:10478000000F00F036843B4F3B4BD7F800801A688F
:1047900008F1010E964506D200220CF80800C7F871
:1047A00000E00CF80E202A78002A3FF4F2AB4FF01C
:1047B000000EDAF800C0F246D3F800803B68581CBF
:1047C000BCF1000F07D0804505D90CF803208E46B8
:1047D00003460CF800A015F8012F002AEFD1BEF116
:1047E000000F3FF4D6AB3B60FFF7D3BB3B78ABB1D8
:1047F0004FF0000A214D15F8013C08F1010833B1D2
:104800002846394621F0EAFF002800F03882B8F146
:10481000100F0AF2111A05F21115ECD16120184D92
:10482000DFF86480124F98F8001089BB3B78002BAA
:1048300068D008F023FD15F8010B0028F3D1FFF72D
:10484000A8BB00BFC0D70210DCD70210E4D702100B
:10485000C07E0020C47E0020C03E002078C302102D
:104860002823002080D902104C1703105DD80210B5
:10487000B7A10520E47E0020E07E00208D230020EB
:1048800049D80210ECFF7FFFB9A10520DC7E002093
:10489000DFF8C4A28B46DAF800E0BEF1000F00F0AA
:1048A0000B84AB4FAB4B3A68196802F1010C8C4595
:1048B00006D20EF802000022C7F800C00EF80C2045
:1048C0002A78002A3FF465AB4FF0000E5946F046B7
:1048D000DAF80000D3F800A03B6803F1010C30B116
:1048E000E24504D9C2548E46634600F80C8015F8A0
:1048F000012F002AF1D1BEF1000F3FF44AAB3B601B
:10490000FFF747BB1DF0C0FF95E7934B1A68002ADD
:104910003FF441AB8F4B8E491D680B68581CA84271
:10492000BFF439AB08600A21D152FFF734BB0AAD9E
:104930003A46AA46894FFFF78ABB1F21FFF7F9BB0A
:104940000020FCF7C5FBFFF724BB7FF722ABDFF8A5
:1049500028B2DFF828A2824F4146DBF8002008F198
:104960000108D21A0A448032534203F03F0302F096
:104970003F0258BF5A42414638460AEB0222FBF733
:10498000A1FE2B689845E7DBFFF703BB4D20754D73
:10499000DFF8EC81744F98F80010002940F0F480A3
:1049A0003B78002B00F0D08008F068FC15F8010B74
:1049B0000028F0D14FF4A0726C481146FBF782FE3C
:1049C00020206B4D684F98F80030002B40F083801A
:1049D0003B78002B7AD008F051FC98F8003015F89D
:1049E000010B0028F1D12020624D5F4F002B36D102
:1049F0003B787BB308F042FC98F8003015F8010BC7
:104A00000028F3D12020DFF87CB1574D524FDFF85A
:104A100040A15BB92B78D3B108F030FC1BF8010F33
:104A200000283FF4B6AA98F80030F2E73B68002B64
:104A3000F4D0484ADAF80010D2F800C04A1C6245A7
:104A4000ECD258540021CAF800209954E6E71DF032
:104A50001BFFE3E71DF018FF98F80030CEE7DFF802
:104A6000F8A0DAF8002072B1394F3A49D7F800C0FF
:104A7000D1F800E00CF10101714504D202F80C00FC
:104A80000020396050542A78002ABBD018464FF0D5
:104A9000000EDAF800C0F346634684462D492C4FD9
:104AA000D1F800A03968481C33B1824504D95A5462
:104AB000E646014603F800B015F8012F002AF2D1AE
:104AC0006346BEF1000F9DD039609BE71DF0DCFE10
:104AD00098F8003083E7DFF880A0DAF8002072B1A0
:104AE0001B4F1C49D7F800C0D1F800E00CF10101C0
:104AF000714504D202F80C000020396050542A7825
:104B0000002A3FF470AF18464FF0000EDAF800C0EC
:104B1000F346634684460F490D4FD1F800A039682B
:104B2000481C33B1824504D95A54E646014603F87D
:104B300000B015F8012F002AF2D16346BEF1000F34
:104B40003FF451AF39604EE71DF09EFE2EE700BFE7
:104B5000E47E0020E07E0020DC7E00204C17031065
:104B6000B4D70210D5D80210B7A1052000D9021081
:104B700021D9021041D90210C47E0020C03E00207D
:104B8000B9A105205CD90210DFF828A3DAF800C02B
:104B9000BCF1000F7FD0AF4FAF4BD7F800B01A6811
:104BA0000BF1010E964506D200220CF80B00C7F857
:104BB00000E00CF80E202A78002A3FF4FBAEDAF869
:104BC00000C04FF0000E6046F3468C460146D3F815
:104BD00000A03B68581C31B1824504D9CA54E6464E
:104BE000034601F800B015F8012F002AF2D1BEF1FA
:104BF000000F3FF4DFAE3B60DCE6284621F0CCFE40
:104C000098B1431E954FEA18C5F1010005E011F077
:104C100001010AD1D042517007D012F80139093B85
:104C2000DBB2172B47FA03F1F1D92B788BB18C4FFC
:104C300017F8013C08F1010833B13846294621F044
:104C4000CDFD002800F0DA80B8F1100F07F211173F
:104C5000EED17520834DDFF86082834F98F8001005
:104C6000002940F02B813B78002B00F0EF8008F00A
:104C700005FB15F8010B0028F0D1FFF78AB97B4935
:104C80000AF111020AF1010A0A4479485144FBF77A
:104C900019FDFFF77EB92A78002A3FF48BAE6D4FDD
:104CA0006D4B8CE7714D2B783BB1714805F11102CA
:104CB000691CFBF707FD4FF0010895F811313BB176
:104CC0006C4A6B48A2F1100108F10108FBF7FAFCED
:104CD00095F822323BB1684A6548A2F1100108F10B
:104CE0000108FBF7EFFC95F833333BB1634A6048AA
:104CF000A2F1100108F10108FBF7E4FC95F8443437
:104D00003BB15F4A5A48A2F1100108F10108FBF7D4
:104D1000D9FC95F855353BB15A4A5548A2F11001D6
:104D200008F10108FBF7CEFC95F866363BB1564A10
:104D30004F48A2F1100108F10108FBF7C3FC95F8F8
:104D400077373BB1514A4A48A2F1100108F10108F6
:104D5000FBF7B8FC95F888383BB14D4A4448A2F1BE
:104D6000100108F10108FBF7ADFC95F899393BB14A
:104D7000484A3F48A2F1100108F10108FBF7A2FCE4
:104D800095F8AA3A3BB1444A3948A2F1100108F11A
:104D90000108FBF797FC95F8BB3B3BB13F4A344811
:104DA000A2F1100108F10108FBF78CFC95F8CC3C4E
:104DB0003BB13B4A2E48A2F1100108F10108FBF774
:104DC00081FC95F8DD3D002B00F01583354A28481D
:104DD000A2F11001FBF776FC95F8EE3E002B40F0B7
:104DE000FD8295F8FF3F002B3FF4D3A82E4A2048C0
:104DF000A2F11001FBF766FCFFF7CBB8014640F2C9
:104E00001112781E21F0C2F9284B1B78002B00F0FC
:104E10005A81FBF7E9FC0146002840F054817520D7
:104E20008A46234DDFF890800F4F98F80030002B12
:104E300040F048823B78002B00F0418208F01EFAD7
:104E400015F8010B0028F0D1FFF7A3B81DF01CFDE9
:104E50000FE700BFE47E0020E07E0020ECFF7FFF34
:104E60008D23002075D80210B7A105208C230020C7
:104E70003CC40210AE240020BF250020D026002014
:104E8000E1270020F2280020032A0020142B002014
:104E9000252C0020362D0020472E0020582F0020E2
:104EA000693000207A3100209C330020B4A1052015
:104EB00089D80210DC7E0020B9A10520DFF820A3EC
:104EC0008B46DAF800E0BEF1000F00F0C983A64F70
:104ED000A64B3A68196802F1010C8C4506D20EF80F
:104EE00002000022C7F800C00EF80C202A78002A21
:104EF0003FF44FA8002059468046DAF800C0D3F8A6
:104F000000A03B6803F1010EBCF1000F07D0F24591
:104F100005D90CF80320084673460CF80E8015F8E6
:104F2000012F002AEED100283FF433A83B60FFF7A1
:104F300030B82A78002A3FF42CA88B4F8B4BFFF710
:104F4000F9BB0DF5947A3A465546894FFFF7B2BB47
:104F50008848FBF7B7FB8848FBF7B4FB8748FBF7AB
:104F6000B1FB8748FBF7AEFB8648FBF7ABFB8648F7
:104F7000FBF7A8FB05201BF035F90146834B84485D
:104F8000A3FB0131890CFBF79DFB82498248FBF7AB
:104F900099FB824B824A1978824B834800290CBFC7
:104FA00011461946FBF78EFB804BD3E900571AF0E8
:104FB000ABFF401B61EB070100237D4A27F078F926
:104FC00003467C4A7C497D48A1FB0351A2FB037543
:104FD0006D09A2FB05725209C2EB0212A5EB820217
:104FE000C5EB0515C90AA3EB8503FBF76BFBFEF7C1
:104FF000D0BF2A78002A3EF4CCAF5B4F5B4BFFF763
:10500000D6BB01464FF480426D4821F0BFF86820BE
:105010006C4BDFF8D0811D606B4B6C4F1D606C4D8D
:1050200098F8001051B93B78002B42D008F026F9CF
:1050300015F8010B0028F3D1FEF7ABBFDFF8A0A1F4
:105040008B46DAF800E0BEF1000F00F03181464FE8
:10505000464B3A68196802F1010C8C4506D20EF8ED
:1050600002000022C7F800C00EF80C202A78002A9F
:105070003EF48FAF002059468046DAF800C0D3F8DE
:1050800000A03B6803F1010EBCF1000F07D0F24510
:1050900005D90CF80320084673460CF80E8015F865
:1050A000012F002AEED100283EF473AF3B60FEF7DB
:1050B00070BF1DF0E9FBBBE72A78002A3EF469AF18
:1050C000294F2A4B00E429464248FBF7FBFAFEF73A
:1050D00060BF002F00F051823846314921F07EFB3D
:1050E0000546002800F0CE843B786F2B40F04582C7
:1050F0007B786E2B40F04182BB78002B40F03D82E4
:105100000122264B314F1A703A781AB11B780BB135
:10511000FBF7B4F95320304DDFF8C88098F8001041
:10512000002940F0EF813B78002B00F0CE8108F0A1
:10513000A5F815F8010B0028F0D1FEF72ABF68206A
:10514000264DDFF8A080214F98F8001000294BD1A0
:105150003B78002B00F0828008F090F815F8010BE6
:105160000028F1D1FEF715BFE47E0020E07E00208C
:105170004C17031094D90210B0D90210CCD90210E8
:10518000E0D90210F0D902100CDA021083DE1B43C2
:105190001CDA021030DA021038DA0210BCA1052045
:1051A00040D40210CCDE021048DA0210282300207E
:1051B00040420F0089888888C5B3A29158DA02104E
:1051C000C03E0020C07E0020C47E0020B7A1052084
:1051D000C9D70210B4D8021095DA0210EDD7021028
:1051E000DC7E0020B9A10520DFF810A38B46DAF899
:1051F00000E0BEF1000F34D0B54FB64B3A681968E5
:1052000002F1010C8C4506D20EF802000022C7F80C
:1052100000C00EF80C202A78002A3EF4BAAE002016
:1052200059468046DAF800C0D3F800A03B6803F185
:10523000010EBCF1000F07D0F24505D90CF8032090
:10524000084673460CF80E8015F8012F002AEED19F
:1052500000283EF49EAE3B60FEF79BBE1DF014FBA3
:105260007CE72A78002A3EF494AE994F994BD6E712
:10527000504620F081FB421E014600F18782964B8A
:105280001868824280F28282944B1B681B1A134476
:1052900080335A4202F03F0203F03F0358BF5342AB
:1052A0008F4A904802EB0322FBF70CFAFEF771BE1F
:1052B0002A78002A3EF46DAE854F864BDAE61DF063
:1052C000E3FABDE55146DFF834A29E46DAF80080E5
:1052D000B8F1000F00F002837D4F7E4BD7F800B08D
:1052E0001A680BF1010C944506D2002208F80B0055
:1052F000C7F800C008F80C202A78002A3EF449AE0E
:105300004FF00008DAF80000D3F800A03B6803F182
:10531000010C30B1E24504D9C2547146634600F82D
:105320000C8015F8012F002AF1D100293EF431AE8E
:105330003B60FEF72EBE04F079FD1B206A4DDFF8BE
:10534000C0816A4F98F8001051B93B78002B42D0C9
:1053500007F094FF15F8010B0028F3D1FEF719BEF2
:10536000DFF898A18B46DAF800E0BEF1000F00F0FC
:10537000A580574F574B3A68196802F1010C8C45CC
:1053800006D20EF802000022C7F800C00EF80C206A
:105390002A78002A3EF4FDAD002059468046DAF80E
:1053A00000C0D3F800A03B6803F1010EBCF1000F70
:1053B00007D0D64505D20CF80320084673460CF8F2
:1053C0000E8015F8012F002AEED100283EF4E1AD41
:1053D0003B60FEF7DEBD1DF057FABBE7444A454887
:1053E000A2F11001FBF76EF995F8FF3F002B7FF457
:1053F000FDACFEF7CEBD95F8EE3E002BEED195F854
:10540000FF1F00297FF4F2ACB8F1000F7EF4C1ADAC
:1054100061208A46384DDFF8E880344F98F8003034
:1054200053B93B78002B3FD007F028FF15F8010B4C
:105430000028F3D1FEF7ADBD5146DFF8C0A09E466F
:10544000DAF80080B8F1000F31D0214F214BD7F8A6
:1054500000B01A680BF1010C944506D2002208F83E
:105460000B00C7F800C008F80C202A78002A3EF488
:1054700090AD4FF00008DAF80000D3F800A03B68C8
:1054800003F1010C30B1E24504D9C25471466346C0
:1054900000F80C8015F8012F002AF1D100293EF404
:1054A00078AD3B60FEF775BD1DF0EEF9BEE72A78DA
:1054B000002A3EF46EAD064F064BDAE72A78002A42
:1054C0003EF467AD024F034B66E71DF0DDF930E6B1
:1054D000E47E0020E07E0020C07E0020C47E00200C
:1054E000C03E0020B4D70210C1DA0210B7A10520D7
:1054F0008B3200203CC402102DD80210DC7E00202C
:10550000B9A10520DFF8E8A28B46DAF800E0BEF189
:10551000000F00F0BC81A74FA74B3A68196802F151
:10552000010C8C4506D20EF802000022C7F800C01C
:105530000EF80C202A78002A3EF42BAD00205946A4
:105540008046DAF800C0D3F800A03B6803F1010EF2
:10555000BCF1000F07D0F24505D90CF8032008462E
:1055600073460CF80E8015F8012F002AEED10028A2
:105570003EF40FAD3B60FEF70CBD904B904A19789E
:10558000904B914800290CBF11461946FBF79AF839
:1055900075208E4DDFF85C828D4F98F8001051B960
:1055A0003B78002B42D007F069FE15F8010B00286C
:1055B000F3D1FEF7EEBCDFF838A28B46DAF800E054
:1055C000BEF1000F00F05C817A4F7B4B3A6819689E
:1055D00002F1010C8C4506D20EF802000022C7F839
:1055E00000C00EF80C202A78002A3EF4D2AC00202D
:1055F00059468046DAF800C0D3F800A03B6803F1B2
:10560000010EBCF1000F07D0F24505D90CF80320BC
:10561000084673460CF80E8015F8012F002AEED1CB
:1056200000283EF4B6AC3B60FEF7B3BC1DF02CF98D
:10563000BBE704F065FE051E80F217824220654D2F
:10564000DFF8B081624F98F8001009BB3B78E3B1F6
:1056500007F014FE15F8010B0028F4D1FEF799BCF1
:105660002A78002A3EF495AC524F534B42E4431E35
:10567000EA5C2B44222A7EF48BAF002201351A709B
:10568000FEF786BF1946FEF754BD1DF0FDF8E1E7B1
:10569000DFF85CA18B46DAF800E0BEF1000F31D0F4
:1056A000444F454B3A68196802F1010C8C4506D20B
:1056B0000EF802000022C7F800C00EF80C202A786D
:1056C000002A3EF466AC002059468046DAF800C055
:1056D000D3F800A03B6803F1010EBCF1000F07D026
:1056E000F24505D90CF80320084673460CF80E80E5
:1056F00015F8012F002AEED100283EF44AAC3B6099
:10570000FEF747BC2A78002A3EF443AC294F2A4BC7
:10571000D9E72846304921F061F8002800F08A8551
:10572000B8F1630F40F032816B78642B40F02E812A
:10573000AB78002B40F02A81284B1978002900F023
:105740001B86002F00F015863A78254B002A08BFEB
:105750001F4638464AA9FAF7D3FD4AA806F09CFE30
:105760000546002840F041871E4BFF2218464AA9F3
:1057700021F082F91C4F014680F8FF50FF22384685
:1057800021F07AF987F8FF50FEF703BC7520174D1A
:10579000DFF860800E4F98F8001069BB3B78002B53
:1057A00064D007F06BFD15F8010B0028F3D1FEF76C
:1057B000F0BB00BFE47E0020E07E0020BCA10520FD
:1057C00040D40210CCDE021048DA0210A9DA02102E
:1057D000B7A10520D1DA021054DB0210B4A10520D4
:1057E00028C3021048140020541500200DD80210C0
:1057F000DC7E0020B9A10520DFF820A38B46DAF873
:1058000000E0BEF1000F34D0B04FB14B3A681968D8
:1058100002F1010C8C4506D20EF802000022C7F8F6
:1058200000C00EF80C202A78002A3EF4B2AB00200B
:1058300059468046DAF800C0D3F800A03B6803F16F
:10584000010EBCF1000F07D0F24505D90CF803207A
:10585000084673460CF80E8015F8012F002AEED189
:1058600000283EF496AB3B60FEF793BB1DF00CF8AE
:1058700099E72A78002A3EF48CAB944F944BD6E7F4
:105880002A78002A3EF485AB904F914BAFE62A78F8
:10589000002A3EF47EAB8D4F8D4B4FE606F084FA26
:1058A000B0FA80F38B4A5B09137006F0E7FD0146FE
:1058B0008948FAF707FFFEF76CBBB7B13B78A3B195
:1058C000384620F059F880F30805E8B204F0FCFCF3
:1058D00029468248FAF7F6FEFEF75BBB2A78002AD3
:1058E0003EF457AB794F7A4B0AE575207C4DDFF8D3
:1058F00044827C4F98F8001051B93B78002B42D07D
:1059000007F0BCFC15F8010B0028F3D1FEF741BBF2
:10591000DFF808A28B46DAF800E0BEF1000F00F0D5
:105920008E846A4F6A4B3A68196802F1010C8C4503
:1059300006D20EF802000022C7F800C00EF80C20B4
:105940002A78002A3EF425AB002059468046DAF832
:1059500000C0D3F800A03B6803F1010EBCF1000FBA
:1059600007D0D64505D20CF80320084673460CF83C
:105970000E8015F8012F002AEED100283EF409AB65
:105980003B60FEF706BB1CF07FFFBBE7284656498D
:1059900020F024FF002800F039852846534920F0E4
:1059A0001DFF002800F0FF842846514920F016FF13
:1059B000002800F0778628464E4920F00FFF8046E9
:1059C000002800F0B28428464B4920F007FF8046AB
:1059D000002800F01A822846484920F0FFFE0028DF
:1059E00000F0F4812846464920F0F8FE002800F037
:1059F000CE812846434920F0F1FE002800F0C28104
:105A00002846414920F0EAFE002800F0B6812846E9
:105A10003E4920F0E3FE002800F0A58128463C49DD
:105A200020F0DCFE0246002800F0FE8028463949BE
:105A300020F0D4FE002840F0E680374DDFF8F4A0D7
:105A4000DFF8A080354F15F8010B002800F0D0805A
:105A50009AF80030002B40F0B68098F80030002B08
:105A600000F0AE8007F00AFCEDE704F0ABFC2C4B35
:105A70002C4A2946002818BF1A462B48FAF722FE5E
:105A8000FEF787BA294B132118702F4604F06AFAE3
:105A900028460023202213210097013504F07CFAC8
:105AA000282DF5D15320224DDFF888800D4F98F82E
:105AB0000010002940D13B78002B77D007F0DEFBA7
:105AC00015F8010B0028F2D1FEF763BAE47E00203E
:105AD000E07E0020B4A1052048DB021028DB021084
