:020000041000EA
:10000000002008205D0100101B0100101D010010E0
:100010001101001011010010110100101101001058
:100020001901001019010010190100101F01001022
:10003000110100101901001021010010230100100E
:100040001101001011010010110100101101001028
:100050001101001011010010110100101101001018
:100060001101001011010010110100101101001008
:1000700011010010110100101101001011010010F8
:1000800011010010110100101101001011010010E8
:1000900011010010110100101101001011010010D8
:1000A00011010010110100101101001011010010C8
:1000B00011010010110100101101001011010010B8
:1000C00011010010110100101101001011010010A8
:1000D0001101001011010010110100101101001098
:1000E0001101001011010010110100101101001088
:1000F0001101001011010010110100101101001078
:100100001101001011010010110100101101001067
:10011000EFF30580103800BE00BE00BE00BE00BE7A
:1001200000BE00BEF2EB887160E507108CE5071099
:10013000A001001090A31AE7D3DEFFFF42012110B7
:10014000FF0100006C050800793512AB4FF000008C
:100150001E49086006C881F3088810474FF05040D8
:10016000006810B14FF00000F2E70DA40ECC00299A
:1001700002D000F012F8F9E71549164A002000E015
:1001800001C19142FCD11449884714498847144958
:10019000884700BEFDE701C901C29A42FBD3704700
:1001A0008CE507102001002038220020A40608104A
:1001B0000000082000000820A406081000100820F5
:1001C00000100820000000007047000008ED00E06B
:1001D0003822002058C4062039510210516F0010F7
:1001E000FD500210F8B500BF0348044B834202D013
:1001F000034B03B1184770473822002038220020F3
:1002000000000000064B0749C91A891048BF013198
:10021000491003D0044B0BB101481847704700BF89
:1002200038220020382200200000000010B5064CC3
:10023000237843B9FFF7D8FF044B13B10448AFF359
:1002400000800123237010BDC8240020000000009E
:1002500010E5031008B5044B1BB104490448AFF383
:100260000080BDE80840CDE700000000CC2400205D
:1002700010E50310C0B138B5044638F051FA90B11A
:10028000421E0A4D2244C4F1010012F80139093B13
:10029000DBB2172B45FA03F105D811F0010102D1A9
:1002A000D0425170F1D138BD704700BFECFF7FFFE5
:1002B000F8B5D3F8E8500F2D21DC16465A681C46D5
:1002C00007461AB1196838F059FAC0B905EB450369
:1002D00005EB830508350C223946601938F090FA91
:1002E0000020D4F8E83003EB430203EB8202E1186C
:1002F00022440133107581F8D860C4F8E830F8BDA5
:100300002DE9F04F0E46ADF20C4D70B3037863B398
:100310002F2B00F09080564B82AC1A882F2A00F0C9
:100320009D8000904FF400712046524A24F030FE28
:100330000022237802AF3A70002B00F08C802F2B24
:100340001FD063780134002BF9D13B78002B00F0EB
:100350008280FF223946304638F052FA002386F870
:10036000FF300DF20C4DBDE8F08FFF2230464049C2
:1003700038F046FA002386F8FF300DF20C4DBDE848
:10038000F08F4FF0000A42F62E680DF5847914F8CC
:10039000015F2F2DFBD0002DD7D0002309F803508B
:1003A00014F8015F013345B12F2D06D0FF2BF5D195
:1003B00014F8015F0DB12F2DFAD109F803A0B9F897
:1003C00000302E2B08D0434509D0384638F0A8F924
:1003D000FF2800F1010313D1002DD8D1B5E799F81A
:1003E00002B0BBF1000FF0D12F21384638F03CFAB3
:1003F00060B3B8422AD980F800B0002DC7D1A4E775
:100400002F223A5499F8002082B1FE2800F102030D
:100410002CD04946384403E00133B3F5807F25D022
:1004200000F8012F11F8012F002AF5D10022FA540B
:10043000002DACD189E782AC014640F2FF12204684
:1004400038F0DEF9002384F8FF3171E700233B70B8
:10045000002D9CD179E72F233B807AE703464FF4A8
:1004600000712046044A24F093FD61E7FF23DDE795
:100470004415002018E5031014E503102DE9F04F92
:1004800099B009F023FF834609F026FF824609F060
:1004900037FF039009F03AFF8146002009F00AFF78
:1004A0000DF134084E4809F00BFF20212822404668
:1004B00037F030FD00238DF85C300AF0E1F8044697
:1004C0000AF040F908AD23461421002875D02846CB
:1004D000444A24F05DFD284638F022F904462946B6
:1004E000414D2246404637F01FFC284638F018F9A7
:1004F000C4F11E01814204F1010363DB0246294677
:1005000008EB030037F010FC22F042FA00294FD02C
:100510004FF47A7200233DF0ABFF3449344AA1FB1B
:100520000031344B8909A3FB0003A2FB01404009C1
:10053000A2FB00425209C2EB0212A0EB8202C0EB06
:100540000010A1EB8001019110215B0D0DEB01006A
:100550000092294A24F01CFD04A838F0E1F8024674
:10056000C0F1270004A9404437F0DEFB132100202E
:100570001B4F0DF133040DF15B06C8F1010509F0C5
:10058000B1FE281914F8012F00231321009709F058
:10059000C3FEA642F5D1584609F08CFE504609F03C
:1005A0008FFE4946039809F09DFE19B0BDE8F08F13
:1005B0000E4AA2FB00208009AFE728460F4A24F02C
:1005C000E7FC88E7821C511A42F62E62E01C28F8EC
:1005D000032029444044C3F11D0237F0A5FB93E7F3
:1005E0008080800024E5031044150020D34D621064
:1005F00089888888B17C219538E5031030E503109F
:1006000008B5064C064D23781BB12B780BB1FFF7CC
:1006100035FF4FF4FA6022F001F9F4E733C4062005
:100620003CC406200E4B1A7832B90E4B1B780BB126
:100630000CF0E4BF24F0D8BE0B4A126872B1034636
:100640000A4830B40A4D04682D68611CA94203D2DF
:10065000135500230160535430BC7047704700BFEE
:1006600039C4062033C40620708000207880002022
:10067000748000200E4B1B783BB90E4B20201B785A
:100680000BB10CF0BBBF24F0AFBE0B4B1B686BB1C2
:100690000A490B480A6810B40468501CA04202D2F0
:1006A000202408609C525DF8044B7047704700BFDF
:1006B00039C4062033C406207080002078800020D2
:1006C000748000200FB4F0B5ADF5037D88AB53F80E
:1006D000042B4FF4007102A8019324F06FFC9DF8E5
:1006E000080068B1274E284D0DF10904337883B90D
:1006F0002B785BB10CF082FF14F8010B0028F5D1C8
:100700000DF5037DBDE8F04004B0704724F06CFEA9
:10071000F2E7DFF880E0DEF8002082B11B4E1C4FCC
:10072000D6F800C039680CF101058D4204D202F8F8
:100730000C0000203560505522782AB9E0E7227875
:10074000002ADDD0114E124F4FF0000CDEF80050A1
:10075000E6463F683068411C35B1B94204D22A549C
:100760009C46084605F801E014F8012F002AF2D152
:10077000BCF1000FC4D030600DF5037DBDE8F04042
:1007800004B0704739C4062033C4062078800020A6
:100790007480002070800020F8B505460F4616468C
:1007A00009F094FD044666B14CF6C80009F082FDDC
:1007B00029460B48FFF786FF2046BDE8F84009F0C0
:1007C00079BD4FF4484009F075FD2A463946054881
:1007D000FFF778FF2046BDE8F84009F06BBD00BF89
:1007E00048E5031058E50310214B1B78002B3DD042
:1007F0002DE9F04100251F4C1F4FDFF88480ADF636
:10080000083D42AB581914F8013CC5F5206604F1C7
:10081000100C5BB1234642463146CDF800C024F0AF
:10082000B7FB00281DDB86421BDD054404F21114D2
:10083000A742E6D10026114B02AC93E8070084E8FA
:100840000700204626730CF0E5F82A46204642A908
:100850000CF086FAB0FA80F040090DF6083DBDE8CC
:10086000F08100200DF6083DBDE8F08100207047C2
:1008700030C406201D2500202D3600206CE5031015
:1008800064E503102DE9F041374BC0B01D78A5B1E8
:100890006C4610B10378002B44D1FF222046334927
:1008A00037F0AEFF00222046314984F8FF200BF0DC
:1008B00053FD70BB40B0BDE8F0812E4F4E203B7819
:1008C0002D4C2E4E53B9337803B30CF097FE14F829
:1008D000010B0028EED03B78002BF4D0DFF8A8C045
:1008E000DCF8002012B3264FDFF8A0E0D7F8008034
:1008F000DEF8001008F101068E4204D202F808006A
:1009000000203E6090552278B2B9D3E724F06CFD08
:10091000DDE70BF073FF01461A48FFF7D3FE40B046
:10092000BDE8F0812146FFF7EBFCBBE72278002A07
:10093000C0D0134FDFF854E0DCF80060DEF800C0F0
:100940004FF0000E3868411C36B1614504D2325474
:100950001D46084606F801E014F8012F002AF2D1DE
:10096000002DA7D03860A5E730C40620441500202C
:100970009907001039C406207DE5031033C4062012
:1009800078800020A0E50310708000207480002093
:100990002DE9F041A14BADF5806D1E78002E00F0E1
:1009A0009F8008B103789BB975209D4C9D4D9E4E4C
:1009B0002B78002B60D13378002B5AD00CF01EFE20
:1009C00014F8010B0028F3D10DF5806DBDE8F0811E
:1009D00040F2FF12014680A837F012FF00229DF876
:1009E00000328DF8FF2380AA2BB9D3E012F8013F23
:1009F000002B00F0CF80202BF8D10023144604F800
:100A0000013B5378202B03D114F8013F202BFBD05E
:100A1000002B40F01381834D75202B78804C824E43
:100A200063B93378002B00F0B2800CF0E7FD14F8C6
:100A3000010B0028C8D02B78002BF2D07B4DD5F8C5
:100A400000C0BCF1000F00F016817949794FD1F850
:100A500000E03A680EF10106964205D20CF80E004D
:100A600000200E600CF806002278002A40F0098170
:100A7000AAE724F0B9FCA3E76C4DD5F800C0BCF19F
:100A8000000F76D06A496B4FD1F800E03A680EF15A
:100A90000106964205D20CF80E0000200E600CF8FC
:100AA00006002278002A8FD04FF0000CE6462E6810
:100AB0003F680D68681C36B1B84204D272559C4636
:100AC000054606F800E014F8012F002AF2D1BCF127
:100AD000000F3FF479AF0D600DF5806DBDE8F0813A
:100AE000504D4E202B78544C4F4F63B93B78002B20
:100AF0003CD00CF083FD14F8010B00283FF464AFE8
:100B00002B78002BF2D0494DD5F800C0BCF1000F76
:100B100036D04749474FD1F800803A6808F1010EB6
:100B2000964506D200220CF80800C1F800E00CF847
:100B30000E202278002A3FF447AF4FF0000ED5F880
:100B400000C03F680D68681CBCF1000F07D08742E9
:100B500005D90CF805201E4605460CF800E014F8EF
:100B6000012F002AEFD1002EB5D12DE724F03CFC57
:100B7000C1E72278002A3FF427AF2D492D4F93E794
:100B80002278002A3FF420AF29492A4FD5E724F0E4
:100B90002BFC4CE7234D75202B78214C224E63B95A
:100BA0003378002B36D00CF029FD14F8010B002807
:100BB0003FF40AAF2B78002BF2D01C4DD5F800C0C3
:100BC000BCF1000F50D01A491A4FD1F800E03A6832
:100BD0000EF10106964205D20CF80E0000200E60C0
:100BE0000CF806002278002A3FF4EEAE4FF0000C1D
:100BF000E6462E683F680D68681C36B1B84204D2DC
:100C000072559C46054606F800E014F8012F002AAC
:100C1000F2D15CE724F0E8FBC7E700BF30C4062050
:100C2000A9E5031039C4062033C4062070800020D3
:100C300078800020748000207DE50310694680A83C
:100C4000FFF75EFB204640A9FFF75AFB684640A924
:100C50000CF090F900283FF4B7AE0BF0CFFD014641
:100C60001248FFF72FFDAFE62278002A3FF4ACAE22
:100C70000F49104FBAE72278002A3FF4A5AE0C497D
:100C80000C4F4FF0000CE6462E683F680D68681C5C
:100C900036B1B84204D272559C46054606F800E0CB
:100CA00014F8012F002AF2D111E700BFC4E50310A8
:100CB00078800020748000202DE9F84F0478984651
:100CC000002C00F08A8082460F4605469146A64ACF
:100CD000135D5B0703D15F2C01D02D2C7DD115F85E
:100CE000014F002CF4D10126A04D15F8013C33B181
:100CF0002846514637F036FC002800F09D8001342C
:100D0000102C06F2111605F21115EED1984D2B7824
:100D1000002B00F0DD8095F81131002B00F0D7801A
:100D200095F82232002B00F0AB8195F83333002B7D
:100D300000F0A88195F84434002B00F0A58195F8C7
:100D40005535002B00F0A28195F86636002B00F097
:100D5000A78195F87737002B00F0A48195F88838A3
:100D6000002B00F0518195F89939002B00F09C81FF
:100D700095F8AA3A002B00F09B8195F8BB3B002B1D
:100D800000F0948195F8CC3C002B00F0938195F80D
:100D9000DD3D002B00F0908195F8EE3E002B00F039
:100DA0008D8195F8FF3F002B00F08A81B8F1000F8C
:100DB00011D061206F4C704D704E2B78002B40F09D
:100DC000ED803378002B00F0CC800CF017FC14F889
:100DD000010B0028F1D1BDE8F88FB8F1000FFAD06F
:100DE000654D61202A78664C644E62B93378002BD9
:100DF00000F094800CF002FC14F8010B0028EAD0FB
:100E00002A78002AF2D0DFF88CA1DAF80030002B23
:100E100000F087805B4D5C4FD5F800E039680EF13B
:100E200001068E4204D203F80E0000202E60985571
:100E30002378002B7BD1CEE701224D4D04EB041328
:100E400004EB0313EA54741E2E44504637F068FC3A
:100E50000F28834630D90023DAF80410DAF8082086
:100E6000DAF8000071603060B260BAF80C109AF8DD
:100E70000E2011342C44B181B273F373384637F02D
:100E80004FFC0546FF2D28BFFF25394620462A4640
:100E900036F04AFF00236355B9F1000F02D03B4BF7
:100EA0001B78FBB9B8F1000F95D022463146BDE85A
:100EB000F84F3748FFF706BC02465146304636F039
:100EC00033FF002311342C4406F80B30D6E70123FE
:100ED00003EB031203EB021301229E181C46EA5493
:100EE0002E44B2E7FFF780FC81460028DAD1B8F142
:100EF000000F3FF470AF6120DFF89C801E4D1F4F44
:100F00002A78002A40F085803B78002B7ED00CF0B8
:100F100075FB18F8010B0028F2D1C6E724F064FA3B
:100F20006AE72378002B3FF456AF164D164F4FF06B
:100F3000000CE646DAF800603F682868411C36B1CC
:100F40008F4204D933549446084606F801E014F859
:100F5000013F002BF2D1BCF1000F3FF43CAF286001
:100F600039E724F041FA32E7DDE007101D250020C3
:100F70001C250020E9E5031039C4062033C40620EF
:100F8000D1E50310788000207480002030C4062052
:100F900024E6031070800020FDE50310DFF82CA18B
:100FA000DAF800204AB3474D474FD5F800E03968DA
:100FB0000EF101068E4204D202F80E0000202E60CF
:100FC00090552278002A3FF406AF4FF0000CE64619
:100FD000DAF800603F682868411C36B18F4204D9B6
:100FE00032549C46084606F801E014F8012F002A06
:100FF000F2D1BCF1000FB2D1EDE62278002A3FF425
:10100000EAAE304D304FE0E7082361E724F0ECF919
:101010007FE7DFF8B8A0DAF800C0BCF1000F37D0E6
:10102000284D294F2B68396803F1010E8E4506D2F1
:101030000CF803000023C5F800E00CF80E3098F817
:101040000030002B3FF431AF4FF0000EDAF800C053
:101050003F682868411CBCF1000F07D0B94205D297
:101060000CF80030914608460CF801E018F8013FF2
:10107000002BEFD1B9F1000F3FF417AF286014E750
:10108000022325E7032323E7042321E705231FE7A2
:1010900098F80030002B3FF408AF0A4D0A4FD3E711
:1010A000062315E7072313E7092311E70B230FE7AF
:1010B0000A230DE70C230BE70D2309E70E2307E7AF
:1010C0000F2305E7788000207480002070800020C6
:1010D0002DE9F041002800F04B8303780446202BD3
:1010E00003D114F8013F202BFBD0002B00F04083EC
:1010F0002378662B2CD02046104937F033FA00288D
:1011000002F0CF8420460E4937F02CFA002801F077
:10111000FF8255200B4D0C4C0C4E2378002B42F0D7
:10112000DA833378002B02F0D2830CF067FA15F8DB
:10113000010B0028F1D1BDE8F08100BFC0F303101E
:1011400008F5031071F6031039C4062033C40620D5
:101150006378732BCFD1A378002BCCD14620AC4C35
:10116000AC4D2378AC4E002B41F060843378002BDB
:1011700001F057840CF042FA237815F8010B00288F
:10118000F1D12020A54DA44E002B42F06D83337881
:10119000002B02F064830CF031FA237815F8010B70
:1011A0000028F1D120209E4D9B4E002B42F024833D
:1011B0003378002B02F01B830CF020FA237815F80B
:1011C000010B0028F1D12020964D934E002B42F0C8
:1011D000DB823378002B02F0D2820CF00FFA2378F6
:1011E00015F8010B0028F1D120208F4D8A4E002BDD
:1011F00042F092823378002B02F083820CF0FEF9E9
:10120000237815F8010B0028F1D12020874D824E5C
:10121000002B42F043823378002B02F03A820CF02C
:10122000EDF9237815F8010B0028F1D12020804D2D
:10123000794E002B42F0FA813378002B02F0F181D5
:101240000CF0DCF9237815F8010B0028F1D12020EF
:10125000784D714E002B42F0B1813378002B02F0B3
:10126000A8810CF0CBF9237815F8010B0028F1D1F7
:101270002020714D684E002B42F068813378002B9E
:1012800002F05F810CF0BAF9237815F8010B002801
:10129000F1D12020694D604E002B42F01F81337840
:1012A000002B02F016810CF0A9F9237815F8010B38
:1012B0000028F1D12020624D574E002B42F0D680FD
:1012C0003378002B02F0C7800CF098F9237815F8DA
:1012D000010B0028F1D120205A4D4F4E002B42F037
:1012E00087803378002B02F07E800CF087F923781A
:1012F00015F8010B0028F1D12020534D464E002B4C
:1013000042F03E803378002B02F035800CF076F905
:10131000237815F8010B0028F1D120204B4D3E4ECB
:10132000002B41F0F5873378002B01F0EC870CF0AF
:1013300065F9237815F8010B0028F1D12020444DE0
:10134000354E002B41F0AC873378002B01F0A3879A
:101350000CF054F9237815F8010B0028F1D1202066
:101360003C4D2D4E002B41F063873378002B01F06C
:101370005A870CF043F9237815F8010B0028F1D1B6
:101380002020354D244E002B41F01A873378002B56
:1013900001F00B870CF032F9237815F8010B0028C7
:1013A000F1D120202D4D1C4E002B41F0CB863378FF
:1013B000002B01F0C2860CF021F9237815F8010BFF
:1013C0000028F1D12020264D134E002B41F08286BB
:1013D0003378002B01F079860CF010F9237815F89A
:1013E000010B0028F1D120201E4D0B4E002B41F0A7
:1013F00039863378002B01F030860CF0FFF8237823
:1014000015F8010B0028F1D12020174D2EE000BF68
:1014100039C406209DEB031033C40620B1EB031042
:10142000E1EB03101DEC031059EC031089EC0310E1
:10143000B1EC0310D9EC031001ED03102DED0310F6
:101440005DED031089ED0310C1ED0310F9ED0310FC
:1014500031EE031065EE0310A5EE0310C9EE031084
:10146000F9EE031029EF031065EF0310AA4E002BCD
:1014700041F0C0853378002B01F0B7850CF0BEF841
:10148000237815F8010B0028F1D12020A34DA24E9E
:10149000002B41F077853378002B01F06E850CF03E
:1014A000ADF8237815F8010B0028F1D120209C4DD0
:1014B000994E002B41F02E853378002B01F01F85CB
:1014C0000CF09CF8237815F8010B0028F1D12020AE
:1014D000944D914E002B41F0DF843378002B01F0C6
:1014E000D6840CF08BF8237815F8010B0028F1D185
:1014F00020208D4D884E002B41F096843378002BB0
:1015000001F08D840CF07AF8237815F8010B00288F
:10151000F1D12020854D804E002B41F04D84337851
:10152000002B01F044840CF069F8237815F8010BC6
:101530000028F1D120207E4D774E002B41F004840D
:101540003378002B01F0FB830CF058F8237815F862
:10155000010B0028F1D12020764D6F4E002B41F079
:10156000BB833378002B01F0B2830CF047F823786B
:1015700015F8010B0028F1D120206F4D664E002B8D
:1015800041F072833378002B01F063830CF036F85E
:10159000237815F8010B0028F1D12020674D5E4E0D
:1015A000002B41F023833378002B01F01A830CF0D9
:1015B00025F8237815F8010B0028F1D12020604D83
:1015C000554E002B41F0DA823378002B01F0D182A6
:1015D0000CF014F8237815F8010B0028F1D1202025
:1015E000584D4D4E002B41F091823378002B01F085
:1015F00088820CF003F8237815F8010B0028F1D14C
:101600002020514D444E002B41F048823378002B6E
:1016100001F03F820BF0F2FF237815F8010B002850
:10162000F1D12020494D3C4E002B41F07C81337894
:10163000002B01F073810BF0E1FF237815F8010B0B
:101640000028F1D12020424D334E002B41F0338150
:101650003378002B01F02A810BF0D0FF237815F8A6
:10166000010B0028F1D120203A4D2B4E002B41F0E8
:10167000EA803378002B01F0E1800BF0BFFF237884
:1016800015F8010B0028F1D12020334D224E002BFC
:1016900041F0A1803378002B01F098800BF0AEFF71
:1016A000237815F8010B0028F1D120202B4D1A4E7C
:1016B000002B41F083813378002B01F067810BF020
:1016C0009DFF237815F8010B0028F1D12020244D2F
:1016D000114EDFF89880234F6BB93378002B01F05F
:1016E00071800BF08BFF15F8010F00283FF423AD3C
:1016F0002378002BF1D0D8F80030002BF3D01A4A11
:101700003968D2F800C04A1C6245ECD25854002116
:101710003A609954E7E700BF33C406209DEF0310F9
:10172000D9EF031025F0031061F003109DF00310B2
:10173000D5F0031015F103105DF103108DF10310C6
:10174000BDF10310EDF1031031F203106DF203103F
:10175000B5F20310E5F2031015F303104DF3031077
:1017600084F30310788000207480002070800020B3
:101770005320AC4CAC4D2378AC4E002B40F08E8700
:101780003378002B00F085870BF038FF237815F8AD
:10179000010B0028F1D12020A54DA44E002B40F0D4
:1017A00045873378002B00F03C870BF027FF237828
:1017B00015F8010B0028F1D120209E4D9B4E002BE7
:1017C00040F0FC863378002B00F0F3860BF016FF18
:1017D000237815F8010B0028F1D12020964D934E67
:1017E000002B40F0B3863378002B00F0AA860BF074
:1017F00005FF237815F8010B0028F1D120208F4D2B
:101800008A4E002B40F06A863378002B00F05B860E
:101810000BF0F4FE237815F8010B0028F1D12020FD
:10182000874D824E002B40F01B863378002B00F052
:1018300012860BF0E3FE237815F8010B0028F1D196
:101840002020804D794E002B40F0D2853378002B3C
:1018500000F0C9850BF0D2FE237815F8010B0028A3
:10186000F1D12020784D714E002B40F089853378DE
:10187000002B00F080850BF0C1FE237815F8010BDA
:101880000028F1D12020714D684E002B40F040859A
:101890003378002B00F037850BF0B0FE237815F875
:1018A000010B0028F1D12020694D604E002B40F043
:1018B000F7843378002B00F0EE840BF09FFE237842
:1018C00015F8010B0028F1D12020624D574E002B56
:1018D00040F0AE843378002B00F09E840BF08EFE37
:1018E000237815F8010B0028F1D120205A4D4F4ED6
:1018F000002B40F05E843378002B00F055840BF011
:101900007DFE237815F8010B0028F1D12020534DDE
:10191000464E002B40F015843378002B00F00C84E9
:101920000BF06CFE237815F8010B0028F1D1202074
:101930004B4D3E4E002B40F0CD833378002B00F012
:10194000C5830BF05BFE237815F8010B0028F1D15D
:101950000A20444D354E002B40F086833378002B0F
:1019600000F07E830BF04AFE237815F8010B002867
:10197000F1D120203C4D2D4E002B40F03F83337899
:10198000002B00F037830BF039FE237815F8010B9C
:101990000028F1D12020354D244E002B40F0F88254
:1019A0003378002B00F0EA820BF028FE237815F83C
:1019B000010B0028F1D10A202D4D1C4E002B40F0C8
:1019C000AB823378002B00F0A3820BF017FE237854
:1019D00015F8010B0028F1D12020264D134E002BC5
:1019E00040F064823378002B00F05C820BF006FE3E
:1019F000237815F8010B0028F1D120201E4D0B4E45
:101A0000002B40F01D823378002B00F015820BF084
:101A1000F5FD237815F8010B0028F1D12020174D92
:101A20002EE000BF39C4062035E6031033C406207B
:101A300049E603107DE60310B1E60310E5E6031066
:101A400021E7031051E7031081E70310B5E7031006
:101A5000E5E7031011E803103DE803106DE80310FB
:101A6000A1E80310C5E80310D9E8031015E9031035
:101A70003DE903104DE90310A1E90310F5E9031056
:101A8000944E002B40F0A6813378002B00F09E810D
:101A90000BF0B4FD237815F8010B0028F1D12020BC
:101AA0008D4D8C4E002B40F05F813378002B00F081
:101AB00057810BF0A3FD237815F8010B0028F1D115
:101AC0000A20864D834E002B40F018813378002B7E
:101AD00000F0FB800BF092FD237815F8010B002835
:101AE000F1D120207E4D7B4E002B40F0BC8033781E
:101AF000002B00F0B4800BF081FD237815F8010B6A
:101B00000028F1D12020774D724E002B75D133780B
:101B1000002B6ED00BF072FD237815F8010B002816
:101B2000F3D10A20704D6B4E002B32D1337863B362
:101B30000BF064FD237815F8010B0028F4D1542034
:101B40006A4D644EDFF8B081694F5BB93378CBB131
:101B50000BF054FD15F8010F00283FF4ECAA237890
:101B6000002BF3D0D8F80030002BF3D0614A39684D
:101B7000D2F800C04A1C6245ECD2585400213A60A9
:101B80009954E7E723F030FCE4E723F02DFC2378B9
:101B9000D1E7594A116871B1554F564ED7F800C078
:101BA000D6F800E00CF10106764504D201F80C00ED
:101BB00000203E60885528780028C0D04FF0000EE5
:101BC000F04617684A494B4A0E68D2F800C0721CAA
:101BD00037B1944504D9B8559E46164607F8028099
:101BE00015F8010F0028F2D1BEF1000FA7D00E604A
:101BF000A5E723F0F9FB23788FE73F4A116871B11D
:101C00003B4F3C4ED7F800C0D6F800E00CF101067F
:101C1000764504D201F80C0000203E6088552878F3
:101C200000283FF47EAF4FF0000EF04617683049B1
:101C3000304A0E68D2F800C0721C37B1944504D9FE
:101C4000B8559E46164607F8028015F8010F002881
:101C5000F2D1BEF1000F3FF464AF0E6061E723F0F4
:101C6000C3FB23784AE7244A116871B1204F214E03
:101C7000D7F800C0D6F800E00CF10106764504D292
:101C800001F80C0000203E608855287800283FF4B9
:101C900039AF4FF0000EF04617681549154A0E6827
:101CA000D2F800C0721C37B1944504D9B8559E468D
:101CB000164607F8028015F8010F0028F2D1BEF190
:101CC000000F3FF41FAF0E601CE723F08DFB23785D
:101CD00003E700BF33C4062045EA031095EA03106A
:101CE000B5EA0310DDEA03101DEB031068EB0310E7
:101CF000788000207480002070800020A14A116844
:101D000071B1A14FA14ED7F800C0D6F800E00CF198
:101D10000106764504D201F80C0000203E6088558B
:101D2000287800283FF4DDAE4FF0000EF04617682B
:101D30009549964A0E68D2F800C0721C37B1944596
:101D400004D9B8559E46164607F8028015F8010FCB
:101D50000028F2D1BEF1000F3FF4C3AE0E60C0E622
:101D600023F042FB2378A7E6864A116871B1864FBB
:101D7000864ED7F800C0D6F800E00CF10106764593
:101D800004D201F80C0000203E6088552878002815
:101D90003FF496AE4FF0000EF04617687A497B4A42
:101DA0000E68D2F800C0721C37B1944504D9B855FA
:101DB0009E46164607F8028015F8010F0028F2D15A
:101DC000BEF1000F3FF47CAE0E6079E623F00CFB11
:101DD000237860E66B4A116871B16B4F6B4ED7F890
:101DE00000C0D6F800E00CF10106764504D201F8F7
:101DF0000C0000203E608855287800283FF44FAE44
:101E00004FF0000EF04617685F49604A0E68D2F83E
:101E100000C0721C37B1944504D9B8559E46164689
:101E200007F8028015F8010F0028F2D1BEF1000F6B
:101E30003FF435AE0E6032E623F0D6FA2378E9E5BA
:101E4000504A116871B1504F504ED7F800C0D6F8C3
:101E500000E00CF10106764504D201F80C000020E8
:101E60003E608855287800283FF4D8AD4FF0000E2A
:101E7000F04617684449454A0E68D2F800C0721C03
:101E800037B1944504D9B8559E46164607F80280E6
:101E900015F8010F0028F2D1BEF1000F3FF4BEADDE
:101EA0000E60BBE523F0A0FA2378A2E5354A11685D
:101EB00071B1354F354ED7F800C0D6F800E00CF1BF
:101EC0000106764504D201F80C0000203E608855DA
:101ED000287800283FF491AD4FF0000EF0461768C7
:101EE00029492A4A0E68D2F800C0721C37B19445BD
:101EF00004D9B8559E46164607F8028015F8010F1A
:101F00000028F2D1BEF1000F3FF477AD0E6074E50A
:101F100023F06AFA23785BE51A4A116871B11A4F07
:101F20001A4ED7F800C0D6F800E00CF1010676454D
:101F300004D201F80C0000203E6088552878002863
:101F40003FF44AAD4FF0000EF04617680E490F4AB5
:101F50000E68D2F800C0721C37B1944504D9B85548
:101F60009E46164607F8028015F8010F0028F2D1A8
:101F7000BEF1000F3FF430AD0E602DE523F034FAD2
:101F8000237814E570800020788000207480002081
:101F9000A44A116871B1A44FA44ED7F800C0D6F876
:101FA00000E00CF10106764504D201F80C00002097
:101FB0003E608855287800283FF4FDAC4FF0000EB5
:101FC000F04617689849994A0E68D2F800C0721C0A
:101FD00037B1944504D9B8559E46164607F8028095
:101FE00015F8010F0028F2D1BEF1000F3FF4E3AC69
:101FF0000E60E0E423F0F8F92378C7E4894A116819
:1020000071B1894F894ED7F800C0D6F800E00CF1C5
:102010000106764504D201F80C0000203E60885588
:10202000287800283FF4B6AC4FF0000EF046176851
:102030007D497E4A0E68D2F800C0721C37B19445C3
:1020400004D9B8559E46164607F8028015F8010FC8
:102050000028F2D1BEF1000F3FF49CAC0E6099E471
:1020600023F0C2F9237880E46E4A116871B16E4F93
:102070006E4ED7F800C0D6F800E00CF101067645A8
:1020800004D201F80C0000203E6088552878002812
:102090003FF46FAC4FF0000EF04617686249634A98
:1020A0000E68D2F800C0721C37B1944504D9B855F7
:1020B0009E46164607F8028015F8010F0028F2D157
:1020C000BEF1000F3FF455AC0E6052E423F08CF9E2
:1020D000237839E4534A116871B1534F534ED7F8FE
:1020E00000C0D6F800E00CF10106764504D201F8F4
:1020F0000C0000203E608855287800283FF428AC6A
:102100004FF0000EF04617684749484A0E68D2F86B
:1021100000C0721C37B1944504D9B8559E46164686
:1021200007F8028015F8010F0028F2D1BEF1000F68
:102130003FF40EAC0E600BE423F056F92378FFF762
:10214000F2BB384A116871B1374F384ED7F800C02A
:10215000D6F800E00CF10106764504D201F80C0037
:1021600000203E608855287800283FF4E0AB4FF00F
:10217000000EF04617682C492C4A0E68D2F800C0B1
:10218000721C37B1944504D9B8559E46164607F8D7
:10219000028015F8010F0028F2D1BEF1000F3FF4C4
:1021A000C6AB0E60FFF7C3BB23F01EF92378FFF721
:1021B000A9BB1C4A116871B11B4F1C4ED7F800C057
:1021C000D6F800E00CF10106764504D201F80C00C7
:1021D00000203E608855287800283FF497AB4FF0E8
:1021E000000EF04617681049104A0E68D2F800C079
:1021F000721C37B1944504D9B8559E46164607F867
:10220000028015F8010F0028F2D1BEF1000F3FF453
:102210007DAB0E60FFF77ABB23F0E6F82378FFF77B
:1022200060BB00BF70800020788000207480002098
:10223000A74A116871B1A74FA74ED7F800C0D6F8CA
:1022400000E00CF10106764504D201F80C000020F4
:102250003E608855287800283FF447AB4FF0000EC9
:10226000F04617689B499C4A0E68D2F800C0721C61
:1022700037B1944504D9B8559E46164607F80280F2
:1022800015F8010F0028F2D1BEF1000F3FF42DAB7D
:102290000E60FFF72ABB23F0A7F82378FFF710BBE7
:1022A0008B4A116871B18B4F8B4ED7F800C0D6F8AE
:1022B00000E00CF10106764504D201F80C00002084
:1022C0003E608855287800283FF4FEAA4FF0000EA3
:1022D000F04617687F49804A0E68D2F800C0721C29
:1022E00037B1944504D9B8559E46164607F8028082
:1022F00015F8010F0028F2D1BEF1000F3FF4E4AA57
:102300000E60FFF7E1BA23F06FF82378FFF7C7BA42
:102310006F4A116871B16F4F6F4ED7F800C0D6F891
:1023200000E00CF10106764504D201F80C00002013
:102330003E608855287800283FF4B5AA4FF0000E7B
:10234000F04617686349644A0E68D2F800C0721CF0
:1023500037B1944504D9B8559E46164607F8028011
:1023600015F8010F0028F2D1BEF1000F3FF49BAA2F
:102370000E60FFF798BA23F037F82378FFF77EBA9C
:10238000534A116871B1534F534ED7F800C0D6F875
:1023900000E00CF10106764504D201F80C000020A3
:1023A0003E608855287800283FF46CAA4FF0000E54
:1023B000F04617684749484A0E68D2F800C0721CB8
:1023C00037B1944504D9B8559E46164607F80280A1
:1023D00015F8010F0028F2D1BEF1000F3FF452AA08
:1023E0000E60FFF74FBA22F0FFFF2378FFF735BAF0
:1023F000374A116871B1374F374ED7F800C0D6F859
:1024000000E00CF10106764504D201F80C00002032
:102410003E608855287800283FF423AA4FF0000E2C
:10242000F04617682B492C4A0E68D2F800C0721C7F
:1024300037B1944504D9B8559E46164607F8028030
:1024400015F8010F0028F2D1BEF1000F3FF409AAE0
:102450000E60FFF706BA22F0C7FF2378FFF7ECB94A
:102460001B4A116871B11B4F1B4ED7F800C0D6F83C
:1024700000E00CF10106764504D201F80C000020C2
:102480003E608855287800283FF4DAA94FF0000E06
:10249000F04617680F49104A0E68D2F800C0721C47
:1024A00037B1944504D9B8559E46164607F80280C0
:1024B00015F8010F0028F2D1BEF1000F3FF4C0A9BA
:1024C0000E60FFF7BDB922F08FFF2378FFF7A3B9A5
:1024D000708000207880002074800020894A116874
:1024E00071B1894F894ED7F800C0D6F800E00CF1E1
:1024F0000106764504D201F80C0000203E608855A4
:10250000287800283FF48BA94FF0000EF04617689A
:102510007D497E4A0E68D2F800C0721C37B19445DE
:1025200004D9B8559E46164607F8028015F8010FE3
:102530000028F2D1BEF1000F3FF471A90E60FFF741
:102540006EB922F051FF2378FFF754B96D4A116834
:1025500071B16D4F6D4ED7F800C0D6F800E00CF1A8
:102560000106764504D201F80C0000203E60885533
:10257000287800283FF442A94FF0000EF046176873
:102580006149624A0E68D2F800C0721C37B19445A6
:1025900004D9B8559E46164607F8028015F8010F73
:1025A0000028F2D1BEF1000F3FF428A90E60FFF71A
:1025B00025B922F019FF2378FFF70BB9514A1168AA
:1025C00071B1514F514ED7F800C0D6F800E00CF170
:1025D0000106764504D201F80C0000203E608855C3
:1025E000287800283FF4F9A84FF0000EF04617684D
:1025F0004549464A0E68D2F800C0721C37B194456E
:1026000004D9B8559E46164607F8028015F8010F02
:102610000028F2D1BEF1000F3FF4DFA80E60FFF7F3
:10262000DCB822F0E1FE2378FFF7C2B8354A116822
:1026300071B1354F354ED7F800C0D6F800E00CF137
:102640000106764504D201F80C0000203E60885552
:10265000287800283FF4B0A84FF0000EF046176825
:1026600029492A4A0E68D2F800C0721C37B1944535
:1026700004D9B8559E46164607F8028015F8010F92
:102680000028F2D1BEF1000F3FF496A80E60FFF7CC
:1026900093B822F0A9FE2378FFF779B8194A116898
:1026A00071B1194F194ED7F800C0D6F800E00CF1FF
:1026B0000106764504D201F80C0000203E608855E2
:1026C000287800283FF467A84FF0000EF0461768FE
:1026D0000D490E4A0E68D2F800C0721C37B19445FD
:1026E00004D9B8559E46164607F8028015F8010F22
:1026F0000028F2D1BEF1000F3FF44DA80E60FFF7A5
:102700004AB800BF708000207880002074800020CC
:102710004120A14CA14D2378A14E002B41F08E8188
:102720003378002B01F085810AF068FF237815F8D3
:10273000010B0028F1D120209A4D994E002B41F039
:1027400045813378002B01F036810AF057FF23785A
:1027500015F8010B0028F1D12020934D904E002B4D
:1027600041F0F6803378002B01F0ED800AF046FF4F
:10277000237815F8010B0028F1D120208B4D884ECD
:10278000DFF834828A4F6BB93378002B01F0D780A1
:102790000AF034FF15F8010F00283EF4CCAC237882
:1027A000002BF1D0D8F80030002BF3D0814A3968E3
:1027B000D2F800C04A1C6245ECD2585400213A605D
:1027C0009954E7E722F010FEFEF78DBF22F00CFED1
:1027D0002378FEF766BF784A116871B1744F754E61
:1027E000D7F800C0D6F800E00CF10106764504D217
:1027F00001F80C0000203E608855287800283EF43F
:1028000054AF4FF0000EF04617686949694A0E68E8
:10281000D2F800C0721C37B1944504D9B8559E4611
:10282000164607F8028015F8010F0028F2D1BEF114
:10283000000F3EF43AAF0E60FEF737BF22F0D4FD32
:102840002378FEF71DBF5C4A116871B1584F594E8D
:10285000D7F800C0D6F800E00CF10106764504D2A6
:1028600001F80C0000203E608855287800283EF4CE
:102870000BAF4FF0000EF04617684D494D4A0E68F9
:10288000D2F800C0721C37B1944504D9B8559E46A1
:10289000164607F8028015F8010F0028F2D1BEF1A4
:1028A000000F3EF4F1AE0E60FEF7EEBE22F09CFD8E
:1028B0002378FEF7D4BE404A116871B13C4F3D4EBB
:1028C000D7F800C0D6F800E00CF10106764504D236
:1028D00001F80C0000203E608855287800283EF45E
:1028E000C2AE4FF0000EF04617683149314A0E680B
:1028F000D2F800C0721C37B1944504D9B8559E4631
:10290000164607F8028015F8010F0028F2D1BEF133
:10291000000F3EF4A8AE0E60FEF7A5BE22F064FDE7
:102920002378FEF78BBE244A116871B1204F214EE7
:10293000D7F800C0D6F800E00CF10106764504D2C5
:1029400001F80C0000203E608855287800283EF4ED
:1029500079AE4FF0000EF04617681549154A0E681B
:10296000D2F800C0721C37B1944504D9B8559E46C0
:10297000164607F8028015F8010F0028F2D1BEF1C3
:10298000000F3EF45FAE0E60FEF75CBE22F02CFD41
:102990002378FEF797BE00BF39C4062011F5031057
:1029A00033C4062025F5031061F50310E4F5031088
:1029B000788000207480002070800020A74A116871
:1029C00071B1A74FA74ED7F800C0D6F800E00CF1C0
:1029D0000106764504D201F80C0000203E608855BF
:1029E000287800283EF472AE4FF0000EF0461768CB
:1029F0009B499C4A0E68D2F800C0721C37B19445BE
:102A000004D9B8559E46164607F8028015F8010FFE
:102A10000028F2D1BEF1000F3EF458AE0E60FEF772
:102A200055BE22F0E1FC2378FEF7A7BB8B4A116864
:102A300071B18B4F8B4ED7F800C0D6F800E00CF187
:102A40000106764504D201F80C0000203E6088554E
:102A5000287800283EF495AB4FF0000EF04617683A
:102A60007F49804A0E68D2F800C0721C37B1944585
:102A700004D9B8559E46164607F8028015F8010F8E
:102A80000028F2D1BEF1000F3EF47BAB0E60FEF7E2
:102A900078BB22F0A9FC2378FEF7BFBD6F4A11680E
:102AA00071B16F4F6F4ED7F800C0D6F800E00CF14F
:102AB0000106764504D201F80C0000203E608855DE
:102AC000287800283EF4ADAD4FF0000EF0461768B0
:102AD0006349644A0E68D2F800C0721C37B194454D
:102AE00004D9B8559E46164607F8028015F8010F1E
:102AF0000028F2D1BEF1000F3EF493AD0E60FEF758
:102B000090BD22F071FC2378FEF776BD534A116820
:102B100071B1534F534ED7F800C0D6F800E00CF116
:102B20000106764504D201F80C0000203E6088556D
:102B3000287800283EF464AD4FF0000EF046176888
:102B40004749484A0E68D2F800C0721C37B1944514
:102B500004D9B8559E46164607F8028015F8010FAD
:102B60000028F2D1BEF1000F3EF44AAD0E60FEF730
:102B700047BD22F039FC2378FEF72DBD374A116896
:102B800071B1374F374ED7F800C0D6F800E00CF1DE
:102B90000106764504D201F80C0000203E608855FD
:102BA000287800283EF41BAD4FF0000EF046176861
:102BB0002B492C4A0E68D2F800C0721C37B19445DC
:102BC00004D9B8559E46164607F8028015F8010F3D
:102BD0000028F2D1BEF1000F3EF401AD0E60FEF709
:102BE000FEBC22F001FC2378FEF7E4BC1B4A11680E
:102BF00071B11B4F1B4ED7F800C0D6F800E00CF1A6
:102C00000106764504D201F80C0000203E6088558C
:102C1000287800283EF4D2AC4FF0000EF04617683A
:102C20000F49104A0E68D2F800C0721C37B19445A3
:102C300004D9B8559E46164607F8028015F8010FCC
:102C40000028F2D1BEF1000F3EF4B8AC0E60FEF7E2
:102C5000B5BC22F0C9FB2378FEF79BBC7080002036
:102C60007880002074800020A74A116871B1A74FB6
:102C7000A74ED7F800C0D6F800E00CF10106764563
:102C800004D201F80C0000203E6088552878002806
:102C90003EF483AC4FF0000EF04617689B499C4A07
:102CA0000E68D2F800C0721C37B1944504D9B855EB
:102CB0009E46164607F8028015F8010F0028F2D14B
:102CC000BEF1000F3EF469AC0E60FEF766BC22F068
:102CD0008BFB2378FEF74CBC8B4A116871B18B4F8C
:102CE0008B4ED7F800C0D6F800E00CF1010676450F
:102CF00004D201F80C0000203E6088552878002896
:102D00003EF43AAC4FF0000EF04617687F49804A17
:102D10000E68D2F800C0721C37B1944504D9B8557A
:102D20009E46164607F8028015F8010F0028F2D1DA
:102D3000BEF1000F3EF420AC0E60FEF71DBC22F089
:102D400053FB2378FEF703BC6F4A116871B16F4FD4
:102D50006F4ED7F800C0D6F800E00CF101067645BA
:102D600004D201F80C0000203E6088552878002825
:102D70003EF4F1AB4FF0000EF04617686349644A29
:102D80000E68D2F800C0721C37B1944504D9B8550A
:102D90009E46164607F8028015F8010F0028F2D16A
:102DA000BEF1000F3EF4D7AB0E60FEF7D4BB22F0AD
:102DB0001BFB2378FEF7BABB534A116871B1534F1E
:102DC000534ED7F800C0D6F800E00CF10106764566
:102DD00004D201F80C0000203E60885528780028B5
:102DE0003EF4A8AB4FF0000EF04617684749484A3A
:102DF0000E68D2F800C0721C37B1944504D9B8559A
:102E00009E46164607F8028015F8010F0028F2D1F9
:102E1000BEF1000F3EF48EAB0E60FEF78BBB22F0CE
:102E2000E3FA2378FEF771BB374A116871B1374F67
:102E3000374ED7F800C0D6F800E00CF10106764511
:102E400004D201F80C0000203E6088552878002844
:102E50003EF45FAB4FF0000EF04617682B492C4A4A
:102E60000E68D2F800C0721C37B1944504D9B85529
:102E70009E46164607F8028015F8010F0028F2D189
:102E8000BEF1000F3EF445AB0E60FEF742BB22F0F0
:102E9000ABFA2378FEF728BB1B4A116871B11B4FB0
:102EA0001B4ED7F800C0D6F800E00CF101067645BD
:102EB00004D201F80C0000203E60885528780028D4
:102EC0003EF416AB4FF0000EF04617680F49104A5B
:102ED0000E68D2F800C0721C37B1944504D9B855B9
:102EE0009E46164607F8028015F8010F0028F2D119
:102EF000BEF1000F3EF4FCAA0E60FEF7F9BA22F014
:102F000073FA2378FEF7DFBA708000207880002003
:102F100074800020A74A116871B1A74FA74ED7F857
:102F200000C0D6F800E00CF10106764504D201F8A5
:102F30000C0000203E608855287800283EF4C7AA7F
:102F40004FF0000EF04617689B499C4A0E68D2F875
:102F500000C0721C37B1944504D9B8559E46164638
:102F600007F8028015F8010F0028F2D1BEF1000F1A
:102F70003EF4ADAA0E60FEF7AABA22F035FA237825
:102F8000FEF790BA8B4A116871B18B4F8B4ED7F810
:102F900000C0D6F800E00CF10106764504D201F835
:102FA0000C0000203E608855287800283EF47EAA58
:102FB0004FF0000EF04617687F49804A0E68D2F83D
:102FC00000C0721C37B1944504D9B8559E461646C8
:102FD00007F8028015F8010F0028F2D1BEF1000FAA
:102FE0003EF464AA0E60FEF761BA22F0FDF9237880
:102FF000FEF747BA6F4A116871B16F4F6F4ED7F83D
:1030000000C0D6F800E00CF10106764504D201F8C4
:103010000C0000203E608855287800283EF435AA30
:103020004FF0000EF04617686349644A0E68D2F804
:1030300000C0721C37B1944504D9B8559E46164657
:1030400007F8028015F8010F0028F2D1BEF1000F39
:103050003EF41BAA0E60FEF718BA22F0C5F92378D9
:10306000FEF7CEB9534A116871B1534F534ED7F89A
:1030700000C0D6F800E00CF10106764504D201F854
:103080000C0000203E608855287800283EF4BCA93A
:103090004FF0000EF04617684749484A0E68D2F8CC
:1030A00000C0721C37B1944504D9B8559E461646E7
:1030B00007F8028015F8010F0028F2D1BEF1000FC9
:1030C0003EF4A2A90E60FEF79FB922F08DF9237895
:1030D000FEF785B9374A116871B1374F374ED7F8C7
:1030E00000C0D6F800E00CF10106764504D201F8E4
:1030F0000C0000203E608855287800283EF473A913
:103100004FF0000EF04617682B492C4A0E68D2F893
:1031100000C0721C37B1944504D9B8559E46164676
:1031200007F8028015F8010F0028F2D1BEF1000F58
:103130003EF459A90E60FEF756B922F055F92378EE
:10314000FEF73CB91B4A116871B11B4F1B4ED7F8F3
:1031500000C0D6F800E00CF10106764504D201F873
:103160000C0000203E608855287800283EF42AA9EB
:103170004FF0000EF04617680F49104A0E68D2F85B
:1031800000C0721C37B1944504D9B8559E46164606
:1031900007F8028015F8010F0028F2D1BEF1000FE8
:1031A0003EF410A90E60FEF70DB922F01DF9237848
:1031B000FEF7F3B870800020788000207480002033
:1031C000A74A116871B1A74FA74ED7F800C0D6F82B
:1031D00000E00CF10106764504D201F80C00002055
:1031E0003E608855287800283EF4DBA84FF0000E9A
:1031F000F04617689B499C4A0E68D2F800C0721CC2
:1032000037B1944504D9B8559E46164607F8028052
:1032100015F8010F0028F2D1BEF1000F3EF4C1A84D
:103220000E60FEF7BEB822F0DFF82378FEF7A4B8F0
:103230008B4A116871B18B4F8B4ED7F800C0D6F80E
:1032400000E00CF10106764504D201F80C000020E4
:103250003E608855287800283EF492A84FF0000E72
:10326000F04617687F49804A0E68D2F800C0721C89
:1032700037B1944504D9B8559E46164607F80280E2
:1032800015F8010F0028F2D1BEF1000F3EF478A826
:103290000E60FEF775B822F0A7F82378FEF75BB84A
:1032A0006F4A116871B16F4F6F4ED7F800C0D6F8F2
:1032B00000E00CF10106764504D201F80C00002074
:1032C0003E608855287800283EF449A84FF0000E4B
:1032D000F04617686349644A0E68D2F800C0721C51
:1032E00037B1944504D9B8559E46164607F8028072
:1032F00015F8010F0028F2D1BEF1000F3EF42FA8FF
:103300000E60FEF72CB822F06FF82378FEF712B8A3
:10331000534A116871B1534F534ED7F800C0D6F8D5
:1033200000E00CF10106764504D201F80C00002003
:103330003E608855287800283EF400A84FF0000E23
:10334000F04617684749484A0E68D2F800C0721C18
:1033500037B1944504D9B8559E46164607F8028001
:1033600015F8010F0028F2D1BEF1000F3DF4E6AFD1
:103370000E60FDF7E3BF22F037F82378FDF7C9BFF1
:10338000374A116871B1374F374ED7F800C0D6F8B9
:1033900000E00CF10106764504D201F80C00002093
:1033A0003E608855287800283DF4B7AF4FF0000EF6
:1033B000F04617682B492C4A0E68D2F800C0721CE0
:1033C00037B1944504D9B8559E46164607F8028091
:1033D00015F8010F0028F2D1BEF1000F3DF49DAFAA
:1033E0000E60FDF79ABF21F0FFFF2378FDF780BF45
:1033F0001B4A116871B11B4F1B4ED7F800C0D6F89D
:1034000000E00CF10106764504D201F80C00002022
:103410003E608855287800283DF46EAF4FF0000ECE
:10342000F04617680F49104A0E68D2F800C0721CA7
:1034300037B1944504D9B8559E46164607F8028020
:1034400015F8010F0028F2D1BEF1000F3DF454AF82
:103450000E60FDF751BF21F0C7FF2378FDF737BF9E
:10346000708000207880002074800020A74A1168B6
:1034700071B1A74FA74ED7F800C0D6F800E00CF105
:103480000106764504D201F80C0000203E60885504
:10349000287800283DF41FAF4FF0000EF046176863
:1034A0009B499C4A0E68D2F800C0721C37B1944503
:1034B00004D9B8559E46164607F8028015F8010F44
:1034C0000028F2D1BEF1000F3DF405AF0E60FDF70C
:1034D00002BF21F089FF2378FDF7E8BE8B4A11680F
:1034E00071B18B4F8B4ED7F800C0D6F800E00CF1CD
:1034F0000106764504D201F80C0000203E60885594
:10350000287800283DF4D6AE4FF0000EF04617683C
:103510007F49804A0E68D2F800C0721C37B19445CA
:1035200004D9B8559E46164607F8028015F8010FD3
:103530000028F2D1BEF1000F3DF4BCAE0E60FDF7E5
:10354000B9BE21F051FF2378FDF79FBE6F4A116885
:1035500071B16F4F6F4ED7F800C0D6F800E00CF194
:103560000106764504D201F80C0000203E60885523
:10357000287800283DF48DAE4FF0000EF046176815
:103580006349644A0E68D2F800C0721C37B1944592
:1035900004D9B8559E46164607F8028015F8010F63
:1035A0000028F2D1BEF1000F3DF473AE0E60FDF7BE
:1035B00070BE21F019FF2378FDF756BE534A1168FB
:1035C00071B1534F534ED7F800C0D6F800E00CF15C
:1035D0000106764504D201F80C0000203E608855B3
:1035E000287800283DF444AE4FF0000EF0461768EE
:1035F0004749484A0E68D2F800C0721C37B194455A
:1036000004D9B8559E46164607F8028015F8010FF2
:103610000028F2D1BEF1000F3DF42AAE0E60FDF796
:1036200027BE21F0E1FE2378FDF70DBE374A116871
:1036300071B1374F374ED7F800C0D6F800E00CF123
:103640000106764504D201F80C0000203E60885542
:10365000287800283DF4FBAD4FF0000EF0461768C7
:103660002B492C4A0E68D2F800C0721C37B1944521
:1036700004D9B8559E46164607F8028015F8010F82
:103680000028F2D1BEF1000F3DF4E1AD0E60FDF770
:10369000DEBD21F0A9FE2378FDF7C4BD1B4A1168E9
:1036A00071B11B4F1B4ED7F800C0D6F800E00CF1EB
:1036B0000106764504D201F80C0000203E608855D2
:1036C000287800283DF4B2AD4FF0000EF0461768A0
:1036D0000F49104A0E68D2F800C0721C37B19445E9
:1036E00004D9B8559E46164607F8028015F8010F12
:1036F0000028F2D1BEF1000F3DF498AD0E60FDF749
:1037000095BD21F071FE2378FDF77BBD7080002010
:103710007880002074800020A94A116871B1A94FF7
:10372000A94ED7F800C0D6F800E00CF101067645A6
:1037300004D201F80C0000203E608855287800284B
:103740003DF463AD4FF0000EF04617689D499E4A68
:103750000E68D2F800C0721C37B1944504D9B85530
:103760009E46164607F8028015F8010F0028F2D190
:10377000BEF1000F3DF449AD0E60FDF746BD21F0EE
:1037800033FE2378FDF72CBD8D4A116871B18D4F42
:103790008D4ED7F800C0D6F800E00CF10106764552
:1037A00004D201F80C0000203E60885528780028DB
:1037B0003DF41AAD4FF0000EF04617688149824A79
:1037C0000E68D2F800C0721C37B1944504D9B855C0
:1037D0009E46164607F8028015F8010F0028F2D120
:1037E000BEF1000F3DF400AD0E60FDF7FDBC21F011
:1037F000FBFD2378FDF7E3BC714A116871B1714F8D
:10380000714ED7F800C0D6F800E00CF101067645FD
:1038100004D201F80C0000203E608855287800286A
:103820003DF4D1AC4FF0000EF04617686549664A8A
:103830000E68D2F800C0721C37B1944504D9B8554F
:103840009E46164607F8028015F8010F0028F2D1AF
:10385000BEF1000F3DF4B7AC0E60FDF7B4BC21F033
:10386000C3FD2378FDF79ABC554A116871B1554FD5
:10387000554ED7F800C0D6F800E00CF101067645A9
:1038800004D201F80C0000203E60885528780028FA
:103890003DF488AC4FF0000EF046176849494A4A9B
:1038A0000E68D2F800C0721C37B1944504D9B855DF
:1038B0009E46164607F8028015F8010F0028F2D13F
:1038C000BEF1000F3DF46EAC0E60FDF76BBC21F055
:1038D0008BFDFDF72CBC3A4AD2F800C0BCF1000FBA
:1038E00000F07C823749384FD1F800E03C680EF197
:1038F0000106A64205D20CF80E0000200E600CF85E
:103900000600287800283DF416AC4FF0000CE6467F
:1039100016683F680C68621C36B1974204D930556E
:103920009C46144606F802E015F8010F0028F2D173
:10393000BCF1000F3DF4FFAB0C60FDF7FCBB21F0C8
:1039400053FDFEF727BF21F04FFD2378FEF711BF8F
:103950001B4A116871B11B4F1B4ED7F800C0D6F837
:1039600000E00CF10106764504D201F80C000020BD
:103970003E608855287800283EF4FFAE4FF0000ED8
:10398000F04617680F49104A0E68D2F800C0721C42
:1039900037B1944504D9B8559E46164607F80280BB
:1039A00015F8010F0028F2D1BEF1000F3EF4E5AE8C
:1039B0000E60FEF7E2BE21F017FD2378FEF7C8BEC9
:1039C000708000207880002074800020A74A116851
:1039D00071B1A74FA74ED7F800C0D6F800E00CF1A0
:1039E0000106764504D201F80C0000203E6088559F
:1039F000287800283EF4B0AE4FF0000EF04617686D
:103A00009B499C4A0E68D2F800C0721C37B194459D
:103A100004D9B8559E46164607F8028015F8010FDE
:103A20000028F2D1BEF1000F3EF496AE0E60FEF714
:103A300093BE21F0D9FC2378FEF779BE8B4A11683A
:103A400071B18B4F8B4ED7F800C0D6F800E00CF167
:103A50000106764504D201F80C0000203E6088552E
:103A6000287800283EF467AE4FF0000EF046176845
:103A70007F49804A0E68D2F800C0721C37B1944565
:103A800004D9B8559E46164607F8028015F8010F6E
:103A90000028F2D1BEF1000F3EF44DAE0E60FEF7ED
:103AA0004ABE4C20744C754D2378754E002B40F067
:103AB00063813378002B00F05B8109F09FFD237850
:103AC00015F8010B0028F1D120206E4D6C4E002B13
:103AD00040F01C813378002B00F0148109F08EFD3A
:103AE000237815F8010B0028F1D12020664D644E93
:103AF000002B40F0D5803378002B00F0CD8009F00A
:103B00007DFD237815F8010B0028F1D120205F4DB1
:103B10005B4E002B77D13378002B69D009F06EFD16
:103B2000237815F8010B0028F3D12020584D544E6E
:103B3000002B2DD13378002B5ED009F05FFD237868
:103B400015F8010B0028F3D12020524D4C4EDFF820
:103B50001C81474F63B93378002B51D009F04EFDDB
:103B600015F8010F00283DF4E6AA2378002BF2D0C7
:103B7000D8F80030002BF3D03E4A3968D2F800C0A4
:103B80004A1C6245ECD2585400213A609954E7E748
:103B9000364A116871B1364F364ED7F800C0D6F8A4
:103BA00000E00CF10106764504D201F80C0000207B
:103BB0003E60885528780028C6D04FF0000EF046A9
:103BC00017682B492B4A0E68D2F800C0721C37B117
:103BD000944504D9B8559E46164607F8028015F854
:103BE000010F0028F2D1BEF1000FADD00E60ABE79F
:103BF00021F0FAFB237894E721F0F6FB23789FE786
:103C000021F0F2FBACE7194A116871B1184F194E57
:103C1000D7F800C0D6F800E00CF10106764504D2D2
:103C200001F80C0000203E608855287800283FF4F9
:103C30007CAF4FF0000EF04617680D490D4A0E6834
:103C4000D2F800C0721C37B1944504D9B8559E46CD
:103C5000164607F8028015F8010F0028F2D1BEF1D0
:103C6000000F3FF462AF0E605FE700BF708000207E
:103C7000788000207480002039C40620C9F3031026
:103C800033C40620D9F303101DF4031061F40310AC
:103C90009DF40310D0F4031021F0A6FB237831E744
:103CA000524A116871B1524F524ED7F800C0D6F83F
:103CB00000E00CF10106764504D201F80C0000206A
:103CC0003E608855287800283FF420AF4FF0000E62
:103CD000F04617684649474A0E68D2F800C0721C81
:103CE00037B1944504D9B8559E46164607F8028068
:103CF00015F8010F0028F2D1BEF1000F3FF406AF16
:103D00000E6003E721F070FB2378EAE6374A11687A
:103D100071B1374F374ED7F800C0D6F800E00CF13C
:103D20000106764504D201F80C0000203E6088555B
:103D3000287800283FF4D9AE4FF0000EF0461768FF
:103D40002B492C4A0E68D2F800C0721C37B194453A
:103D500004D9B8559E46164607F8028015F8010F9B
:103D60000028F2D1BEF1000F3FF4BFAE0E60BCE6FA
:103D700021F03AFB2378A3E61C4A116871B11C4F6D
:103D80001C4ED7F800C0D6F800E00CF101067645CD
:103D900004D201F80C0000203E60885528780028E5
:103DA0003FF492AE4FF0000EF04617681049114AEA
:103DB0000E68D2F800C0721C37B1944504D9B855CA
:103DC0009E46164607F8028015F8010F0028F2D12A
:103DD000BEF1000F3FF478AE0E6075E6287800283B
:103DE0003DF4A9A90249034F8FE500BF7080002070
:103DF00078800020748000202DE9F04F037805467C
:103E0000ADF54B7D8BB10246002406E014B93E2B84
:103E100000F0998012F8013F3BB1222BF6D112F845
:103E2000013F84F00104002BF7D11C461E462846B2
:103E300034F076FC98B1421E2A44AB48C5F1010724
:103E400005E011F001010AD1D742517007D012F8F4
:103E50000139093BDBB2172B40FA03F1F1D97C2180
:103E6000284634F017FB002800F02D810746002378
:103E7000284607F8013B34F053FCA0B1421E2A4407
:103E80009948C5F1010C06E011F001010BD11CEBC2
:103E9000020F517007D012F80139093BDBB2172B22
:103EA00040FA03F1F0D9384690F800800746B8F19F
:103EB000200F00F10100F7D0B8F1090FF4D0384617
:103EC00034F02EFCB0B1421E3A448748C7F1010CD1
:103ED00006E011F001010BD11CEB020F517007D06D
:103EE00012F80139093BDBB2172B40FA03F1F0D984
:103EF00097F80080B8F1000F4FD038467B4934F076
:103F000031FB002849D03846794934F02BFB002892
:103F100043D04F20774CDFF81C82774E98F8002072
:103F2000002A40F0AA813378002B00F0A38109F029
:103F300065FB14F8010B0028F0D100232B700DF560
:103F40004B7DBDE8F08F53783E2B18BF02F8014B34
:103F500000F04783164612F8013B202BFAD0092BBC
:103F6000F8D0304634F0DCFB00283FF460AF5E4F01
:103F7000321807E011F001017FF459AF11700028E9
:103F80003FF455AF12F8013D0138093BDBB2172B66
:103F900047FA03F13FF64BAFECE72B78002BCED07E
:103FA000012009F019FB01230393002E00F09380F8
:103FB0003378002B00F0F880504B93F800A0BAF152
:103FC000000F40F008812F78222F00F089802B46C7
:103FD0001FB908E013F8017F2FB1202FFAD11F4637
:103FE000002307F8013B2846454934F0BBFA002876
:103FF00000F0B4802846434934F0B4FA002800F0B9
:1040000072812846404934F0ADFA8046002800F01D
:10401000F98028463D4934F0A5FA8046002800F092
:10402000EC8228463A4934F09DFA8046002800F098
:1040300056842846374934F095FA002800F08B85DD
:104040002846354934F08EFA002800F0F1832846DE
:10405000324934F087FA002801F04C802846304974
:1040600034F080FA002801F0318128462D4934F0DF
:1040700079FA002801F0838228462B4934F072FA3D
:10408000002801F06D832846284934F06BFA002897
:1040900001F0AC842846264934F064FA002801F087
:1040A000968495F80080B8F16C0F41F070856B78BC
:1040B000732B41F06C85AB78002B41F06885384656
:1040C000FCF7E0FB4DE02B78002B3FF438AF03907A
:1040D000002E7FF46DAF2F78B246222F7FF477AF9A
:1040E0006F786B1C5FBB7EE7ECFF7FFFC0F60310B1
:1040F000C8F60310D1F6031033C4062030C40620DE
:10410000F8F6031000F70310F8F80310D8F80310BE
:10411000F0F8031038FB03100CFC031020FC031014
:1041200014FD03102CFA031068FD0310A0FD03100A
:1041300004F7031039C4062013F8017F37B1222F8A
:10414000FAD15A780133202A3FF449AF28468749EB
:10415000002734F007FA00287FF44CAF3846FCF70C
:10416000B7FF039B13BBBAF1000F3FF4E8AE002288
:104170007F4B30464AA91A707E4FFCF7C1F8DFF832
:1041800004924AA8002C37D108F044FC3A68D9F8C8
:1041900000104AA808F0E4FD0023C9F800303B6095
:1041A0000DF54B7DBDE8F08F9A460CE7724B002071
:1041B0001D7809F011FA002DD5D06D4B1B78002B1E
:1041C00040F089846D4B0A201B78002B00F02D8372
:1041D00009F014FAC7E700224FF400500121684BA0
:1041E000684F1A703B60DFF88881674B614F186039
:1041F0003A6088F80010E6E63A68D9F8001008F04E
:10420000DBFFC9E7002F00F07884384634F088FAE5
:10421000FF28024628BFFF220AAD05EB02093946F6
:10422000284633F081FD002389F80030A94615F8AF
:10423000017B202FFAD0092FF8D0002F40F0988270
:10424000524D2B68002B40F065846820504DDFF8FC
:1042500020814A4F98F80010002940F006833B78EF
:10426000002B00F0FF8209F0C9F915F8010B0028B6
:10427000F0D176E721F0B8F85BE6DFF808919246D6
:10428000D9F80060002E00F0A5813A4F3E4B396806
:104290001A6801F1010C944505D270540021C7F849
:1042A00000C006F80C10217800293FF446AE4FF00C
:1042B000000E5246F046D9F80060D3F800C03868C6
:1042C000431C36B1634504D231549646184606F86D
:1042D000038014F8011F0029F2D1BEF1000F3FF452
:1042E0002CAE386029E64A900DF59479CDE94B0063
:1042F000CDE94D00CDE94F005190002F00F005842D
:104300003B461A781946202A03F10103F9D0092AFD
:10431000F7D0002A01F03F824F4600231D4D08E0F0
:104320000133202B00F0EF8307F8012B11F8012F48
:1043300012B1A85C0007F3D5002209F8032099F810
:104340000050002D00F0E1834846134934F00AF98B
:1043500040B16C2D24D199F80130732B20D199F8FC
:104360000230EBB90D48FCF7B3FEFAE6F8F603109D
:1043700039C40620788000203EC4062033C40620BD
:10438000A01F062070800020748000205080002034
:1043900011FA0310DDE0071004F7031098F703107B
:1043A00099F80030632B00F035824846B64934F066
:1043B000D9F80028D6D04846B44934F0D3F80028BC
:1043C000D0D04846B24934F0CDF80028CAD048468B
:1043D000B04934F0C7F80028C4D04846AE4934F09C
:1043E000C1F80028BED099F80030722B07D199F897
:1043F00001306D2B03D199F80230002BB2D099F81F
:104400000030632B07D199F80130702B03D199F854
:104410000230002BA6D099F800306D2B07D199F807
:104420000130762B03D199F80230002B9AD0484600
:104430009A4934F097F8002894D04846984934F0C7
:1044400091F800288ED04846964934F08BF8002821
:1044500088D04846944934F085F8002882D04846F0
:10446000924934F07FF800283FF47CAF48469049E9
:1044700034F078F800283FF475AF48468D4934F0A1
:1044800071F800283FF46EAF48468B4934F06AF863
:1044900000283FF467AF4846884934F063F80028A5
:1044A0003FF460AF4846864934F05CF800283FF49A
:1044B00059AF4846834934F055F800283FF452AFCD
:1044C0004846814934F04EF800283FF44BAF484647
:1044D0007E4934F047F800283FF444AF48467C4911
:1044E00034F040F800283FF43DAF4846794934F0B5
:1044F00039F800283FF436AF4846774934F032F8AF
:10450000002802F0AC824846744934F02BF80028A9
:1045100002F0A5824846724934F024F8002802F0DF
:104520009E8248466F4934F01DF8002802F06582EB
:1045300048466D4934F016F8002802F05E8248467D
:104540006A4934F00FF8002802F05782484668495B
:1045500034F008F8002802F050824846654934F0EB
:1045600001F8002802F049824846634933F0FAFF17
:10457000002802F03D824846604933F0F3FF0028EE
:1045800002F0368248465E4933F0ECFF002802F024
:104590002F8248465B4933F0E5FF002802F0F681A0
:1045A0004846594933F0DEFF002802F0EF814846C3
:1045B000564933F0D7FF002802F0E88148465449B5
:1045C00033F0D0FF002802F0E18149465148FCF762
:1045D00079F8C6E5217800293FF4AFAC4E4F4F4B38
:1045E00065E602F8024B13781646202B02F1010211
:1045F000F9D0092BF7D00124B3E4002F00F02C816F
:10460000384634F08DF8FF28024628BFFF220DF50A
:10461000947909EB02053946484633F085FB0023BF
:104620004A462B70174612F8013B202BFAD0092B73
:10463000F8D0002B00F0B2843A4601E0092B06D0F6
:104640003D2B04D012F8013F23B1202BF6D10021DD
:1046500002F8011B11781546202902F10102F9D058
:104660000929F7D0002B00F0A981002900F0A681CC
:10467000284634F055F8002873D0431EDFF8A0C058
:10468000EA18C5F1010053E00CF7031010F703100E
:1046900014F703101CF7031024F703102CF7031072
:1046A00034F70310C46804103CF70310E43304101B
:1046B00040F7031048F7031050F7031058F70310A2
:1046C00060F7031068F7031070F7031078F7031012
:1046D00084F703108CF703109CF70310A4F7031062
:1046E000A8F70310B0F70310C8F70310D0F70310B2
:1046F000D8F703104032041008F5031098F70310A0
:10470000C0F30310D8F80310F0F80310F8F8031002
:1047100000F70310D4F90310788000207480002083
:10472000ECFF7FFF11F001010AD1D042517007D098
:1047300012F80139093BDBB2172B4CFA03F1F1D91E
:10474000284633F0EDFF01280BD92B78222B01F0FE
:10475000BF80272B05D1431EEA5C2B44272A01F09A
:10476000BD800123294638461A46FCF7A5FAF8E42D
:104770004846A84933F0F6FE0546002800F03B867F
:1047800004224846A44933F0F9FF38B105224846CF
:10479000A24933F0F3FF002840F08E86722F14BF39
:1047A000052304234B44184613F8012B202AFAD082
:1047B000092AF8D032F0A4FF421E00F1CB85984BB5
:1047C00019688A4280F2C685964B974D1B685B1A22
:1047D000134480335A4202F03F0203F03F0358BFB4
:1047E000534205EB0325284633F09AFF0746FF2F77
:1047F00028BFFF2729464AAD3A46284633F094FAA7
:10480000002329468948EB55FBF75CFF284602F058
:10481000D3FAA6E499F80130642B7FF4C6AD99F879
:104820000230002B3FF49EADBFE520F0DDFD9AE4A1
:104830007F4BD3E900571EF0ABF8401B4FF47A7260
:104840004FF0000361EB070139F01AFE02460B46F8
:104850007848FBF737FF84E40DF594793A464D46E6
:10486000754FD8E620F0C0FDFFE4DFF8E891D9F8F5
:1048700000C0BCF1000F00F08E84704F704BD7F871
:1048800000801A6808F1010E964506D200220CF845
:104890000800C7F800E00CF80E202A78002A3FF440
:1048A00060AC4FF0000ED9F800C0F146D3F800809C
:1048B0003B68581CBCF1000F07D0804505D90CF8A7
:1048C00003208E4603460CF8009015F8012F002AAD
:1048D000EFD1BEF1000F3FF444AC3B6041E4002F48
:1048E00000F01483384633F01BFFFF28024628BF30
:1048F000FF220DF5947909EB02053946484633F05D
:1049000013FA00234A462B70154612F8013B202B60
:10491000FAD0092BF8D0002B40F0B1827520494D18
:10492000DFF83481484F98F8001049B93B78002BE4
:1049300041D008F063FE15F8010B0028F3D110E414
:10494000DFF81091D9F800C0BCF1000F00F06984C5
:104950003A4F3B4BD7F800801A6808F1010E964594
:1049600006D200220CF80800C7F800E00CF80E2070
:104970002A78002A3FF4F5AB4FF0000ED9F800C0BA
:10498000F146D3F800803B68581CBCF1000F07D0FB
:10499000804505D90CF803208E4603460CF800909C
:1049A00015F8012F002AEFD1BEF1000F3FF4D9AB6B
:1049B0003B60FFF7D6BB20F017FDBCE73B78ABB1FF
:1049C0004FF00009214D15F8013C08F1010833B101
:1049D0002846394633F0C6FD002800F04482B8F17D
:1049E000100F09F2111905F21115ECD16120184DC3
:1049F000DFF86480144F98F8001079BB3B78002BE7
:104A000066D008F0FBFD15F8010B0028F3D1FFF785
:104A1000A8BB00BF2CFA031048FA031050FA031089
:104A200050800020548000205040002060E503109A
:104A3000B824002014FC0310283A041078800020C9
:104A400074800020C9FA031033C406201D250020FD
:104A5000B5FA03107080002039C40620DFF8E89210
:104A60008B46D9F800E0BEF1000F00F06B84B44F24
:104A7000B44B3A68196802F1010C8C4506D20EF865
:104A800002000022C7F800C00EF80C202A78002A85
:104A90003FF467AB4FF0000E5946F046D9F80000DE
:104AA000D3F800903B6803F1010C30B1E14504D923
:104AB000C2548E46634600F80C8015F8012F002A78
:104AC000F1D1BEF1000F3FF44CAB3B60FFF749BBA7
:104AD00020F08AFC97E79C4B1A68002A3FF443AB0E
:104AE000984B97491D680B68581CA842BFF43BAB14
:104AF00008600A21D152FFF736BB0AAD3A46A946F3
:104B0000924FFFF78CBB1F2316E40020FCF7E0FA5E
:104B1000FFF727BB7FF725ABDFF850B2DFF85092E5
:104B20008B4F4146DBF8002008F10108D21A0A44F5
:104B30008032534203F03F0302F03F0258BF5A4213
:104B40004146384609EB0222FBF7BCFD2B6898452D
:104B5000E7DBFFF706BB4D207E4DDFF818827E4F66
:104B600098F80010002940F045813B78002B00F0B8
:104B70003E8108F043FD15F8010B0028F0D14FF4F9
:104B8000A07276481146FBF79DFD2020744D724FB0
:104B900098F80030002B40F0F1803B78002B00F0BB
:104BA000CA8008F02BFD98F8003015F8010B00289A
:104BB000F0D120206B4D684F002B40F083803B7874
:104BC000002B7AD008F01AFD98F8003015F8010B88
:104BD0000028F1D12020644D5F4F002B36D13B7867
:104BE0007BB308F00BFD98F8003015F8010B002896
:104BF000F3D12020DFF880B1574D534FDFF84091BB
:104C00005BB92B78D3B108F0F9FC1BF8010F002831
:104C10003FF4A7AA98F80030F2E73B68002BF4D0E5
:104C2000484AD9F80010D2F800C04A1C6245ECD2BC
:104C300058540021C9F800209954E6E720F0D4FB2D
:104C4000E3E720F0D1FB98F80030CEE7DFF8F890EA
:104C5000D9F8002072B13A4F3A49D7F800C0D1F8DC
:104C600000E00CF10101714504D202F80C000020B3
:104C7000396050542A78002ABBD018464FF0000EF5
:104C8000D9F800C0F346634684462E492C4FD1F82C
:104C900000903968481C33B1814504D95A54E6461E
:104CA000014603F800B015F8012F002AF2D163463F
:104CB000BEF1000F9DD039609BE720F095FB98F87E
:104CC000003083E7DFF88090D9F8002072B11C4FE4
:104CD0001C49D7F800C0D1F800E00CF10101714582
:104CE00004D202F80C000020396050542A78002ABF
:104CF0003FF470AF18464FF0000ED9F800C0F346ED
:104D0000634684460F490E4FD1F800903968481C1D
:104D100033B1814504D95A54E646014603F800B040
:104D200015F8012F002AF2D16346BEF1000F3FF4BF
:104D300051AF39604EE720F057FB98F8003034E768
:104D4000788000207480002070800020283A0410B1
:104D500020FA031041FB031033C4062078FB031034
:104D600099FB0310B9FB0310D5FB031054800020FE
:104D70005040002039C40620F0FB0310DFF81492E5
:104D8000D9F8002072B1784F7849D7F800C0D1F82F
:104D900000E00CF10101714504D202F80C00002082
:104DA000396050542A78002A3FF403AF18464FF078
:104DB000000ED9F800C0F346634684466B496A4F3B
:104DC000D1F800903968481C33B1814504D95A5450
:104DD000E646014603F800B015F8012F002AF2D18B
:104DE0006346BEF1000F3FF4E4AE3960E1E620F027
:104DF000FBFAC0E6DFF89C91D9F800C0BCF1000FC7
:104E00007DD0594F594BD7F800B01A680BF1010EFD
:104E1000964506D200220CF80B00C7F800E00CF80B
:104E20000E202A78002A3FF4AAAED9F800C04FF02D
:104E3000000E6046F3468C460146D3F800903B686E
:104E4000581C31B1814504D9CA54E646034601F8DD
:104E500000B015F8012F002AF2D1BEF1000F3FF487
:104E60008EAE3B608BE6424909F1110209F101095E
:104E70000A4440484944FBF725FCFFF772B928462D
:104E800033F04EFC98B1431E3B4FEA18C5F10100C8
:104E900005E011F001010AD1D042517007D012F89B
:104EA0000139093BDBB2172B47FA03F1F1D92B7813
:104EB0007BB1324F17F8013C08F1010823B13846A5
:104EC000294633F04FFB38B3B8F1100F07F2111732
:104ED000F0D175202A4DDFF8C0802A4F98F80010D5
:104EE000002940F063813B78002B00F05C8108F0E2
:104EF00085FB15F8010B0028F0D1FFF732B92A78AD
:104F0000002A3FF43CAE184F184B8EE70DF594790C
:104F10003A464D461C4FF0E4014640F21112781E0D
:104F200032F0F8FF194B1B78002B00F00582FBF7DD
:104F30005BFC0146002840F0FF8175208946144D36
:104F4000DFF854800F4F98F80030002B40F0DB82E0
:104F50003B78002B00F0108308F050FB15F8010B94
:104F60000028F0D1FFF7FDB8788000207480002081
:104F70001C25002024E60310ECFF7FFF1D250020E8
:104F8000E1FA031033C40620283A041030C4062086
:104F9000F5FA03107080002039C40620A54D2B7847
:104FA0003BB1A54805F11102691CFBF78BFB4FF0E3
:104FB000010895F811313BB1A04A9F48A2F11001B8
:104FC00008F10108FBF77EFB95F822323BB19C4AC1
:104FD0009948A2F1100108F10108FBF773FB95F85D
:104FE00033333BB1974A9448A2F1100108F101080C
:104FF000FBF768FB95F844343BB1934A8E48A2F125
:10500000100108F10108FBF75DFB95F855353BB140
:105010008E4A8948A2F1100108F10108FBF752FB02
:1050200095F866363BB18A4A8348A2F1100108F12F
:105030000108FBF747FB95F877373BB1854A7E4877
:10504000A2F1100108F10108FBF73CFB95F8883844
:105050003BB1814A7848A2F1100108F10108FBF741
:1050600031FB95F899393BB17C4A7348A2F11001A4
:1050700008F10108FBF726FB95F8AA3A3BB1784AFC
:105080006D48A2F1100108F10108FBF71BFB95F830
:10509000BB3B3BB1734A6848A2F1100108F101081B
:1050A000FBF710FB95F8CC3C3BB16F4A6248A2F18C
:1050B000100108F10108FBF705FB95F8DD3D002B19
:1050C00000F0DD82694A5C48A2F11001FBF7FAFAB0
:1050D00095F8EE3E002B40F0C58295F8FF3F002B7F
:1050E0003FF43FA8624A5448A2F11001FBF7EAFAE4
:1050F000FFF737B85F48FBF7E5FA5F48FBF7E2FADE
:105100005E48FBF7DFFA5E48FBF7DCFA5D48FBF729
:10511000D9FA5D48FBF7D6FA05201DF0A7FD014638
:105120005A4B5B48A3FB0131890CFBF7CBFA594979
:105130005948FBF7C7FA594B594A1978594B5A48FD
:1051400000290CBF11461946FBF7BCFA574BD3E9AF
:1051500000571DF01DFC401B61EB07010023544A62
:1051600039F08EF90346534A53495448A1FB035181
:10517000A2FB03756D09A2FB05725209C2EB021274
:10518000A5EB8202C5EB0515C90AA3EB8503FBF766
:1051900099FAFEF7E6BF2A78002A3EF4E2AF484FBC
:1051A000484BFFF77EBB20F01FF9A2E6DFF818910D
:1051B0008B46D9F800E0BEF1000F00F0CA82404FE4
:1051C000404B3A68196802F1010C8C4506D20EF882
:1051D00002000022C7F800C00EF80C202A78002A2E
:1051E0003EF4BFAF002059468046D9F800C0D3F83E
:1051F00000903B6803F1010EBCF1000F07D0F145B0
:1052000005D90CF80320084673460CF80E8015F8F3
:10521000012F002AEED100283EF4A3AF3B60FEF739
:10522000A0BF2A78002A3EF49CAF254F254BFFF7FC
:10523000A3BB00BF1C25002024E603103E2600204F
:105240004F2700206028002071290020822A00209A
:10525000932B0020A42C0020B52D0020C62E00206A
:10526000D72F0020E8300020F93100200A33002039
:105270002C35002028FC031044FC031060FC0310B4
:1052800074FC031084FC0310A0FC031083DE1B439A
:10529000BCFC0310D0FC0310D8FC03103CC4062057
:1052A000B0F60310BC010410E8FC0310B824002081
:1052B00040420F0089888888C5B3A291F8FC03108A
:1052C000788000207480002070800020002F00F083
:1052D00065823846B44933F045F90546002800F0A8
:1052E000F5833B786F2B40F059827B786E2B40F032
:1052F0005582BB78002B40F051820122AB4BAC4F62
:105300001A703A781AB11B780BB1FBF7B7F8532033
:10531000A84DDFF8CC8298F80010002940F09D825B
:105320003B78002B00F0968208F068F915F8010B25
:105330000028F0D1FEF715BF29469F48FBF7C2F9B8
:10534000FEF70FBF2A78002A3EF40BAF9B4F9C4B11
:10535000FFF7A0BB68209B4DDFF88482944F98F83C
:10536000001051B93B78002B42D008F047F915F8EE
:10537000010B0028F3D1FEF7F4BEDFF868928B46EC
:10538000D9F800E0BEF1000F00F0B6808B4F8C4BD7
:105390003A68196802F1010C8C4506D20EF8020039
:1053A0000022C7F800C00EF80C202A78002A3EF42C
:1053B000D8AE002059468046D9F800C0D3F80090F6
:1053C0003B6803F1010EBCF1000F07D0F14505D990
:1053D0000CF80320084673460CF80E8015F8012FD0
:1053E000002AEED100283EF4BCAE3B60FEF7B9BE09
:1053F0001FF0FAFFBBE701464FF48042724832F0DB
:1054000089FD6820714BDFF8D8811D60704B684FB3
:105410001D60704D98F8001051B93B78002B41D0B9
:1054200008F0ECF815F8010B0028F3D1FEF799BE4F
:10543000DFF8B0918B46D9F800E0BEF1000F34D010
:105440005E4F5F4B3A68196802F1010C8C4506D239
:105450000EF802000022C7F800C00EF80C202A78CF
:10546000002A3EF47EAE002059468046D9F800C09E
:10547000D3F800903B6803F1010EBCF1000F07D098
:10548000F14505D90CF80320084673460CF80E8048
:1054900015F8012F002AEED100283EF462AE3B60E1
:1054A000FEF75FBE1FF0A0FFBCE72A78002A3EF49B
:1054B00058AE424F424BD6E7484632F021F9421EE1
:1054C000014600F1C583414B1868824280F2C083D7
:1054D0003F4B1B681B1A134480335A4202F03F02B1
:1054E00003F03F0358BF5342374A3B4802EB0322C5
:1054F000FBF7E8F8FEF735BE2A78002A3EF431AE15
:105500002E4F2F4B55E74946DFF8D8909E46D9F8E5
:105510000080B8F1000F00F07A82284F284BD7F8AE
:1055200000B01A680BF1010C944506D2002208F86D
:105530000B00C7F800C008F80C202A78002A3EF4B7
:1055400010AE4FF00008D9F80000D3F800903B6887
:1055500003F1010C30B1E14504D9C25471466346F0
:1055600000F80C8015F8012F002AF1D100293EF433
:10557000F8AD3B60FEF7F5BD1FF036FFEEE404F03A
:1055800015FE1B20154DDFF85880094F98F80010C4
:1055900051BB3B78002B62D008F030F815F8010BB6
:1055A0000028F3D1FEF7DDBDB0F603103CC40620A1
:1055B00033C4062035FD031020FB03107880002043
:1055C0007480002059FA03105040002050800020C1
:1055D0005480002035FA031020FA031061FD0310F7
:1055E00039C4062070800020DFF830938B46D9F84C
:1055F00000E0BEF1000F00F0A580BC4FBC4B3A6844
:10560000196802F1010C8C4506D20EF80200002246
:10561000C7F800C00EF80C202A78002A3EF4A1AD8D
:10562000002059468046D9F800C0D3F800903B6866
:1056300003F1010EBCF1000F07D0CE4505D20CF8E6
:105640000320084673460CF80E8015F8012F002A37
:10565000EED100283EF485AD3B60FEF782BD1FF021
:10566000C3FE9BE7A34AA448A2F11001FBF72AF866
:1056700095F8FF3F002B7FF435ADFEF772BD95F82E
:10568000EE3E002BEED195F8FF1F00297FF42AADE6
:10569000B8F1000F7EF465AD61208946974DDFF8C3
:1056A0008082974F98F8003053B93B78002B3FD059
:1056B00007F0A4FF15F8010B0028F3D1FEF751BD48
:1056C0004946DFF858929E46D9F80080B8F1000F9D
:1056D00031D0864F864BD7F800B01A680BF1010C19
:1056E000944506D2002208F80B00C7F800C008F85D
:1056F0000C202A78002A3EF434AD4FF00008D9F887
:105700000000D3F800903B6803F1010C30B1E14593
:1057100004D9C2547146634600F80C8015F8012F75
:10572000002AF1D100293EF41CAD3B60FEF719BD03
:105730001FF05AFEBEE72A78002A3EF412AD6B4FE6
:105740006B4BDAE72A78002A3EF40BAD674F684BC3
:1057500066E72A78002A3EF404AD644F644B41E5C5
:1057600004F08EFF051E80F225814220654DDFF892
:10577000B081634F98F80010002940F0D3803B7847
:10578000002B00F0B08007F039FF15F8010B00285E
:10579000F0D1FEF7E6BC1346FEF7CEBD5A4B5B4A8E
:1057A00019785B4B5B4800290CBF11461946FAF784
:1057B00089FF7520584DDFF86881514F98F8001027
:1057C00051B93B78002B42D007F018FF15F8010BB8
:1057D0000028F3D1FEF7C5BCDFF840918B46D9F81D
:1057E00000E0BEF1000F00F06A81404F404B3A6884
:1057F000196802F1010C8C4506D20EF80200002255
:10580000C7F800C00EF80C202A78002A3EF4A9AC94
:10581000002059468046D9F800C0D3F800903B6874
:1058200003F1010EBCF1000F07D0F14505D90CF8CA
:105830000320084673460CF80E8015F8012F002A45
:10584000EED100283EF48DAC3B60FEF78ABC1FF021
:10585000CBFDBBE71FF0C8FD68E5DFF8C0908B46C5
:10586000D9F800E0BEF1000F00F09D801F4F204BE3
:105870003A68196802F1010C8C4506D20EF8020054
:105880000022C7F800C00EF80C202A78002A3EF447
:1058900068AC002059468046D9F800C0D3F8009083
:1058A0003B6803F1010EBCF1000F07D0F14505D9AB
:1058B0000CF80320084673460CF80E8015F8012FEB
:1058C000002AEED100283EF44CAC3B60FEF749BC08
:1058D000431EEA5C2B44222A7EF443AF00220135AA
:1058E0001A70FEF73EBF1FF07FFD4EE77880002064
:1058F000748000201B34002024E6031099FA031062
:1059000033C4062071FD03103CC40620B0F603101A
:10591000BC010410E8FC031049FD03107080002056
:1059200039C40620DFF820938B46D9F800E0BEF199
:10593000000F31D0B44FB54B3A68196802F1010C31
:105940008C4506D20EF802000022C7F800C00EF8FF
:105950000C202A78002A3EF404AC002059468046E8
:10596000D9F800C0D3F800903B6803F1010EBCF1F8
:10597000000F07D0F14505D90CF8032008467346FF
:105980000CF80E8015F8012F002AEED100283EF405
:10599000E8AB3B60FEF7E5BB2A78002A3EF4E1ABBA
:1059A000994F9A4BD9E72A78002A3EF4DAAB964F02
:1059B000964B6EE704F0C6FE954B964A29460028A2
:1059C00018BF1A469448FAF77DFEFEF7CABB06F0E8
:1059D000ABFBB0FA80F3914A5B09137006F00EFF3F
:1059E00001468F48FAF76EFEFEF7BBBBB7B13B78B6
:1059F000A3B1384631F084FE80F30805E8B204F024
:105A000023FE29468748FAF75DFEFEF7AABB2A78EF
:105A1000002A3EF4A6AB7C4F7C4B92E57520824D6C
:105A2000DFF82882814F98F8001051B93B78002B9D
:105A300042D007F0E3FD15F8010B0028F3D1FEF783
:105A400090BBDFF804928B46D9F800E0BEF1000F5E
:105A500001F00A806C4F6D4B3A68196802F1010C35
:105A60008C4506D20EF802000022C7F800C00EF8DE
:105A70000C202A78002A3EF474AB00205946804658
:105A8000D9F800C0D3F800903B6803F1010EBCF1D7
:105A9000000F07D0CE4505D20CF803200846734608
:105AA0000CF80E8015F8012F002AEED100283EF4E4
:105AB00058AB3B60FEF755BB1FF096FCBBE72A785E
:105AC000002A3EF44EAB504F504BA1E6584B1321E9
:105AD00018702F4604F006FC2846002320221321CC
