:020000041000EA
:1000000000B5324B212058609868022188439860DF
:10001000D860186158612E4B002199600221596106
:100020000121F02299502B49196001219960352056
:1000300000F044F80222904214D00621196600F024
:1000400034F8196E01211966002018661A6600F04E
:100050002CF8196E196E196E052000F02FF8012189
:100060000842F9D1002199601B49196000215960AB
:100070001A491B48016001219960EB211966A021F2
:10008000196600F012F800219960164914480160C1
:100090000121996001BC002800D000471248134993
:1000A000086003C880F30888084703B5996A0420EC
:1000B0000142FBD001200142F8D103BD02B5186610
:1000C0001866FFF7F2FF186E186E02BD00000240BE
:1000D000000000180000070000035F00212200005C
:1000E000F4000018222000A00001001008ED00E03C
:1000F00000000000000000000000000074B24E7A12
:1001000000200420F7010010CB010010CD010010E9
:10011000C9010010C9010010C9010010C901001077
:10012000C9010010C9010010C9010010CF01001061
:10013000C9010010C9010010D1010010D301001045
:10014000C1010010C1010010C1010010C101001067
:10015000C1010010C1010010C1010010C101001057
:10016000C1010010C1010010C1010010C101001047
:10017000C1010010C1010010C1010010C101001037
:10018000C1010010C1010010C1010010C101001027
:10019000C1010010C1010010C1010010C101001017
:1001A000C1010010C1010010C1010010C101001007
:1001B000C1010010C1010010C1010010C1010010F7
:1001C000EFF30580103800BE00BE00BE00BE00BECA
:1001D00000BE00BEF2EB88718C330210B8330210FF
:1001E0003802001090A31AE71E481F49086006C88D
:1001F00081F3088810471D480068002801D019487D
:10020000F3E70DA40ECC002902D000F012F8F9E7B4
:100210001749184A002000E001C19142FCD116495B
:100220008847164988471649884700BEFDE701C937
:1002300001C29A42FBD37047B8330210C0000020BD
:1002400020170020184A021000000420000004209B
:10025000184A0210001004200010042000000000C2
:10026000704700000000000008ED00E0000000D032
:1002700020170020447A0120599601109D33001068
:1002800051960110F8B5C0460448054B10B583429D
:1002900003D0044B002B00D0984710BD201700203E
:1002A000201700200000000006480749091A8B109B
:1002B000C90FC91810B5491003D0044B002B00D04A
:1002C000984710BD201700202017002000000000D4
:1002D00010B5074C2378002B09D1FFF7D5FF054B4C
:1002E000002B02D0044800E000BF0123237010BDA2
:1002F000B01A002000000000DCD10110054B10B541
:10030000002B03D00449054800E000BFFFF7CCFFF5
:1003100010BDC04600000000B41A0020DCD101105E
:10032000F0B55746DE464E464546E0B55C4C0F00FC
:10033000A544002835D00378002B32D02F2B00D1D4
:100340007CE0584B1A882F2A60D0802184AC009022
:10035000554A2000890019F03FF904AB9846002364
:10036000424613702378002B01D175E014002F2B27
:100370001DD06378621C002BF8D143461B78002BFC
:100380006AD0FF22414638001CF090FCFF23002277
:10039000FA54464B9D44F0BCBB46B246A946A04623
:1003A000F0BDFF2238003F491CF080FCEEE700233F
:1003B00099463F4B44AE9A4680235B009B46657846
:1003C00001342F2DFBD0002DD7D000230134F5545C
:1003D00025780133002D09D02F2D07D0FF2BF5D123
:1003E00065780134002D01D02F2DF9D14A46F25401
:1003F00033882E2B07D0534511D040461CF0F4FB18
:10040000431C5B452CD1002DD9D1B6E7802184ACAB
:100410000300284A2000890019F0DEF89DE7B37830
:100420000393002BE9D12F2140461CF06FFC0028DC
:100430000ED040450CD9039B0370E4E71E4D84ACFD
:1004400001002A0020001CF031FC0023635584E7E2
:10045000002342461370D6E72F234246138090E7CD
:1004600041462F220A543178002913D002AA831C56
:100470000732C04303925B4510D08022520094465D
:10048000301802E00133634508D0039AD154C15CAF
:100490000029F7D100224146CA54B4E7FF23F9E707
:1004A000ECFBFFFFF00F0020E8D101101404000066
:1004B0002E2E0000E4D10110FF010000054B10B505
:1004C0001B78002B02D006F095FD10BD19F0C0F985
:1004D000FBE7C046337A01200FB4802130B5C3B0AA
:1004E00046AB04CB02AC20004900019319F088F818
:1004F0002078002809D00A4D2B780134002B09D030
:1005000006F078FD20780028F6D143B030BC08BC56
:1005100004B0184719F09CF920780028ECD1F4E7D2
:10052000337A012010B5002A05D0064B01001800CF
:10053000FFF7D2FF10BD044B02001800FFF7CCFFFD
:10054000F8E7C046F4D1011004D2011030B51F4BBA
:10055000C1B01B78002B15D0002802D00378002BE7
:100560002ED16C46FF22200019491CF09FFBFF236F
:10057000002220001749E25405F010FF002817D18F
:1005800041B030BD4E20144C144D2B780134002B5B
:1005900008D006F02FFD20780028F1D02B78013408
:1005A000002BF6D119F054F920780028EDD1E7E7B7
:1005B00006F074F90A4B01001800FFF78DFFDFE722
:1005C0006C462100FFF7ACFED1E7C046327A01202D
:1005D000F00F00202505001010D20110337A012001
:1005E00034D20110F0B5DE4657464E464546E0B5DA
:1005F000564CA544002802D00378002B1AD1752050
:10060000534C544E33780134002B0DD006F0F2FCDD
:1006100020780028F6D185239B009D44F0BCBB4682
:10062000B246A946A046F0BD19F012F9207800287C
:10063000E8D1F0E7002200211CF030FD040004F0B6
:10064000F9FB00287AD1200004A904F0C3FD00289A
:1006500059D121004048FFF73FFF04AB9A463F4B7A
:1006600052469B463E4B3B4E99463E4B08AD02934D
:100670003D4B98463D4B039310235B429B1A0193DD
:10068000019B58465919FFF727FF54464F462178DA
:1006900038000134FFF720FFA542F8D1B9462020E9
:1006A000029C33780134002B35D006F0A3FC20786F
:1006B0000028F6D15446682704E0013406F09AFC7D
:1006C000A5420DD0434620781B5CBB4300D12E20B1
:1006D0003378002BF1D1013419F0BAF8A542F1D1E9
:1006E0007C20039C33780134002B1AD006F082FC66
:1006F00020780028F6D110239C46103588ABE244C0
:100700009D42BDD187E704F05FFE194B0100180040
:10071000FFF7E2FE7FE719F09BF820780028C0D1B0
:10072000C8E719F095F820780028DBD110239C4603
:10073000103588ABE2449D42A2D16CE704F044FE40
:100740000C4B01001800FFF7C7FE64E7ECFDFFFF4C
:100750003CD20110337A012084D2011090D20110D2
:1007600098D2011054D201108932021058D20110CF
:1007700070D201105CD2011070B53A4BD4B01B7826
:10078000002B38D0002802D00378002B0DD1752023
:10079000354C364D2B780134002B26D006F02AFC40
:1007A00020780028F6D154B070BD14A9FFF7B8FD29
:1007B000694614A805F0E8FE002847D12B4E4022D8
:1007C000684604A905F006FF00282ADD04AC2518B8
:1007D00004E006F00FFC0134AC42F0D0337820780E
:1007E000002BF6D119F034F8F5E719F031F820783C
:1007F0000028CFD1D7E74E201D4C1C4D2B7801345B
:10080000002B08D006F0F6FB20780028CBD02B7800
:100810000134002BF6D119F01BF820780028EDD117
:10082000C1E7431D01D0002807D1104B0A201B78D7
:10083000002B13D006F0DEFBB5E740B206F02EF831
:100840000C4B01001800FFF747FEACE706F026F856
:10085000094B01001800FFF73FFEA4E718F0F8FF6E
:10086000A1E7C046327A0120A0D20110337A0120DC
:1008700010D20110C0D20110B4D20110F0B5CE4692
:10088000474680B5204B214C1B78A544002B33D024
:1008900091231F4C1B01E6188023DB0098461D4B5B
:1008A000002599462378002B10D042AA43465019C0
:1008B00022005F1B1132009239004A46631C18F077
:1008C0008BFE002818DB874216DD2D189134A642D6
:1008D000E8D102AC2200104B43CB43C200232000DE
:1008E000237306F0E9F82A00200042A906F0BCFABA
:1008F00043425841C0B200E00020084B9D44C0BCB8
:10090000B946B046F0BDC046327A0120F4FAFFFF86
:10091000CC1A0020D4D20110DCD201100C0500004A
:1009200030B5414B01001B78E1B0002B4FD00028BF
:1009300002D00378002B0DD175203C4C3C4D2B7818
:100940000134002B3DD006F055FB20780028F6D16D
:1009500061B030BD7F2268461CF0A8F97F230022D9
:100960006946CA540A786B46002A04D145E05A7891
:100970000133002A41D0202AF9D100225C1C1A70D0
:100980005B78202B03D163780134202BFBD020A986
:100990006846FFF7C5FC20A806F08EF820001CF082
:1009A00023F92100020020A806F05EFA0028CFD02B
:1009B00005F074FF1F4B020020A91800FFF78CFD03
:1009C000C6E718F045FF20780028B8D1C0E74E20D0
:1009D000194C174D2B780134002B08D006F00AFB78
:1009E00020780028B4D02B780134002BF6D118F0F1
:1009F0002FFF20780028EDD1AAE775200B4C0C4D75
:100A00002B780134002B08D006F0F4FA2078002867
:100A10009ED02B780134002BF6D118F019FF2078E6
:100A20000028EDD194E7C046327A0120ECD20110C3
:100A3000337A012008D3011010D20110F8B54E46C8
:100A400057464546DE46E0B504780600894692469C
:100A50009846002C00D18DE00500072296490B5DD9
:100A60001A4204D15F2C02D02D2C00D082E06C7889
:100A70000135002CF3D1914B01279B461C0000252A
:100A80002378002B06D03100601C1CF069F8002888
:100A900000D188E0013591349137102DF0D15B46BB
:100AA0001B78002B00D1BFE091235A46D35C002B6A
:100AB00000D1B8E091235B00D35C002B00D1E1E0D2
:100AC000B423FF33D35C002B00D1DDE091239B00E6
:100AD000D35C002B00D1D9E0794BD35C002B00D143
:100AE000D6E0784BD35C002B00D1D3E0764BD35CBF
:100AF000002B00D1D0E09123DB00D35C002B00D190
:100B0000B8E0724BD35C002B00D1C7E0704BD35CD4
:100B1000002B00D1C4E06F4BD35C002B00D1C1E0AF
:100B20006D4BD35C002B00D1BEE06C4BD35C002B33
:100B300000D1BDE06A4BD35C002B00D1B6E0694B1D
:100B4000D35C002B00D1B5E04346002B0CD06120D4
:100B5000654C664D2B780134002B00D183E006F004
:100B600049FA20780028F5D1F0BCBB46B246A94628
:100B7000A046F8BD4346002BF6D061205C4C5B4D8F
:100B80002B780134002B08D006F034FA20780028A6
:100B9000EAD02B780134002BF6D118F059FE2078DA
:100BA0000028EDD1E0E701225946EB005B191B015B
:100BB0005B197C1ECA545F4430001CF015F8050018
:100BC0000F2826D90F223100380017F011FA002320
:100BD0001134FB735C4448461CF006F805007F287E
:100BE00000D97F252A004946200017F001FA00238A
:100BF00063555346002B03D03E4B1B78002B1DD171
:100C00004346002BB0D0220039003B48FFF764FC7C
:100C1000AAE702003100380017F0EAF90023113486
:100C20007B555C44D7E70123DC00E4182401E41879
:100C30005A460123671C13555F44BDE7FFF71EFEAC
:100C40000028DDD14346002B00D18DE72B4E274DE8
:100C500061302B780136002B0ED006F0CBF93078BE
:100C60000028F6D1CFE718F0F3FD2078002800D057
:100C700070E779E70823D7E718F0EAFD3078002815
:100C8000E7D1C0E70223CFE70323CDE70423CBE777
:100C90000523C9E70623C7E70723C5E70923C3E7F9
:100CA0000A23C1E70B23BFE70C23BDE70E23BBE7F5
:100CB0000D23B9E70F33B7E789320210CC1A0020B1
:100CC000D502000066030000F703000019050000CC
:100CD000AA0500003B060000CC0600005D070000EE
:100CE000EE0700007F08000030D30110337A0120A6
:100CF00018D30110327A01206CD3011044D30110B3
:100D0000F0B5D6464F4646469122C0B5534C002119
:100D10005348A544120117F065F9524B1B78002B7C
:100D200007D1A223DB009D44E0BCBA46B146A846E9
:100D3000F0BD04AB9A4652464B4B13CB13C2002373
:100D4000524669465046137305F01EFC8146002842
:100D5000E7D144AC21006846444A05F03BFC00283A
:100D6000DFDB4B4623540493414B200052461900CD
:100D700098461CF013F8041ED3D03E4D20001BF003
:100D800033FF0121002809D10EE02A001A410B008F
:100D90001340114208D12354002805D00138235CA8
:100DA000093BDBB2172BF0D92378202B01D0092B7C
:100DB00001D10134F8E7002B07D0232B05D03D21CA
:100DC00020001BF06DFE002807D15246414600204E
:100DD0001BF0E4FF041ED1D1A3E74B46471C037070
:100DE00020001BF001FF0121002809D10EE02A009C
:100DF0001A410B001340114208D12354002805D09A
:100E00000138235C093BDBB2172BF0D93E78202E4A
:100E100001D0092E01D10137F8E7002ED5D03800D6
:100E20001BF0E2FE012808D9222E0DD0272E04D176
:100E30003818431E1B78272B0BD0002339001A00CB
:100E40002000FFF7FBFDC0E73818431E1B78222B5C
:100E5000F3D10023013803700137EEE7F0FAFFFF0A
:100E6000CC1A0020327A0120DCD20110FF030000EE
:100E7000201E0210ECFF7FFF70B5041E01D161E25D
:100E800001342378202BFBD0002B00D15AE22378A9
:100E9000662B27D020000F491BF062FE002801D1ED
:100EA00000F0A8FD20000C491BF05AFE002801D1DB
:100EB00000F018FC5520094D094C23780135002B12
:100EC00001D100F06FFD06F095F828780028F4D1E4
:100ED00070BDC046BCE20110C4E201107CE201100A
:100EE000337A01206378732BD4D1A378002BD1D12E
:100EF0004620CF4DCF4C23780135002B01D100F097
:100F000048FD06F077F828780028F4D12020CA4D53
:100F100023780135002B01D100F032FD06F06AF88C
:100F200028780028F4D12020C44D23780135002BE7
:100F300001D100F01CFD06F05DF828780028F4D1FE
:100F40002020BF4D23780135002B01D100F006FD94
:100F500006F050F828780028F4D12020B94D2378E5
:100F60000135002B01D100F0F0FC06F043F82878A1
:100F70000028F4D12020B44D23780135002B01D175
:100F800000F0DAFC06F036F828780028F4D12020AA
:100F9000AE4D23780135002B01D100F0C4FC06F0E2
:100FA00029F828780028F4D12020A94D237801358C
:100FB000002B01D100F0AEFC06F01CF828780028C8
:100FC000F4D12020A34D23780135002B01D100F06E
:100FD00098FC06F00FF828780028F4D120209E4DC8
:100FE00023780135002B01D100F082FC06F002F8D5
:100FF00028780028F4D12020984D23780135002B43
:1010000001D100F06CFC05F0F5FF28780028F4D140
:101010002020934D23780135002B01D100F056FCA0
:1010200005F0E8FF28780028F4D120208D4D2378A2
:101030000135002B01D100F040FC05F0DBFF2878E2
:101040000028F4D12020884D23780135002B01D1D0
:1010500000F02AFC05F0CEFF28780028F4D12020EB
:10106000824D23780135002B01D100F014FC05F0EE
:10107000C1FF28780028F4D120207D4D2378013548
:10108000002B01D100F0FEFB05F0B4FF287800280A
:10109000F4D12020774D23780135002B00D1EAE3ED
:1010A00005F0A8FF28780028F5D12020724D23787C
:1010B0000135002B00D1D7E305F09CFF28780028EC
:1010C000F5D120206D4D23780135002B00D1C4E3EC
:1010D00005F090FF28780028F5D12020684D23786E
:1010E0000135002B00D1B1E305F084FF28780028FA
:1010F000F5D12020634D23780135002B00D19EE3EC
:1011000005F078FF28780028F5D120205E4D23785F
:101110000135002B00D18BE305F06CFF2878002807
:10112000F5D12020594D23780135002B00D178E3EB
:1011300005F060FF28780028F5D12020544D237851
:101140000135002B00D165E305F054FF2878002815
:10115000F5D120204F4D23780135002B00D152E3EB
:1011600005F048FF28780028F5D120204A4D237843
:101170000135002B00D13FE305F03CFF2878002823
:10118000F5D12020454D23780135002B00D12CE3EB
:1011900005F030FF28780028F5D12020404D237835
:1011A0000135002B00D119E305F024FF2878002831
:1011B000F5D120203B4D23780135002B00D106E3EB
:1011C00005F018FF28780028F5D12020364D237827
:1011D0000135002B00D1DEE205F00CFF2878002855
:1011E000F5D12020314D23780135002B00D1CBE201
:1011F00005F000FF28780028F5D120202C4D237819
:101200000135002B00D1B8E205F0F4FE2878002863
:10121000F5D12020274D23780135002B00D1A5E200
:1012200005F0E8FE28780028F5D12020224D45E081
:10123000F0D70110337A012004D8011034D80110FE
:1012400070D80110ACD80110DCD8011004D90110FD
:101250002CD9011054D9011080D90110B0D9011036
:10126000DCD9011014DA01104CDA011080DA011017
:10127000C0DA0110E4DA011014DB011044DB0110C4
:1012800080DB0110B8DB0110F4DB011040DC011041
:101290007CDC0110B8DC0110F0DC011030DD011045
:1012A00078DD0110A8DD0110D8DD011008DE011085
:1012B0004CDE011088DE0110D0DE011023780135EC
:1012C000002B00D175E205F095FE28780028F5D1B5
:1012D0002020BF4D23780135002B00D162E205F0BC
:1012E00089FE28780028F5D12020BA4D23780135D1
:1012F000002B00D164E205F07DFE28780028F5D1AE
:101300002020B54D23780135002B00D127E205F0D0
:1013100071FE28780028F5D12020B04D23780135C2
:10132000002B09D005F066FE2878002800D1CFE513
:1013300023780135002BF5D118F08AFA2878002897
:10134000ECD1C5E55320A64DA64C23780135002BE2
:1013500000D1C0E105F04EFE28780028F5D120200C
:10136000A14D23780135002B00D1ADE105F042FEFF
:1013700028780028F5D120209C4D23780135002BBA
:1013800000D19AE105F036FE28780028F5D120201A
:10139000974D23780135002B00D187E105F02AFE17
:1013A00028780028F5D12020924D23780135002B94
:1013B00000D174E105F01EFE28780028F5D1202028
:1013C0008D4D23780135002B00D161E105F012FE2F
:1013D00028780028F5D12020884D23780135002B6E
:1013E00000D14EE105F006FE28780028F5D1202036
:1013F000834D23780135002B00D13BE105F0FAFD48
:1014000028780028F5D120207E4D23780135002B47
:1014100000D128E105F0EEFD28780028F5D1202044
:10142000794D23780135002B00D115E105F0E2FD5F
:1014300028780028F5D12020744D23780135002B21
:1014400000D102E105F0D6FD28780028F5D1202052
:101450006F4D23780135002B00D1EFE005F0CAFD78
:1014600028780028F5D10A206A4D23780135002B11
:1014700000D1A6E005F0BEFD28780028F5D1202097
:10148000654D23780135002B00D193E005F0B2FDC6
:1014900028780028F5D12020604D23780135002BD5
:1014A00000D180E005F0A6FD28780028F5D10A20BB
:1014B0005B4D23780135002B6FD005F09BFD28781C
:1014C0000028F6D12020574D23780135002B5ED01F
:1014D00005F090FD28780028F6D12020524D237881
:1014E0000135002B4DD005F085FD28780028F6D178
:1014F00020204E4D23780135002B3CD005F07AFD9D
:1015000028780028F6D12020494D23780135002B7A
:101510002BD005F06FFD28780028F6D10A20454D24
:1015200023780135002B1AD005F064FD28780028B7
:10153000F6D15420404D23780135002B09D005F019
:1015400059FD2878002800D1C2E423780135002B0A
:10155000F5D118F07DF928780028ECD1B8E418F01E
:1015600077F928780028DBD1E3E718F071F92878BB
:101570000028CAD1D2E718F06BF928780028B9D131
:10158000C1E718F065F928780028A8D1B0E718F06D
:101590005FF92878002897D19FE718F059F9287843
:1015A000002886D18EE718F053F92878002800D05B
:1015B00073E77CE718F04CF92878002800D060E742
:1015C00069E718F045F92878002800D04DE756E77C
:1015D00000DF011030DF011068DF0110A0DF011013
:1015E0007CD30110337A012090D30110C4D30110B1
:1015F000F8D301102CD4011068D4011098D4011034
:10160000C8D40110F8D4011024D5011054D501100C
:1016100088D50110ACD50110C0D50110F0D501104E
:1016200018D6011028D601107CD60110D0D6011092
:1016300020D7011070D70110BCD7011018F008F99D
:101640002878002800D004E70DE718F001F9287881
:10165000002800D0F1E6FAE618F0FAF82878002819
:1016600000D0DEE6E7E618F0F3F82878002800D08E
:10167000CBE6D4E618F0ECF82878002800D0B8E6DD
:10168000C1E618F0E5F82878002800D0A5E6AEE617
:1016900018F0DEF82878002800D092E69BE618F0D3
:1016A000D7F82878002800D07FE688E618F0D0F830
:1016B0002878002800D06CE675E618F0C9F828787C
:1016C000002800D059E662E618F0C2F82878002811
:1016D00000D046E64FE618F0BBF82878002800D086
:1016E00033E63CE6BE4DBF4C413023780135002B3C
:1016F00000D16EE105F07EFC28780028F5D120208D
:10170000B94D23780135002B00D15BE105F072FC67
:1017100028780028F5D12020B44D23780135002BFE
:1017200000D148E105F066FC28780028F5D120209A
:10173000AF4D23780135002B0AD005F05BFC2878EB
:10174000002801D1FFF7C4FB23780135002BF4D129
:1017500018F07EF828780028EBD1FFF7B9FB18F0D5
:1017600077F82878002800D0CCE5D5E518F070F897
:101770002878002800D04EE557E518F069F8287859
:10178000002800D03BE544E518F062F828780028EE
:1017900000D028E531E518F05BF82878002800D063
:1017A00015E51EE518F054F82878002800D091E5DA
:1017B0009AE518F04DF82878002800D07EE587E5F6
:1017C00018F046F82878002800D08FE598E518F042
:1017D0003FF82878002800D0EDE4F6E418F038F857
:1017E0002878002800D0DAE4E3E418F031F828780B
:1017F000002800D0C7E4D0E418F02AF828780028A0
:1018000000D0B4E4BDE418F023F82878002800D014
:10181000A1E4AAE418F01CF82878002800D08EE48F
:1018200097E418F015F82878002800D07BE484E4C9
:1018300018F00EF82878002800D068E471E418F059
:1018400007F82878002800D055E45EE418F000F886
:101850002878002800D042E44BE417F0F9FF2878FC
:10186000002800D02FE438E417F0F2FF2878002891
:1018700000D01CE425E417F0EBFF2878002800D006
:1018800009E412E417F0E4FF2878002801D0FFF7FC
:10189000F5FBFFF7FEFB17F0DBFF2878002801D0EF
:1018A000FFF7DFFBFFF7E8FB17F0D2FF28780028EF
:1018B00001D0FFF7C9FBFFF7D2FB17F0C9FF28786B
:1018C000002801D0FFF7B3FBFFF7BCFB17F0C0FF08
:1018D0002878002801D0FFF79DFBFFF7A6FB17F043
:1018E000B7FF2878002801D0FFF787FBFFF790FBB0
:1018F00017F0AEFF2878002801D0FFF771FBFFF743
:101900007AFB17F0A5FF2878002801D0FFF75BFBD2
:10191000FFF764FB17F09CFF2878002801D0FFF741
:1019200045FBFFF74EFB17F093FF2878002801D006
:10193000FFF72FFBFFF738FB17F08AFF2878002806
:1019400001D0FFF719FBFFF722FB17F081FF287882
:10195000002801D0FFF703FBFFF70CFB17F078FF1F
:101960002878002801D0FFF7EDFAFFF7F6FA17F014
:101970006FFF2878002801D0FFF7D7FAFFF7E0FAC9
:1019800017F066FF2878002801D0FFF7C1FAFFF7AB
:10199000CAFA17F05DFF2878002801D0FFF7ABFAEC
:1019A000FFF7B4FA17F054FF2878002801D0FFF7AA
:1019B00084FAFFF78DFA17F04BFF2878002800D043
:1019C000ABE6B4E617F044FF2878002800D098E68C
:1019D000A1E617F03DFF2878002800D085E68EE6C6
:1019E0001CE10110337A012030E101106CE101109B
:1019F000F0E10110364D374C4C3023780135002B87
:101A000060D005F0F7FA28780028F6D12020324D72
:101A100023780135002B4FD005F0ECFA2878002808
:101A2000F6D120202D4D23780135002B3ED005F036
:101A3000E1FA28780028F6D12020294D23780135B5
:101A4000002B2DD005F0D6FA28780028F6D12020DA
:101A5000244D23780135002B1CD005F0CBFA2878D3
:101A60000028F6D12020204D23780135002B0AD004
:101A700005F0C0FA2878002801D1FFF729FA237869
:101A80000135002BF4D117F0E3FE28780028EBD1C4
:101A9000FFF71EFA17F0DCFE28780028D9D1E1E71D
:101AA00017F0D6FE28780028C8D1D0E717F0D0FE6E
:101AB00028780028B7D1BFE717F0CAFE2878002899
:101AC000A6D1AEE717F0C4FE2878002895D19DE78F
:101AD000DCDF0110337A0120ECDF011030E001106F
:101AE00074E00110B0E00110E4E00110F0B5DE4652
:101AF00057464E464546E0B5E3B004001BF074F887
:101B0000621E002800D1C1E00125BA4E135C093BDA
:101B1000DBB2172B00D8ACE02678212E00D1BCE038
:101B200000230C22002103A80293250016F05AFA84
:101B3000330001E06B780135202BFBD0092BF9D065
:101B4000002B32D069460022073108E001358B5462
:101B50002B78002B07D0202B05D0092B03D0013286
:101B6000102AF3D1013A02AB9A46002351468B5416
:101B70000B78002B19D0A04B9B461F0000239946E1
:101B800098463B78002B06D05146781C1AF0E8FFA7
:101B9000002800D197E001239C469033E0449C4606
:101BA00043469137E144102BEBD1002E00D1B1E038
:101BB000924B9B461B689946002B00DC30E1904B12
:101BC0001F201F689A463A001F32D317DB0ED21827
:101BD0001040C01A8B4BC0019846210040441AF0B7
:101BE000BFFF051E00D10BE220001AF0FDFF05002B
:101BF0007F2800D97F25FE0146442A0021003000BD
:101C000016F0F6F900230137FA17D20EBF187355F4
:101C10001F333B409B1A524613604B461F2B00DC80
:101C20001CE17C2120001AF03BFF002800D1D1E10B
:101C30000023451C037020001AF0D6FF002811D0A5
:101C400001216C4E08E032001A410B001340114292
:101C500008D12354002805D00138235C093BDBB2AE
:101C6000172BF0D92E78202E01D0092E5AD101350C
:101C7000F8E7310019412B000B400D4201D001F073
:101C80005DF901382354002800D03FE763B0F0BC71
:101C9000BB46B246A946A046F0BD6378212B79D059
:101CA000601C1AF099FE002800DCE4E1534B013877
:101CB0001A68904200DBDEE1514B1B689B1A1B182F
:101CC000403372E001352B78202BFBD0092BF9D063
:101CD000002B00D166E14B4622AE1133802130004B
:101CE000494A5B44009517F077FC210030001AF058
:101CF00037FF00280AD030001AF076FF31000500C7
:101D00000200200016F074F9002363552678002E97
:101D100000D04DE77C2120001AF0C2FE002800D040
:101D200086E7B3E728001AF05FFF002812D00121F0
:101D3000304E08E032001A410B001340114208D126
:101D40002B54002805D001382B5C093BDBB2172B44
:101D5000F0D92E78002E00D18BE028002B491AF004
:101D6000FFFE002800D184E0280029491AF0F8FE7F
:101D7000002800D17DE04F20264D274E33780135D5
:101D8000002B70D005F036F928780028F6D1002312
:101D900023707BE7A378002B82D1184B1B68002BA4
:101DA00000DC68E1164B1B683F331F25DA17D20EA3
:101DB0009B181D40134BAD1A9846ED014544280071
:101DC0001AF012FF06007F2800D97F262900320072
:101DD000200016F00DF9002321001048A355FEF74E
:101DE0007BFB20001AF000FF002800D14EE7267888
:101DF00096E6C046ECFF7FFFCC1A0020A0350020FD
:101E0000A4350020A025002000E7011008E70110FC
:101E100010E70110E8E20110337A01200CD2011022
:101E2000D04B20009A461D681AF0DEFE06007F287F
:101E300000D91EE1CC4BEF01984647443200210007
:101E4000380016F0D5F800230135EA17D20EAD1888
:101E5000BB551F332B409B1A524613604B465A46C4
:101E600001331360DDE617F0F3FC2878002885D1F4
:101E70008DE72378002B00D108E7012005F0ACF8AE
:101E800026780125002E74D0230003E05E7801330C
:101E9000002E6ED0202EF9D100225F1C1A70200077
:101EA000B2491AF05DFE002865D0B14B2000190040
:101EB00098461AF055FE002800D191E02000AD4967
:101EC0001AF04EFE8146002800D175E12000AA4993
:101ED0001AF046FE8046002800D1B2E12000A74952
:101EE0001AF03EFE8046002800D1D3E02000A4492D
:101EF0001AF036FE002801D100F036FC2000A1497E
:101F00001AF02EFE002801D100F0B5FC20009E49F9
:101F10001AF026FE002801D100F067FE20009B4940
:101F20001AF01EFE002801D100F095FE200098490D
:101F30001AF016FE002801D100F0BDFE20009549E0
:101F40001AF00EFE002801D100F01FFF26786C2E3B
:101F500001D000F0E2FE6378732B01D000F0DDFECB
:101F6000A378002B01D000F0D8FE3800FEF7EEFA7F
:101F700004E0002793E73800FEF77EFF012D00D034
:101F800084E6854B00201C7805F026F8002C00D153
:101F90007CE6824B0A201B78002B00D17AE305F007
:101FA00029F873E64D4611355D4428001AF01CFEF1
:101FB00007007F285BD822AE3A002900300016F0D7
:101FC00017F8C4235B00FF1800236F44013FFF3F55
:101FD0003B708AE62678002E00D157E6002553E7AD
:101FE00022901C22002123A815F0FCFF002F00D115
:101FF000ADE03B78202B01D0092B09D10137F8E760
:102000007C2120001AF04CFD002800D010E63BE7B0
:102010000022002B0FD087240820614E6C4407E07B
:102020000132202A00D133E3A354BB5C002B02D041
:10203000F15C0842F4D0002322AEB3543478002C73
:1020400000D184E0300053491AF08AFD00280AD0FC
:102050006C2C00D06AE17378732B00D066E1B37802
:10206000002B00D062E14F48FEF706FF86E77F278E
:10207000A1E77F26DEE668204B4D484E33780135D8
:10208000002B68D004F0B6FF28780028F6D1002392
:102090002370A6E6002F01D100F0A1FD38001AF050
:1020A000A3FD02007F2800D97F2222AEB418390098
:1020B000300015F09DFF0023237034002378202B7F
:1020C00001D0092B01D10134F8E7002B00D199E3AD
:1020D00020001AF089FD002811D00121334E08E0BC
:1020E00032001A410B001340114208D1235400283A
:1020F00005D00138235C093BDBB2172BF0D92378DC
:10210000002B16D02A4B00279B461E003378002B4D
:1021100007D02100701C1AF023FD002801D100F027
:1021200013FD01239C46E044434691369137102B22
:10213000ECD175201F4C194E33780134002B00D19F
:10214000ADE304F057FF20780028F5D116E7002012
:10215000FEF792FE12E717F07BFB287800288DD15E
:1021600095E7C046A4350020A025002018E70110FF
:1021700020E7011008E80110F8E7011000E801105D
:1021800088E80110B0E8011058E80110C4E8011017
:10219000DCE8011024E70110387A0120337A0120AD
:1021A00089320210C0E70110CCE20110ECFF7FFF82
:1021B000CC1A0020A8E50110002F00D16EE23800F3
:1021C0001AF012FD02007F2800D97F2202AB9A4646
:1021D0009C183900504615F00BFF0023564623701B
:1021E0003478202C01D0092C01D10136F8E7002CDD
:1021F00000D0CAE1484B1A689B46002A00D116E37A
:1022000000DCBBE6454B464E9A46464B1F3498468B
:1022100001239C46534649461B68E1449B1A5B18C0
:102220004033D917C90E5A182240521AD2014244DB
:1022300049463000FEF750F95B461A689145E7DBE6
:102240009CE6002F00D107E338001AF0CDFC020015
:102250007F2800D97F2222AEB4183900300015F053
:10226000C7FE0023237034002378202B01D0092BD4
:1022700001D10134F8E72200002B02D117E3092B2A
:1022800009D03D2B07D053780132002B01D100F04B
:1022900077FC202BF3D10021561C11703278202AB4
:1022A00001D0092A01D10136F8E7002B00D1C3E1A2
:1022B000002A00D1C0E130001AF096FC002824D09A
:1022C0000122194F08E03900194113000B400A425E
:1022D00008D13354002805D00138335C093BDBB208
:1022E000172BF0D930001AF07FFC01280DD9337874
:1022F000222B01D100F0B4FD272B06D13018431E4C
:102300001B78272B01D100F0B2FD012301223100FF
:102310002000FEF793FB31E6A0350020A435002015
:102320004CE80110A0250020ECFF7FFF3378632BE1
:1023300006D17378642B03D1B378002B00D192E6D9
:102340003000D9491AF00CFC002800D18BE630008F
:10235000D6491AF005FC002800D184E63000D449A3
:102360001AF0FEFB002800D17DE63000D1491AF0BA
:10237000F7FB002800D176E63000CF491AF0F0FBD9
:10238000002800D16FE63378722B06D173786D2B5D
:1023900003D1B378002B00D165E63378632B06D1E7
:1023A0007378702B03D1B378002B00D15BE630003B
:1023B000C2491AF0D5FB002800D154E63000C049CC
:1023C0001AF0CEFB002800D14DE63000BD491AF0CE
:1023D000C7FB002800D146E63000BB491AF0C0FB1D
:1023E000002800D13FE63000B8491AF0B9FB0028B8
:1023F00000D138E63000B6491AF0B2FB002800D10F
:1024000031E63000B3491AF0ABFB002800D12AE6D0
:102410003000B1491AF0A4FB002800D123E63000B7
:10242000AE491AF09DFB002800D11CE63000AC49F3
:102430001AF096FB002800D115E63000A9491AF0E1
:102440008FFB002800D10EE63000A7491AF088FB68
:10245000002800D107E63000A4491AF081FB0028CB
:1024600000D100E63000A2491AF07AFB002800D122
:10247000F9E530009F491AF073FB002800D1F2E51E
:1024800030009D491AF06CFB002800D1EBE53000CC
:102490009A491AF065FB002801D100F064FF300072
:1024A00097491AF05DFB002801D100F05CFF300075
:1024B00094491AF055FB002801D100F054FF300078
:1024C00091491AF04DFB002801D100F01AFF3000AD
:1024D0008E491AF045FB002801D100F012FF3000B0
:1024E0008B491AF03DFB002801D100F00AFF3000B3
:1024F00088491AF035FB002801D100F002FF3000B6
:1025000085491AF02DFB002801D100F0FAFE3000B9
:1025100082491AF025FB002801D100F029FF300084
:102520007F491AF01DFB002801D100F021FF300087
:102530007C491AF015FB002801D100F019FF30008A
:1025400079491AF00DFB002801D100F07DFD300023
:1025500076491AF005FB002801D100F075FD300026
:1025600073491AF0FDFA002801D100F06DFD4146D3
:1025700030001AF0F5FA6F4C002801D100F0E7FCAA
:1025800031006D48FDF7A8FFF8E430006B491AF000
:10259000E7FA071E00D103E30422300068491AF06D
:1025A00051FB002807D00522300066491AF04AFB8B
:1025B000002800D030E32300723B5A1E93410433BD
:1025C000F0180278202A01D0092A01D10130F8E759
:1025D0001AF002FA013800D585E35B4B1A68904285
:1025E00000DB80E31F26594B1B689B1A1B184033E6
:1025F000DA17D20E9B181E40B61A554BF601F61884
:1026000030001AF0F1FA04007F2800D97F2422005C
:10261000310022A815F0ECFCC4235B00E418002371
:102620006C44013CFF3C4B48237022A9FDF754FF4A
:1026300022A8FFF75BFAA1E42378002B15D0464BC4
:1026400000279B461E003378002B06D02100701C0B
:102650001AF086FA002800D103E101239C46E044E9
:10266000434691369137102BEDD161203B4C3C4EC7
:1026700033780134002B05D004F0BCFC207800280E
:10268000F6D17BE417F0E4F820780028F0D175E467
:10269000013AD0E417F0DCF8FFF7F8FA02AB9A46FB
:1026A0001C0000222F4F94E52CE7011030E70110A9
:1026B00034E701103CE7011044E701104CE701103A
:1026C00050E7011058E7011060E7011064E70110BE
:1026D000E825021068E7011070E7011078E70110A3
:1026E00080E7011088E7011090E7011098E70110DA
:1026F000A0E70110ACE70110B4E70110C4E7011036
:10270000CCE70110D0E70110D8E70110E0E7011095
:10271000E8E70110F0E70110201D0210C4E20110EB
:10272000C0E70110BCE20110F8E7011000E8011059
:1027300008E8011018E4011010E8011058E8011031
:1027400060E8011068E80110A0350020A4350020E1
:10275000A02500200CD20110CC1A00207CE501102D
:10276000337A01208C210210CD4CCE4E4D3033787F
:102770000134002B40D004F03DFC20780028F6D135
:10278000A0225200C8481100FDF7A6FE2020C74C29
:1027900033780134002B29D004F02CFC2078002859
:1027A000F6D12020C24C33780134002B11D004F034
:1027B00021FC20780028F6D12020BE4C337801344B
:1027C000002B0CD004F016FC20780028F6D1FFF77F
:1027D000D5FB17F03DF820780028E4D1ECE717F09E
:1027E00037F820780028E9D1FFF7C8FB17F030F858
:1027F00020780028CCD1D4E717F02AF820780028D8
:10280000B5D1BDE77520AC4CA64E33780134002B12
:1028100006D004F0EFFB20780028F6D1FFF7AEFBDE
:1028200017F016F820780028EFD1FFF7A7FB6820F3
:10283000A24C9C4E33780134002B06D004F0DAFB16
:1028400020780028F6D1FFF799FB17F001F82078DF
:102850000028EFD1FFF792FB22AE34000022984F00
:10286000FBE43A00791C113296485A445944FDF76A
:1028700033FEFFF783FB944B1E685F6813F0DEFEA8
:10288000FA22801BB9410023920014F04BFD8F4CBB
:1028900002000B002000FDF71FFEFFF76FFB16F094
:1028A000D7FF2078002800D046E4FFF767FB884B6D
:1028B0009B461B78002B09D05B465A46814C591C1D
:1028C00020001132FDF708FE0123984691235A4655
:1028D000D35C002B09D059467A4CA23220009231A9
:1028E000FDF7FAFD01239C46E04491235A465B0024
:1028F000D35C002B0BD05946724C3432243120006B
:10290000FF32FF31FDF7E8FD01239C46E044B4238C
:102910005A46FF33D35C002B0BD05946694CC53265
:10292000B5312000FF32FF31FDF7D6FD01239C4673
:10293000E04491235A469B00D35C002B0AD0614CA3
:10294000644A654920005A445944FDF7C5FD0123F6
:102950009C46E0445A46614BD35C002B0AD0594C4C
:102960005F4A604920005A445944FDF7B5FD0123F0
:102970009C46E0445A465C4BD35C002B0AD0514C39
:102980005A4A5B4920005A445944FDF7A5FD0123EA
:102990009C46E0445A46574BD35C002B0CD0812216
:1029A000FE21484CD200890020005A445944FDF7CA
:1029B00093FD01239C46E04491235A46DB00D35CFF
:1029C000002B0AD03F4C4C4A4C4920005A445944F1
:1029D000FDF782FD01239C46E0445A46484BD35CF8
:1029E000002B0AD0374C474A474920005A445944E3
:1029F000FDF772FD01239C46E0445A46434BD35CED
:102A0000002B0AD02F4C424A424920005A445944D4
:102A1000FDF762FD01239C46E0445A463E4BD35CE1
:102A2000002B0AD0274C3D4A3D4920005A445944C6
:102A3000FDF752FD01239C46E0445A46394BD35CD6
:102A4000002B0AD01F4C384A384920005A445944B8
:102A5000FDF742FD01239C46E0445A46344BD35CCB
:102A6000002B00D110E1174C324A33495A44200060
:102A70005944FDF731FD5A46304BD35C002B00D052
:102A800008E12F4BD35C002B01D1FFF777FA2D4AD9
:102A9000200011001039FDF71FFDFFF76FFAC04647
:102AA000E8E50110337A012090E8011014E60110E6
:102AB00034E6011050E6011090E50110FCE401102D
:102AC0008C2102106CD30110A0180020B8E801106E
:102AD000CC1A00205502000045020000D50200007B
:102AE000E6020000D6020000660300007703000043
:102AF00067030000F7030000990400008904000048
:102B0000190500002A0500001A050000AA050000AA
:102B1000BB050000AB0500003B0600004C060000B2
:102B20003C060000CC060000DD060000CD060000DB
:102B30005D0700006E0700005E070000EE07000062
:102B40007F0800005C2300203800912200215844B7
:102B500015F048FAD54B1B78002B1BD0FDF78EFEE5
:102B6000002817D1D24CD34E753033780134002B66
:102B700009D004F03FFA20780028F6D1FFF7FEF9DB
:102B80001600FFF78BFB16F063FE20780028ECD1CF
:102B9000FFF7F4F92100C848FDF79EFCFFF7EEF9B6
:102BA00080220021C548520115F01CFA6820C44B50
:102BB000C44C1F60C44BBF4E1F6033780134002BE0
:102BC00006D004F017FA20780028F6D1FFF7D6F9DE
:102BD00016F03EFE20780028EFD1FFF7CFF922AEA5
:102BE00034000022B94FFFF762FA01F095FC1B2078
:102BF000B74CB04E33780134002B06D004F0FAF90C
:102C000020780028F6D1FFF7B9F916F021FE2078D8
:102C10000028EFD1FFF7B2F9300019F0DDFE010016
:102C2000421E00D5C0E1A64B1868824200DBBBE122
:102C3000A54B1B681B1A9B181F224033D817C00EC8
:102C40001B181A40121A9D4BD201A248D218FDF748
:102C500043FCFFF793F901F0DBFD011E58DA422037
:102C60009D4C944E33780134002B06D004F0C2F909
:102C700020780028F6D1FFF781F916F0E9FD2078D9
:102C80000028EFD1FFF77AF9944BD35C002B00D1E9
:102C90008AE0934C934E2000310032001039FDF74A
:102CA0001BFC914B9C46914B6644F35C002B00D07F
:102CB000EDE6FFF763F9002F00D1E2E03B78002B4F
:102CC00000D1DEE0380019F087FE0400FF2800DCA8
:102CD000D3E0FF24E0B201F077FD21008448FDF746
:102CE000FBFBFFF74BF96820824C724E33780134BE
:102CF000002B06D004F07EF920780028F6D1FFF7EB
:102D00003DF916F0A5FD20780028EFD1FFF736F940
:102D10007948FDF7E1FBFFF731F92000774919F019
:102D20001FFF002801D1FFF720F9632E43D16378FC
:102D3000642B40D1A378002B3DD15C4B1B78002B3A
:102D400000D146E1002F00D151E13B78002B00D1AA
:102D50004DE1380022A9FDF7E3FA22A803F0ACFD0B
:102D6000041E00D05FE1FF27654EFF22300022A93C
:102D700019F09CFF634B3100F4551E003A00180017
:102D800019F094FFF455FFF7F9F803F0C7F9424240
:102D90004241464B1A7003F081FD5B4B0100180065
:102DA000FDF79AFBFFF7EAF8504BD35C002B00D1FC
:102DB0001FE14B4C6BE62000544919F0D1FE00286E
:102DC00000D11BE22000524919F0CAFE002800D1B0
:102DD0000FE220004F4919F0C3FE002800D1EAE1BC
:102DE00020004D4919F0BCFE061E00D1BFE12000B5
:102DF0004A4919F0B5FE002800D16FE1200048498A
:102E000019F0AEFE002800D149E12000454919F033
:102E1000A7FE002800D124E12000434919F0A0FEBC
:102E2000002800D112E12000404919F099FE002845
:102E300000D15BE220003E4919F092FE002800D04C
:102E400014E23C4E1B4F3478002C00D104E23B7856
:102E500020000136002B00D1FBE104F0CBF8F2E7B3
:102E60003018431E1B78222B01D0FFF74EFA0023A7
:102E7000013803700136FFF748FAC343DB171C40E3
:102E800028E775202C4C0B4E33780134002B06D0EC
:102E900004F0B0F820780028F6D1FFF76FF816F0AC
:102EA000D7FC20780028EFD1FFF768F8327A0120AC
:102EB000BCE50110337A012070E80110A025002044
:102EC000A03500200CE50110A43500208C21021053
:102ED0006CE601104CE8011074E60110EE070000EA
:102EE0006CD30110CB22002001F8FFFF7F08000007
:102EF000E8E8011020E50110CCE8011014E9011008
:102F0000F00F0020F010002008E901102CE701105C
:102F100030E7011024E9011034E701103CE701100B
:102F200044E701104CE901105CE9011074E901105B
:102F30007CE90110F0E6011090E60110002801D0B4
:102F4000FEF7EAFDFEF7A2FE0134FDF7B7FA20789E
:102F50000028F9D1CE4C02E00134FDF7AFFA207819
:102F60000028F9D1CB4C02E00134FDF7A7FA207814
:102F70000028F9D1C84C02E00134FDF79FFA20780F
:102F80000028F9D1C54C02E00134FDF797FA20780A
:102F90000028F9D1C24C02E00134FDF78FFA207805
:102FA0000028F9D1FEF7EAFF7520BE4CBE4E3378FB
:102FB0000134002B06D004F01DF820780028F6D14B
:102FC000FEF7DCFF16F044FC20780028EFD1FEF776
:102FD000D5FF4E20B54CB44E33780134002B2CD0A5
:102FE00004F008F820780028F6D1FEF7C7FFB04FAC
:102FF000AFE64346002B01D0FEF7C0FF6120AD4C89
:10300000A94E33780134002B06D003F0F3FF20786B
:103010000028F6D1FEF7B2FF16F01AFC207800283F
:10302000EFD1FEF7ABFF03F039FCA34B020022A95E
:103030001800FDF751FAFEF7A1FF16F009FC207801
:103040000028C9D1FEF79AFF9C4C80E701F0F2FE00
:1030500002F0BAF99A4B01001800FDF73DFAFEF7AD
:103060008DFF984B1B78002B6DD0002F5DD03B78E7
:10307000002B5AD0380022A9FDF752F922A803F0FC
:103080001BFD002801D1FEF779FF03F007FC8E4BF2
:10309000020022A91800FDF71FFAFEF76FFF894B07
:1030A0001B78002B2DD0002F1DD03B78002B1AD081
:1030B00022AE38003100FDF733F9300003F01EFC7A
:1030C000002801D1FEF75AFF03F0E8FB7F4B020016
:1030D00031001800FDF700FAFEF750FF3800FDF749
:1030E0001FFCFEF74BFF7A4C6F4E2078002801D171
:1030F000FEF744FF33780134002B10D003F07AFF41
:10310000F3E76A4C684E2078002801D1FEF736FFBD
:1031100033780134002B05D003F06CFFF3E716F091
:1031200097FBE2E716F094FBEDE76A4C5E4E2078E1
:10313000002801D1FEF722FF33780134002B10D094
:1031400003F058FFF3E7594C574E2078002801D17F
:10315000FEF714FF33780134002B05D003F04AFF4B
:10316000F3E716F075FBE2E716F072FBEDE7554B5F
:103170001B78002B4BD0002F2DD03B78002B2AD072
:10318000380022A9FDF7CCF83200310022A803F064
:103190006BFE831D01D1FEF7F1FE002801D1FEF781
:1031A000EDFE03F07BFB4C4B020022A91800FDF75B
:1031B00093F9FEF7E3FE002F3DD03B78002B3AD089
:1031C000394E3878002837D033780137002B2CD08F
:1031D00003F010FFF5E7414C334E2078002801D171
:1031E000FEF7CCFE33780134002B0DD003F002FF44
:1031F000F3E73800FDF7C0FAFEF7C0FE384939485A
:10320000FDF76AF9FEF7BAFE16F022FBE5E7274C58
:10321000254E2078002801D1FEF7B0FE3378013426
:10322000002B05D003F0E6FEF3E716F011FBC8E72C
:1032300016F00EFBEDE71C4E3378002B04D00A206D
:1032400003F0D8FEFEF79AFE0A2016F001FBFEF707
:1032500095FE16F0FDFAF6E5642013F029F96422D4
:103260002100200013F02CFEFEF788FE390020001C
:1032700012F01EF900283ED0194CFF2220001A49F6
:1032800019F014FDFF230022E254FEF777FEC0463A
:1032900034D8011028E4011068E401109CE4011006
:1032A000CCE4011040E50110337A012010D2011066
:1032B000E0D1011060E5011018E9011018E40110D7
:1032C00064E90110327A012050E901103CE9011053
:1032D000C4E60110DCE601102CE90110ACE6011097
:1032E000F00F00200CD20110F01000203800FDF784
:1032F00079F9FEF743FE21002048FDF7EDF8FEF7CF
:103300003DFE1F4C02E00134FDF7D8F8207800287C
:10331000F9D11C4C02E00134FDF7D0F820780028E8
:10332000F9D1194C02E00134FDF7C8F820780028E3
:10333000F9D1164C02E00134FDF7C0F820780028DE
:10334000F9D1134C02E00134FDF7B8F820780028D9
:10335000F9D1104C02E00134FDF7B0F820780028D4
:10336000F9D1FEF70BFE0C48FDF786FDFEF706FED1
:103370003000FDF781FDFEF701FEC04684E9011033
:1033800010E3011020E3011050E3011080E301106D
:10339000B0E30110E0E30110BCE20110F0B55746C4
:1033A000DE464E464546E0B5A5B004AF3B007A4840
:1033B00003AA02A913F02CFC002803D17748764910
:1033C00012F018F9049A0399029813F045FB16F0CD
:1033D000A3FAFA2013F06CF8172012F0E5F8D023C6
:1033E00080221B0612045A625A6113F027F96C4BB3
:1033F0006C4C186059606C4BFF2219002000FF25AF
:10340000984619F053FC00239946635501F044F99E
:10341000280001F0D9F9142013F04AF800F0F4FA6A
:10342000280001F0D1F90123604E4846337001F0C5
:1034300073F81B205E4C33780134002B00D194E0EC
:1034400003F0D8FD20780028F5D15A4813F030F861
:1034500001F0F0FC002800D18EE04D20564C33786E
:103460000134002B7AD003F0C5FD20780028F6D176
:10347000524B414618009946FDF72EF88022002154
:10348000380014F0AFFD4E4B002501934D4B9B4689
:10349000FF239A46002016F047FA831C24D0002808
:1034A00026DB0D2828D00A2826D0082839D07F28E6
:1034B00037D01B28EED00300B43B032BEAD9524689
:1034C0005B46682102409B5C8B43E3D07E2DE1DCB0
:1034D0000023C0B26C1C78553B553378002B56D076
:1034E00003F088FD2500D5E701F0F8F80028D8DAC8
:1034F000142012F0DDFFCDE733780A20002B2AD00C
:1035000003F078FD00237B55002D02D03800FEF734
:10351000EDFA0023414648463B70FCF7DDFF0025ED
:10352000B8E7002DFBD000230820013D019C7B550E
:1035300033780134002B08D003F05CFD207800289C
:10354000A8D033780134002BF6D116F081F9207819
:103550000028EDD19EE716F07BF9D3E716F078F955
:103560002078002800D07AE782E716F071F92078F9
:10357000002800D05FE768E702F0D0FD002800D007
:103580006BE70122104B1A70FDF7BAFB65E71000DC
:1035900016F05EF925007DE788070200C4E90110F6
:1035A000A0180020F0100020F00F0020337A012036
:1035B0006CE60110DC050000A0E90110F8E901103B
:1035C000C0E9011089320210327A01200EB4F0B540
:1035D00082B008ABD0248027802501936A46362329
:1035E0002406AD01FF01A761A561D3706B460C4EA7
:1035F000D91C0122300019F09FFD6A46019B6561CC
:103600001B786761A561D3706B4601223000D91C1D
:1036100019F092FD656102B0F0BC08BC03B0184718
:1036200000000440F0B5D6464F4646469946C0B520
:103630008023D02682B036069B01B3616B4680277B
:103640000C00591C2A2305009246FF01B7610B703C
:10365000244B01221800984619F06EFDEBB21B02B4
:103660002A0A1A435346204D1B0A1B042A401A43B8
:10367000534612021B06120A1A4301A977614046FB
:103680000192042219F058FD6B46991C2B23B76157
:10369000012240460B7019F04FFDE2B21202230ADC
:1036A00013434A46120A12042B4013434A461B0294
:1036B00012061B0A134301A97761042240460193B5
:1036C00019F03AFD6B46D91C2C23B7610122404604
:1036D0000B7019F031FD776102B0E0BCBA46B1461B
:1036E000A846F0BD00000440FFFF00FFF0B5DE4635
:1036F000454657464E46B74CE0B52500BE22283D0C
:1037000021008BB02800920019F072F9B423AB4667
:103710009B00E0182822202114F064FC00220024E1
:10372000D846AD4BAD4D1A60AD4B13321A60AD4B60
:10373000AD4F0693032228680894030C9343D9B233
:103740008946010A9143CEB231028A46FF210B40DD
:1037500051460B430393A54BB446049300239A466A
:10376000059343464E469043C0B20793099504998A
:103770009F4B0A00984642448846C8219D4B9E4D67
:10378000434445448846079C029501940199097871
:103790002039CCB209015E2C01D9F8214900059CE1
:1037A000A146894449464D46069C615C6457002CFD
:1037B00000DBF0E015246442A146904C91441C804B
:1037C0000024A3464C465D463D5540240C4200D1A2
:1037D000D8E05446DC7012246442A14644461C7171
:1037E0000024A34691444C465D463D5520240C429E
:1037F00000D1BEE02F3CA146804C9144DC800024E7
:10380000A3464C465D463D5510240C4200D1A7E02E
:1038100054465C720C246442A14644469C720024C7
:10382000A34691444C465D463D5509246442A14659
:1038300091440C0700D4C8E0704C9C810024A3463E
:103840004C465D463D554C0700D4ADE05446DC7314
:10385000941FA14644461C740024A3464C465D4672
:103860003D558C0700D4ABE0644C5C820024A1463B
:103870004C46029D7C55C90760D4614699750199F3
:103880005E75013101910299B85418310291049981
:10389000183218338A4200D078E7F022920090461E
:1038A000059B01330593049B43441A000493544B36
:1038B0009A4200D05BE7079B089C98462300402271
:1038C0000F339BB221000020FF32099DFFF7AAFEB3
:1038D000F0224C4E39003000920119F02DFCF368B3
:1038E0005B0704D50423B268F2681342FBD11022AF
:1038F000444BD9680A42FCD1DB685B0705D504223A
:10390000404B9968D9680A42FBD101223D4B1034E3
:103910001A62D02380221B0692015A6128239C46FA
:103920001933A4B2FF33E0449C4200D002E70BB04D
:10393000F0BCBB46B246A946A046F0BD51465975FB
:10394000414699755146B954019918350131019193
:1039500004991832183302958A4200D016E79CE782
:103960000C246442A146644683465E7291449C7274
:1039700058E70F246442A1466C46A48983469144CB
:10398000DC803EE712246442A14664468346DE7032
:1039900091441C7127E715246442A146644683467E
:1039A0001E7091445C700DE7941FA14683466446E7
:1039B0005D461C744C46DE733D558C0700D553E7BD
:1039C0006C46A48981465C8252E76C46A489834692
:1039D0009C8135E7EC3700208C250020E023002077
:1039E0009025002008EA0110043E0120D7030000C2
:1039F00040FCFFFF2D3A01203DFCFFFF00C8FFFF08
:103A0000D73F000000000440F0B5DE4657464E4662
:103A10004546E0B50A2083B011F0C6FD0B2011F039
:103A2000C3FD0C2011F0C0FD0D2011F0BDFD0E20D6
:103A300011F0BAFD0F2011F0B7FDD0248023240629
:103A4000DB00636280231B01636280258023802664
:103A5000FE4FAD013602DB01656238006362FC494E
:103A60006662994618F0F6FC0222924651467B683F
:103A70000A201340F74A1160072239685140C832C2
:103A80000A40F5490A60F54A0121136011F038FD3A
:103A900001210B2011F034FD01210C2011F030FD2B
:103AA00001210C2011F05AFD6561002266610021A0
:103AB0000F2011F03FFD002201210F2011F03AFDEF
:103AC00066610021E64812F0DFFC002200210F2091
:103AD00011F030FD012200210F2011F02BFDA66115
:103AE0000021DF4812F0D0FC002200210F2011F04D
:103AF00021FD002201210F2011F01CFD6661002133
:103B0000D84812F0C1FC4B46A3616B46DE1DE02392
:103B10003100A56101223370380019F00DFB4B46CE
:103B20006561636100233100A561012233703800B3
:103B3000984619F001FB4B46656163610323310030
:103B4000A56101223370380019F0F6FA4A46656122
:103B5000626109223100A56138003270083A19F01B
:103B6000EBFA4946656161610821A5610122317066
:103B70003800310019F0E0FA16234846656131003B
:103B800060610122A5613800337019F0D5FA48460A
:103B9000656160610A2031008346A56101223070B1
:103BA000380019F0C9FA48463F2365613100606169
:103BB0000122A5613800337019F0BEFA4846782317
:103BC0006561310060610122A5613800337019F030
:103BD000B3FA4C2348466561310060610122A5615A
:103BE0003800337019F0A8FA48460922656131009F
:103BF0006061A56138003270083A19F09DFA4A46B2
:103C0000656162615A463100A56138003270093A37
:103C100019F092FA4A460821656138006261A5618F
:103C200001223170310019F087FA4A461623656186
:103C3000310062613800A5610122337019F07CFA0D
:103C40001A234A466561310062613800A56101228C
:103C5000337019F071FA4A46656162610F223100D2
:103C60009346A561380032700E3A19F065FAE123E7
:103C70004A4665613100A2613800A56101223370B6
:103C800019F05AFA4A466561626142463100A561FF
:103C900038003270013219F04FFA4A461623656136
:103CA000310062613800A5610122337019F044FAD5
:103CB0004A4619236561310062613800A56101221D
:103CC000337019F039FA4A460323656131006261A5
:103CD0003800A5610122337019F02EFA4B46656158
:103CE00063615B463100A56101223370380019F031
:103CF00023FA4B466561636105233100A56101220A
:103D00003370380019F018FA4B466561636132234D
:103D10003100A56101223370380019F00DFA4B46CD
:103D20006561636145233100A5610122337038006C
:103D300019F002FA4B466561636146233100A561C3
:103D400001223370380019F0F7F94B466561636161
:103D500004233100A56101223370380019F0ECF919
:103D60004B46656163610E233100A561012233700A
:103D7000380019F0E1F94B46656163610D233100AC
:103D8000A56101223370380019F0D6F94B46656100
:103D9000636135233100A56101223370380019F0C9
:103DA000CBF94B466561636137233100A561012280
:103DB0003370380019F0C0F94B46656163615B46AA
:103DC0003100A56101223370380019F0B5F94B4676
:103DD0006561A361C0233100A56101223370380001
:103DE00019F0AAF94B466561636117233100A5619B
:103DF00001223370380019F09FF94B466561636109
:103E000015233100A56101223370380019F094F9AF
:103E10004B466561A361C1233100A5610122337066
:103E2000380019F089F94B4665616361412331001F
:103E3000A56101223370380019F07EF94B466561A7
:103E4000A361C5233100A5610EE0C0460000044017
:103E500040787D01043004400010044004200440F8
:103E600010270000400D030001223370380019F0C4
:103E700063F94B466561636143463100A5610122E8
:103E80003370380019F058F94B46656163611223AD
:103E90003100A56101223370380019F04DF94B460D
:103EA0006561636180233100A561012233703800B0
:103EB00019F042F94B466561A36136233100A561D3
:103EC00001223370380019F037F94B4665616361A0
:103ED00048233100A56101223370380019F02CF914
:103EE0004B466561A3613A233100A561012233701D
:103EF000380019F021F94B46656163616623310092
:103F0000A56101223370380019F016F94B4665613E
:103F1000A361B0233100A56101223370380019F08C
:103F20000BF94B466561636143463100A56101228F
:103F30003370380019F000F94B466561A361B12375
:103F40003100A56101223370380019F0F5F84B46B5
:103F500065616361A0233100A561012233703800DF
:103F600019F0EAF84B466561A36121233100A56190
:103F700001223370380019F0DFF84B466561A36108
:103F8000B4233100A56101223370380019F0D4F850
:103F90004B466561636153463100A5610122337070
:103FA000380019F0C9F84B466561A361B6233100AA
:103FB000A56101223370380019F0BEF84B466561E7
:103FC000636153463100A56101223370380019F056
:103FD000B3F84B466561636153463100A561012228
:103FE0003370380019F0A8F84B46656163613B23D4
:103FF0003100A56101223370380019F09DF84B465D
:104000006561A361B7233100A561012233703800D7
:1040100019F092F84B4665616361C6233100A561D2
:1040200001223370380019F087F84B466561A361AF
:10403000E9233100A56101223370380019F07CF8C2
:104040004B466561636143463100A56101223370CF
:10405000380019F071F84B466561A361F723310010
:10406000A56101223370380019F066F84B4665618E
:104070006361A9233100A56101223370380019F072
:104080005BF84B466561636151233100A5610122F4
:104090003370380019F050F84B46656163612C238A
:1040A0003100A56101223370380019F045F84B4604
:1040B0006561636182233100A5610122337038009C
:1040C00019F03AF84B466561A361112331000122D2
:1040D000A5613800337019F02FF87820656112F06F
:1040E000E7F94B46A361292331000122A56138007D
:1040F000337019F021F87820656112F0D9F948225F
:1041000001213620FFF762FA03B0F0BCBB46B2468D
:10411000A946A046F0BDC0460322030C934370B5E8
:10412000DDB2030A93439043DBB2C4B22802190400
:1041300020430843210222062E0419431043314331
:104140001A0611431A0224042A4322432D06F0249E
:104150002A431E4DA4002B002C191A605960986048
:104160000C339C42F9D14023FF331A000021002078
:10417000A024FFF757FA6400F022290014489200A7
:10418000013C18F0D9FF002CF6D1114BDB685B071E
:1041900005D504210E4B9A68DA681142FBD1102133
:1041A0000B4AD3681942FCD1D3685B0705D50421BB
:1041B000074B9A68DA681142FBD10122044B1A625C
:1041C000D02380221B0692015A6170BD1C39012048
:1041D00000000440A02330B55B00140083B0984277
:1041E00001D2994201D303B030BD0B000200FFF7AA
:1041F00019FA0323220C01A99A430A70220A9C434C
:104200008C709A43D024802380252406DB01AD01E5
:104210004A70044863610322A56118F08DFF65614F
:10422000E1E7C04600000440F0B5DE4657464E4682
:104230004546E0B5203A8346D0B2E9B014015E2885
:1042400001D9F82464000322180C9043C5B2A84693
:10425000FF251F0A9343DBB20693729B9743FFB27D
:104260001B0C93433E0228403043DEB2B446729E9C
:104270000490360A9643F6B230022B4005001D43E7
:10428000AA46A34B5046E41801946C46E082584677
:104290008B464146729DB0469543EDB22E0008AB69
:1042A000069D14320790039702917BE00299AA467B
:1042B000197015214942894691444F465446039945
:1042C000597008A9CC554021014200D082E06146D6
:1042D000D970122149428946B246414691444C4622
:1042E0005746197108A90F552021014200D082E0DC
:1042F0002F398946B246694691444C465746C98A89
:10430000D98008A90F551021014200D083E06146F1
:1043100059720C2149428946B246414691444C4665
:104320005746997208A90F550821014200D083E031
:1043300011398946B246694691444C465746C98A66
:10434000998108A90F550421014200D084E06146FB
:10435000D973911F8946B24641464C465746197457
:1043600008A90F550221014200D084E0D11E8946E0
:10437000B24669464C465746C98A598208A90F5524
:10438000C00700D584E0614659754146997508A972
:104390008E549820019918320131FF300191183361
:1043A00082427CD001990878097849B2002900DA64
:1043B0007CE761461970152149428946B24641465B
:1043C00091444F465446597008A9CC5540210142AA
:1043D00000D17CE70299AA46D97012214942894648
:1043E00091444C4657460399197108A90F5520214D
:1043F000014200D17CE70F2149428946AA4669461D
:1044000091444C465746098AD98008A90F55102176
:10441000014200D17BE70299AA4659720C21494218
:10442000894691444C4657460399997208A90F55FD
:104430000821014200D17BE7092149428946AA4669
:10444000694691444C465746098A998108A90F55F7
:104450000421014200D17AE70299AA46D973911F3B
:10446000894657464C460399197408A90F550221ED
:10447000014200D17AE7D11E8946AA4669464C46D8
:104480005746098A598208A90F55C00700D47AE710
:10449000029959750399997508A98D5479E7079B75
:1044A00059469B460B005A460F3307329BB258467B
:1044B00092B2FFF7B7F8C022164C5200200008A9AC
:1044C00018F03AFEE3685B0704D50422A368E368AA
:1044D0001A42FBD110210F4AD3681942FCD1D3688C
:1044E0005B0705D504210B4B9A68DA681142FBD1B2
:1044F0000122084B1A62D02380221B0692015A61C6
:1045000069B0F0BCBB46B246A946A046F0BDC04665
:1045100008EA011000000440C82210B50400084B4E
:10452000202118609200074813F05CFD2000FFF77F
:10453000F3FD0022044B1A60044B1A6010BDC04604
:10454000E0230020C43700208C2500209025002087
:10455000F0B5020083B00A282ED00D284DD0294D89
:104560002F68390189B2082830D00300203B5E2B28
:1045700000D93F22244CBE00244BF6192068F600D7
:104580009B191A54224BC0001B6880B20093C823A9
:104590001B02FFF749FE23680133272B02DC23604F
:1045A00003B0F0BD002323602B6801332B60132B75
:1045B000F6DDFFF79BF8F3E70022134B1A60114A70
:1045C000136801331360132BEADDF2E70E4B186812
:1045D0000028E5DD0138BA001860D2190B4BD20073
:1045E0009B1820221A540A4BC0001B6880B200930B
:1045F000C8231B02FFF718FED2E70022024B1A6005
:10460000CEE7C046902500208C250020C43700202E
:10461000E023002070B586B06B461875597512F00E
:104620000DF80023194A1A4C8018594180231B06A3
:10463000994202D301201749404200261625022341
:1046400005AA0290039100961F21200018F07CF922
:104650006D44102011F02CFF2E8011F0EFFF00238D
:104660000A4A8018594180231B06994202D301202F
:104670000849404200230290039100932A001F2121
:104680002000023318F084F906B070BD50C300005A
:10469000D0120020FFFFFF7F10B50D490D4818F024
:1046A00029F90321062010F02BFF0321072010F029
:1046B00027FF00220121062010F03CFF00220121EB
:1046C000072010F037FF0122034B1A6010BDC046CF
:1046D00010270000D0120020A835002070B5334B01
:1046E00086B01B68002B5AD0152409236C44237014
:1046F00011F0A4FF00232E4A2E4D8018594180232B
:104700001B06994240D20026029003910123220009
:104710001F212800009618F017F900283FDB102011
:1047200011F0C6FE6B46DE8211F088FF0023204A9E
:104730008018594180231B06994229D20024162251
:104740000290039102231F21280000946A4418F06C
:104750001FF9002823DB6B46DB8A002B1FD0164A8B
:1047600093421FD0154A934216D0180ADBB2012B90
:1047700015D1134B1B68002B04D00300613B192B90
:1047800000D8603806B070BD01200E494042BAE73B
:1047900001200C494042D1E70122094B1A60012057
:1047A0004042EFE7064B1C60F9E7C046A835002001
:1047B00050C30000D0120020037E0000027E0000E3
:1047C00074250020FFFFFF7F70B5104D04002B689B
:1047D000002B0DD0011CF0280BD8C9B24B1E0E2B9C
:1047E00000D810218520FFF715FF2B68002B07D17B
:1047F00070BDF023191CC9B24B1E0E2BF2D8F0E786
:1048000021008A20FFF706FFF2E7C046A835002006
:1048100070B5264B86B01B68002B44D015240B23A3
:104820006C44237011F00AFF0023214A214D8018A7
:10483000594180231B0699422DD2002602900391F4
:10484000012322001F212800009618F07DF800287F
:1048500029DB102011F02CFE6B46DE8211F0EEFEFB
:104860000023134A8018594180231B06994216D20F
:10487000002316220290039100931F212800023387
:104880006A4418F085F800280DDB6B46D88A40048E
:10489000400E06B070BD012007494042CDE701201F
:1048A00005494042E4E701204042F2E7A8350020F4
:1048B00050C30000D0120020FFFFFF7FF8B5002397
:1048C0004746CE4699468023D02580B580271B03D6
:1048D0000826FF2498462D06FF0216E043466B612A
:1048E000022011F0B5FE4B466F6168685B00C003A3
:1048F000C00F1843C3B264000220013E9946E4B2DF
:1049000011F0A6FEAF61002E04D0E309E6D14346C4
:10491000AB61E5E74846C0BCB946B046F8BDC04605
:104920008023F0B5C646D02580271B030400082647
:10493000984600B52D06FF020FE043466B6102204A
:1049400011F086FE64006F610220013E6B68E4B2E4
:1049500011F07EFEAF61002E04D0E309EDD1434695
:10496000AB61ECE780BCB846F0BDC046F0B5D646BA
:1049700046464F46C0B582460E00974C82B005E0D1
:104980000520013C11F064FE002C03D0FFF796FFD8
:10499000FF28F5D1330E9846320AD3B299464346E2
:1049A0005046370CFFB21B023904034312060B4377
:1049B000134300936B466C46F6B21E715D1D207862
:1049C0000134FFF7ADFFA542F9D1534612215B0038
:1049D000DBB25B004B405BB2DAB25200002B00DA74
:1049E000FCE05B005BB2D2B2002B00DAFCE05300CB
:1049F000DAB25BB2002B00DAFEE05300DAB25BB24F
:104A00005200002B00DA00E1D3B252B25B00002A60
:104A100000DA02E1DAB25BB2002B00DA04E1530003
:104A20004246DBB25A40130052B25B00002A00DA61
:104A300006E1DAB25BB25200002B00DA08E1D3B231
:104A400052B25B00002A00DA0AE1DAB25BB252002D
:104A5000002B00DA0CE1D3B252B25B00002A00DA7C
:104A60000EE1DAB25BB25200002B00DA10E1D3B2F1
:104A700052B25B00002A00DA12E1DAB25BB2002B1C
:104A800000DA14E15300DBB25F407BB27F00002B01
:104A900000DA16E1FAB27FB25200002F00DA18E114
:104AA000D3B252B25B00002A00DA1AE1DAB25BB28A
:104AB0005200002B00DA1CE1D3B252B25B00002A94
:104AC00000DA1EE1DAB25BB25200002B00DA20E11C
:104AD000D3B252B25B00002A00DA22E1DAB25BB252
:104AE000002B00DA24E153004A46DBB25A4013009F
:104AF00052B25B00002A00DA26E1DAB25BB2520061
:104B0000002B00DA28E1D3B252B25B00002A00DAAF
:104B10002AE1DAB25BB25200002B00DA2CE1D3B208
:104B200052B25B00002A00DA2EE1DAB25BB2520028
:104B3000002B00DA30E1D3B252B25B00002A00DA77
:104B400032E1DAB25BB2002B00DA34E15300DBB2BF
:104B50005E4073B27600002B00DA36E1F2B276B234
:104B60005200002E00DA38E1D3B252B25B00002AC4
:104B700000DA3AE1DAB25BB25200002B00DA3CE133
:104B8000D3B252B25B00002A00DA3EE1DAB25BB285
:104B90005200002B00DA40E1D3B252B25B00002A8F
:104BA00000DA42E1D8B25BB24000002B01DA1223F6
:104BB00058400123C0B21843FFF7B2FE0824FFF7A4
:104BC0007DFE030602D5013C002CF8D102B0E0BC0A
:104BD000BA46B146A846F0BD102700004A4053B27D
:104BE000DAB2002B00DB02E71223520053405BB223
:104BF000DAB2002B00DB00E75300122253405BB215
:104C0000DAB25200002B00DBFEE612235A4052B209
:104C1000D3B25B00002A00DBFCE6122253405BB2F9
:104C2000DAB2002B00DBFAE6530012225340424670
:104C3000DBB25A40130052B25B00002A00DBF8E6F8
:104C4000122253405BB2DAB25200002B00DBF6E6D0
:104C500012235A4052B2D3B25B00002A00DBF4E6C2
:104C6000122253405BB2DAB25200002B00DBF2E6B4
:104C700012235A4052B2D3B25B00002A00DBF0E6A6
:104C8000122253405BB2DAB25200002B00DBEEE698
:104C900012235A4052B2D3B25B00002A00DBECE68A
:104CA000122253405BB2DAB2002B00DBEAE653007B
:104CB00012225340DBB25F407BB27F00002B00DB4F
:104CC000E8E612235F407FB2FAB25200002F00DB09
:104CD000E6E612235A4052B2D3B25B00002A00DB50
:104CE000E4E6122253405BB2DAB25200002B00DB42
:104CF000E2E612235A4052B2D3B25B00002A00DB34
:104D0000E0E6122253405BB2DAB25200002B00DB25
:104D1000DEE612235A4052B2D3B25B00002A00DB17
:104D2000DCE6122253405BB2DAB2002B00DBDAE69B
:104D30005300122253404A46DBB25A40130052B28B
:104D40005B00002A00DBD8E6122253405BB2DAB2E5
:104D50005200002B00DBD6E612235A4052B2D3B2E7
:104D60005B00002A00DBD4E6122253405BB2DAB2C9
:104D70005200002B00DBD2E612235A4052B2D3B2CB
:104D80005B00002A00DBD0E6122253405BB2DAB2AD
:104D90005200002B00DBCEE612235A4052B2D3B2AF
:104DA0005B00002A00DBCCE6122253405BB2DAB291
:104DB000002B00DBCAE6530012225340DBB25E40F8
:104DC00073B27600002B00DBC8E612235E4076B299
:104DD000F2B25200002E00DBC6E612235A4052B255
:104DE000D3B25B00002A00DBC4E6122253405BB260
:104DF000DAB25200002B00DBC2E612235A4052B254
:104E0000D3B25B00002A00DBC0E6122253405BB243
:104E1000DAB25200002B00DBBEE612235A4052B237
:104E2000D3B25B00002A00DBBCE6122253405BB227
:104E3000D8B2B9E6F0B557464546DE464E46E0B52F
:104E4000C04B83B01D689A46002D01D0002089E038
:104E5000D02480262406F603162010F0A5FB00229D
:104E60000121A662162010F065FB1220676810F081
:104E70009BFB132010F098FB102010F095FB1120E5
:104E800010F092FB0521122010F03AFB05211320AF
:104E900010F036FB0521102010F032FB0521112007
:104EA00010F02EFB8023DB026362994680231B03F4
:104EB000636298463740802380265B02B602A36275
:104EC00002211220666210F05DFB0221132010F017
:104ED00059FB00220121102010F02CFB0121102091
:104EE00010F03CFB4B46A3614346052063616661BD
:104EF000666111F0ADFBFFF7E1FC022011F0D8FA7A
:104F00000A24013CFFF7DAFC002CFAD1D0238022DE
:104F10001B06920205209A6111F09AFB8A4CFFF75A
:104F2000CDFC05E00520013C11F092FB002C20D0C7
:104F3000FFF7C4FCFF28F5D100214020FFF716FD44
:104F4000D026802336069B02040073610520984614
:104F500011F07EFBFFF7B2FC012C18D0002F00D11E
:104F600098E0032003B0F0BCBB46B246A946A04679
:104F7000F0BDD02380221B06920205205A6111F059
:104F800067FBFFF79BFC002FEBD10220EAE74346CB
:104F90000520B36111F05CFBFFF790FC6A4B99466A
:104FA0000AE0052011F054FB01235B429C46E144DA
:104FB0004B46002B00D1B0E0FFF780FCFF28F0D17A
:104FC000D52148204900FFF7D1FC012800D1EBE0B2
:104FD000002399469B46D02380221B06920205207F
:104FE0005A6111F035FBFFF769FC574BD02680273B
:104FF00098463606BF02002D1ED10520B76111F07C
:1050000027FB514CFFF75AFC05E00520013C11F04D
:105010001FFB002C40D0FFF751FCFF28F5D10021E9
:105020007720FFF7A3FC05007761052011F010FB46
:10503000FFF744FC6D07ED0F0520B76111F008FB89
:10504000414CFFF73BFC05E00520013C11F000FB63
:10505000002C21D0FFF732FCFF28F5D1002D27D0FE
:1050600000214120FFF782FC77610400052011F048
:10507000EFFAFFF723FC002C1DD0FA20400011F0BE
:10508000E7FA01235B429C46E0444346002BB2D141
:10509000022067E7012065E7D02380221B069202E9
:1050A00005205A6111F0D4FAFFF708FC022059E7F5
:1050B00049466920D6E75B46244D2C60002B39D148
:1050C000D02380221B06920205209A6111F0C0FABB
:1050D0001D4CFFF7F3FB05E00520013C11F0B8FA89
:1050E000002CD9D0FFF7EAFBFF28F5D18021502012
:1050F0008900FFF73BFCD02380221B0692020400AC
:105100005A61052011F0A4FAFFF7D8FB002CC1D199
:10511000012352460020136024E7D02380221B067F
:1051200092025A61052011F093FAFFF7C7FB0023A2
:105130009B465AE70520B76111F08AFA024CFFF747
:10514000BDFB0BE0AC35002010270000BC35002073
:105150000520013C11F07CFA002C17D0FFF7AEFBC4
:10516000FF28F5D100217A20FFF700FC00280DD19F
:1051700001AF3C0002AEFFF7A1FB20700134B44246
:10518000F9D13B785B0601D501232B60D023802227
:105190001B0692025A61052011F05AFAFFF78EFBA6
:1051A0002B68002BB4D18BE701AF3C0002AEFFF7B8
:1051B00085FB20700134A642F9D1BB78012B00D0C9
:1051C00006E7FB78AA3B5A425341DAB29B07934663
:1051D000994600E7F8B54746CE46364D80B52B6870
:1051E000060088460327002B5BD0334B72021B68F6
:1051F0009146002B00D0B146D02380221B0692029C
:1052000005209A6111F024FA2C4CFFF757FB05E0BA
:105210000520013C11F01CFA002C33D0FFF74EFBA7
:10522000FF28F5D149465120FFF7A0FB8146002811
:1052300028D1234C05E00220013C11F009FA002C92
:1052400020D0FFF73BFBFE28F5D1802344469B008E
:10525000E518FFF733FB20700134A542F9D1FFF7C1
:105260002DFBFFF72BFBD02380221B06920205208B
:105270005A6111F0EDF9FFF721FB4846C0BCB94671
:10528000B046F8BDD02380221B0692025A61052049
:1052900011F0DEF9FFF712FB0023013F2B60002F16
:1052A00005D0FFF7C7FD814600289ED0E5E7023311
:1052B0009946E2E7AC350020BC35002010270000FD
:1052C000A0860100F8B53C4B07001B680C00002BC2
:1052D00069D03A4B1B68002B4AD0D02380221B0692
:1052E000920205209A6111F0B3F9354DFFF7E6FA05
:1052F00005E00520013D11F0ABF9002D47D0FFF787
:10530000DDFAFF28F5D139005820FFF72FFB061EE4
:1053100030D1FFF7D3FAFE20FFF702FB80239B007A
:10532000E51820780134FFF7FBFAAC42F9D1FFF71A
:10533000C5FAFFF7C3FAFFF7C1FA1F230340052B95
:1053400018D1204C05E00520013C11F081F9002C1A
:105350002FD0FFF7B3FAFF28F5D1D02380221B0608
:1053600092025A61052011F073F9FFF7A7FA0CE0D9
:105370007F02B2E7D02380221B06920205205A61E9
:1053800011F066F90126FFF799FA3000F8BDD02335
:1053900080221B06920205205A6111F059F902265B
:1053A000FFF78CFAF1E7FFF745FD061E00D190E705
:1053B000EBE70226D1E7C046AC350020BC35002023
:1053C00010270000A0860100032803D8024B8000AC
:1053D000C05870470148FCE714F00110F8EF0110C5
:1053E000F0B5037804000F0085B0202B54D0684638
:1053F00003706378202B53D04370A378202B52D0B6
:105400008370E378202B51D0C3702379202B50D0A8
:1054100003716379202B4FD04371A379202B4ED099
:105420008371E379202B4DD0C37108220823217AA0
:1054300020291BD1617A202929D1A17A202926D1BE
:105440000022C3181A70667F217FA57F3602E27A98
:105450000E43E17F2D043543D20609067B683C6884
:10546000D20F2943A047012005B0F0BD2E25C55419
:105470006B4601339954637A951C202B0AD043550F
:10548000A37AD11C202B20D04354131DD8E7551CE0
:105490002E22C2542B00D3E7002200236846C6E721
:1054A00001220123C3E702220223C0E703220323D0
:1054B000BDE704220423BAE705220523B7E7062245
:1054C0000623B4E70722193BB1E70D002B00B7E72D
:1054D000F8B5CE464746894680B517000400082235
:1054E0002021484612F07EFD03222021380012F0D0
:1054F00079FD2378002B2CD0194900208846032100
:10550000002200258C460FE0022A09DC414666464F
:10551000C95C3140022901D1203BDBB2BB540132CE
:1055200063780134002B14D02E2B16D00028EBD139
:10553000072DF5DC41466646C95C3140022901D1A0
:10554000203BDBB2494601344B5523780135002B13
:10555000EAD1C0BCB946B046F8BD0120E0E7C0467C
:1055600089320210F0B5C6462C4B0F001B7800B5EF
:10557000002B13D0032483005D0A9846284B294E44
:105580001B68ED1831002800FFF724FE002819D011
:10559000013C002CF6D10120404237E003244300B7
:1055A0005D0A98461E4B1F4E1B68ED1831002800FF
:1055B000FFF710FE00282CD0013C002CF6D1012072
:1055C000404223E04346DB05DB0DF3181A683F0138
:1055D000120F12073F0917431F6031002800FFF721
:1055E00071FE0028D7D1032431002800FFF7F2FD17
:1055F000002802D0013C002CF6D10B4B310018687A
:105600002818FFF75FFE431E9841404280BCB84611
:10561000F0BD4346D805C00D3752DEE7317A012090
:1056200098250020C03500209C250020F8B5CE46E6
:1056300047462B4B80B51B78002B14D0294B2A4FA3
:1056400098463D681B68EB189D420CD2274B284EAC
:105650009946032431002800FFF7BCFD002808D03C
:10566000013C002CF6D100242000C0BCB946B04655
:10567000F8BD4B4638681B782C1A002B13D1330029
:105680002402611CFF31012C02D91A88002A1ED085
:1056900001340233A142F6D143461B680135C018DC
:1056A000A842D6D8DFE7E401210032008031012C86
:1056B00002D913681B0111D001340432A142F6D182
:1056C00043461B680135C018A842C2D8CBE7094938
:1056D0002000FFF747FF0028C5D1C5E70649F7E7D7
:1056E000347A01209C25002098250020317A012061
:1056F000C0350020FFFF0000FFFFFF0FF8B5204B73
:105700001B78002B11D003261E4B84001B68670AF0
:105710001D4DFF1829003800FFF75CFD00281ED042
:10572000013E002EF6D11948F8BD0326154B440062
:105730001B68670A144DFF1829003800FFF74AFD5F
:10574000002804D0013E002EF6D11148ECE7E40514
:10575000E40D2B5D2D19687800021843E4E7E1059C
:10576000C90D685C69184B788A781B0212041343D0
:105770000343C8780006184300010009D4E7C04677
:10578000317A012098250020C0350020FFFFFF0F4F
:10579000FFFF0000F0B55746DE464E464546E0B5F1
:1057A000924683B000293CD1012800D8BFE1C94B03
:1057B000C94D0193C94B00249B468046A946019BD5
:1057C0001B78002B00D073E143469AB2C44B93423E
:1057D0009B415B42002B00D032E242465B46961E64
:1057E0004A461B7812685E43B2180092002B00D123
:1057F00055E10026BB4C0325009BF718210038001B
:10580000FFF7E8FC002800D1BCE0013D002DF5D1F8
:105810000120404203B0F0BCBB46B246A946A046B8
:10582000F0BDB14AB14B94461B885B0163445B12E7
:105830009B4600D1A3E0AE4B002798462023994613
:10584000A84C43461E682100BE1930000325FFF70F
:10585000C1FC002808D0013D002DD9D02100300026
:10586000FFF7B8FC0028F6D12378002B00D143E1E4
:10587000E52B00D140E14B46E35C002B00D14DE12C
:10588000E52B00D14AE14023E35C002B00D148E145
:10589000E52B00D145E16023E35C002B00D180E1E2
:1058A000E52B00D17DE18023E35C002B00D17DE17D
:1058B000E52B00D17AE1A023E35C002B00D177E156
:1058C000E52B00D174E1C023E35C002B00D178E12B
:1058D000E52B00D175E1E023E35C002B00D176E1FC
:1058E000E52B00D173E180235B00E35C002B00D14A
:1058F00073E1E52B00D170E190235B00E35C002BAA
:1059000000D16DE1E52B00D16AE1A0235B00E35CEF
:10591000002B00D16CE1E52B00D169E1B0235B00E5
:10592000E35C002B00D167E1E52B00D164E1C023EB
:105930005B00E35C002B00D16AE1E52B00D167E15D
:10594000D0235B00E35C002B00D169E1E52B00D1A3
:1059500066E1E0235B00E35C002B00D166E1E52B10
:1059600000D163E1F0235B00E35C002B00D15FE139
:10597000E52B00D15CE10137BB4500D061E7072092
:10598000404247E72378002B00D196E0E52B00D179
:1059900093E02023E35C002B00D1BCE0E52B00D199
:1059A000B9E04023E35C002B00D1BDE0E52B00D142
:1059B000BAE06023E35C002B00D1EFE0E52B00D1DF
:1059C000ECE08023E35C002B00D1EDE0E52B00D17F
:1059D000EAE0A023E35C002B00D1ECE0E52B00D152
:1059E000E9E0C023E35C002B00D1E7E0E52B00D128
:1059F000E4E0E023E35C002B00D1E5E0E52B00D1FF
:105A0000E2E080235B00E35C002B00D1E2E0E52BC9
:105A100000D1DFE090235B00E35C002B00D1E1E0EC
:105A2000E52B00D1DEE0A0235B00E35C002B00D17E
:105A3000DAE0E52B00D1D7E0B0235B00E35C002B7C
:105A400000D1DDE0E52B00D1DAE0C0235B00E35CB0
:105A5000002B00D1D8E0E52B00D1D5E0D0235B00AE
:105A6000E35C002B00D1D7E0E52B00D1D4E0E023AC
:105A70005B00E35C002B00D1D6E0E52B00D1D3E046
:105A8000F0235B00E35C002B00D1D5E0E52B00D1D7
:105A9000D2E05B461B780136B34200D9ABE6404604
:105AA000FFF72CFE4446012800D8C9E0804686E670
:105AB000104B43459B415B428CE62000202251461F
:105AC00012F096FA21003800FFF7FCFB431E9841C4
:105AD00040429FE6317A012094250020367A012049
