:020000041000EA
:1000000000B5324B212058609868022188439860DF
:10001000D860186158612E4B002199600221596106
:100020000121F02299502B49196001219960352056
:1000300000F044F80222904214D00621196600F024
:1000400034F8196E01211966002018661A6600F04E
:100050002CF8196E196E196E052000F02FF8012189
:100060000842F9D1002199601B49196000215960AB
:100070001A491B48016001219960EB211966A021F2
:10008000196600F012F800219960164914480160C1
:100090000121996001BC002800D000471248134993
:1000A000086003C880F30888084703B5996A0420EC
:1000B0000142FBD001200142F8D103BD02B5186610
:1000C0001866FFF7F2FF186E186E02BD00000240BE
:1000D000000000180000070000035F00212200005C
:1000E000F4000018222000A00001001008ED00E03C
:1000F00000000000000000000000000074B24E7A12
:1001000000200420F7010010CB010010CD010010E9
:10011000C9010010C9010010C9010010C901001077
:10012000C9010010C9010010C9010010CF01001061
:10013000C9010010C9010010D1010010D301001045
:10014000C1010010C1010010C1010010C101001067
:10015000C1010010C1010010C1010010C101001057
:10016000C1010010C1010010C1010010C101001047
:10017000C1010010C1010010C1010010C101001037
:10018000C1010010C1010010C1010010C101001027
:10019000C1010010C1010010C1010010C101001017
:1001A000C1010010C1010010C1010010C101001007
:1001B000C1010010C1010010C1010010C1010010F7
:1001C000EFF30580103800BE00BE00BE00BE00BECA
:1001D00000BE00BEF2EB8871BC980110E8980110D7
:1001E0003802001090A31AE71E481F49086006C88D
:1001F00081F3088810471D480068002801D019487D
:10020000F3E70DA40ECC002902D000F012F8F9E7B4
:100210001749184A002000E001C19142FCD116495B
:100220008847164988471649884700BEFDE701C937
:1002300001C29A42FBD37047E8980110C000002029
:100240002815002050AD01100000042000000420FB
:1002500050AD011000100420001004200000000028
:10026000704700000000000008ED00E0000000D032
:100270002815002018120120CD2001108906001039
:10028000C5200110F8B5C0460448054B10B583429F
:1002900003D0044B002B00D0984710BD2815002038
:1002A000281500200000000006480749091A8B1095
:1002B000C90FC91810B5491003D0044B002B00D04A
:1002C000984710BD281500202815002000000000C8
:1002D00010B5074C2378002B09D1FFF7D5FF054B4C
:1002E000002B02D0044800E000BF0123237010BDA2
:1002F000B89A002000000000C05D0110054B10B549
:10030000002B03D00449054800E000BFFFF7CCFFF5
:1003100010BDC04600000000BC9A0020C05D011066
:10032000F0B54646D6464F46C0B5904C0E00A544A3
:10033000002800D1C9E00378002B00D1C5E02F2BA5
:1003400000D1DEE08A4B1A882F2A00D1C3E0802139
:1003500046AC0090874A2000890011F077FE002308
:1003600006AF3B702378002B00D1D4E000229046EA
:10037000814A02AD914604E001342378002B00D17C
:1003800090E02F2BF8D12200637801342F2BFAD084
:10039000002B00D186E02B706378911C002B00D1DC
:1003A000BFE02F2B00D1BCE06B70A378D11C002BD9
:1003B00000D1B9E02F2B00D1B6E0AB70E378111D6E
:1003C000002B00D1B3E02F2B00D1B0E0EB702379EC
:1003D000511D002B00D1ADE02F2B00D1AAE02B71D5
:1003E0006379911D002B00D1A7E02F2B00D1A4E051
:1003F0006B71A379D11D002B00D1A1E02F2B00D16F
:100400009EE0AB71E3790131002B00D19BE02F2BF3
:1004100000D198E0EB71237A0131002B00D195E0F7
:100420002F2B00D192E02B72637A0131002B00D187
:100430008FE02F2B00D18CE06B72A37A0131002B5F
:1004400000D189E02F2B00D186E0AB72E37A013135
:10045000002B00D183E02F2B00D180E0EB72237BB7
:100460000131002B00D17DE02F2B00D17AE00E323C
:100470002B7314000D234246EA542B882E2B00D1F7
:100480007BE74B4530D0380015F052F88021490009
:100490002B00091A394A381811F0D8FD2378002B9F
:1004A00000D06EE73B78002B35D0FF2239003000BA
:1004B00015F00EF8FF230022F254C6239B009D4442
:1004C000E0BCBA46B146A846F0BDFF22300028493C
:1004D00014F0FEFFEEE7802146AC0300274A20001F
:1004E000890011F0B3FD3AE7AB789A46002BCAD1E8
:1004F0002F21380015F01CFBB8420FD853463B7033
:100500003BE746AC01001E4A200014F0E1FF002347
:100510001B4AA35423E72F233B80C6E753460370AF
:100520002BE70C000123A6E70C000223A3E70C0035
:100530000323A0E70C0004239DE70C0005239AE7A2
:100540000C00062397E70C00072394E70C00082310
:1005500091E70C0009238EE70C000A238BE70C00BF
:100560000B2388E70C000C2385E7C046E8FCFFFF5F
:10057000E0100020C85D01102E2E0000C45D0110A7
:10058000FF01000070B504780500002C09D02000A0
:1005900011F090FE0135200001F018FD2C78002CA0
:1005A000F5D170BD0FB4802130B5C3B046AB04CBDC
:1005B00002AD28004900019311F05CFD2C78002C5D
:1005C00009D0200011F076FE0135200001F0FEFC7C
:1005D0002C78002CF5D143B030BC08BC04B01847CF
:1005E00010B5002A05D0064B01001800FFF7DAFF0E
:1005F00010BD044B02001800FFF7D4FFF8E7C04617
:10060000D45D0110E45D011030B51A4BC1B01B7808
:10061000002B22D0002802D00378002B10D1FF221B
:10062000684615496C4614F053FFFF230022200052
:100630001249E25403F028F9002806D141B030BD38
:1006400069466C46FFF76CFEEFE703F0E1FA0C4BEE
:1006500001001800FFF7A6FFF0E74E24094D200027
:1006600011F028FE0135200001F0B0FC2C78002CA0
:10067000F5D1E3E70A120120E0100020E1050010A7
:10068000145E0110F05D0110F0B54546DE46574698
:100690004E46E0B5DB4CDC48A5447CAB98469CAAB2
:1006A0004146BCAB0EF062FE002803D1D748D649C4
:1006B0000DF03CFBBC9A9C997C980EF07BFD11F0F0
:1006C0005BFEFA2040000EF075FA0EF0A1FBD04B55
:1006D000FF22186059601793CE4BCF491800019143
:1006E0001D000024219314F0F3FEFF23EC5401F0CD
:1006F00049FA200001F024FC01F032FD802001F0D5
:10070000C3FD03F021F8C54BA04200D13CE10993A1
:10071000C348FFF737FF099BC2491B78002B00D065
:10072000C149C248FFF73EFFC148FFF72BFFC14B4D
:10073000019918000293FFF735FF01235B420093F4
:1007400078AB9C46BC4B00259B46BC4B0F240393C7
:10075000BB4B2E000493BB4B64440593BA4B709380
:10076000BA4B7293BA4B2793BA4B2893BA4B29933F
:10077000BA4B2A93BA4B2B93BA4B3693BA4B389356
:10078000BA4B3993BA4B3A93BA4B3B93BA4B459316
:10079000BA4B4693BA4B4893BA4B4A93BA4B0D9314
:1007A000BA4B4C93BA4B5393BA4B5493BA4B5593A1
:1007B000BA4B5693BA4B5793BA4B6293BA4B639367
:1007C000BA4B6493BA4B6593BA4B6693BA4B739327
:1007D000BA4B7493BA4B7593BA4B7693BA4B7793E3
:1007E000BA4B2C93BA4B2D93BA4B2E93BA4B2F93F3
:1007F000BA4B3093BA4B1493BA4B5D93BA4B5E939A
:10080000BA4B5F93BA4B6093BA4B6193BA4B6C93FC
:10081000BA4B1893BA4B1993BA4B6D93BA4B6E936C
:10082000BA4B6F93BA4B7193BA4B0893BA4B0E9372
:10083000BA4B1293BA4B0F93BA4B1093BA4B119316
:10084000BA4B0A93BA4B1593BA4B0B93BA4B069318
:10085000BA4B1393BA4B3793BA4B3C93BA4B1D9395
:10086000BA4B1A93BA4B3D93BA4B3E93BA4B3F9354
:10087000BA4B4D93BA4B4E93BA4B4F93BA4B0C9322
:10088000BA4B1B93BA4B5093BA4B5193BA4B5893F4
:10089000BA4B5993BA4B1C93BA4B5A93BA4B5B93CE
:1008A000BA4B5C93BA4B6793BA4B6893BA4B699354
:1008B000BA4B6A93BA4B1693BA4B6B93BA4B2293CB
:1008C000BA4B2393BA4B2493BA4B2593BA4B269336
:1008D000BA4B3193BA4B3293BA4B3393BA4B3493EE
:1008E000BA4B1F93BA4B3593BA4B4093BA4B4193D3
:1008F000BA4B4293BA4B4393BA4B4793BA4B1E93AE
:10090000BA4B4993BA4B4493BA4B4B93BA4B52935D
:10091000BA4B9946BA4B2093BA4B079314200EF06A
:1009200049F9002011F030FD831C32D00028F5DB9E
:10093000012D62D0022D2FD01B2800D198E10D2867
:1009400000D161E10A2800D15EE1082800D184E1EC
:100950007F2800D07BE3002E00DD9DE28023079AF4
:10096000D35C682293431FD04346C5B29D55C0B2A5
:1009700011F0A0FC280001F029FB0123771C5B4249
:100980003E0000250093C9E71A0009930123137064
:10099000BEE601F007FCC9E7412800D18AE24228FF
:1009A00002D1009B002B01DA0025B7E70133009349
:1009B000771E002E0DDD08254E46280011F07AFC2A
:1009C0000136280001F002FB3578002DF5D1013FFA
:1009D000F1D25B461A68009B9A4200DDAAE300232D
:1009E00042461370013B0093404614F0A1FD0600FF
:1009F0004046FFF7C7FD002590E75B38434258416A
:100A000045008BE70CFBFFFF88070200C868011058
:100A1000A8980020E0110020E01000200A12012018
:100A2000FC6801101C5E0110786C0110A8690110AF
:100A3000B0690110CC69011064A7002068A70020EC
:100A4000649F0020DC690110305E0110445E0110DB
:100A5000785E0110A85E0110D85E0110045F0110DD
:100A6000345F0110685F01108C5F0110A05F0110FE
:100A7000D05F0110F05F01100060011048600110AC
:100A800090600110D0600110E46901101C61011038
:100A9000306101106061011088610110B0610110C6
:100AA000D86101100462011034620110606201100B
:100AB00098620110BC620110EC6201101C6301100D
:100AC0005863011094630110DC6301102464011069
:100AD0005464011084640110BC640110F4640110BA
:100AE000E86901103065011040650110846501104E
:100AF000C86501100466011038660110F069011024
:100B0000606701107066011084660110C0660110F4
:100B100004670110F8690110A0670110006A011054
:100B2000CC670110EC67011008680110206A011001
:100B3000286A0110346A0110246801103C6A01100F
:100B40002C680110446A0110546A011048680110B1
:100B5000606A0110806A0110886A0110946A0110AD
:100B6000986A01109C6A0110F05D0110C05D0110CF
:100B7000A06A0110AC6A0110EC5D0110B06A0110AE
:100B800064680110B46A0110C06A0110D46A0110CF
:100B9000DC6A0110E46A0110FC6A01100C6B0110A0
:100BA00078680110146B0110246B01102C6B01107C
:100BB000446B0110546B0110586B01106C6B0110E9
:100BC000786B0110806B0110906B0110946801101C
:100BD000986B0110AC6B0110C06B0110CC6B011055
:100BE000D46B0110AC680110B9970110B068011006
:100BF000DC6B0110B4680110E46B0110C4680110D3
:100C0000FC860110B89701100A2011F053FB0A204E
:100C100001F0DCF9002342464046935514F088FC6D
:100C2000002810D001210026D54D235C22180A3B54
:100C3000DBB2162B1ED82F00DF4039421AD0013804
:100C400016700028F1D101990298FFF7ABFC01233F
:100C50005B4200250026009360E6002E00DD1BE1CC
:100C60006822079B5B7A934300D07DE6002555E61A
:100C7000012553E643461E78002E00D170E15B4605
:100C80001F68039B1D68002F00DCE8E02B00BD4AB5
:100C90000F33134004D51022013B5242134301335A
:100CA000049ADB014146D01814F066FF00281BD0DF
:100CB000049AEB0192469A447F224146504614F032
:100CC00007FC534600227F331A70AE4B01351D409E
:100CD000954204DA1023013D5B421D430135039B1D
:100CE0001D600F2F00DCD3E0454604E06E7801352F
:100CF000002E00D134E1202EF8D100234046059982
:100D00002B706E1C14F038FF002800D13CE14046E7
:100D1000089914F031FF002800D161E140460A999A
:100D200014F02AFF002800D1E3E140460B9914F0AB
:100D300023FF002800D1EEE14046139914F01CFF78
:100D4000002800D10DE240461D9914F015FF00283F
:100D500001D100F028FC40463E9914F00DFF002818
:100D600001D100F08DFC40464D9914F005FF00289C
:100D700001D100F013FC40464E9914F0FDFE00280E
:100D800001D100F00BFC40464F9914F0F5FE00280D
:100D900001D100F087FC4046519914F0EDFE002887
:100DA00001D100F0B4FC4046599914F0E5FE00284A
:100DB00001D100F0B2FC40465C9914F0DDFE002841
:100DC00000D14CE14046679914F0D6FE051E01D1D2
:100DD00000F014FE40466A9914F0CEFE051E01D1C3
:100DE00000F0C6FD4046229914F0C6FE002801D14D
:100DF00000F096FD4046259914F0BEFE002801D172
:100E000000F070FD4046329914F0B6FE002801D182
:100E100000F050FD4046349914F0AEFE002801D198
:100E200000F0E8FC4046449914F0A6FE002801D0EA
:100E300000F0CFFC4B9E06E0280011F03BFA2800A2
:100E4000013601F0C3F83578002DF5D164200DF09E
:100E5000B1FE6422290028000EF010FCF3E6049A8B
:100E6000EB0192469A447F224146504614F030FBF3
:100E7000534600227F331A70424B01351D40954284
:100E800004DA1023013D5B421D430135039B1D60C5
:100E90005B4601371F6027E708254F46013E2800C3
:100EA00011F008FA0137280001F090F83D78002D84
:100EB000F5D133E5009B002B5BDB009B013B00D2AF
:100EC00072E59A465B461B689A4500DB6CE5039A1F
:100ED0001568ED1A55442B4B20351D4004D51023C1
:100EE000013D5B421D430135049BED019C46771E8D
:100EF0006544002E14DD5346AA463D0000930826A3
:100F00004F46300011F0D6F90137300001F05EF89D
:100F10003E78002EF5D1013DF1D2009B55469A4610
:100F200029007F22404614F0D3FA7F230022414655
:100F30004046CA5414F0FCFA43461D780600474662
:100F4000002D09D0280011F0B5F90137280001F073
:100F50003DF83D78002DF5D1534600250093DDE4A2
:100F60004046059914F008FE002800D102E1002651
:100F7000CDE65B461B685A1E00D515E59246A6E7EE
:100F8000090040000F0000806B78202B03D173789C
:100F90000136202BFBD0002B00D1EBE030000D9967
:100FA00014F0EAFD002800D1D6E13000149914F0C5
:100FB000E3FD002800D119E33000189914F0DCFD9E
:100FC000002800D197E15525199E280011F072F9EB
:100FD0000136280000F0FAFF3578002DF5D132E611
:100FE0004D250E9E280011F065F90136280000F00D
:100FF000EDFF3578002DF5D1A02252001100129896
:10100000FFF7D0FA0F9E2035280011F053F9013672
:10101000280000F0DBFF3578002DF5D1109E20353B
:10102000280011F047F90136280000F0CFFF35788D
:10103000002DF5D1119E2035280011F03BF9013625
:10104000280000F0C3FF3578002DF5D1FBE5C31E65
:10105000122B00D980E2209A9B00D3589F46002E85
:1010600005D03378002B02D03000FFF78BFA0A202E
:1010700011F020F90A2000F0A9FFE4E51B2500206B
:1010800000F05EFF069F280011F014F901372800D8
:1010900000F09CFF3D78002DF5D101990298FFF7F3
:1010A00081FA43469D551D78002D00D17CE44746CA
:1010B000280011F0FFF80137280000F087FF3D7885
:1010C000002DF5D1002529E4771E002E0DDD082521
:1010D0004E46280011F0EEF80136280000F076FFA9
:1010E0003578002DF5D1013FF1D20023424613702F
:1010F000ADE5179B1E685F680DF08AFEFA22801B23
:10110000B941002392000EF0E1FC02000B0015989B
:10111000FFF748FA97E51B2500F012FF069E28000E
:1011200011F0C8F80136280000F050FF3578002D86
:10113000F5D188E5039B1B689B1A009A9446C94A1F
:1011400063442033134000D514E2049ADB01D11824
:1011500040467F2214F0BCF97F2300224146CA5446
:1011600042E401F0D7F8011E00DA09E23C98FFF7EB
:1011700019FA68E5709E06E0280011F09BF8280037
:10118000013600F023FF3578002DF5D1729E06E080
:10119000280011F08FF82800013600F017FF35788D
:1011A000002DF5D1279E06E0280011F083F82800D5
:1011B000013600F00BFF3578002DF5D1289E06E0B2
:1011C000280011F077F82800013600F0FFFE35788E
:1011D000002DF5D1299E06E0280011F06BF82800BB
:1011E000013600F0F3FE3578002DF5D12A9E06E099
:1011F000280011F05FF82800013600F0E7FE35788E
:10120000002DF5D12B9E06E0280011F053F82800A0
:10121000013600F0DBFE3578002DF5D1369E06E074
:10122000280011F047F82800013600F0CFFE35788D
:10123000002DF5D1389E06E0280011F03BF828007B
:10124000013600F0C3FE3578002DF5D1399E06E059
:10125000280011F02FF82800013600F0B7FE35788D
:10126000002DF5D13A9E06E0280011F023F8280061
:10127000013600F0ABFE3578002DF5D13B9E06E03F
:10128000280011F017F82800013600F09FFE35788D
:10129000002DF5D1459E06E0280011F00BF828003E
:1012A000013600F093FE3578002DF5D1469E06E01C
:1012B000280010F0FFFF2800013600F087FE357887
:1012C000002DF5D1489E06E0280010F0F3FF28001D
:1012D000013600F07BFE3578002DF5D14A9E06E000
:1012E000280010F0E7FF2800013600F06FFE357887
:1012F000002DF5D1A7E46D9E06E0280010F0DAFF7E
:101300002800013600F062FE3578002DF5D16E9E82
:1013100006E0280010F0CEFF2800013600F056FE4F
:101320003578002DF5D16F9E06E0280010F0C2FF41
:101330002800013600F04AFE3578002DF5D1719E67
:1013400006E0280010F0B6FF2800013600F03EFE4F
:101350003578002DF5D176E44C9E06E0280010F09B
:10136000A9FF2800013600F031FE3578002DF5D1B7
:10137000539E06E0280010F09DFF2800013600F083
:1013800025FE3578002DF5D1549E06E0280010F09A
:1013900091FF2800013600F019FE3578002DF5D1B7
:1013A000559E06E0280010F085FF2800013600F069
:1013B0000DFE3578002DF5D1569E06E0280010F080
:1013C00079FF2800013600F001FE3578002DF5D1B7
:1013D000579E06E0280010F06DFF2800013600F04F
:1013E000F5FD3578002DF5D1629E06E0280010F05D
:1013F00061FF2800013600F0E9FD3578002DF5D1B8
:10140000639E06E0280010F055FF2800013600F02A
:10141000DDFD3578002DF5D1649E06E0280010F042
:1014200049FF2800013600F0D1FD3578002DF5D1B7
:10143000659E06E0280010F03DFF2800013600F010
:10144000C5FD3578002DF5D1669E06E0280010F028
:1014500031FF2800013600F0B9FD3578002DF5D1B7
:10146000739E08E00F000080280010F023FF280082
:10147000013600F0ABFD3578002DF5D1749E06E005
:10148000280010F017FF2800013600F09FFD357886
:10149000002DF5D1759E06E0280010F00BFF280006
:1014A000013600F093FD3578002DF5D1769E06E0EB
:1014B000280010F0FFFE2800013600F087FD357887
:1014C000002DF5D1779E06E0280010F0F3FE2800ED
:1014D000013600F07BFD3578002DF5D12C9E06E01D
:1014E000280010F0E7FE2800013600F06FFD357887
:1014F000002DF5D12D9E06E0280010F0DBFE28001F
:10150000013600F063FD3578002DF5D12E9E06E002
:10151000280010F0CFFE2800013600F057FD357886
:10152000002DF5D12F9E06E0280010F0C3FE280004
:10153000013600F04BFD3578002DF5D1309E06E0E8
:10154000280010F0B7FE2800013600F03FFD357886
:10155000002DF5D1FFF777FB68221E9B1B5C9343A0
:1015600001D1FFF721FA7E2E01DCFFF7FDF90025FE
:10157000FFF7D4F91022013B524213430133E4E553
:10158000379E06E0280010F095FE2800013600F096
:101590001DFD3578002DF5D1FFF755FB3000FFF725
:1015A00033F8FFF750FB002E00D1AEE033781A9FDE
:1015B000002B16D0300014F0E7F90500FF286DDD90
:1015C000FF25E8B200F060FE29003D98FEF7EAFF33
:1015D000FFF739FB280010F06DFE2800013700F0FE
:1015E000F5FC3D78002DF5D1FFF72DFB5D9E06E063
:1015F000280010F05FFE2800013600F0E7FC357887
:10160000002DF5D15E9E06E0280010F053FE280064
:10161000013600F0DBFC3578002DF5D15F9E06E049
:10162000280010F047FE2800013600F0CFFC357886
:10163000002DF5D1609E06E0280010F03BFE28004A
:10164000013600F0C3FC3578002DF5D1619E06E02F
:10165000280010F02FFE2800013600F0B7FC357886
:10166000002DF5D16C9E06E0280010F023FE280026
:10167000013600F0ABFC3578002DF5D1FFF7E3FA29
:1016800002F062F843424341099A137002F0C0FA33
:1016900001003F98FEF786FFFFF7D5FAC343DB173B
:1016A0001D408EE7099B1B78002B20D0002E1CD0FC
:1016B0003378002B19D03000BCA9FEF731FEBCA84E
:1016C00002F0B4FA051E17D1FF26019FFF22380051
:1016D000BCA913F0FDFE3900BD55219F3200380032
:1016E00013F0F6FEBD55FFF7AEFA1B9EE3E70C982C
:1016F000FEF748FFFFF7A7FA02F08AFABCA902003A
:101700005098FEF74FFFFFF79EFA1A9F69E701997D
:101710005898FEF747FFFFF796FA099B0C9D1B7838
:10172000002B38D0002E3BD033781C9D002B26D0C8
:101730003000BCA9FEF7F4FD78A9BCA802F07AF944
:1017400000283ED140229CA978A802F097F9051EF6
:1017500028DD0026902278AB9B189F5D013638006B
:1017600010F0A8FD380000F031FCAE42F2D1E9E7FC
:10177000300010F09FFD3000013500F027FC2E787E
:10178000002EF5D1FFF75FFA300010F093FD300026
:10179000013500F01BFC2E78002EF5D1FFF753FA2F
:1017A0001C9DECE7431D00D161E4002800D15EE4FC
:1017B00040B202F02DFA01005B98FEF7F3FEFFF74E
:1017C00042FA02F025FA01005A98FEF7EBFEFFF705
:1017D0003AFA310040460CF049FA002874D0019DD5
:1017E000FF222800219913F073FEFF230022EA5400
:1017F000FFF729FA002E00D159E133781F9D002B05
:1018000000D14FE100223000110013F0D3FF060099
:1018100000F04CFE002800D04BE13000BCA900F0E5
:10182000EBFF051E56D131004198FEF7BBFEBCAF61
:1018300029004298FEF7B6FE0026B95D43980136AE
:10184000FEF7B0FE102EF8D1479B9A4608E0012320
:101850009C463000E24410F02DFD300000F0B6FB55
:1018600053461E78002EF2D1AA466822BD5D1E9B0B
:101870005B5D934300D12E25280010F01BFD01363F
:10188000280000F0A3FB102EEFD1499E06E02800AF
:1018900010F010FD2800013600F098FB3578002D7F
:1018A000F5D155468023103510379B009D42BFD19E
:1018B000FFF7C9F900F0FAFD01F0B2F80100339822
:1018C000FEF770FEFFF7BFF941465298FEF76AFE39
:1018D000FFF7B9F901F0A4F801004098FEF762FEA5
:1018E000FFF7B1F9099B1B78002B00D1FFE6002E12
:1018F00034D03378002B31D03000BCA9FEF710FD76
:10190000BCA802F08DFA002801D1FFF79CF902F083
:101910007FF9BCA902003198FEF744FEFFF793F966
:10192000099B1B78002B00D1E1E6002E1BD03378F9
:10193000002B18D03000BCA9FEF7F2FCBCA802F0C6
:1019400097F9002801D1FFF77EF902F061F9BCA9EF
:1019500002002498FEF726FEFFF775F92698FEF799
:1019600011FEFFF770F92398FEF70CFEFFF76BF9F5
:10197000099B1B78002B33D0002E2FD03378169F75
:10198000002B26D07F2231009CA813F0A1FD9021CE
:101990007F2378AA5218D5549CAB02E0202A51D05C
:1019A00001331A78002AF9D1169D06E0300010F0B4
:1019B00081FC3000013500F009FB2E78002EF5D1B6
:1019C000FFF741F9280010F075FC2800013700F0FE
:1019D000FDFA3D78002DF5D1FFF735F9169FF8E7B0
:1019E0000C9D06E0300010F065FC3000013500F081
:1019F000EDFA2E78002EF5D1FFF725F9099B1B781B
:101A0000002B00D173E6002E40D03378002B3DD060
:101A10003000BCA9FEF784FC2A002900BCA802F013
:101A2000B5FB831D01D1FFF70EF9002801D1FFF7A7
:101A30000AF902F0EDF8BCA902006998FEF7B2FDC0
:101A4000FFF701F900225D1C1A7000E001352B78C8
:101A5000202BFBD0BCA99CA8FEF762FCBCA802F01E
:101A6000DFF9280013F064FD29000200BCA802F091
:101A70008DFB002801D1FFF7E6F802F0C9F8BCA9F8
:101A800002006B98FEF78EFDFFF7DDF86898FEF711
:101A900079FDFFF7D8F8300010F00CFC300001356C
:101AA00000F094FA2E78002EF5D1FFF7CCF81F9DA8
:101AB000F8E700F0B5FF01003598FEF773FDFFF77A
:101AC000C2F8C04670B515001C00C3B21B02020A62
:101AD0002A481A432B0A1B0402401A4312022D06FD
:101AE000120A84B02A430292CAB212020B0A1343AA
:101AF000220A1204034013431B0224061B0A234339
:101B00008025D024802603936A462A232406AD012B
:101B1000F601A561A661D3716B460122D91D184853
:101B200014F002F9656102A9A561042266611448F6
:101B300014F0FAF86A462B236561A561A661D3719A
:101B40006B460122D91D0E4814F0EEF8656103A919
:101B5000A561042266610A4814F0E6F86A462C235F
:101B60006561A561A661D3716B460122D91D044848
:101B700014F0DAF8656104B070BDC046FFFF00FFE5
:101B800000000440F0B5D02480258026802783B053
:101B90009449954813F076F901210A200CF072F867
:101BA00001210B200CF06EF801210C202406AD0160
:101BB0000CF068F80D20F6010CF092F865620E202A
:101BC00065610CF08DF83F0266620F2066610CF0D3
:101BD00087F86762052067610CF0ECFFA7611420AD
:101BE0000CF0E8FF676196200CF0E4FF6A460123E1
:101BF000A561A661D3716B460122D91D7A4814F004
:101C000093F8782065610CF0D5FF6A461123A56131
:101C1000A661D3716B460122D91D734814F084F874
:101C2000782065610CF0C6FF6A463A23A561A6617B
:101C3000D3716B460122D91D6B4814F075F86A46C2
:101C400066236561A5616661D3716B460122D91D6A
:101C5000654814F069F86A4636236561A561A66196
:101C6000D3716B460122D91D5F4814F05DF86A46B6
:101C700048236561A5616661D3716B460122D91D58
:101C8000594814F051F86A4620236561A561A661A0
:101C9000D3716B460122D91D534814F045F86A46AA
:101CA000C0236561A561A661D3716B460122D91D70
:101CB0004D4814F039F810276B466561D91DA561B0
:101CC000012266614848DF7114F02EF86B466561A9
:101CD000D91DA561012266614348DF7114F024F823
:101CE0006A46C1236561A561A661D3716B46012275
:101CF000D91D3D4814F018F86A4641236561A56175
:101D00006661D3716B460122D91D374814F00CF877
:101D10006A46C5236561A561A661D3716B46012240
:101D2000D91D314814F000F86A4600236561A561A9
:101D30006661D3716B460122D91D2B4813F0F4FF65
:101D40006A4622236561A5616661D3716B460122F3
:101D5000D91D254813F0E8FF6A4680236561A56117
:101D60006661D3716B460122D91D1F4813F0DCFF59
:101D70006A46E0236561A561A661D3716B460122C5
:101D8000D91D194813F0D0FF65610F22A5611749CD
:101D90006661154813F0C8FF6A46E1236561A561D5
:101DA000A661D3716B460122D91D0F4813F0BCFF09
:101DB00065610F22A5610E4966610B4813F0B4FFFF
:101DC0006A4629236561A561A661D3716B4601222C
:101DD000D91D054813F0A8FF192065610CF0EAFE33
:101DE00003B0F0BD40787D01000004405887011029
:101DF00048870110A02330B55B00140083B09842DF
:101E000001D2994201D303B030BD0B000200FFF7AD
:101E100059FE01A9230C0B70230A4B708C7080258E
:101E2000D02480232406AD01DB01A56103220348F1
:101E3000636113F079FF6561E5E7C0460000044087
:101E4000F0B54546DE4657464E46E0B5203A85B0E9
:101E5000D4B20E9D5E2C6CD8140102AEB4460222A0
:101E6000624493465E461A0C3270032262449246E4
:101E700056461A0A327003AA137005236344984623
:101E8000914642462B0C137062462B0A93710B004D
:101E9000D5710F33C21D9BB292B2FFF713FED02350
:101EA00080221B0692019A618022D2015A6110237E
:101EB0009C46214F0126E719BC4463460193072441
:101EC0003D780FE059461D4813F02EFF0122514680
:101ED0001A4813F029FF01224946184813F024FF3D
:101EE000013C16D32B00234101221E42EAD1414678
:101EF000124813F019FF02AB991D01220F4813F08D
:101F000013FF02AB01220D48D91D13F00DFF013C58
:101F1000E8D2019B0137BB42D1D1D02380221B06DE
:101F200092015A6105B0F0BCBB46B246A946A04634
:101F3000F0BDF824640090E76887011000000440B9
:101F4000F0B51E4B83B018606B465F1D030C3B70F1
:101F50006B469E1D030A33706B46DD1D4023FF3325
:101F60001A00287000210020FFF7ACFDD02380224A
:101F70001B0692019A618022C824D2015A61640230
:101F8000012239000E4813F0CFFE012231000C4827
:101F900013F0CAFE013C01222900094813F0C4FED7
:101FA000002CEDD1D02380221B0692015A61054BF3
:101FB0001C60054B1C6003B0F0BDC046A89D00200E
:101FC00000000440509F0020549F0020F0B5CE46F2
:101FD000474680B502005E4B85B00A2833D00D28F5
:101FE00000D1B1E098461868082A19D0594B5A4CCC
:101FF00019689946236809010093C823C0001B0291
:1020000089B280B2FFF71CFF43461B680133272BC0
:1020100060DC4246136005B0C0BCB946B046F0BDB6
:102020000028F8DD013818604A4BC00019684A4B97
:1020300009011B6889B20093C82380B21B021832C1
:10204000FFF7FEFEE7E79846002342461360414B48
:1020500099464A461B6801331360132BDBDD0D27BD
:102060000F253D4B6F441B686D441A0C3A702B7062
:102070001A0A0E2640236E44FF33327000211A00E4
:102080000020FFF71FFDD02380221B0692019A61DA
:102090008022C824D2015A616402012239002F48EB
:1020A00013F042FE012231002C4813F03DFE013CAA
:1020B00001222900294813F037FE002CEDD1D0234E
:1020C00080221B0692015A6143464A461C60132334
:1020D0001360A0E70023424613604B464A461B6844
:1020E00001331360132B96DD0D270F2523686F44F2
:1020F0001A0C6D443A702B701A0A0E2640236E4457
:10210000FF33327000211A000020FFF7DBFCD023E0
:1021100080221B0692019A618022C824D2015A6152
:102120006402012239000D4813F0FEFD0122310046
:102130000A4813F0F9FD013C01222900074813F079
:10214000F3FD002CEDD1BAE700221A6063E7C04628
:10215000509F0020549F0020A89D002000000440B4
:1021600010B50D490D4813F043F9032106200BF07B
:1021700089FD032107200BF085FD002201210620A7
:102180000BF09AFD0022012107200BF095FD0122A2
:10219000034B1A6010BDC04610270000C01300207A
:1021A0006CA7002030B5314B87B01B68002B55D091
:1021B00009236A4653750CF02BFE00232C4A2D4C44
:1021C0008018594100293FDB002515220290039118
:1021D00001231F21200000956A4413F031F90028E3
:1021E0003CDB10200CF0E6FC6B46DD820CF010FEB0
:1021F00000231F4A80185941002929DB0025162297
:102200000290039102231F21200000956A4413F0DD
:102210003BF9002822DB6B46DB8A002B1ED0164AD6
:10222000934219D0154A93421BD0180ADBB2012BF6
:1022300014D1134B1B68002B04D00300613B192BF6
:1022400000D8603807B030BD01200E494042BBE7DE
:1022500001200C494042D1E7094B1D60012040425A
:10226000F0E70122064B1A60F8E7C0466CA7002091
:1022700050C30000C0130020037E0000027E000057
:10228000389F0020FFFFFF7F70B51E4B86B01B6894
:10229000002B01D106B070BD8A2305AC237060709D
:1022A0000CF0B6FD0023184A184D8018594100293A
:1022B00002DA012016494042002622000223029041
:1022C000039100961F21280013F0BAF810200CF09B
:1022D00071FC6B46DE820CF09BFD00230A4A8018DD
:1022E0005941002902DA01200949404200231622FF
:1022F0000290039100931F21280002336A4413F0D7
:10230000C3F8C7E76CA7002050C30000C01300202B
:10231000FFFFFF7F30B5244B87B01B68002B40D0F8
:102320000B236A4653750CF073FD00231F4A204CA3
:102330008018594100292CDB0025152202900391B9
:1023400001231F21200000956A4413F079F800282A
:1023500027DB10200CF02EFC6B46DD820CF058FDC4
:102360000023124A80185941002916DB0023162247
:102370000290039100931F21200002336A4413F05E
:1023800083F800280DDB6B46D88A4004400E07B066
:1023900030BD012007494042CEE7012005494042B7
:1023A000E4E701204042F2E76CA7002050C30000A0
:1023B000C0130020FFFFFF7FF0B54746CE4680B533
:1023C00083B06B46FA2680468946FF27F6009D1D9E
:1023D000DC1D01232200290033482F70277013F0E1
:1023E000ABFC2378FF2B02D0013E002EF1D1FF265B
:1023F0004346220029002B702B480123267013F03E
:102400009BFC4B461B0E220029002B702648012303
:10241000267013F091FC4B461B0C220029002B70F8
:1024200021480123267013F087FC4B461B0A22002B
:1024300029002B701C480123267013F07DFC4B46AD
:1024400022002B70290001231748267013F074FC1A
:102450004346402B26D0483B5A42534177225B42A9
:102460009343FF332B70FF232200237029000E4873
:10247000FE3B13F061FC0826FF2701232200290000
:1024800009482F70277013F057FC0023E35620787B
:10249000002B02DA013E002EEFD103B0C0BCB946DA
:1024A000B046F0BD9523DDE700C00340F0B5DE4641
:1024B00057464E464546E0B5CA4985B0CA4812F06F
:1024C000E1FC012102200BF0DDFB012103200BF0D8
:1024D000D9FB012104200BF0D5FB05200BF000FCFB
:1024E000D02320220A26FF271B065A6201205A61A8
:1024F0000CF060FB02ABDD1C03AC012322002900C1
:10250000B9482F702770013E13F016FC002EF4D14D
:10251000D0262027360600214020B761FFF74CFF68
:10252000032377619946012807D0484605B0F0BCDF
:10253000BB46B246A946A046F0BDD521B7614900C9
:102540004730FFF739FF012800D10CE100231900C3
:102550000193D022202312065361FA23DB009B460D
:102560002023FF269A468846D0232022FA271B06DE
:102570009A61FF000123220029009B482E702670DB
:1025800013F0DAFB2378FF2B02D0013F002FF1D1AB
:1025900077230027220029002B709348763B267072
:1025A00013F0CAFB0123220029002F708E482670E9
:1025B00013F0C2FB0123220029002F708A482670E5
:1025C00013F0BAFB0123220029002F7086482670E1
:1025D00013F0B2FB0123220029002F7082482670DD
:1025E00013F0AAFB0123220029007F482E702670D9
:1025F00013F0A2FB08370123220029007A482E702D
:10260000267013F099FB0023E356002B02DA013FFA
:10261000002FF0D1D0235246FA271B065A61FF0043
:102620009A610123220029006F482E70267013F052
:1026300083FB2378FF2B02D0013F002FF1D16923C8
:10264000220029002B706848683B267013F074FB49
:1026500043460027220029002B706348012326707F
:1026600013F06AFB0123220029002F705E482670B8
:1026700013F062FB0123220029002F705A482670B4
:1026800013F05AFB0123220029002F7056482670B0
:1026900013F052FB01232200290053482E702670AC
:1026A00013F04AFB08370123220029004E482E7000
:1026B000267013F041FB0023E3562278002B16DA34
:1026C000013F002FEFD1D02352461B065A61FA205A
:1026D000002140000CF0F8F901235B429C46E344E2
:1026E0005B46002B00D03FE7023399461DE7D0231D
:1026F00051461B065961002AE9D13C4E019B914687
:102700003260002B16D1D0242025802124065020B1
:10271000A5618900FFF750FE6561002807D13449A3
:10272000314812F04DFC0122324B1A60FDE60123C4
:102730009946FAE6D02352461B0600217A209A6178
:10274000FFF73AFE00282BD0D02220213368120652
:102750005161002BD7D02649234812F031FC0122C9
:10276000244B1A60E1E602AB9F1CFF23260098462B
:1027700043462A003B702B70390001231A4813F09E
:10278000DBFA2B783370013604ABB342F0D1E37837
:10279000AA3B5A425341DAB29B0119000192D8E692
:1027A00002AB9F1CFF239A463300260098465346EF
:1027B0002A003B702B70390001230B4813F0BCFA40
:1027C0002B783370013604ABB342F0D12378464600
:1027D0005B06B9D501233360D02320221B065A6142
:1027E0009DE7C046801A060000C0034080A7002075
:1027F00020BCBE0070A70020F0B5C64600B53B4B1C
:102800000F001B6882B0002B65D0394B1B68002B72
:102810005BD0D024202524060100A5615120FFF7BC
:10282000CBFD8046002852D1FA256B46FF26ED00ED
:10283000DC1D02E0013D002D50D06B4669469E71C3
:10284000220001232B482670063113F075FA2378F5
:10285000FE2BEFD18023FF269B003D00FF186B4627
:1028600069469E712200012322482670063113F02A
:1028700063FA23782B700135BD42F0D16B4669466F
:1028800022009E71063101231A48267013F054FA73
:102890006B46694622009E71063101231548267059
:1028A00013F04AFAD02320221B065A6169466B4670
:1028B00022009E710F4801232670063113F03CFA66
:1028C000404602B080BCB846F0BD4002A1E70123FB
:1028D00065619846F4E703239846F1E7D023202268
:1028E0001B065A6102239846EAE7C04670A70020FB
:1028F00080A7002000C00340F0B5CE46474680B513
:10290000444B0C001B6883B0002B5FD0424B1B680C
:10291000002B00D14002D02520262D060100AE61FB
:102920005820FFF749FD8146002808D06E61012339
:102930009946484603B0C0BCB946B046F0BD6B46A8
:10294000FF279E1DDD1D2A0001233100334837700B
:102950002F7013F0F1F9FE232A0033703100FD3B94
:102960002E482F7013F0E8F980239B009846A0446E
:1029700023782A0033703100012328482F70013456
:1029800013F0DAF9A045F3D101232A0031002348DE
:1029900037702F7013F0D0F901232A0031001F483F
:1029A00037702F7013F0C8F901232A0031001B483B
:1029B00037702F7013F0C0F91F232A781340052BAE
:1029C00007D0D02320221B065A61B0E70323994683
:1029D000AFE7FA24FF27E40001232A0031000F4863
:1029E00037702F7013F0A8F92B78FF2B04D0013C1F
:1029F000002CF1D102239946D02320221B065A61D4
:102A0000FF232A0033702B703100FE3B034813F084
:102A100093F98EE770A7002080A7002000C0034034
:102A2000032803D8024B8000C05870470148FCE7D8
:102A3000588D0110006C0110F0B5037804000F00F0
:102A400085B0202B54D0684603706378202B53D078
:102A50004370A378202B52D08370E378202B51D081
:102A6000C3702379202B50D003716379202B4FD072
:102A70004371A379202B4ED08371E379202B4DD065
:102A8000C37108220823217A20291BD1617A2029C9
:102A900018D1A17A202915D10022C3181A70667F97
:102AA000217FA57F3602E27A0E43E17F2D04354374
:102AB000D20609067B683C68D20F2943A047012053
:102AC00005B0F0BD2E21C154217A531CC518202910
:102AD000E2D02970617A931CC5182029DCD02970B6
:102AE000A17AD31CC5182029D6D02970131DD3E78D
:102AF000002200236846C6E701220123C3E7022221
:102B00000223C0E703220323BDE704220423BAE71C
:102B100005220523B7E706220623B4E70722193B5F
:102B2000B1E7C046F8B50E001500040008222021C8
:102B300030000DF033FE0322202128000DF02EFE80
:102B40002378002B22D02E2B21D01D4903278C4621
:102B50006146C85C00223840022801D1203BDBB22C
:102B6000B35463780134511C002B0FD008290DD0C9
:102B70002E2B0CD00A006146C85C38400228EDD0EC
:102B8000B35463780134511C002BEFD1F8BD0022FF
:102B900003200B4E63780134002BF7D02E2BF9D095
:102BA000022AF7DCF15C0140022901D1203BDBB2B3
:102BB000AB54637801340132002BEFD1E6E7C04615
:102BC000B9970110F8B5204B04001D681F4B0E008B
:102BD0001B78002B14D083001D4F5B0A5D19390050
:102BE0002800FFF709FE00282BD16406E40D3C19EC
:102BF000236836011B0F1B0736091E4326600CE0B5
:102C00004300134F5B0A5D1939002800FFF7F4FDFC
:102C1000002816D12406E40D3E5339002800FFF7A2
:102C20006BFE00280DD139002800FFF7E5FD094BA8
:102C3000390018682818FFF75FFE431E984140428C
:102C4000F8BD01204042FBE75C9F002009120120F3
:102C500084A70020609F0020F8B5CE464746294B48
:102C600080B51B78002B29D0274B284F98463D680C
:102C70001B68EB189D4221D2254B264E9946310008
:102C80002800FFF7B9FD002818D14B4638681B789B
:102C90002C1A002B18D133002402611CFF31012CA7
:102CA00002D91A88002A23D0013402338C42F6D18B
:102CB00043461B680135C018A842E0D80024200014
:102CC000C0BCB946B046F8BDE401210032008031F5
:102CD000012C02D913681B0111D0013404328C423B
:102CE000F6D143461B680135C018A842C7D8E5E7AE
:102CF00009492000FFF766FF0028DFD1DFE7074919
:102D0000F7E7C0460B120120609F00205C9F002067
:102D10000912012084A70020FFFF0000FFFFFF0F22
:102D20001A4B70B51A681A4B04001B78002B18D088
:102D3000184D8300580A29008018FFF75DFD002810
:102D400022D16406E40D295D2D196B78AA78E87804
:102D50001B02120413430B43000618430001000931
:102D60000FE00C4D4300580A29008018FFF744FD7E
:102D7000002807D12406E40D2B5D2D196878000288
:102D8000184370BD0448FCE70448FAE75C9F002044
:102D90000912012084A70020FFFF0000FFFFFF0FA2
:102DA000F0B55746DE464E464546E0B5170083B0BF
:102DB000002900D0C1E0012800D8CFE1C94B002490
:102DC0000193C94B81469A46C84B90469B46019B4E
:102DD0001B78002B00D05AE14B46C54A9BB2934268
:102DE00000D958E14A465346961E5A461B78126847
:102DF0005E43B618002B00D196E00025BD4C771934
:102E000021003800FFF7F8FC002800D050E12378BB
:102E1000002B00D14FE1E52B00D14CE12023E35CF6
:102E2000002B00D182E1E52B00D17FE14023E35C60
:102E3000002B00D180E1E52B00D17DE16023E35C34
:102E4000002B00D181E1E52B00D17EE18023E35C02
:102E5000002B00D1C1E1E52B00D1BEE1A023E35C52
:102E6000002B00D1BEE1E52B00D1BBE1C023E35C28
:102E7000002B00D1C2E1E52B00D1BFE1E023E35CF0
:102E8000002B00D1C0E1E52B00D1BDE180235B0028
:102E9000E35C002B00D1C3E1E52B00D1C0E190231E
:102EA0005B00E35C002B00D1C0E1E52B00D1BDE16C
:102EB000A0235B00E35C002B00D1C2E1E52B00D135
:102EC000BFE1B0235B00E35C002B00D1C0E1E52B48
:102ED00000D1BDE1C0235B00E35C002B00D1C6E163
:102EE000E52B00D1C3E1D0235B00E35C002B00D1D4
:102EF000C4E1E52B00D1C1E1E0235B00E35C002BE2
:102F000000D1C8E1E52B00D1C5E1F0235B00E35C13
:102F1000002B00D1C8E1E52B00D1C5E153461B7859
:102F20000135AB4200D96AE74846FFF7F9FE4C4647
:102F3000012800D8BFE1814649E76F4B1D886F4BE0
:102F40006D019C4665446D1200D19DE06C4B0026DE
:102F500098462023994620339A4620339B46654C59
:102F60004346186821003018FFF746FC002800D0BF
:102F70009EE02378002B00D1C6E0E52B00D1C3E012
:102F80004B46E35C002B00D1CDE0E52B00D1CAE03D
:102F90005346E35C002B00D1D4E0E52B00D1D1E017
:102FA0005B46E35C002B00D1D5E0E52B00D1D2E0FD
:102FB0008023E35C002B00D10DE1E52B00D10AE179
:102FC000A023E35C002B00D112E1E52B00D10FE13F
:102FD000C023E35C002B00D10DE1E52B00D10AE119
:102FE000E023E35C002B00D114E1E52B00D111E1DB
:102FF00080235B00E35C002B00D10EE1E52B00D1C8
:103000000BE190235B00E35C002B00D113E1E52B87
:1030100000D110E1A0235B00E35C002B00D10CE1A8
:10302000E52B00D109E1B0235B00E35C002B00D16C
:1030300015E1E52B00D112E1C0235B00E35C002B1E
:1030400000D110E1E52B00D10DE1D0235B00E35C62
:10305000002B00D119E1E52B00D116E1E0235B0044
:10306000E35C002B00D114E1E52B00D111E1F0234A
:103070005B00E35C002B00D112E1E52B00D10FE1F6
:103080000136B54200D06BE70720404222E01D4BDD
:10309000994500D8A6E6FFF7DFFD4746051EF3D0A9
:1030A000002C60D029002000FFF78CFD00285AD0AA
:1030B000012040420EE043462000B8461F00202277
:1030C00039000DF071FB21004046FFF715FC431E4F
:1030D0009841404203B0F0BCBB46B246A946A04668
:1030E000F0BDC046091201200D120120589F00209A
:1030F000F7FF000084A7002006120120FF01000056
:103100007CA70020F7FFFF0F2000202239000DF0E0
:103110004BFB4346186821003018FFF7EDFB431EB8
:1031200098414042D6E720002030EEE74346200099
:10313000B84620301F00C2E743462000B846403062
:103140001F00BCE720004030DFE743462000B846C0
:1031500060301F00B3E720006030D6E7FFF77CFD4A
:10316000051E00D190E7574B802298461B78564C9D
:103170009946023D5D43554B0021920020001E6898
:103180000DF00CFB2022390020000DF00DFB4B460A
:10319000AE19002B1DD021003000FFF7ADFB002839
:1031A00000D085E780220021200092000DF0F6FA81
:1031B00043461B7801254746012B0AD92100701987
:1031C000FFF79AFB002800D072E73B780135AB424D
:1031D000F4D800207EE73E4897E743463C48B8468F
:1031E0001F006CE743462000B846A0301F0066E78A
:1031F0002000A03089E72000C03086E74346200049
:10320000B846C0301F005AE743462000B846E030B9
:103210001F0054E72000E03077E7601CFF3074E7C0
:103220004346601CB846FF301F0048E74346294824
:10323000B8461F0043E7274867E720004130FF30CA
:1032400063E7200043464130B846FF301F0036E7B1
:10325000200043466130B846FF301F002FE72000B2
:103260006130FF3051E720008130FF304DE7200012
:1032700043468130B846FF301F0020E72000434618
:10328000A130B846FF301F0019E72000A130FF3001
:103290003BE7114839E743460F48B8461F000EE7A1
:1032A0002000E130FF3030E720004346E130B846EF
:1032B000FF301F0003E7FFF7CFFC4746051E00D095
:1032C000F0E6E1E60D12012084A70020589F0020BF
:1032D00004A80020A4A8002044A90020F0B54E4670
:1032E000DE4657464546E0B5BE4B97B01B68059194
:1032F0000193BD4B04001A78049301235A40914670
:1033000002782F2A03D1627801342F2AFBD0002AB9
:1033100000D102E10DAB9B46B44B80279A46BF001B
:103320005744B84607AE0BAD00972F2A00D1E3E013
:1033300032706278631C002A00D183E12F2A00D109
:103340003AE17270A278A31C002A00D17DE12F2AF5
:1033500000D134E1B270E278E31C002A00D189E1A7
:103360002F2A00D12EE1F2702279231D002A00D1EC
:1033700083E12F2A00D128E132716279631D002A8E
:1033800000D171E12F2A00D122E17271A279A31D2F
:10339000002A00D16BE12F2A00D11CE1B271E27941
:1033A000E31D002A00D119E12F2A00D159E12300A1
:1033B000F271227A0833002A00D14FE12F2A00D17E
:1033C00034E123003272627A0933002A00D12AE103
:1033D0002F2A00D13FE123007272A27A0A33002A19
:1033E00000D126E12F2A00D129E12300B272E27A2E
:1033F0000B33002A00D11FE12F2A00D128E123003E
:103400000021F272227B0C331C0031732F2A04D16D
:103410001C00637801342F2BFBD05A462900300062
:10342000FFF780FB0023EB724B46002B00D07DE0C2
:10343000019B002B71D00294049B1B78002B00D0C1
:10344000B4E06B469A886A4B93429B415B42002BE7
:1034500063D16849019B0A78023B534366480824BC
:1034600000681B181F0000239946002A4FD00391C3
:10347000380051464844FFF7BFF9002800D0C5E0A6
:10348000534602E0203343453AD01A78002A44D00C
:10349000E52AF7D0DA7A1442F4D119682A68914201
:1034A000F0D159686A689142ECD15A4618001989DE
:1034B000128808309142E5D15A468178927891423B
:1034C000E0D1029C0EAA944683CB83C283CB83C2F5
:1034D00003CB03C22278002A00D19AE0EB7DDB0601
:1034E00000D49DE02B8CE98C1B040B43019300233B
:1034F00099462F2A00D01BE700233370230087E76B
:1035000001239C46039BE1441B789945B0D3019865
:10351000FFF706FC019000288ED10220404217B030
:10352000F0BCBB46B246A946A046F0BD334A344B78
:1035300094461968334B1B885B0163445B12ECD0E3
:10354000CB1801930823270099460C005146200010
:10355000FFF752F9002859D1534603E0009A20336F
:103560009A421ED01A78002AD7D0E52AF6D04946CA
:10357000DA7A1142F2D119682A689142EED159687B
:103580006A689142EAD15A461800198912880830AF
:103590009142E3D15A46817892789142DED13C0043
:1035A00090E7019B01349C42D0D1B6E7164B019ABB
:1035B00093429B415B424AE70022727028E7002257
:1035C000B27025E70022F27022E7002232711FE775
:1035D000002272711CE70022B27119E71C00F2711F
:1035E0001BE7C04678A700200912012084A700200D
:1035F000F7FF00000D120120589F0020FF0100007E
:103600007CA7002006120120F7FFFF0F0120404297
:1036100085E76146059820320DF0C6F800207EE768
:10362000042040427BE71C007272F6E600223272F0
:10363000EEE61C00B272F0E61C00F272EDE600222B
:10364000B272E5E61C007270E7E61C00B270E4E6B8
:103650000022F272DCE600227272D9E61C0032729D
:10366000DBE60022F271D3E61C007271D5E61C0085
:10367000B271D2E61C00F270CFE61C003271CCE6CB
:10368000F0B54746CE4680B5994603788846170080
:10369000C9B0002B52D0040006001D002F2D00D110
:1036A000260065780134002DF8D1B0422AD0421CA2
:1036B000964225D0341AFF2C06D90220404249B048
:1036C000C0BCB946B046F0BD2200010008A80DF00C
:1036D0006BF820216A4600235218100069461355E2
:1036E0006C46FFF7FBFD0028E9D1E37ADB0622D523
:1036F000A38A628B1B0413434246136038700AE0AE
:103700002F2BD7D142460E4B1B68136001220D4B65
:103710001B7853403B707378741C002BCDD0200075
:1037200011F006FF0C28C8D8421C210048460DF0B5
:103730003BF80020C3E704204042C0E70600E1E771
:1037400078A7002009120120F0B5C6460023404D9D
:1037500000B52B70FEF7AAFE002800D074E03D4CA7
:1037600000202100FFF748F8002800D06CE0FF237C
:103770005B00E25A384E394B30609A4250D080227A
:10378000237BE17A1B0292000B4393425CD1617B65
:10379000334B1970E28A002A40D0324B30681A60ED
:1037A000E689314B36181E6023691B021F0CB84690
:1037B0007B012E4FBC46277C63447A4392192C4EE2
:1037C0005B0A32602B4ED718376047462A4E378047
:1037D000267DE77C36023E4316D0C01A801A801937
:1037E0000CF04EF9254B98420BD800210022244BB7
:1037F00000201960234B1A7001232B7080BCB8463F
:10380000F0BD0122E16AF2E7C01A266A801A801927
:103810000CF036F9194B9842E7D9F2E7626ABCE737
:10382000E1235B00E35C002BA9D0E422E3235200F8
:10383000A05A5B00E35A00041843A0D02100306076
:10384000FEF7DAFF00289AD001204042D6E7C046B2
:103850000B12012084A7002074A7002055AA0000A5
:103860000D120120609F00205C9F0020FF010000DE
:103870007CA70020589F002006120120F4FF0000C2
:1038800078A7002009120120F0B54E46DE465746C3
:103890004546E0B55C4B0E001B7814008BB0002B46
:1038A00000D1AEE0594B1B689946594B9B461A789C
:1038B000002865D00378002B62D02F2B5DD002AD9D
:1038C0002900FFF70BFD002850D1EB7ADB0600D46E
:1038D00091E0AB8A6A8B1B041343994602966C6095
:1038E0004B46002B41D04B4B80269A46B60056449F
:1038F0005B461B78002B00D077E04B46464A9BB2D4
:10390000934232D8454B46491A7801934B46023BC5
:10391000534309685B180093002A20D0002308272E
:103920009846009851464044FEF766FF002865D14E
:1039300054462378002B18D0E52B06D0E37A1F429B
:1039400003D129002000FFF777F82034A642F0D1F8
:1039500001239C46019BE0441B789845E1D34846EF
:10396000FFF7DEF981460028C2D100200BB0F0BC81
:10397000BB46B246A946A046F0BD4378002B9ED177
:1039800002AD02966C60002AAAD1264A264B9446C4
:103990001B689946254B1B885B0163445B12E4D08E
:1039A0004B4498461B4B80269A460827B60056443F
:1039B00051464846FEF720FF00281FD15446237881
:1039C000002BD2D0E52B06D0E37A1F4203D1290089
:1039D0002000FFF731F82034A642F0D101239C46A5
:1039E000E144C845E4D10020C0E7114B994500D817
:1039F00088E70020BAE704204042B7E701204042B0
:103A0000B4E703204042B1E70B12012078A7002061
:103A10000912012084A70020F7FF00000D120120E9
:103A2000589F0020FF0100007CA700200612012003
:103A3000F7FFFF0F30B5104B0C001B7889B0002B3F
:103A400013D069466D46FFF749FC00280BD1EB7A8D
:103A5000DB060DD4AB8A6A8B1B041343079A2360E1
:103A60006260A360E06009B030BD03204042FAE725
:103A700004204042F7E7C0460B120120F0B557463C
:103A8000DE464E464546E0B585B002911100564AE5
:103A900007001278002A00D1A3E0C0687A6890423B
:103AA00000D39BE0131A9A468B4200D989E04F4B12
:103AB00019784A0290465246002A00D186E04C4AC4
:103AC000019391464B464B494B4A8B464B49002646
:103AD00091460391009331E0494AA3B2934235D80D
:103AE0004146F8680BF0CCFF019B023C18785B461E
:103AF0006043CD051B68490A4018C0184946ED0DC2
:103B0000FEF77AFE00285ED180245346A4009B1B5A
:103B1000641B9C4200D91C002900029B494498194F
:103B200022000CF041FEF86841462018F860361972
:103B30000BF0A6FF002911D0B24507D9009BBC6845
:103B40001B78002BC8D02F4B9C42C9D9300005B040
:103B5000F0BCBB46B246A946A046F0BD009A039B06
:103B60001278BC681B68002A19D0A000400A494698
:103B7000C018FEF741FE00282AD14B466406E40D2A
:103B80001B5D4C446278A178120209040A431A436F
:103B9000E3781B0613431B011B09BB60CCE76000E5
:103BA000400A4946C018FEF727FE002813D14B46AD
:103BB0002406E40D1A5D4C4463781B021343BB607A
:103BC000BAE78A4673E701204042C0E70020BEE71B
:103BD0000D4BBB60B0E70D4BBB60ADE7052040422D
:103BE000B5E703204042B2E70B1201200D1201207D
:103BF00009120120589F002084A700205C9F00200C
:103C0000F7FF0000F7FFFF0FFFFFFF0FFFFF0000B0
:103C10000930C0B2092803D8024B8000C058704751
:103C20000148FCE7688D0110006C011000B50F4BD6
:103C300089B01B78002B15D000280CD003782F2BCF
:103C40000CD06946FFF74AFB002805D16B46DB7AAA
:103C50000438DB0600D5002009B000BD4378002BF6
:103C6000F9D0EEE703204042F6E7C0460B120120F0
:103C7000F0B5DE4657464E464546E0B5634B040078
:103C80001B78A7B0002B00D1B9E0002800D1B0E02C
:103C90000378002B00D1ACE006A9FFF71FFB00283A
:103CA00000D1A9E06A46200002AB033201A9FFF768
:103CB000E7FC002806D027B0F0BCBB46B246A946B8
:103CC000A046F0BDFEF7C8FF8046002800D199E06D
:103CD00080224F4F861E3B784E4D9B465E434E4B97
:103CE00000211B6892002800F6180CF057FD1422E2
:103CF000002111A80CF052FD392007222021684430
:103D00000CF04CFD2021032210A80CF047FD2E23BF
:103D10000EAC23701E3BE3729A4643469BB263830C
:103D2000994643461B0CA382220098462B0013CAD7
:103D300013C313CA13C303CA03C30021140019A871
:103D400014220CF02BFD5A200622202168440CF08E
:103D500025FD0322202118A80CF020FD2F4B2380E5
:103D60005346E372019B63839A461B0CA3822B008C
:103D7000203307CC07C307CC07C306CC06C35B467A
:103D8000002B1BD029003000FEF7B6FD00282DD1F6
:103D900080220021280092000CF000FD3B780124D5
:103DA000012B09D929003019FEF7A6FD00281DD1E5
:103DB0003B780134A342F5D8019B9A461EAC2022E1
:103DC000002120000CF0EAFC210020AA02A8FEF746
:103DD000A9FE1023E3724B4663834346A3826B46DE
:103DE00022005046D978FEF7DBFF64E7012040420D
:103DF00061E7022040425EE7062040425BE7032085
:103E0000404258E70720404255E7C0460B120120C8
:103E10000D12012084A70020589F00202E2E0000A4
:103E2000F0B55746DE464E464546E0B5BE4A04006C
:103E300012780023924699B0002A00D19DE1002813
:103E400000D1F8E00278002A00D1F4E010AE310091
:103E5000B3827383FFF742FA051E67D1B58A738B6D
:103E60002D041D43F37ADB0668D5012D69D90023A3
:103E70009846AE4B2A009B46AD4B47469946AD4E01
:103E8000029503945B461B78002B00D064E1AA4B9B
:103E900091B28B429B415B42002B3ED14B4619783D
:103EA000931E4B439846A54800240068082580448B
:103EB00000292CD00192002F28D143463100181937
:103EC000FEF79AFC002800D04EE1802233009200D9
:103ED000B0181A78002A00D1B8E0E52A00D1ADE088
:103EE000D97A0D4200D0A9E02E2A09D15A78202A89
:103EF00000D1A3E02E2A03D19A78202A00D19DE098
:103F000057464B461B780134A342D4D8019A10007F
:103F1000FEF706FF02000128B4D8B8464346029DCA
:103F2000039C002B00D193E009256D42280019B0B5
:103F3000F0BCBB46B246A946A046F0BD012D00D953
:103F40000FE106AA20000CAB073209A9FFF798FB86
:103F5000051EEBD108AE0AAC320021000CA8FEF71A
:103F6000E1FD06ABDB790293002B00D093E0099BC7
:103F70000393012B5FD96D4B80279B466D4BBF0090
:103F80009846059547445B461B78002B00D0EEE031
:103F90006B46694A9B89934248D8029B002B00D00C
:103FA000EEE06349039B0A78023B534363480025D4
:103FB00000681B180193002A32D00491019B4146EE
:103FC0009946A9444846FEF717FC002800D0CBE0EC
:103FD000434603E020339F4200D19DE01A78002A37
:103FE00029D0E52AF6D0196822689142F2D15968A1
:103FF00062689142EED118001989328808309142E6
:10400000E8D18178B2789142E4D1E5224146484630
:104010001A70FEF771FC002800D0A5E05346029309
:104020000398FEF77DFE03900128ACD8029B059D06
:10403000002B00D07AE702256D4277E720339842C3
:1040400000D15EE71A78002A00D046E7029D039C63
:10405000A046D946384E3A4F12E0ABB29E429B4141
:104060005B42002B15D12800FEF75AFE0021040008
:104070002800FEF7A7FD002876D1012C09D92500DC
:104080004B461B78002BE8D0AF429B415B42002B94
:10409000E9D0444655E72B4B1F882B4B7F019C46AC
:1040A00067447B129846C6D0224B80259946274B01
:1040B00000279A46AD004D445346186849463818C3
:1040C000FEF79AFB00284FD14B4602E02033AB426B
:1040D0003ED01A78002AAED0E52AF7D019682268B7
:1040E0009142F3D1596862689142EFD11800198961
:1040F000328808309142E9D18178B2789142E5D195
:10410000E5221A705346186849463818FEF7F4FB42
:10411000431E9841454209E7049B01351B78AB4299
:1041200000D94BE77CE7C0460B12012009120120A1
:104130000D12012084A70020F7FF0000589F0020E7
:10414000F7FFFF0F06120120FF0100007CA70020EF
:104150000137B845B0D16EE70A4B93429B415B42B1
:104160009AE6094B9B4673E701256D42DEE6054B57
:10417000039A9A4200D810E758E703256D42D5E626
:10418000059DD3E6F7FFFF0F09120120F0B5574652
:104190004546DE464E46E0B54F4B04001B788A4646
:1041A00090469BB0002B00D192E0002800D186E021
:1041B0000378002B00D182E00AA9FFF78FF80028CE
:1041C00000D17FE004AA200006AB033205A9FFF767
:1041D00057FA00285BD14346002B3FD0FEF73CFD49
:1041E000002800D171E000243C4B3D4F9B463D4BE5
:1041F0000190029303905B461A78019B0299023B5F
:1042000053439946096800268944002A20D145E095
:1042100080220021380092000CF0C0FA43461D1B9A
:1042200080239B009D4200D91D0053462A00191986
:1042300038000CF0B9FA4B4639009819FEF75CFBD0
:10424000002839D15B461B7801366419B34225D961
:10425000A045DDD8039DAEB22D0C01E0002500265F
:1042600012AC2022002120000CF098FA210014AAA0
:1042700006A8FEF757FC2023E3724346199304ABCC
:104280002200D97805986683A582FEF789FD1BB0C8
:10429000F0BCBB46B246A946A046F0BDA045D9D960
:1042A000FEF7DAFC051E10D001000198FEF78AFC2B
:1042B000002801D101959EE701204042E7E7022056
:1042C0004042E4E706204042E1E707204042DEE7C3
:1042D00003204042DBE7C0460B1201200D120120F3
:1042E00084A70020589F0020F0B50378002B3AD017
:1042F000204E0325771E0FE0012A00D12033325DC6
:104300002A40012A00D12034A34217D1437801303A
:104310004A1C002B1DD011005A1C94460C78BA5C24
:104320002A40002CE8D16246B95C03220A40012AE7
:1043300008D00322315D0A40012A01D0181BF0BDCC
:104340002034FBE70322315D20330A40012AF5D1F6
:10435000F6E70122944662464C78B95C03220A4093
:10436000012AE6D1EEE70122024E002394460C78A2
:10437000771ED8E7B997011010B5002810D0002992
:104380000ED00B7803210C00064AD25C1440114277
:1043900006D0022C00D1203B413B9B00185800E086
:1043A000002010BDB9970110F8B5DE4657464546C6
:1043B0004E468046E0B508008A4611F0B9F8011E65
:1043C00042D043461B78002B3ED001225242424449
:1043D00094460722404603269146234D002202E0E0
:1043E000835C002B27D0EC5C3440012C00D12033BF
:1043F0005446A75CEC5D3440012C00D12037BB4211
:1044000019D101328A42EBD180451FD063464C4618
:104410001B78EA5C144210D15F2B0ED04C46435CF3
:10442000EA5C144209D15F2B07D0F0BCBB46B24610
:10443000A946A046F8BD9142E6D0012293464378B2
:104440000130DC44002BC9D10020EEE72122074BCC
:104450009B5C5B07E2D00122934643780130DC4449
:10446000002BBBD1F0E7C046B9970110B8970110F7
:1044700010B5002B09D0002807D00478002C04D0F8
:104480002E2C03D14478002C00D110BD04782E2CA2
:1044900008D0186801301860002AF6D15A685218FE
:1044A0005A60F2E744782E2CF3D180780028ECD0C3
:1044B000EFE7C046F8B50D0016001C1E09D0002815
:1044C00007D00378002B04D02E2B03D14378002B88
:1044D00000D1F8BD03782E2B20D0B0273F01E25940
:1044E0003F2AF6DC93009B18DB000133FF33E3180F
:1044F00001001F22180010F0EBFFE259002093008A
:104500009B18DB00E318190025332031FF31FF33FE
:10451000013208704E701D60E251DAE743782E2BAD
:10452000DBD18378002BD4D0D7E7C04670B50378B1
:1045300004000E001500002B1AD03949FFF7D4FEF5
:10454000002815D020003749FFF7CEFE002805D0FF
:1045500020003549FFF7C8FE00280BD1002E01D0FE
:10456000324B3360002D01D0314B2B60314800E0DD
:10457000002070BD20003049FFF7B6FE0028EDD0C6
:1045800020002E49FFF7B0FE002809D1002E01D0EF
:104590002B4B3360002D01D0254B2B602948E8E7D9
:1045A00020002949FFF7A0FE0028EFD0200027496E
:1045B000FFF79AFE002829D020002549FFF794FE36
:1045C000002823D020002349FFF78EFE00281DD0AD
:1045D00020002149FFF788FE00280DD020001F4948
:1045E000FFF782FE002807D020001D49FFF77CFE60
:1045F000030000208342BCD1002E01D0194B336050
:10460000002D01D0184B2B601848B2E7002E01D0C6
:10461000174B3360002D01D00D4B2B601548A8E7D8
:104620008C6D0110946D0110A06D0110B46D01101E
:10463000C06D01108C6C0110A86D0110C86D0110C7
:10464000DC6D0110D06C0110D46D0110E86D01100B
:10465000F46D0110FC6D01100C6E0110186E01104C
:10466000206E0110286E0110346E0110006D0110D3
:10467000046E0110386D011010B50C00FF2201000E
:10468000200010F025FFFF2300222000E25410F04C
:104690004FFF0021012803D825E02154012815D01F
:1046A00003000138225C2F2AF7D0002002E0E054FA
:1046B000012B0BD01900013BE25C2F2AF7D1012915
:1046C00004D00139635C62182F2B09D02378002BAA
:1046D00000D010BD0222200007490CF065F8F8E771
:1046E00000231370F2E70028F0D1022220000249D3
:1046F0000CF05AF8EAE7C046C05D0110030070B53F
:10470000002800D19AE01A78202A01D0092A01D184
:104710000133F8E7002A00D191E00824594DA85C44
:10472000044200D0A1E00A705A78581C002A00D137
:104730008BE0AE5C344200D087E04A709A78981CD7
:10474000002A00D183E0AE5C344200D07FE08A7062
:10475000DA78D81C002A00D17BE0AE5C344200D06D
:1047600077E0CA701C79181D002C00D16BE008227C
:104770002E5D324267D10C715C79581D002C6AD0D5
:104780002E5D324267D14C719C79981D002C64D00B
:104790002E5D324261D18C71DC79D81D002C5ED047
:1047A0002E5D32425BD1CC711C7A0130002C58D086
:1047B0002E5D324255D10C725C7A0130002C52D001
:1047C0002E5D32424FD14C729C7A0130002C4FD07A
:1047D0002E5D32424CD18C72DC7A0130002C49D0F3
:1047E0002E5D324246D1CC721C7B0130002C43D06E
:1047F0002E5D324240D10C735C7B0130002C3DD0E9
:104800002E5D32423AD14C739A7B0130002A37D068
:10481000AC5C240734D40F338A7318000F220023B2
:104820008B5403780822002B04D106E04378013032
:10483000002B02D0EB5C1A42F8D070BD124B002264
:1048400018000A70F9E70422E9E70122E7E70222EB
:10485000E5E70322E3E70522E1E70622DFE7072297
:10486000DDE70822DBE70922D9E718000022D6E7B6
:104870000A22D4E70B22D2E70C22D0E70D22CEE7A2
:104880000E22CCE7B99701102C800110F0B500285A
:1048900027D00378202B01D0092B01D10130F8E774
:1048A000002B1FD000220826104C4F1E07E0FF2AC5
:1048B00008D001320130BB540378002B02D0E55CF4
:1048C0002E42F4D000238B5403780822002B04D10D
:1048D00006E043780130002B02D0E35C1A42F8D0A6
:1048E000F0BD034800230B70FAE7C046B9970110EA
:1048F0002C80011070B5040010F01AFE002809D0B9
:10490000251820780DF0D6FC20780134FDF75EFBE9
:10491000AC42F6D170BDC046F0B5D64646464F46CD
:10492000C0B58A4684B05B21050010F02FFE80469A
:10493000002800D16EE0441B0F2C00D90F24220068
:10494000290068460BF030FF00236A46684613557D
:1049500010F0EEFD324B061E99463DD01C0000259E
:10496000471C03E001356034402D35D02378002BFF
:10497000F8D032006946601C10F03CFF0028F1D1ED
:10498000E35D002BEED14346002B19D040460130A9
:1049900010F0FAFF0F2819D801216B005A195201A3
:1049A0004A441176D16D884201DB411CD1655246E3
:1049B0005B19DB001B1806339B004B445A6005E073
:1049C00052466B005B195B014B445A6104B0E0BC7A
:1049D000BA46B146A846F0BD4B46002503E0013576
:1049E0006033402DF2D01C78002CF8D101234A46C8
:1049F0006E0076197601701C935569460F22484463
:104A000010F066FD43464E4434743476F465002B52
:104A1000BCD1D5E7280010F08BFD04008CE7C04620
:104A2000ACF50020F0B5CE46474680B50600140030
:104A30008DB01F2A00D91F24220004A80BF0B4FE59
:104A400010216A460023521810004B31135510F004
:104A50009DFD8146002839D004AA841A0F2C33D832
:104A6000220004A968460BF09FFE00236A466846B0
:104A7000135510F05DFD0700002E1FD000281DD03B
:104A8000431C34000025984603E001356034402D76
:104A900014D02378002BF8D03A006946601C10F03F
:104AA000A9FE0028F1D14346E35C002BEDD16C0058
:104AB0006419650175192B7E002B2CD100200DB0D7
:104AC000C0BCB946B046F0BD0F24C9E704A810F039
:104AD0002FFD0700002EF1D00028EFD0431C34003A
:104AE0000025984603E001356034402DE6D0237858
:104AF000002BF8D03A00601C04A910F07BFE0028BF
:104B0000F1D14346E35C002BEDD16B005B195B01F7
:104B1000F6187069D3E74846013010F035FF0028D9
:104B2000CCDBEB6D9842C9DAE3001B189B00F3184D
:104B3000D869C4E770B5040010F0FAFC002809D069
:104B4000251820780DF0B6FB20780134FDF73EFAE9
:104B5000AC42F6D10A200DF0ADFB0A20FDF736FA83
:104B600070BDC046F0B5CE46474680B583B005005F
:104B700000F0BEFA082781462C687B4E2178237806
:104B8000F35C1F4207D0631C2B6019781C00725C19
:104B900001331742F8D12A2943D02F2955D025298E
:104BA00000D16FE0262947D07C295DD05E2946D10F
:104BB0000123984601342C602378F35C1F4207D010
:104BC000631C1C002B6022780133B25C1742F8D1C1
:104BD00021782B2906D02D2906D143465B429846E1
:104BE0000134E8E70134E6E7735C1F4207D0631C39
:104BF0002B6019781C00725C01331742F8D1002930
:104C00000BD0282900D182E00422735C1A4200D024
:104C10006CE09A074FD15F294DD001232B73217887
:104C2000ADE701342C60280000F062FA4B464343A4
:104C30002C6899462178A2E76378262B30D1484624
:104C400003B0C0BCB946B046F0BD013428002C60AA
:104C500000F04EFA011E00D17FE048460AF0E8FE5F
:104C60002C68814621788AE763787C2BE7D0013471
:104C70002C60280000F03CFA4B462C680343994610
:104C800021787CE7013428002C6000F031FA011E05
:104C900063D048460AF0CCFE2C68894621786EE73E
:104CA00001342C60280000F023FA4B462C680340A6
:104CB0009946217863E72200072003E001322A6049
:104CC0001178735C1842F9D15F29F7D06B68002B1B
:104CD00041D02100121BA86898474346434318005F
:104CE0004B462C6843409946217848E70023200032
:104CF00001A90632019310F00FFF43464343180009
:104D00004B46019C43402C609946217837E701349B
:104D10002C60280000F070F92C688446002C21D00B
:104D20002278B35C1B0708D50820631C2B601A7817
:104D30001C00B15C01330842F8D1614643464B4345
:104D4000494659408946292A00D066E7631C2B60F2
:104D500061781C0013E7140011E701232B73002373
:104D600099466CE72378FFDEB9970110F0B5DE466F
:104D700057464E464546E0B585B00400FFF7F2FEC3
:104D80000700082620689B4D017801970378EB5CAB
:104D9000334207D0431C2360197818006A5C013342
:104DA0001642F8D12B2900D106E103239A46043399
:104DB0009946063B9B462D297DD10130206020007D
:104DC00000F096F904239846009020680178037853
:104DD000EB5C1E4207D0431C2360197818006A5C04
:104DE00001331642F8D12A2943D02F296CD0252926
:104DF00000D185E0262947D07C2900D172E05E29C8
:104E000000D0F0E00127013020600378EB5C1E4207
:104E100007D0431C1800236002780133AA5C1642B5
:104E2000F8D101782B2904D02D2904D101307F42FB
:104E3000EAE70130E8E76B5C1E4207D0431C2360C1
:104E4000197818006A5C01331642F8D100290CD099
:104E5000282900D18EE042466B5C1A4200D07AE0ED
:104E600052461A425AD15F2958D05B4623730178C3
:104E7000ADE701302060200000F03AF9009B434389
:104E8000206800930178A2E7417826290AD00130F2
:104E90002060200000F02CF9009B03402068009364
:104EA000017894E7019B009A9B1A01930378EB5CCD
:104EB0001E4200D06EE7019F380005B0F0BCBB4633
:104EC000B246A946A046F0BD01302060200000F0A7
:104ED0000FF9011E7DD000980AF0AAFD009020680D
:104EE000017874E741787C29DCD001302060200013
:104EF00000F0FEF8009B034320680093017866E70A
:104F000001302060200000F0F3F8011E61D000980D
:104F10000AF08EFD20680091017858E7020084466F
:104F200003E00132226011786B5C48461842F8D1E8
:104F30005F29F6D063686046002B3BD0A168121A47
:104F40008C460100604698474743009B20687B40A1
:104F5000009301783BE700230A2203A9039310F092
:104F6000DBFD03007B43009A03985A4020600092C7
:104F700001782CE701302060200000F03DF88446E5
:104F80002068002834D00278AB5C1E4207D0431C56
:104F900023601A781800A95C01330E42F8D16346E9
:104FA0005F43009B7B400093292A17D00123237382
:104FB00001780CE710000AE7013020602000FFF7BD
:104FC000D1FD019B9C46844463462068019301788F
:104FD000DCE60123206823730178D7E6431C2360B5
:104FE00041781800F3E6019B009A9B1A0193CDE6E5
:104FF0000378FFDEB9970110F8B50400FFF7B6FE9D
:10500000082507002268394E002A0BD01378F35C7C
:105010001D4207D0531C1A00236011780133715CC4
:105020000D42F8D113783D2B0DD151783D290AD18D
:10503000023222602000FFF799FEC01B4342584114
:105040002268C7B2E0E7212B0DD151783D290AD162
:10505000023222602000FFF789FEC01B431E9841E8
:105060002268C7B2D0E73C2B0ED151783D290BD135
:10507000023222602000FFF779FEFA0FC317B84210
:1050800053412268DFB2BFE73E2B0ED153783D2B50
:105090000BD1023222602000FFF768FEFA17C30F1F
:1050A000874253412268DFB2AEE713783C2B05D02C
:1050B0003E2B0ED03D2B17D10132BAE70132200032
:1050C0002260FFF753FE0123B8420ADDDFB22268F7
:1050D0009AE7013220002260FFF748FE0123B84220
:1050E000F4DB0023DFB2F2E73800F8BDB997011016
:1050F000F0B50400006801263B4D83B000280CD0B9
:105100000378EB5C1B0708D50821431C18002360BB
:1051100002780133AA5C1142F8D103782B2B05D019
:105120002D2B06D1013076422060E9E70130206066
:10513000E6E7EA5C120708D50827421C22601378CC
:105140001000E95C01320F42F8D1002B08D0282B67
:105150002AD0E95C4A071DD48A0705D15F2B03D00A
:1051600001232373002013E00200072703E001322C
:1051700022601378E95C0F42F9D15F2BF7D06368A6
:10518000002BEFD0A4680100121A2000984770434A
:1051900003B0F0BD00230A2201A9019310F0BCFC6A
:1051A000019B70432360F3E7013020602000FFF78C
:1051B00023FF2368002B14D01A78A95C090706D5B1
:1051C0000827013323601A78A95C0F42F9D1292AF4
:1051D00003D0012370432373DAE701337043236064
:1051E000D6E71B78FFDEC046B9970110F0B55746E9
:1051F0004546DE464E4698460023E0B587B002ACF1
:105200000290200023736160A260FFF7AFFD0500EC
:1052100008272E00C246029800280CD0B54D03780E
:10522000EB5C1F4207D0431C180023600278013357
:10523000AA5C1742F8D103783D2B00D004E14278F4
:105240003D2A00D000E1023020602000FFF78AFCF8
:10525000B14680462068002800D17BE1D346CA468B
:10526000C146A44D0278AB5C1F4207D0431C2360AB
:105270001A781800A95C01330F42F8D12B2A00D10B
:10528000D7E02D2A00D000E1013020602000FFF798
:105290002FFF060020680378002800D15BE1EA5C5C
:1052A000174207D0421C226013781000E95C0132DB
:1052B0000F42F8D12A2B1ED02F2B2FD0252B49D0CF
:1052C000262B20D07C2B3AD05E2B34D10123190021
:1052D000013020600378EA5C174205D0013020607D
:1052E0000378EA5C1742F9D12B2BF7D02D2B3ED156
:1052F00001304942EDE7013020602000FFF7F8FE61
:1053000046432068C7E74378262B14D0013020603D
:105310002000FFF7EDFE06402068BCE7013020606A
:105320002000FFF7E5FE011E7CD030000AF080FB74
:1053300006002068AFE74B469B1B994692E74378EF
:105340007C2BF8D0013020602000FFF7D1FE06430F
:105350002068A0E7013020602000FFF7C9FE011E91
:1053600060D030000AF064FB20680E0093E70278FA
:105370008846AB5C1F4205D0013020600278AB5CF0
:105380001F42F9D1002A08D0282A31D0042119421D
:1053900021D19B0704D15F2A02D0012323737AE72E
:1053A00002000721844601E0013222601378E85CA4
:1053B0000142F9D15F2BF7D063686046002B2FD0F4
:1053C000A168121A8C460100604698474346434341
:1053D00020685E405FE700230A2201A9019310F0D4
:1053E0009BFB424603005A4301985640206052E717
:1053F000013020602000FFF7FFFD03002068002837
:1054000002D1A7E0013020600278A95C0F42F9D1F7
:10541000414659434E40292ABFD1013020603AE726
:10542000100038E70123C8462068D1462373DA46C6
:1054300011E7013020602000C846FFF793FBD146FA
:105440008044DA46206806E7212B0DD142783D2AB8
:105450000AD1023020602000FFF788FC831B5A1E0F
:1054600093412068DEB2D7E63C2B16D142783D2A24
:1054700013D1023020602000FFF778FCF20FC31731
:10548000B04253412068DEB2C6E656464B469B1BEF
:105490005A425341DA46DEB2C1E63E2B0ED1437882
:1054A0003D2B0BD1023020602000FFF75FFCF2178C
:1054B000C30F864253412068DEB2ADE603783C2B31
:1054C0000ED03E2B37D03D2B16D10130206020006E
:1054D000FFF74CFC831B5A4253412068DEB29BE627
:1054E000013020602000FFF741FC0123B042F4DCD2
:1054F0000023F2E7B9970110174A3500D15CD04676
:10550000090707D508210130206003780130D65CF7
:105510003142F9D1002B18D101234146227B53405F
:105520000B70002A14D1280007B0F0BCBB46B2466D
:10553000A946A046F0BD013020602000FFF716FC10
:105540000123B042C9DB0023C7E7002342461370A2
:105550000025E8E70378FFDEB9970110F8B5474664
:10556000CE46804680B53A4CE61D257801342800A9
:105570000CF0A0FE2800FCF729FDB442F5D100256F
:105580006826344F00200CF0FFFE831C18D0002842
:10559000F8DB0D281AD00A2818D0082824D07F2834
:1055A00022D0032848D0FF230340FA5CB243E9D05D
:1055B0006C1CFF2C1FD900200CF0E6FE831CE6D1EA
:1055C000FCF7F0FD0028DDDB0D28E4D10A200CF00B
:1055D00071FE0A20FCF7FAFC0023424628005355CE
:1055E000C0BCB946B046F8BD002D11D13B5CB343F9
:1055F000C8D003000124C2B2914642464946180071
:1056000051550CF057FE4846FCF7E0FC2500B9E781
:1056100008200CF04FFE0820FCF7D8FC20200CF0EE
:1056200049FE2020FCF7D2FC08200CF043FE0820A5
:10563000013DFCF7CBFCA5E707300CF03BFE0A2050
:10564000FCF7C4FC00234246012013704042C7E728
:105650003C6E0110B9970110F8B54746CE4680461A
:1056600080B53A4CE61D2578013428000CF022FE66
:105670002800FCF7ABFCB442F5D100256826344F76
:1056800000200CF081FE831C18D00028F8DB0D28C8
:105690001AD00A2818D0082824D07F2822D003281E
:1056A00048D0FF230340FA5CB243E9D06C1CFF2CC6
:1056B0001FD900200CF068FE831CE6D1FCF772FDB8
:1056C0000028DDDB0D28E4D10A200CF0F3FD0A20D0
:1056D000FCF77CFC0023424628005355C0BCB94669
:1056E000B046F8BD002D11D13B5CB343C8D00300D8
:1056F0000124C2B2914642464946180051550CF069
:10570000D9FD4846FCF762FC2500B9E708200CF0FB
:10571000D1FD0820FCF75AFC20200CF0CBFD202006
:10572000FCF754FC08200CF0C5FD0820013DFCF7F7
:105730004DFCA5E707300CF0BDFD0A20FCF746FC48
:1057400000234246012013704042C7E7446E011017
:10575000B9970110F0B54F464646D6460400884634
:105760009146C0B500280DD00FF0E2FE002809D008
:10577000251820780CF09EFD20780134FCF726FCDB
:10578000AC42F6D100246825334E00200CF0FCFD1D
:10579000831C18D00028F8DB0D281AD00A2818D04E
:1057A000082825D07F2823D0032849D0FF23034091
:1057B000F25CAA43E9D0671C4F4520D300200CF0CF
:1057C000E3FD831CE6D1FCF7EDFC0028DDDB0D28B2
:1057D000E4D10A200CF06EFD0A20FCF7F7FB002351
:1057E000424620001355E0BCBA46B146A846F0BD7B
:1057F000002C11D1335CAB43C7D003000127C2B2E8
:10580000924642465146180011550CF053FD504641
:10581000FCF7DCFB3C00B8E708200CF04BFD08204F
:10582000FCF7D4FB20200CF045FD2020FCF7CEFB3C
:1058300008200CF03FFD0820013CFCF7C7FBA4E763
:1058400007300CF037FD0A20FCF7C0FB002342466E
:10585000012013704042C6E7B9970110F0B5DE464B
:10586000454657464E46E0B59DB00590002006914E
:10587000FCF766FB764CE31D98462578013428003A
:105880000CF018FD2800FCF7A1FB4445F5D11223CC
:105890009846704CA0442578013428000CF00AFD8D
:1058A0002800FCF793FB4445F5D1059C20000FF040
:1058B0003FFE0519002808D020780CF0FBFC20786A
:1058C0000134FCF783FBA542F6D10A200CF0F2FC70
:1058D0000A20FCF77BFB0A200CF0ECFC0A20FCF70A
:1058E00075FB3E2398465C4CA04425780134280083
:1058F0000CF0E0FC2800FCF769FBA045F5D1059A07
:1059000013782F2B00D075E053789846002B00D0E9
:1059100070E0069B9B460B2B01DA0B239B46B023C2
:105920004546059A1B015C46D2586B1E9D414B4B68
:105930000B3C99464A4B651B9A464A4B0793002CF1
:1059400045D0280095423BDA069B059EE31A5A1E75
:1059500093411D22B4465B42934382001118C90053
:1059600061442131FF310E783E335146002E00D084
:105970000799059E1218B446D200B0182530FF30A2
:1059800001320068FF3262440290019200914A465F
:10599000502108A80CF05AFB08A80FF0C9FD08AF69
:1059A0003E18002808D038780CF084FC387801378D
:1059B000FCF70CFBBE42F6D1B023059A1B01D2586E
:1059C000631C0135A3450CD01C00002CB9D1434603
:1059D000002B02D10020002AB6DC012301351C0077
:1059E000F3E7002A26D01DB0F0BCBB46B246A9465C
:1059F000A046F0BD069B002B1AD01B4C0B239846EB
:105A0000A04446462578013428000CF053FC2800B9
:105A1000FCF7DCFAA642F5D12F2149428846059AC7
:105A2000137898442F2B00D073E75378984670E78B
:105A30000E4CE3E70E4C2600123625780134280080
:105A40000CF038FC2800FCF7C1FAB442F5D1CAE7E3
:105A500024680110746E0110886E0110C86E011068
:105A60006C6E0110646E0110586E01104C6E0110C6
:105A7000DC6E011070B50A790D00C2B00B1D2F2A23
:105A800026D15A78002A23D1802103001C4A4900DC
:105A900002A80CF0DBFA02A80FF04AFD00280AD099
:105AA00002AC261820780CF005FC20780134FCF7B5
:105AB0008DFAA642F6D10A200CF0FCFB0A20FCF776
:105AC00085FA82225200AB580133AB5042B070BD10
:105AD000802100900B4A490002A80CF0B7FA02A8F6
