:020000041000EA
:1000000000B5324B212058609868022188439860DF
:10001000D860186158612E4B002199600221596106
:100020000121F02299502B49196001219960352056
:1000300000F044F80222904214D00621196600F024
:1000400034F8196E01211966002018661A6600F04E
:100050002CF8196E196E196E052000F02FF8012189
:100060000842F9D1002199601B49196000215960AB
:100070001A491B48016001219960EB211966A021F2
:10008000196600F012F800219960164914480160C1
:100090000121996001BC002800D000471248134993
:1000A000086003C880F30888084703B5996A0420EC
:1000B0000142FBD001200142F8D103BD02B5186610
:1000C0001866FFF7F2FF186E186E02BD00000240BE
:1000D000000000180000070000035F00212200005C
:1000E000F4000018222000A00001001008ED00E03C
:1000F00000000000000000000000000074B24E7A12
:1001000000200420F7010010CB010010CD010010E9
:10011000C9010010C9010010C9010010C901001077
:10012000C9010010C9010010C9010010CF01001061
:10013000C9010010C9010010D1010010D301001045
:10014000C1010010C1010010C1010010C101001067
:10015000C1010010C1010010C1010010C101001057
:10016000C1010010C1010010C1010010C101001047
:10017000C1010010C1010010C1010010C101001037
:10018000C1010010C1010010C1010010C101001027
:10019000C1010010C1010010C1010010C101001017
:1001A000C1010010C1010010C1010010C101001007
:1001B000C1010010C1010010C1010010C1010010F7
:1001C000EFF30580103800BE00BE00BE00BE00BECA
:1001D00000BE00BEF2EB8871B0640310DC64031053
:1001E0003802001090A31AE71E481F49086006C88D
:1001F00081F3088810471D480068002801D019487D
:10020000F3E70DA40ECC002902D000F012F8F9E7B4
:100210001749184A002000E001C19142FCD116495B
:100220008847164988471649884700BEFDE701C937
:1002300001C29A42FBD37047DC640310C000002067
:10024000901E0020AC820310000004200000042057
:10025000AC820310001004200010042000000000F5
:10026000704700000000000008ED00E0000000D032
:10027000901E00204C490220DD520210B17C00107B
:100280009D520210F8B5C0460448054B10B5834294
:1002900003D0044B002B00D0984710BD901E0020C7
:1002A000901E00200000000006480749091A8B1024
:1002B000C90FC91810B5491003D0044B002B00D04A
:1002C000984710BD901E0020901E002000000000E6
:1002D00010B5074C2378002B09D1FFF7D5FF054B4C
:1002E000002B02D0044800E000BF0123237010BDA2
:1002F00020220020000000001CEE0210054B10B56B
:10030000002B03D00449054800E000BFFFF7CCFFF5
:1003100010BDC04600000000242200201CEE021088
:1003200070B5041E0BD029F087F8002807D00121F2
:10033000084D0138235C093BDBB2172B00D970BD97
:100340002A001A410B0013401142F8D1235400280F
:10035000EFD1F4E7ECFF7FFFF8B51C00E823E75886
:10036000050016000F2F1FDC6268002A04D02168E8
:1003700029F090F8002817D17B00DB199B00DB19CE
:1003800008330C222900E01829F0B8F8E8210020F1
:10039000625853009B189B009B18E3181875A3180C
:1003A000D83301321E706250F8BDC046F0B55746D2
:1003B000DE464E464546E0B55C4C0F00A54400289D
:1003C00035D00378002B32D02F2B00D17CE0584B56
:1003D0001A882F2A60D0802184AC0090554A2000D2
:1003E000890024F0B9FE04AB9846002342461370FE
:1003F0002378002B01D175E014002F2B1DD06378DA
:10040000621C002BF8D143461B78002B6AD0FF22D8
:100410004146380029F072F8FF230022FA54464B77
:100420009D44F0BCBB46B246A946A046F0BDFF22A3
:1004300038003F4929F062F8EEE7002399463F4B28
:1004400044AE9A4680235B009B46657801342F2D8D
:10045000FBD0002DD7D000230134F554257801338B
:10046000002D09D02F2D07D0FF2BF5D16578013451
:10047000002D01D02F2DF9D14A46F25433882E2B6E
:1004800007D0534511D0404628F0D6FF431C5B45AA
:100490002CD1002DD9D1B6E7802184AC0300284AA5
:1004A0002000890024F058FE9DE7B3780393002BC9
:1004B000E9D12F21404629F051F800280ED04045BF
:1004C0000CD9039B0370E4E71E4D84AC01002A00A5
:1004D000200029F013F80023635584E700234246E7
:1004E0001370D6E72F234246138090E741462F2210
:1004F0000A543178002913D002AA831C0732C04362
:1005000003925B4510D0802252009446301802E0DE
:100510000133634508D0039AD154C15C0029F7D157
:1005200000224146CA54B4E7FF23F9E7ECFBFFFF82
:10053000D811002028EE0210140400002E2E000016
:1005400024EE0210FF010000F0B5DE464546574696
:100550004E46E0B599B00BF07FF882460BF082F87A
:1005600081460BF093F803900BF096F8804600203C
:100570000BF066F80DAC50480BF068F828222021EB
:10058000200023F0D9FA28230022E2540BF03CFA91
:1005900005000BF09BFA002800D17AE0474A08AE2C
:1005A0002B001421300024F0D7FD300028F044FF48
:1005B000050031001F260200200023F0C3FA404F3F
:1005C0006B1C38009B46F61A28F036FF0300864263
:1005D00061DB5A463900A0181A0023F0B3FA21F063
:1005E000C5FC00294FD0FA220023920022F04AFBDA
:1005F0000500FA212800890022F006FB3149060097
:10060000280022F001FB3C218346300022F0FCFA56
:10061000300001913C2122F0F7FA3C2122F0F4FA5B
:10062000294D5B462A00009104A8102124F094FD76
:1006300004A828F001FF0200201A04A9273023F0A3
:1006400081FA132100200BF013F800251A4E2278AE
:10065000280000231321009601350BF023F8013404
:10066000282DF4D150460AF0EBFF48460AF0EEFF81
:10067000414603980AF0FCFF19B0F0BCBB46B246F5
:10068000A946A046F0BDFA21890022F0BDFA050076
:10069000AFE70E4A83E72E225946625461198A70E9
:1006A00059460233113A0335521A991B6019C91978
:1006B00023F048FA93E7C0468080800034EE0210B1
:1006C000D811002080EE360048EE021040EE0210F5
:1006D0000F4B70B51B78002B09D10E4B1B78002BEC
:1006E00002D00EF0AFFA70BD24F036FFFBE70A4BE4
:1006F0001B68002BF7D0094C094D21682D684A1C56
:10070000AA42F0D25854002122609954EBE7C04627
:100710003D4902203B4902208C5E0020945E00206F
:10072000905E0020104B10B51B78002B0AD10F4BA8
:1007300020201B78002B02D00EF084FA10BD24F08C
:100740000BFFFBE70A4B1B68002BF7D009480A4C4C
:10075000016824684A1CA242F0D20260202058544A
:1007600000219954EAE7C0463D4902203B49022056
:100770008C5E0020945E0020905E00200FB4F0B5E7
:10078000CE464746802180B52E4C8900A5448AABD1
:1007900004CB02AC2000019324F0F2FC2078002866
:1007A0000DD0294E294D33780134002B14D12B78EC
:1007B000002B0ED00EF046FA20780028F3D18323C8
:1007C0009B009D44C0BCB946B046F0BC08BC04B018
:1007D000184724F0C1FEEFE71D490A68002A2BD014
:1007E0001C4E1D4F3568AC460135A9463D68A945EC
:1007F00006D24D4635606546505500204D46505551
:100800002278002ADBD0086800218C4688463568AB
:100810003F680134002807D0691CB94204D2425510
:1008200042469C460D0042542278002AF1D163468C
:10083000002BC4D03560C2E72278002ABFD0054E15
:10084000054FE0E7F4FDFFFF3D4902203B49022050
:100850008C5E0020945E0020905E0020F8B50500BC
:100860000F0016000AF0F8FE0400002E0AD00A4815
:100870000AF0E6FE29000948FFF780FF20000AF091
:10088000DFFEF8BDC82000020AF0DAFE2A003900B7
:100890000348FFF773FFF1E7C8C8000058EE0210E5
:1008A00068EE0210F0B5CE46474680B5204B214C8D
:1008B0001B78A544002B33D01F4B204C0025E61895
:1008C000A0231B0198461E4B99462378002B10D07D
:1008D00042AA4346501922005F1B11320092390090
:1008E0004A46631C24F038FC002819DB874217DDD8
:1008F0002D181234FF34A642E7D102AC2200114B6E
:1009000043CB43C20023200023730DF02DFB2A00AC
:10091000200042A90DF000FD43425841C0B200E062
:100920000020094B9D44C0BCB946B046F0BDC0464E
:1009300038490220F4F4FFFF101100007422002057
:1009400074EE02107CEE02100C0B0000F0B5D646DF
:100950004F464646C0B53D4BC0B01D78002D19D05E
:10096000002802D00378002B4CD16C46FF222000D7
:10097000374928F0C3FDFF23002220003549E25407
:100980000CF050FF002835D140B0E0BCBA46B1466B
:10099000A846F0BD304F314C3B784E20304E0134EC
:1009A000002B0BD13378002B21D00EF04BF920789F
:1009B0000028E9D03B780134002BF3D029490A689C
:1009C000002A24D0284F3E68B0460136B246274E52
:1009D000B4463668B24506D256463E604646905505
:1009E0000020564690552278002A16D1CCE724F0F4
:1009F000B3FDDCE70DF0AAF91D4B01001800FFF76D
:100A0000BDFEC1E76C462100FFF7D0FCB3E72278BA
:100A1000002AB9D01548144F844608686146096811
:100A20003E688C46002188460134002807D0711C9E
:100A3000614504D2825542461D000E004254227880
:100A4000002AF1D1002D9FD03E609DE73849022059
:100A5000D81100205D0800103D4902208CEE0210E4
:100A60003B4902208C5E0020945E0020905E0020B6
:100A7000B0EE0210F0B54646D6464F46C0B5B54B6F
:100A8000B54C1E780100A544002E00D1A1E000283D
:100A900002D00378002B17D17520B04CB04DB14E69
:100AA0002B780134002B63D13378002B5DD00EF00E
:100AB000C9F820780028F3D18023DB009D44E0BCF6
:100AC000BA46B146A846F0BDA74C80A8220028F03F
:100AD00015FD802269460023920089180B550A787B
:100AE0000B00002A05D1D4E05A780133002A00D146
:100AF000CFE0202AF8D100225C1C1A705B78202BF2
:100B000003D163780134202BFBD0002B00D0EEE022
:100B1000934D924C2B787520924E0134002B0CD1C2
:100B20003378002B00D1B1E00EF08CF8207800284B
:100B3000C2D02B780134002BF2D08C4A9246126836
:100B4000002A00D11CE18A498A4F0D68AC466E1C10
:100B50003D68AE4204D26546505500200E60905567
:100B60002278002A00D011E1A6E724F0F5FCA0E7E6
:100B70007E4A92461268002A7AD07D497D4F0E68DF
:100B80003D68B4460136AE4204D265465055002059
:100B90000E6090552278002A00D18DE750460568F6
:100BA0000020844680460E683F680134002D07D03F
:100BB000701CB84204D2AA5542469C4606002A54EC
:100BC0002278002AF1D16346002B00D174E70E6031
:100BD00072E7634D684C2B784E20624F0134002B36
:100BE0000CD13B78002B40D00EF02CF82078002858
:100BF00000D161E72B780134002BF2D05B4A92469A
:100C00001268002A3BD05A4901270D68A84647447C
:100C1000BC46584F3D68AC4506D265460D6045461A
:100C200050550020654650552278002A00D143E7F0
:100C30005046056808683F688446002080460134B5
:100C4000002D09D060460130874205D96646AA5575
:100C500042461E0084462A542278002AEFD1002EF4
:100C600000D129E763460B6026E724F075FCBDE759
:100C70002278002A00D11FE73D493E4F8EE72278B7
:100C8000002A00D118E73A493A4FD1E724F064FC32
:100C90004CE7334D314C2B787520324E0134002B0C
:100CA0000CD13378002B1FD00DF0CCFF207800281A
:100CB00000D101E72B780134002BF2D02B4A924669
:100CC0001268002A2AD02A492A4F0D68AC466E1CA9
:100CD0003D68AE4204D26546505500200E609055E6
:100CE0002278002A20D1E7E624F036FCDEE76946C8
:100CF00080A8FFF75BFB200040A9FFF757FB684681
:100D000040A90DF01FFC002800D1D5E60DF01EF81B
:100D10001A4B01001800FFF731FDCDE62278002ABA
:100D200000D1C9E61249134F504605680020844699
:100D300080460E683F680134002D07D0701CB84211
:100D400004D2AA5542469C4606002A542278002A1C
:100D5000F1D138E73849022000FCFFFFB8EE02105D
:100D60003D4902203B490220FF0100008C5E00202B
:100D7000945E0020905E00208CEE0210D4EE0210F3
:100D80002278002A00D197E60B490C4F504605689F
:100D90000020844680460E683F680134002D07D04D
:100DA000701CB84204D2AA5542469C4606002A54FA
:100DB0002278002AF1D106E7945E0020905E0020A0
:100DC000F0B54E4657464546DE46E0B50478060087
:100DD00089469246984683B0002C00D192E00500E7
:100DE0000722C6490B5D1A4204D15F2C02D02D2C7C
:100DF00000D087E06C780135002CF3D1C04B01277F
:100E00009B461C0000252378002B06D03100601C77
:100E100028F0CEFA002800D1A4E0123412370135B0
:100E2000FF34FF37102DEED15B461B78002B00D12D
:100E3000D9E012235A46FF33D35C002B00D1D1E016
:100E4000B04BD35C002B00D1CEE1AF4BD35C002B79
:100E500000D1CBE1AD4BD35C002B00D1C8E1AC4B52
:100E6000D35C002B00D1C5E1AA4BD35C002B00D191
:100E7000CBE1A94BD35C002B00D1C8E1A74BD35CDD
:100E8000002B00D137E1A64BD35C002B00D1C0E191
:100E9000A44BD35C002B00D1BFE1A34BD35C002B50
:100EA00000D1B8E1A14BD35C002B00D1B7E1A04B3E
:100EB000D35C002B00D1B4E19E4BD35C002B00D15E
:100EC000B1E19D4BD35C002B00D1AEE14346002B3A
:100ED00011D06120994C9A4D9A4E2B780134002BF9
:100EE00000D0D3E03378002B00D1CCE00DF0AAFE87
:100EF00020780028F1D103B0F0BCBB46B246A94629
:100F0000A046F0BD4346002BF5D08D4D8E4C2A787F
:100F100061208C4E0134002A0CD13378002B00D193
:100F20008BE00DF08FFE20780028E4D02A78013481
:100F3000002AF2D085490B68002B00D180E0844D57
:100F40002E680095B446771C824E3568AF4205D2B4
:100F5000009D2F60654658550020D8552378002BFA
:100F600075D1C8E7012259462B015B191B015B199A
:100F70007C1ECA545F44300028F05EFA05000F283A
:100F800026D90F223100380022F0DCFD0023113475
:100F9000FB735C44484628F04FFA0500FF2800D94F
:100FA000FF252A004946200022F0CCFD002363558E
:100FB0005346002B03D0684B1B78002B1DD14346B2
:100FC000002B98D0220039006448FFF7D7FB92E746
:100FD00002003100380022F0B5FD002311347B55AA
:100FE0005C44D7E701231C01E4182401E4185A46A5
:100FF0000123671C13555F44BDE7FFF753FC82468E
:101000000028DCD14346002B00D174E7544B61200B
:1010100098464B4D4B4E01239C462B78E044002BC9
:1010200000D0A2E03378002B00D19BE00DF00AFE47
:10103000434618780028EED1C4E724F08DFA72E711
:101040002378002B00D156E74148424E00900868B3
:10105000009936680F6800218C46884601340028C4
:1010600007D0791C8E4204D9C355434694460F00DD
:1010700043542378002BF1D16346002B00D13AE78B
:10108000009B1F6037E724F067FA31E72F490A68B1
:10109000002A28D02E4D2F4E00952D68AC466F1C8F
:1010A0003568AF4205D2009D2F606546505500203F
:1010B000D0552278002A00D11DE7086800993668CB
:1010C0000F6800218C4688460134002807D0791C1F
:1010D0008E4204D9C25542469C460F0042542278A3
:1010E000002AF1D1C8E72278002A00D103E7184886
:1010F000184E0090E1E7082375E7C0461959031020
:101100007422002022020000330300004404000087
:1011100055050000660600007707000088080000FB
:1011200099090000AA0A0000BB0B0000CC0C0000CB
:10113000DD0D0000EE0E0000FF0F0000F8EE0210C3
:101140003D4902203B490220E0EE02108C5E002067
:10115000945E0020905E00203849022034EF021097
:101160000CEF021024F0F8F962E731490A680192A5
:10117000002A41D02F4A304E15680092A946012519
:101180004D44AC463568AC4507D2654615604D46C2
:10119000019A505500206546505542461278002A63
:1011A00000D10FE708680099366809688C4600216D
:1011B000894601218B46D844002809D06146013177
:1011C000B14205D2654642554A469A468C4642543B
:1011D00042461278002AECD15346002B00D1F1E6AA
:1011E0006346009A1360EDE60223FCE60323FAE669
:1011F0000423F8E60523F6E642461278002A00D1D9
:10120000E0E60C480C4E0090CCE70623EBE6072303
:10121000E9E60923E7E60B23E5E60A23E3E60C23E8
:10122000E1E60D23DFE60E23DDE60F23DBE6C04615
:101230008C5E0020945E0020905E0020F0B5D646C3
:101240004F4646460400C0B5002801D19AE3013458
:101250002378202BFBD0002B00D193E32378662B3F
:1012600032D02000134928F0A3F8002801D102F061
:1012700099FF2000104928F09BF8002801D101F0C7
:1012800082FB55200D4E0E4C0E4D23780136002B5F
:1012900001D002F02EFE2B78002B01D102F025FEAA
:1012A0000DF0D0FC30780028EFD1E0BCBA46B14652
:1012B000A846F0BD28FF021030FF0210E8FE021021
:1012C0003D4902203B4902206378732BC9D1A378A2
:1012D000002BC6D14620E54CE54E2378E54D01367E
:1012E000002B01D001F0CEFB2B78002B01D101F0B7
:1012F000B2FB0DF0A7FC237830780028EFD1202036
:10130000DD4EDC4D0136002B01D001F043FC2B7883
:10131000002B01D101F039FC0DF094FC23783078DA
:101320000028EFD12020D54ED24D0136002B01D020
:1013300001F0ECFB2B78002B01D101F0E2FB0DF06A
:1013400081FC237830780028EFD12020CC4EC94D85
:101350000136002B01D001F033FD2B78002B01D199
:1013600001F023FD0DF06EFC237830780028EFD1DA
:101370002020C44EBF4D0136002B01D001F0D6FC19
:101380002B78002B01D101F0CCFC0DF05BFC237815
:1013900030780028EFD12020BB4EB64D0136002B0F
:1013A00001D001F07FFC2B78002B01D101F075FCFE
:1013B0000DF048FC237830780028EFD12020B34E80
:1013C000AC4D0136002B01D001F028FC2B78002B0E
:1013D00001D101F01EFC0DF035FC23783078002897
:1013E000EFD12020AA4EA34D0136002B01D002F0F0
:1013F0003EFD2B78002B01D102F034FD0DF022FCD4
:10140000237830780028EFD12020A24E994D013664
:10141000002B01D002F0E8FC2B78002B01D102F068
:10142000D8FC0DF00FFC237830780028EFD1202075
:10143000994E904D0136002B01D002F08CFC2B7898
:10144000002B01D102F082FC0DF0FCFB23783078F8
:101450000028EFD12020914E864D0136002B01D07F
:1014600002F036FC2B78002B01D102F02CFC0DF0A1
:10147000E9FB237830780028EFD12020884E7D4D7D
:101480000136002B01D002F0DFFB2B78002B01D1BD
:1014900002F0D5FB0DF0D6FB237830780028EFD191
:1014A0002020804E734D0136002B01D002F088FBC6
:1014B0002B78002B01D102F07EFB0DF0C3FB2378CB
:1014C00030780028EFD12020774E6A4D0136002B6E
:1014D00001D002F031FB2B78002B01D102F027FB69
:1014E0000DF0B0FB237830780028EFD120206F4E2C
:1014F000604D0136002B01D002F0DAFA2B78002B78
:1015000001D102F0CAFA0DF09DFB23783078002853
:10151000EFD12020664E574D0136002B01D002F04E
:101520007DFA2B78002B01D102F073FA0DF08AFBC3
:10153000237830780028EFD120205E4E4D4D0136C3
:10154000002B01D002F026FA2B78002B01D102F0FB
:101550001CFA0DF077FB237830780028EFD120209B
:10156000554E444D0136002B01D002F0CFF92B78B7
:10157000002B01D102F0C5F90DF064FB237830781F
:101580000028EFD120204D4E3A4D0136002B01D0DE
:1015900002F078F92B78002B01D102F06EF90DF0F2
:1015A00051FB237830780028EFD12020444E314D74
:1015B0000136002B01D002F021F92B78002B01D14C
:1015C00002F017F90DF03EFB237830780028EFD1B8
:1015D00020203C4E274D0136002B01D002F0CAF8E6
:1015E0002B78002B01D102F0BAF80DF02BFB2378F9
:1015F00030780028EFD12020334E1E4D0136002BCD
:1016000001D002F06DF82B78002B01D102F063F8C5
:101610000DF018FB237830780028EFD120202B4ED6
:10162000144D0136002B01D002F016F82B78002B58
:1016300001D102F00CF80DF005FB2378307800287A
:10164000EFD12020224E0B4D0136002B01D001F0AE
:10165000BFFF2B78002B01D101F0B5FF0DF0F2FA9E
:10166000237830780028EFD134E0C0463D4902208D
:1016700024F402103B49022038F4021068F40210EE
:10168000A4F40210E0F4021010F5021038F5021074
:1016900060F5021088F50210B4F50210E4F50210AE
:1016A00010F6021048F6021080F60210B8F602108A
:1016B000ECF602102CF7021050F7021080F702101F
:1016C000B0F70210ECF7021024F8021060F80210D4
:1016D000ACF802102020984E984D0136002B01D016
:1016E00001F032FF2B78002B01D101F028FF0DF023
:1016F000A9FA237830780028EFD12020904E8F4D22
:101700000136002B01D001F0DBFE2B78002B01D13C
:1017100001F0D1FE0DF096FA237830780028EFD151
:101720002020884E854D0136002B01D001F084FE2B
:101730002B78002B01D101F074FE0DF083FA237891
:1017400030780028EFD120207F4E7C4D0136002BD1
:1017500001D001F027FE2B78002B01D101F01DFEF6
:101760000DF070FA237830780028EFD12020774EE2
:10177000724D0136002B01D001F0D0FD2B78002BEB
:1017800001D101F0C6FD0DF05DFA23783078002814
:10179000EFD120206E4E694D0136002B01D001F0B3
:1017A00079FD2B78002B01D101F06FFD0DF04AFA85
:1017B000237830780028EFD12020664E5F4D013627
:1017C000002B01D001F022FD2B78002B01D101F07C
:1017D00018FD0DF037FA237830780028EFD120205B
:1017E0005D4E564D0136002B01D001F0CBFC2B781D
:1017F000002B01D101F0C1FC0DF024FA23783078E0
:101800000028EFD12020554E4C4D0136002B01D041
:1018100001F074FC2B78002B01D101F064FC0DF079
:1018200011FA237830780028EFD120204C4E434D18
:101830000136002B01D001F017FC2B78002B01D1D1
:1018400001F00DFC0DF0FEF9237830780028EFD17F
:101850002020444E394D0136002B01D001F0C0FB51
:101860002B78002B01D101F0B6FB0DF0EBF92378BA
:1018700030780028EFD120203B4E304D0136002B30
:1018800001D001F069FB2B78002B01D101F05FFB47
:101890000DF0D8F9237830780028EFD12020334E8E
:1018A000264D0136002B01D001F012FB2B78002BC6
:1018B00001D101F008FB0DF0C5F92378307800283C
:1018C000EFD120202A4E1D4D0136002B01D001F012
:1018D000BBFA2B78002B01D101F0B1FA0DF0B2F96F
:1018E000237830780028EFD1224A20209046224ADF
:1018F000224D9146114E0BE03378002B01D101F0BF
:10190000A6F80DF09FF92878002800D1CDE42378BF
:101910000135002BF0D043461B68002BF3D04A461C
:10192000174F11683F684A1CBA42ECD258544F46D0
:1019300000213A609954E6E7E8F802103B4902209A
:1019400024F902105CF902109CF90210E4F902106B
:1019500014FA021044FA021074FA0210B8FA0210D3
:10196000F4FA02103CFB02106CFB02109CFB02100C
:10197000D4FB02108C5E0020945E00200CFC021050
:10198000905E00205320D24CD24E2378D24D0136A7
:10199000002B01D000F0B8FF2B78002B01D100F014
:1019A000AEFF0DF04FF9237830780028EFD12020DA
:1019B000CA4EC94D0136002B01D000F061FF2B78D3
:1019C000002B01D100F057FF0DF03CF9237830785F
:1019D0000028EFD12020C24EBF4D0136002B01D090
:1019E00000F00AFF2B78002B01D100F000FF0DF072
:1019F00029F9237830780028EFD12020B94EB64D50
:101A00000136002B01D000F0B3FE2B78002B01D162
:101A100000F0A9FE0DF016F9237830780028EFD1F8
:101A20002020B14EAC4D0136002B01D000F05CFE01
:101A30002B78002B01D100F04CFE0DF003F9237838
:101A400030780028EFD12020A84EA34D0136002B7E
:101A500001D000F0FFFD2B78002B01D100F0F5FD47
:101A60000DF0F0F8237830780028EFD12020A04E38
:101A7000994D0136002B01D000F0A8FD2B78002BEA
:101A800001D100F09EFD0DF0DDF8237830780028BC
:101A9000EFD12020974E904D0136002B01D000F061
:101AA00051FD2B78002B01D100F047FD0DF0CAF855
:101AB000237830780028EFD120208F4E864D0136D4
:101AC000002B01D000F0FAFC2B78002B01D100F0A4
:101AD000F0FC0DF0B7F8237830780028EFD1202003
:101AE000864E7D4D0136002B01D000F0A3FC2B78F3
:101AF000002B01D100F099FC0DF0A4F82378307888
:101B00000028EFD120207E4E734D0136002B01D0EE
:101B100000F04CFC2B78002B01D100F03CFC0DF0C8
:101B200091F8237830780028EFD12020754E6A4D47
:101B30000136002B00D0EFE32B78002B00D1E7E338
:101B40000DF080F8237830780028F1D120206E4EF7
:101B5000614D0136002B00D09EE32B78002B00D185
:101B600096E30DF06FF8237830780028F1D120202B
:101B7000664E594D0136002B00D04DE32B78002BDB
:101B800000D145E30DF05EF8237830780028F1D1DC
:101B90000A205F4E504D0136002B00D0FCE22B781E
:101BA000002B00D1F4E20DF04DF8237830780028B6
:101BB000F1D12020574E484D0136002B00D0ABE22A
:101BC0002B78002B00D1A3E20DF03CF8237830787D
:101BD0000028F1D12020504E3F4D0136002B00D07F
:101BE0005AE22B78002B00D14CE20DF02BF8237831
:101BF00030780028F1D10A20484E374D0136002BAD
:101C000000D003E22B78002B00D1FBE10DF01AF895
:101C1000237830780028F1D12020414E2E4D013616
:101C2000002B00D0B2E12B78002B00D1AAE10DF0FF
:101C300009F8237830780028F1D12020394E264D3C
:101C40000136002B00D061E12B78002B00D159E147
:101C50000CF0F8FF237830780028F1D12020324EA4
:101C60001D4D0136002B00D010E12B78002B00D148
:101C700008E10CF0E7FF237830780028F1D120202C
:101C80002A4E154D0136002B00D0BFE02B78002BDB
:101C900000D1B7E00CF0D6FF237830780028F1D1DE
:101CA0000A20234E0C4D0136002B6FD12B78002BD0
:101CB00068D00CF0C7FF237830780028F3D11D4A94
:101CC000542090461C4A1D4D9146034E43E0C046A9
:101CD0003D49022044EF02103B49022058EF021018
:101CE0008CEF0210C0EF0210F4EF021030F002107F
:101CF00060F0021090F00210C4F00210F4F0021034
:101D000020F102104CF102107CF10210B0F102102F
:101D1000D4F10210E8F1021024F202104CF2021089
:101D20005CF20210B0F2021004F3021054F302103D
:101D3000A4F302108C5E0020945E0020F0F30210E9
:101D40003378002B1BD00CF07DFF2878002801D1C0
:101D5000FFF7ABFA23780135002BF1D043461B681F
:101D6000002BF2D04A46C94F11683F684A1CBA425C
:101D7000EBD258544F4600213A609954E5E723F0DE
:101D8000EBFBE2E723F0E8FB237895E7C04A17680E
:101D90009246002F01D102F0E0F8BE4A01251168F9
:101DA00088464544AC46B94D29688C4506D2614603
:101DB00011604146785400206146785430780028FC
:101DC00000D17CE751460F6811688C4629688A4625
:101DD0000021884689460136002F09D0614601312D
:101DE0008A4505D965467855484698468C467854C4
:101DF00030780028EFD14146002900D15FE76146E5
:101E000011605CE723F0A8FB237846E7A04A176837
:101E10009246002F01D102F08EF89E4A01251168EA
:101E200088464544AC46994D29688C4506D26146A2
:101E3000116041467854002061467854307800287B
:101E400000D12DE751460F6811688C4629688A46F3
:101E50000021884689460136002F09D061460131AC
:101E60008A4505D965467855484698468C46785443
:101E700030780028EFD14146002900D110E76146B3
:101E800011600DE723F068FB2378F5E6804A1768B8
:101E90009246002F01D102F0E7F87E4A0125116831
:101EA00088464544AC46794D29688C4506D2614642
:101EB00011604146785400206146785430780028FB
:101EC00000D1DCE651460F6811688C4629688A46C5
:101ED0000021884689460136002F09D0614601312C
:101EE0008A4505D965467855484698468C467854C3
:101EF00030780028EFD14146002900D1BFE6614685
:101F00001160BCE623F028FB2378A4E6604A17683A
:101F10009246002F01D102F07AF85E4A012511683D
:101F200088464544AC46594D29688C4506D26146E1
:101F3000116041467854002061467854307800287A
:101F400000D18BE651460F6811688C4629688A4695
:101F50000021884689460136002F09D061460131AB
:101F60008A4505D965467855484698468C46785442
:101F700030780028EFD14146002900D16EE6614655
:101F800011606BE623F0E8FA237853E6404A1768BD
:101F90009246002F01D101F0FBFF3E4A0125116856
:101FA00088464544AC46394D29688C4506D2614681
:101FB00011604146785400206146785430780028FA
:101FC00000D13AE651460F6811688C4629688A4666
:101FD0000021884689460136002F09D0614601312B
:101FE0008A4505D965467855484698468C467854C2
:101FF00030780028EFD14146002900D11DE6614626
:1020000011601AE623F0A8FA237802E6204A17683E
:102010009246002F01D102F042F81E4A01251168B4
:1020200088464544AC46194D29688C4506D2614620
:102030001160414678540020614678543078002879
:1020400000D1E9E551460F6811688C4629688A4637
:102050000021884689460136002F09D061460131AA
:102060008A4505D965467855484698468C46785441
:1020700030780028EFD14146002900D1CCE56146F7
:102080001160C9E523F068FA2378B1E5905E00207D
:102090008C5E0020945E0020C14A17689246002F93
:1020A00001D101F0F3FFBF4A01251168884645447C
:1020B000AC46BD4D29688C4506D26146116041464B
:1020C00078540020614678543078002800D192E599
:1020D00051460F6811688C4629688A460021884657
:1020E00089460136002F09D0614601318A4505D95C
:1020F00065467855484698468C467854307800288E
:10210000EFD14146002900D175E56146116072E5C5
:1021100023F022FA23785AE5A14A17689246002F45
:1021200001D101F06BFF9F4A0125116888464544A3
:10213000AC469D4D29688C4506D2614611604146EA
:1021400078540020614678543078002800D141E569
:1021500051460F6811688C4629688A4600218846D6
:1021600089460136002F09D0614601318A4505D9DB
:1021700065467855484698468C467854307800280D
:10218000EFD14146002900D124E56146116021E5E7
:1021900023F0E2F9237809E5814A17689246002F77
:1021A00001D101F058FF7F4A012511688846454456
:1021B000AC467D4D29688C4506D26146116041468A
:1021C00078540020614678543078002800D1F0E43B
:1021D00051460F6811688C4629688A460021884656
:1021E00089460136002F09D0614601318A4505D95B
:1021F00065467855484698468C467854307800288D
:10220000EFD14146002900D1D3E461461160D0E40A
:1022100023F0A2F92378B8E4614A17689246002FA8
:1022200001D101F006FF5F4A012511688846454447
:10223000AC465D4D29688C4506D261461160414629
:1022400078540020614678543078002800D19FE40B
:1022500051460F6811688C4629688A4600218846D5
:1022600089460136002F09D0614601318A4505D9DA
:1022700065467855484698468C467854307800280C
:10228000EFD14146002900D182E4614611607FE42C
:1022900023F062F9237867E4414A17689246002FD9
:1022A00001D101F0CFFE3F4A01251168884645441F
:1022B000AC463D4D29688C4506D2614611604146C9
:1022C00078540020614678543078002800D14EE4DC
:1022D00051460F6811688C4629688A460021884655
:1022E00089460136002F09D0614601318A4505D95A
:1022F00065467855484698468C467854307800288C
:10230000EFD14146002900D131E4614611602EE44D
:1023100023F022F9237816E4214A17689246002F09
:1023200001D101F0AAFE1F4A0125116888464544E3
:10233000AC461D4D29688C4506D261461160414668
:1023400078540020614678543078002801D1FFF796
:10235000FDFB51460F6811688C4629688A460021AA
:10236000884689460136002F09D0614601318A45E9
:1023700005D965467855484698468C467854307855
:102380000028EFD14146002901D1FFF7DFFB61466C
:102390001160FFF7DBFB23F0DFF82378FFF7C2FBC8
:1023A0008C5E0020945E0020905E0020CB4A17686F
:1023B0009246002F01D101F033FEC94A0125116870
:1023C00088464544AC46C74D29688C4506D26146CF
:1023D00011604146785400206146785430780028D6
:1023E00001D1FFF7A2FB51460F6811688C4629689E
:1023F0008A460021884689460136002F09D0614669
:1024000001318A4505D965467855484698468C4637
:10241000785430780028EFD14146002901D1FFF7E8
:1024200084FB61461160FFF780FB23F095F8237869
:10243000FFF765FBA94A17689246002F01D101F00A
:10244000D4FDA74A0125116888464544AC46A54DF0
:1024500029688C4506D261461160414678540020B7
:10246000614678543078002801D1FFF74BFB514684
:102470000F6811688C4629688A460021884689467B
:102480000136002F09D0614601318A4505D96546DC
:102490007855484698468C46785430780028EFD1D5
:1024A0004146002901D1FFF72DFB61461160FFF77E
:1024B00029FB23F051F82378FFF70EFB874A1768B2
:1024C0009246002F01D101F0F3FD854A01251168E4
:1024D00088464544AC46834D29688C4506D2614602
:1024E00011604146785400206146785430780028C5
:1024F00001D1FFF7F4FA51460F6811688C4629683C
:102500008A460021884689460136002F09D0614657
:1025100001318A4505D965467855484698468C4626
:10252000785430780028EFD14146002901D1FFF7D7
:10253000D6FA61461160FFF7D2FA23F00DF823783E
:10254000FFF7B7FA654A17689246002F01D101F0EC
:10255000E9FC634A0125116888464544AC46614D53
:1025600029688C4506D261461160414678540020A6
:10257000614678543078002801D1FFF79DFA514622
:102580000F6811688C4629688A460021884689466A
:102590000136002F09D0614601318A4505D96546CB
:1025A0007855484698468C46785430780028EFD1C4
:1025B0004146002901D1FFF77FFA61461160FFF71C
:1025C0007BFA22F0C9FF2378FFF760FA434A1768C5
:1025D0009246002F01D101F0E4FC414A0125116827
:1025E00088464544AC463F4D29688C4506D2614635
:1025F00011604146785400206146785430780028B4
:1026000001D1FFF746FA51460F6811688C462968D8
:102610008A460021884689460136002F09D0614646
:1026200001318A4505D965467855484698468C4615
:10263000785430780028EFD14146002901D1FFF7C6
:1026400028FA61461160FFF724FA22F085FF23780B
:10265000FFF709FA214A17689246002F01D101F0CD
:10266000B2FC1F4A0125116888464544AC461D4D01
:1026700029688C4506D26146116041467854002095
:10268000614678543078002801D1FFF7EFF95146C0
:102690000F6811688C4629688A4600218846894659
:1026A0000136002F09D0614601318A4505D96546BA
:1026B0007855484698468C46785430780028EFD1B3
:1026C0004146002901D1FFF7D1F961461160FFF7BA
:1026D000CDF922F041FF2378FFF7B2F98C5E00209C
:1026E000945E0020905E0020DD4A17689246002F1D
:1026F00001D101F044FCDB4A0125116888464544BC
:10270000AC46D94D29688C4506D2614611604146D8
:1027100078540020614678543078002801D1FFF7C2
:1027200092F951460F6811688C4629688A46002143
:10273000884689460136002F09D0614601318A4515
:1027400005D965467855484698468C467854307881
:102750000028EFD14146002901D1FFF774F9614605
:102760001160FFF770F922F0F7FE2378FFF755F9B3
:10277000BB4A17689246002F01D101F0F7FBB94A16
:102780000125116888464544AC46B74D29688C45FB
:1027900006D2614611604146785400206146785463
:1027A0003078002801D1FFF73BF951460F681168D6
:1027B0008C4629688A460021884689460136002FC2
:1027C00009D0614601318A4505D9654678554846A4
:1027D00098468C46785430780028EFD1414600293D
:1027E00001D1FFF71DF961461160FFF719F922F0D9
:1027F000B3FE2378FFF7FEF8994A17689246002F38
:1028000001D101F0E9FB974A01251168884645444A
:10281000AC46954D29688C4506D26146116041460B
:1028200078540020614678543078002801D1FFF7B1
:10283000E4F851460F6811688C4629688A460021E1
:10284000884689460136002F09D0614601318A4504
:1028500005D965467855484698468C467854307870
:102860000028EFD14146002901D1FFF7C6F86146A3
:102870001160FFF7C2F822F06FFE2378FFF7A7F888
:10288000774A17689246002F01D101F093FB754AF1
:102890000125116888464544AC46734D29688C452E
:1028A00006D2614611604146785400206146785452
:1028B0003078002801D1FFF78DF851460F68116874
:1028C0008C4629688A460021884689460136002FB1
:1028D00009D0614601318A4505D965467855484693
:1028E00098468C46785430780028EFD1414600292C
:1028F00001D1FFF76FF861461160FFF76BF822F026
:102900002BFE2378FFF750F8554A17689246002FA0
:1029100001D101F019FB534A1568A8460125454429
:10292000AC46514D29688C4506D26146116041463E
:1029300078540020614678543078002801D1FFF7A0
:1029400036F851460F6811688C4629688A4600217E
:10295000884689460136002F09D0614601318A45F3
:1029600005D965467855484698468C46785430785F
:102970000028EFD14146002901D1FFF718F8614640
:102980001160FFF714F8394C394E2378394D413036
:102990000136002B01D001F0E2FB2B78002B01D196
:1029A00001F0D8FB0CF04EF9237830780028EFD1F5
:1029B0002020314E2F4D0136002B01D001F0ACFB11
:1029C0002B78002B01D101F0A2FB0CF03BF923780E
:1029D00030780028EFD12020284E264D0136002BDC
:1029E00001D001F077FB2B78002B01D101F06DFBBA
:1029F0000CF028F9237830780028EFD1184A2020ED
:102A00009046184A1E4D91461A4E0CE03378002B22
:102A100001D101F056FB0CF015F92878002801D1FE
:102A2000FEF743FC23780135002BEFD043461B68AB
:102A3000002BF2D04A460C4F11683F684A1CBA423C
:102A4000EBD258544F4600213A609954E5E722F002
:102A500083FDFEF758FF22F07FFD2378FEF74CFC44
:102A60008C5E0020945E0020905E00203D49022094
:102A700088FD02103B4902209CFD0210D8FD021087
:102A80005CFE0210CB4A17689246002F01D101F07C
:102A9000CDFCC94AC94D11688846012141448C4684
:102AA00029688C4506D26146116041467854002061
:102AB000614678543078002801D1FEF720FC514659
:102AC0000F6811688C4629688A4600218846894625
:102AD0000136002F09D0614601318A4505D9654686
:102AE0007855484698468C46785430780028EFD17F
:102AF0004146002901D1FEF702FC61461160FEF754
:102B0000FEFB22F029FD2378FEF71CFCA94A17687A
:102B10009246002F01D101F009FDA74AA74D116887
:102B20008846012141448C4629688C4506D261467D
:102B3000116041467854002061467854307800286E
:102B400001D1FEF702FC51460F6811688C462968D6
:102B50008A460021884689460136002F09D0614601
:102B600001318A4505D965467855484698468C46D0
:102B7000785430780028EFD14146002901D1FEF782
:102B8000E4FB61461160FEF7E0FB22F0E5FC2378F0
:102B9000FEF7C5FB874A17689246002F01D101F066
:102BA000A5FC854A854D11688846012141448C4623
:102BB00029688C4506D26146116041467854002050
:102BC000614678543078002801D1FEF7ABFB5146BE
:102BD0000F6811688C4629688A4600218846894614
:102BE0000136002F09D0614601318A4505D9654675
:102BF0007855484698468C46785430780028EFD16E
:102C00004146002901D1FEF78DFB61461160FEF7B8
:102C100089FB22F0A1FC2378FEF7E0FB654A1768E8
:102C20009246002F01D101F058FC634A634D1168B0
:102C30008846012141448C4629688C4506D261466C
:102C4000116041467854002061467854307800285D
:102C500001D1FEF7C6FB51460F6811688C46296802
:102C60008A460021884689460136002F09D06146F0
:102C700001318A4505D965467855484698468C46BF
:102C8000785430780028EFD14146002901D1FEF771
:102C9000A8FB61461160FEF7A4FB22F05DFC2378DF
:102CA000FEF789FB434A17689246002F01D101F0D5
:102CB0000BFC414A414D11688846012141448C4634
:102CC00029688C4506D2614611604146785400203F
:102CD000614678543078002801D1FEF76FFB5146E9
:102CE0000F6811688C4629688A4600218846894603
:102CF0000136002F09D0614601318A4505D9654664
:102D00007855484698468C46785430780028EFD15C
:102D10004146002901D1FEF751FB61461160FEF7E3
:102D20004DFB22F019FC2378FEF732FB214A17688D
:102D30009246002F01D101F0BEFB1F4A1F4D1168C2
:102D40008846012141448C4629688C4506D261465B
:102D5000116041467854002061467854307800284C
:102D600001D1FEF718FB51460F6811688C4629689F
:102D70008A460021884689460136002F09D06146DF
:102D800001318A4505D965467855484698468C46AE
:102D9000785430780028EFD14146002901D1FEF760
:102DA000FAFA61461160FEF7F6FA22F0D5FB2378B5
:102DB000FEF7DBFA8C5E0020945E0020905E00201F
:102DC000CB4A17689246002F01D101F06BFBC94A2C
:102DD000C94D11688846012141448C4629688C45BB
:102DE00006D261461160414678540020614678540D
:102DF0003078002801D1FEF7BBFA51460F68116800
:102E00008C4629688A460021884689460136002F6B
:102E100009D0614601318A4505D96546785548464D
:102E200098468C46785430780028EFD141460029E6
:102E300001D1FEF79DFA61461160FEF799FA22F082
:102E40008BFB2378FEF74DFDA94A17689246002FA9
:102E500001D101F08FFBA74AA74D116888460121D7
:102E600041448C4629688C4506D261461160414632
:102E700078540020614678543078002801D1FEF75C
:102E800033FD51460F6811688C4629688A46002137
:102E9000884689460136002F09D0614601318A45AE
:102EA00005D965467855484698468C46785430781A
:102EB0000028EFD14146002901D1FEF715FD6146FA
:102EC0001160FEF711FD22F047FB2378FEF7F6FCB8
:102ED000874A17689246002F01D101F042FB854ACC
:102EE000854D11688846012141448C4629688C45EE
:102EF00006D26146116041467854002061467854FC
:102F00003078002801D1FEF7DCFC51460F681168CB
:102F10008C4629688A460021884689460136002F5A
:102F200009D0614601318A4505D96546785548463C
:102F300098468C46785430780028EFD141460029D5
:102F400001D1FEF7BEFC61461160FEF7BAFC22F02B
:102F500003FB2378FEF79FFC654A17689246002F13
:102F600001D101F0F5FA634A634D116888460121E9
:102F700041448C4629688C4506D261461160414621
:102F800078540020614678543078002801D1FEF74B
:102F900085FC51460F6811688C4629688A460021D5
:102FA000884689460136002F09D0614601318A459D
:102FB00005D965467855484698468C467854307809
:102FC0000028EFD14146002901D1FEF767FC614698
:102FD0001160FEF763FC22F0BFFA2378FEF748FC8D
:102FE000434A17689246002F01D101F0A8FA414ADE
:102FF000414D11688846012141448C4629688C4521
:1030000006D26146116041467854002061467854EA
:103010003078002801D1FEF72EFC51460F68116868
:103020008C4629688A460021884689460136002F49
:1030300009D0614601318A4505D96546785548462B
:1030400098468C46785430780028EFD141460029C4
:1030500001D1FEF710FC61461160FEF70CFC22F076
:103060007BFA2378FEF7F1FB214A17689246002F7E
:1030700001D101F0A3FA1F4A1F4D116888460121B2
:1030800041448C4629688C4506D261461160414610
:1030900078540020614678543078002801D1FEF73A
:1030A000D7FB51460F6811688C4629688A46002173
:1030B000884689460136002F09D0614601318A458C
:1030C00005D965467855484698468C4678543078F8
:1030D0000028EFD14146002901D1FEF7B9FB614636
:1030E0001160FEF7B5FB22F037FA2378FEF79AFB62
:1030F0008C5E0020945E0020905E0020CB4A176812
:103100009246002F01D101F050FAC94AC94D116809
:103110008846012141448C4629688C4506D2614687
:103120001160414678540020614678543078002878
:1031300001D1FEF77AFB51460F6811688C46296869
:103140008A460021884689460136002F09D061460B
:1031500001318A4505D965467855484698468C46DA
:10316000785430780028EFD14146002901D1FEF78C
:103170005CFB61461160FEF758FB22F0EDF9237805
:10318000FEF73DFBA94A17689246002F01D101F0D6
:1031900003FAA74AA74D11688846012141448C468D
:1031A00029688C4506D2614611604146785400205A
:1031B000614678543078002801D1FEF723FB514650
:1031C0000F6811688C4629688A460021884689461E
:1031D0000136002F09D0614601318A4505D965467F
:1031E0007855484698468C46785430780028EFD178
:1031F0004146002901D1FEF705FB61461160FEF74B
:1032000001FB22F0A9F92378FEF7E6FA874A17684E
:103210009246002F01D101F0B6F9854A854D11681B
:103220008846012141448C4629688C4506D2614676
:103230001160414678540020614678543078002867
:1032400001D1FEF7CCFA51460F6811688C46296807
:103250008A460021884689460136002F09D06146FA
:1032600001318A4505D965467855484698468C46C9
:10327000785430780028EFD14146002901D1FEF77B
:10328000AEFA61461160FEF7AAFA22F065F92378DA
:10329000FEF78FFA654A17689246002F01D101F0B8
:1032A000B1F9634A634D11688846012141448C4657
:1032B00029688C4506D26146116041467854002049
:1032C000614678543078002801D1FEF775FA5146EE
:1032D0000F6811688C4629688A460021884689460D
:1032E0000136002F09D0614601318A4505D965466E
:1032F0007855484698468C46785430780028EFD167
:103300004146002901D1FEF757FA61461160FEF7E8
:1033100053FA22F021F92378FEF738FA434A176866
:103320009246002F01D101F064F9414A414D1168E4
:103330008846012141448C4629688C4506D2614665
:103340001160414678540020614678543078002856
:1033500001D1FEF71EFA51460F6811688C462968A4
:103360008A460021884689460136002F09D06146E9
:1033700001318A4505D965467855484698468C46B8
:10338000785430780028EFD14146002901D1FEF76A
:1033900000FA61461160FEF7FCF922F0DDF82378AF
:1033A000FEF7E1F9214A17689246002F01D101F09A
:1033B00017F91F4A1F4D11688846012141448C4668
:1033C00029688C4506D26146116041467854002038
:1033D000614678543078002801D1FEF7C7F951468C
:1033E0000F6811688C4629688A46002188468946FC
:1033F0000136002F09D0614601318A4505D965465D
:103400007855484698468C46785430780028EFD155
:103410004146002901D1FEF7A9F961461160FEF786
:10342000A5F922F099F82378FEF78AF98C5E00203E
:10343000945E0020905E0020CB4A17689246002FD1
:1034400001D101F0C4F8C94AC94D1168884601216B
:1034500041448C4629688C4506D26146116041463C
:1034600078540020614678543078002801D1FEF766
:103470006AF951460F6811688C4629688A4600210E
:10348000884689460136002F09D0614601318A45B8
:1034900005D965467855484698468C467854307824
:1034A0000028EFD14146002901D1FEF74CF96146D1
:1034B0001160FEF748F922F04FF82378FEF72DF956
:1034C000A94A17689246002F01D101F0BFF8A74A18
:1034D000A74D11688846012141448C4629688C45D6
:1034E00006D2614611604146785400206146785406
:1034F0003078002801D1FEF713F951460F681168A2
:103500008C4629688A460021884689460136002F64
:1035100009D0614601318A4505D965467855484646
:1035200098468C46785430780028EFD141460029DF
:1035300001D1FEF7F5F861461160FEF7F1F822F0CF
:103540000BF82378FEF7D6F8874A17689246002FC3
:1035500001D101F072F8854A854D11688846012134
:1035600041448C4629688C4506D26146116041462B
:1035700078540020614678543078002801D1FEF755
:10358000BCF851460F6811688C4629688A460021AC
:10359000884689460136002F09D0614601318A45A7
:1035A00005D965467855484698468C467854307813
:1035B0000028EFD14146002901D1FEF79EF861466F
:1035C0001160FEF79AF821F0C7FF2378FEF749F85B
:1035D000654A17689246002F01D101F025F8634A29
:1035E000634D11688846012141448C4629688C4509
:1035F00006D26146116041467854002061467854F5
:103600003078002801D1FEF765F851460F6811683F
:103610008C4629688A460021884689460136002F53
:1036200009D0614601318A4505D965467855484635
:1036300098468C46785430780028EFD141460029CE
:1036400001D1FEF747F861461160FEF743F821F01B
:1036500083FF2378FDF7F2FF434A17689246002F55
:1036600001D100F0D8FF414A414D1168884601213F
:1036700041448C4629688C4506D26146116041461A
:1036800078540020614678543078002801D1FDF745
:10369000D8FF51460F6811688C4629688A46002178
:1036A000884689460136002F09D0614601318A4596
:1036B00005D965467855484698468C467854307802
:1036C0000028EFD14146002901D1FDF7BAFF61463C
:1036D0001160FDF7B6FF21F03FFF2378FDF79BFF58
:1036E000214A17689246002F01D100F0D3FF1F4AEC
:1036F0001F4D11688846012141448C4629688C453C
:1037000006D26146116041467854002061467854E3
:103710003078002801D1FDF781FF51460F6811680C
:103720008C4629688A460021884689460136002F42
:1037300009D0614601318A4505D965467855484624
:1037400098468C46785430780028EFD141460029BD
:1037500001D1FDF763FF61461160FDF75FFF21F0C6
:10376000FBFE2378FDF744FF8C5E0020945E002072
:10377000905E0020CB4A17689246002F01D100F0DE
:1037800080FFC94AC94D11688846012141448C46D1
:1037900029688C4506D26146116041467854002064
:1037A000614678543078002801D1FDF724FF514656
:1037B0000F6811688C4629688A4600218846894628
:1037C0000136002F09D0614601318A4505D9654689
:1037D0007855484698468C46785430780028EFD182
:1037E0004146002901D1FDF706FF61461160FDF752
:1037F00002FF21F0B1FE2378FDF7E7FEA94A176822
:103800009246002F01D100F033FFA74AA74D11685F
:103810008846012141448C4629688C4506D2614680
:103820001160414678540020614678543078002871
:1038300001D1FDF7CDFE51460F6811688C4629680D
:103840008A460021884689460136002F09D0614604
:1038500001318A4505D965467855484698468C46D3
:10386000785430780028EFD14146002901D1FDF786
:10387000AFFE61461160FDF7ABFE21F06DFE2378CF
:10388000FDF790FE874A17689246002F01D100F09D
:10389000E6FE854A854D11688846012141448C46E3
:1038A00029688C4506D26146116041467854002053
:1038B000614678543078002801D1FDF776FE5146F4
:1038C0000F6811688C4629688A4600218846894617
:1038D0000136002F09D0614601318A4505D9654678
:1038E0007855484698468C46785430780028EFD171
:1038F0004146002901D1FDF758FE61461160FDF7F0
:1039000054FE21F029FE2378FDF739FE654A176839
:103910009246002F01D100F0E1FE634A634D116829
:103920008846012141448C4629688C4506D261466F
:103930001160414678540020614678543078002860
:1039400001D1FDF71FFE51460F6811688C462968AA
:103950008A460021884689460136002F09D06146F3
:1039600001318A4505D965467855484698468C46C2
:10397000785430780028EFD14146002901D1FDF775
:1039800001FE61461160FDF7FDFD21F0E5FD2378A4
:10399000FDF7E2FD434A17689246002F01D100F07F
:1039A00094FE414A414D11688846012141448C46AC
:1039B00029688C4506D26146116041467854002042
:1039C000614678543078002801D1FDF7C8FD514692
:1039D0000F6811688C4629688A4600218846894606
:1039E0000136002F09D0614601318A4505D9654667
:1039F0007855484698468C46785430780028EFD160
:103A00004146002901D1FDF7AAFD61461160FDF78D
:103A1000A6FD21F0A1FD2378FDF78BFD214A176853
:103A20009246002F01D100F047FE1F4A1F4D11683A
:103A30008846012141448C4629688C4506D261465E
:103A4000116041467854002061467854307800284F
:103A500001D1FDF771FD51460F6811688C46296848
:103A60008A460021884689460136002F09D06146E2
:103A700001318A4505D965467855484698468C46B1
:103A8000785430780028EFD14146002901D1FDF764
:103A900053FD61461160FDF74FFD21F05DFD237878
:103AA000FDF734FD8C5E0020945E0020905E0020C7
:103AB000CA4A17689246002F01D100F0F4FDC84AA7
:103AC000C84D11688846012141448C4629688C45BF
:103AD00006D2614611604146785400206146785410
:103AE0003078002801D1FDF714FD51460F681168A8
:103AF0008C4629688A460021884689460136002F6F
:103B000009D0614601318A4505D965467855484650
:103B100098468C46785430780028EFD141460029E9
:103B200001D1FDF7F6FC61461160FDF7F2FC21F0D2
:103B300013FD2378FDF7D7FCA84A17689246002F9B
:103B400001D100F0A6FCA64AA64D116888460121C5
:103B500041448C4629688C4506D261461160414635
:103B600078540020614678543078002801D1FDF760
:103B7000BDFC51460F6811688C4629688A460021B1
:103B8000884689460136002F09D0614601318A45B1
:103B900005D965467855484698468C46785430781D
:103BA0000028EFD14146002901D1FDF79FFC614675
:103BB0001160FDF79BFC21F0CFFC2378FDF780FC22
:103BC000864A17689246002F01D100F059FC844ABA
:103BD000844D11688846012141448C4629688C45F2
:103BE00006D26146116041467854002061467854FF
:103BF0003078002801D1FDF766FC51460F68116846
:103C00008C4629688A460021884689460136002F5D
:103C100009D0614601318A4505D96546785548463F
:103C200098468C46785430780028EFD141460029D8
:103C300001D1FDF748FC61461160FDF744FC21F01D
:103C40008BFC2378FDF729FC644A17689246002F05
:103C500001D100F00CFC624A624D116888460121D6
:103C600041448C4629688C4506D261461160414624
:103C700078540020614678543078002801D1FDF74F
:103C80000FFC51460F6811688C4629688A4600214E
:103C9000884689460136002F09D0614601318A45A0
:103CA00005D965467855484698468C46785430780C
:103CB0000028EFD14146002901D1FDF7F1FB614613
:103CC0001160FDF7EDFB21F047FC2378FDF7D2FBF7
:103CD000424A17689246002F00D1C0E3404A414D46
:103CE00011688846012141448C4629688C4506D2DA
:103CF000614611604146785400206146785430781E
:103D0000002801D1FDF7B9FB51460F6811688C46B8
:103D100029688A460021884689460136002F09D045
:103D2000614601318A4505D9654678554846984629
:103D30008C46785430780028EFD14146002901D1D3
:103D4000FDF79BFB61461160FDF797FB21F004FC3A
:103D50002378FDF77CFB214A17689246002F00D19B
:103D600075E31F4A1F4D11688846012141448C4666
:103D700029688C4506D2614611604146785400207E
:103D8000614678543078002801D1FDF763FB514635
:103D90000F6811688C4629688A4600218846894642
:103DA0000136002F09D0614601318A4505D96546A3
:103DB0007855484698468C46785430780028EFD19C
:103DC0004146002901D1FDF745FB61461160FDF731
:103DD00041FB21F0C1FB2378FDF726FB8C5E002020
:103DE000945E0020905E0020EB4A17689246002FF8
:103DF00000D124E3E94AEA4D116888460121414493
:103E00008C4629688C4506D261461160414678543B
:103E10000020614678543078002801D1FDF707FB77
:103E200051460F6811688C4629688A4600218846E9
:103E300089460136002F09D0614601318A4505D9EE
:103E400065467855484698468C4678543078002820
:103E5000EFD14146002901D1FDF7E9FA6146116031
:103E6000FDF7E5FA21F078FB2378FDF7CAFACA4A94
:103E700017689246002F00D1D0E2C84AC84D116899
:103E80008846012141448C4629688C4506D261460A
:103E900011604146785400206146785430780028FB
:103EA00001D1FDF7B1FA51460F6811688C462968B7
:103EB0008A460021884689460136002F09D061468E
:103EC00001318A4505D965467855484698468C465D
:103ED000785430780028EFD14146002901D1FDF710
:103EE00093FA61461160FDF78FFA21F035FBFDF77B
:103EF000D9F9A94A14689246002C00D1F7E3A74AE1
:103F0000A74D11688C464F1C29688F4204D2614628
:103F1000605400201760E0553078002800D0EDE3B1
:103F2000FDF7C3F93078002801D1FDF7C5FD9B4AA4
:103F30009B4DFEF724FB3078002801D1FDF7B0FE41
:103F4000964A974DFDF77EFF3078002801D1FDF7A6
:103F50002EFD924A924DFEF7F4FC3078002801D1F4
:103F6000FDF7ADFE8D4A8E4DFDF72CFF3078002811
:103F700001D1FDF755FD894A894DFEF716FC3078D1
:103F8000002801D1FDF75FFD844A854DFEF7C9FB8E
:103F90003078002801D1FDF750FE804A804DFEF7B1
:103FA00011F83078002801D1FDF773FD7B4A7C4D74
:103FB000FEF729FB3078002801D1FDF70BFD774A89
:103FC000774DFEF77AFC3078002801D1FDF74EFDE1
:103FD000724A734DFEF75BFB3078002801D1FDF784
:103FE0000CFD6E4A6E4DFEF724FC3078002801D19E
:103FF000FDF788FD694A6A4DFEF739FA30780028E6
:1040000001D1FDF7E7FD654A654DFEF7A1F830786F
:10401000002801D1FDF722FE604A614DFDF792FFB5
:104020003078002801D1FDF780FD5C4A5C4DFEF739
:10403000DAF93078002801D1FDF7AAFD574A584D2A
:10404000FEF706F93078002801D1FDF790FD534ABC
:10405000534DFEF73DF93078002801D1FDF7A9FD59
:104060004E4A4F4DFEF7B4F83078002801D1FDF7E5
:1040700006FE4A4A4A4DFDF725FF3078002801D157
:10408000FDF764FD454A464DFEF763F93078002898
:1040900001D1FDF7B0FD414A414DFEF719F83078E6
:1040A000002801D1FDF7B8FD3C4A3D4DFDF7CAFFA0
:1040B0003078002801D1FDF712FD384A384DFEF75F
:1040C0001AFA21F049FAFEF7A8FC21F045FA237804
:1040D000FEF791FC304A17689246002F00D1C9E3E1
:1040E0002E4A2F4D11688846012141448C4629688B
:1040F0008C4506D2614611604146785400206146E5
:1041000078543078002800D0BBE3FEF777FC21F02C
:1041100023FA2378FEF75CFC1F4A17689246002FAB
:1041200001D100F0FEFB1D4A1D4D1168884601219A
:1041300041448C4629688C4506D26146116041464F
:1041400078540020614678543078002800D0EFE39E
:10415000FEF741FC21F000FA2378FEF726FC0E4A18
:1041600017689246002F00D1B2E30C4A0C4D11683B
:104170008846012141448C4629688C4506D2614617
:104180001160414678540020614678543078002808
:1041900000D0A4E3FEF70CFC8C5E0020945E0020AF
:1041A000905E0020D64CD74E2378D74D4C30013648
:1041B000002B00D0F7E02B78002B00D1EFE00AF0C5
:1041C00041FD237830780028F1D12020CF4ECE4D0C
:1041D0000136002B00D0C6E02B78002B00D1BEE0CA
:1041E0000AF030FD237830780028F1D12020C84E25
:1041F000C54D0136002B00D095E02B78002B00D167
:104200008DE00AF01FFD237830780028F1D12020BE
:10421000C04EBD4D0136002B65D12B78002B5ED0F2
:104220000AF010FD237830780028F3D12020BA4E10
:10423000B54D0136002B36D12B78002B2CD00AF04F
:1042400001FD237830780028F3D1B44A202090462D
:10425000B34AB44D9146AC4E0AE03378002B1FD0E0
:104260000AF0F0FC2878002801D1FDF71EF8237829
:104270000135002BF1D043461B68002BF2D04A4693
:10428000A94F11683F684A1CBA42EBD258544F46B6
:1042900000213A609954E5E721F05EF92378D1E7EF
:1042A00021F05AF9DEE79D4A17689246002F00D1A7
:1042B000BAE29B4A9C4D11688846012141448C46D4
:1042C00029688C4506D26146116041467854002029
:1042D000614678543078002800D0ABE2B5E721F091
:1042E0003BF923789FE78D4A17689246002F00D14B
:1042F00074E28B4A8C4D11688846012141448C46FA
:1043000029688C4506D261461160414678540020E8
:10431000614678543078002800D065E286E721F0C5
:104320001BF9237870E77D4A17689246002F00D169
:104330002EE27B4A7C4D11688846012141448C461F
:1043400029688C4506D261461160414678540020A8
:10435000614678543078002800D01FE257E721F0FA
:10436000FBF823783FE76D4A17689246002F00D18B
:10437000E8E16B4A6C4D11688846012141448C4646
:1043800029688C4506D26146116041467854002068
:10439000614678543078002800D0D9E126E721F032
:1043A000DBF823780EE75D4A17689246002F00D1AC
:1043B000C1E15B4A5C4D11688846012141448C464D
:1043C00029688C4506D26146116041467854002028
:1043D000614678543078002800D1F6E651460F68DF
:1043E00011688C4629688A4600218846894601362C
:1043F000002F09D0614601318A4505D965467855B7
:10440000484698468C46785430780028EFD141468B
:10441000002900D1D9E661461160D6E6307800283F
:1044200001D1FCF7F1FF3E4A3F4D3CE530780028D2
:1044300001D1FCF764FF3A4A3B4DFEF740FB307870
:10444000002801D1FCF7F3FF354A374DE8E4307816
:10445000002801D1FCF7FEFF314A334D97E4307854
:10446000002801D1FDF709F82D4A2F4D4CE4307892
:10447000002801D1FDF714F8294A2B4DFFF701FC64
:104480003078002801D1FDF71EF8254A264DFFF7A8
:10449000B4FB3078002801D1FDF728F8204A224DDE
:1044A000FFF767FB3078002801D1FCF761FF1C4A59
:1044B0001D4DFEF7A2FC3078002801D1FCF76BFF00
:1044C000174A194DFEF74FFC3078002801D1FCF750
:1044D00075FF134A144DFEF702FC3078002801D115
:1044E000FCF77FFF0E4A104DFEF7B5FB3078002831
:1044F00001D1FCF717FF0A4A0B4DFEF768FBC046D7
:104500003D49022048FC02103B49022058FC0210A1
:104510009CFC0210E0FC02101CFD02108C5E0020CE
:10452000945E002050FD0210905E0020307800283C
:1045300001D1FCF70AFFE44AE44DFEF704FB3078B2
:10454000002801D1FDF797F9DF4AE04DFEF765FD40
:104550003078002801D1FDF7A1F9DB4ADB4DFEF7E9
:1045600018FD3078002801D1FDF7ABF9D64AD74DB8
:10457000FEF7CBFC3078002801D1FDF7B5F9D24A1F
:10458000D24DFEF77EFC3078002801D1FDF727F9E7
:10459000CD4ACE4DFEF757FE3078002801D1FDF709
:1045A00031F9C94AC94DFEF70AFE3078002801D119
:1045B000FDF73BF9C44AC54DFEF7BDFD3078002834
:1045C00001D1FDF745F9C04AC04DFEF76AFD3078CC
:1045D000002801D1FDF7B7F8BB4ABC4DFEF749FFF3
:1045E0003078002801D1FDF7C1F8B74AB74DFEF782
:1045F000F6FE3078002801D1FDF7CBF8B24AB34D72
:10460000FEF7A9FE3078002801D1FDF7D5F8AE4AB3
:10461000AE4DFEF75CFE3078002801D1FDF711F8B1
:10462000A94AAA4DFFF735F83078002801D1FDF7E7
:1046300051F8A54AA54DFEF7E8FF3078002801D1D2
:10464000FDF75BF8A04AA14DFEF79BFF30780028EC
:1046500001D1FDF765F89C4A9C4DFEF74EFF30787E
:10466000002801D1FCF7A1FF974A984DFFF727F9E1
:104670003078002801D1FCF7ABFF934A934DFFF748
:10468000DAF83078002801D1FCF7B5FF8E4A8F4D5B
:10469000FFF78DF83078002801D1FCF7BFFF8A4A78
:1046A0008A4DFFF73AF83078002801D1FCF731FF46
:1046B000854A864DFFF719FA3078002801D1FCF7BA
:1046C0003BFF814A814DFFF7C6F93078002801D1C0
:1046D000FCF745FF7C4A7D4DFFF779F930780028DB
:1046E00001D1FCF74FFF784A784DFFF72CF930786D
:1046F000002801D1FCF7D9FD734A744D51460C686E
:1047000000218C46884617682D680136002C07D09A
:10471000791C8D4204D9E05540469C460F006054F8
:1047200030780028F1D16346002B01D1FCF7BDFDA4
:104730001760FCF7BAFD3078002800D145E5624AE1
:10474000624D4BE63078002800D14FE55E4A5F4D60
:1047500051460F6811688C4629688A4600218846B0
:1047600089460136002F09D0614601318A4505D9B5
:1047700065467855484698468C46785430780028E7
:10478000EFD14146002900D130E5614611602DE5A9
:104790003078002800D13AE54B4A4C4D51460F681D
:1047A00011688C4629688A46002188468946013668
:1047B000002F09D0614601318A4505D965467855F3
:1047C000484698468C46785430780028EFD14146C8
:1047D000002900D11BE56146116018E530780028FA
:1047E00000D123E5384A394D51460F6811688C468F
:1047F00029688A460021884689460136002F09D05B
:10480000614601318A4505D965467855484698463E
:104810008C46785430780028EFD14146002900D1E9
:1048200004E56146116001E53078002800D10CE50F
:10483000254A264D51460F6811688C4629688A46DC
:104840000021884689460136002F09D06146013192
:104850008A4505D965467855484698468C46785429
:1048600030780028EFD14146002900D1EDE46146BF
:104870001160EAE43078002801D1FEF7BFF8124A4F
:10488000124D51460F6811688C4629688A460021EE
:10489000884689460136002F09D0614601318A4594
:1048A00005D965467855484698468C467854307800
:1048B0000028EFD14146002901D1FEF79FF861465B
:1048C0001160FEF79BF8C046945E0020905E0020C9
:1048D0003078002801D1FEF76BF8264A264D514664
:1048E0000F6811688C4629688A46002188468946E7
:1048F0000136002F09D0614601318A4505D9654648
:104900007855484698468C46785430780028EFD140
:104910004146002901D1FEF74BF861461160FEF7D0
:1049200047F83078002801D1FEF755F8114A124DAA
:1049300051460F6811688C4629688A4600218846CE
:1049400089460136002F09D0614601318A4505D9D3
:1049500065467855484698468C4678543078002805
:10496000EFD14146002901D1FEF735F861461160CB
:10497000FEF731F8945E0020905E0020F0B54E46C0
:10498000DE4657464546E0B5C04C03788146A5440F
:10499000002B13D004000025012207E0002D01D1D7
:1049A0003E2B52D063780134002B07D0222BF5D157
:1049B000637855400134EDB2002BF7D10025002477
:1049C000484624F039FD002813D001214A46B04E54
:1049D00008E037001F410B003B40394208D1135417
:1049E000002805D00138135C093BDBB2172BF0D946
:1049F00091467C21484624F07BFC002800D12DE123
:104A00000023461C0370484624F016FD002815D0EC
:104A10000121A4464A469E4F08E03C001C410B0081
:104A20002340214208D11354002805D00138135CDB
:104A3000093BDBB2172BF0D9644691463778202F1B
:104A400001D0092F24D10136F8E7637825703E2B79
:104A500000D1B1E363780134202BFBD0092BF9D0CE
:104A6000200024F0E9FC0028AAD00121884E08E0AB
:104A700032001A410B0013401142A1D123540028E7
:104A80009ED00138235C093BDBB2172B98D8EFE7A7
:104A9000300024F0D1FC002812D001217C4F08E026
:104AA0003A001A410B001340114208D13354002838
:104AB00005D00138335C093BDBB2172BF0D93778CE
:104AC000002F29D03000734924F072FC002823D035
:104AD0003000714924F06CFC00281DD04F206F4C31
:104AE0006F4F704D3A780134002A00D0A8E12B783E
:104AF000002B00D1A1E10AF0A5F820780028F1D11F
:104B000000234A461370D1239B009D44F0BCBB4652
:104B1000B246A946A046F0BD4B461B78002BF2D00A
:104B200001200AF081F801230293002C00D19FE0BC
:104B3000002223789346002B05D05B4B1B789B46C5
:104B4000002B00D01BE14B461A78222A05D196E0B3
:104B5000202A00D1D0E05A780133002AF8D1484603
:104B60005249002724F024FC002800D1CEE0504B0D
:104B700048461900984624F01BFC002800D191E11A
:104B800048464C4924F014FC8046002800D10EE130
:104B90004846494924F00CFC8046002800D115E322
:104BA0004846464924F004FC8046002801D100F024
:104BB0005AFC4846424924F0FBFB002801D100F092
:104BC0007BFD48463F4924F0F3FB002801D100F06B
:104BD000FAFB48463C4924F0EBFB002801D101F0E8
:104BE0001AF84846394924F0E3FB002801D101F0C6
:104BF000A9FA4846364924F0DBFB002801D101F030
:104C000038FB4846334924F0D3FB002801D101F09A
:104C10009FFC4846304924F0CBFB002801D101F02D
:104C200084FD48462D4924F0C3FB002801D101F042
:104C30006DFD4B461E786C2E01D001F010FE5B78A6
:104C4000732B01D001F00BFE4B469B78002B01D05B
:104C500001F005FE3800FBF779FE5AE04B461B7861
:104C6000002B00D14FE700230293002C00D05FE718
:104C700000239B464B461A78222A00D06DE74A460D
:104C800052780133002A30D169E7C046BCFCFFFFEF
:104C9000ECFF7FFFF4030310FC03031038FF021046
:104CA0003D4902203B4902203849022004040310F8
:104CB0000C040310F0040310E0040310E8040310D4
:104CC0007005031098050310AC050310940603103B
:104CD000400503109C060310B806031010040310CF
:104CE0005A780133002A00D139E7222AF8D15A78BC
:104CF0000133202A00D032E7002248468D491A703D
:104D00005F1C24F055FB002800D030E73800FCF78A
:104D100095FA029B012B1CD05B46002B00D1F2E6DA
:104D20000022854B200050A91A70FBF73FFB002D95
:104D300034D150A809F018F9804B814E19683268B7
:104D400050A8984609F0E8FA002342463360136001
:104D5000D9E67C4B00201E7809F066FF002EDBD0E0
:104D6000754B1B78002B01D000F067FC764B0A20B6
:104D70001B78002B00D123E309F064FFCCE78021EE
:104D80006E4B724A49011A60714B6D4E19600023D7
:104D9000694F3360137001333B70D4E6674B684E44
:104DA0001968326850A8984609F01AFDCCE7002F20
:104DB00001D100F058FC380024F03EFB0200FF282F
:104DC00000D965E210AEB3189946390030001EF0E4
:104DD000B9FE00234A4613703778202F01D0092FDF
:104DE00001D10136F8E7002F00D10AE2300059491D
:104DF00024F0DEFA8046002801D101F0E2F8042216
:104E00003000554924F046FB002808D00522300028
:104E1000524924F03FFB002801D001F0F0F938009E
:104E20007238431E9841043030180378202B02D08A
:104E3000092B00D082E20130F7E720F08DFB5CE621
:104E40003E4B924619689846002900D1ADE13C4E90
:104E50003F4B37681A687D1C954203D2C855002025
:104E6000356048552178002900D149E642461F683F
:104E7000002310689C469846524635680134002845
:104E800007D06B1CBB4204D24155414694461D00DD
:104E9000C15421780029F1D16346002B00D12FE6BF
:104EA00035602DE650901C22002151A81EF044FED2
:104EB000002F01D100F04CFD3B78202B01D0092BB5
:104EC00001D10137F8E70022002B18D024490AA8A5
:104ED0008A4618218446FF3161440826A4463C00D6
:104EE000574608E00132202A01D100F036FD8B54EC
:104EF000A35C002B02D0F85C0642F3D0644600238A
:104F000050AEB3543778002F01D100F021FD3000AE
:104F1000144924F04DFA002807D06C2F26D173785D
:104F2000732B23D1B378002B20D10F48FCF786F9DF
:104F3000EFE6C046040403103D4902208C5E0020C9
:104F4000945E0020424902203B49022000FD0120DE
:104F5000905E002040050310480503105005031023
:104F60001959031010040310A80403103378632B9D
:104F700000D11CE23000C74924F01AFA0028D4D02E
:104F80003000C54924F014FA0028CED03000C349BF
:104F900024F00EFA0028C8D03000C14924F008FAE5
:104FA0000028C2D03000BF4924F002FA0028BCD04B
:104FB0003378722B05D173786D2B02D1B378002B27
:104FC000B3D03378632B05D17378702B02D1B378CB
:104FD000002BAAD033786D2B05D17378762B02D1B4
:104FE000B378002BA1D03000AF4924F0E1F90028BC
:104FF0009BD03000AD4924F0DBF9002895D030007B
:10500000AB4924F0D5F900288FD03000A94924F00D
:10501000CFF9002889D03000A74924F0C9F9002829
:1050200083D03000A54924F0C3F9002800D17CE7E3
:105030003000A34924F0BCF9002800D175E7300006
:10504000A04924F0B5F9002800D16EE730009E4950
:1050500024F0AEF9002800D167E730009B4924F026
:10506000A7F9002800D160E73000994924F0A0F9A1
:10507000002800D159E73000964924F099F900281A
:1050800000D152E73000944924F092F9002800D171
:105090004BE73000914924F08BF9002800D144E718
:1050A00030008F4924F084F9002800D13DE730001A
:1050B0008C4924F07DF9002801D101F0FCFD30007D
:1050C000894924F075F9002801D101F0F4FD300080
:1050D000864924F06DF9002801D101F0ECFD300083
:1050E000834924F065F9002801D101F0ADFD3000BD
:1050F000804924F05DF9002801D101F0A5FD3000C0
:105100007D4924F055F9002801D101F09DFD3000C2
:105110007A4924F04DF9002801D101F095FD3000C5
:10512000774924F045F9002801D101F08DFD3000C8
:10513000744924F03DF9002801D101F0B7FD300099
:10514000714924F035F9002801D101F0AFFD30009C
:105150006E4924F02DF9002801D101F0A7FD30009F
:105160006B4924F025F9002801D101F0FEFC300044
:10517000684924F01DF9002801D101F0F6FC300047
:10518000654924F015F9002801D101F0EEFC4146F3
:10519000300024F00DF9614F002801D101F0EAFC44
:1051A00031005F48FBF7EAFAB3E52178002900D126
:1051B000A6E45C4E5C4B59E602342378202B01D0E8
:1051C000092B01D10134F8E7012549E4002F00D172
:1051D0000CE1380024F030F90200FF2800D9FF224A
:1051E00050AEB3189946390030001EF0ABFC0023D6
:1051F0004A4613703378202B01D0092B2CD101366D
:10520000F8E74A4F3B68002B00D1AEE300DC80E5B5
:10521000474A1F269246474A9146474A03921A0038
:105220005346A2464446A8461D0021002B6801347F
:105230009B1A5B184033D917C90E5A183240521ABC
:1052400012024A4421000398FBF798FA3A68944204
:10525000EBDB454654465CE53200002B03D100F001
:105260005BFD092B09D03D2B07D053780132002B71
:1052700001D100F04DFE202BF3D10021571C1170FD
:105280003A78202A02D0092A00D0B4E00137F7E7A3
:10529000FF2297E5180403101C04031020040310D8
:1052A00028040310300403103804031040040310D2
:1052B000480403104C040310284403105004031046
:1052C00058040310600403106804031070040310F2
:1052D000780403108004031088040310940403105E
:1052E0009C040310AC040310B4040310B8040310AE
:1052F000C0040310C8040310D0040310D804031022
:105300008842031030FF0210A804031028FF021087
:10531000E0040310E8040310F00403106800031015
:10532000F8040310945E0020905E0020705E002060
:10533000745E0020703E00203405031023F0E2F973
:10534000013801D500F0E7FDCA4B1A68904201DB35
:1053500000F0E1FD1F27C84B1B689B1A1B18403348
:10536000DA17D20E9B181F40BF1AC44B3F02FF181A
:10537000380024F061F80600FF2800D9FF2632002B
:10538000390050A81EF0DEFBC6239B00F6180AABBE
:105390009C46BB4B66449C4600236644B948337028
:1053A00050A9FBF7EBF950A802F0AEFBB1E473781B
:1053B000642B00D0DEE5B378002B00D1B5E5D9E54C
:1053C00020F0CAF8A8E4B04B1E685F681CF0CEFD60
:1053D000FA22801BB941002392001DF03BFCAB4E2A
:1053E00002000B003000FBF7C9F992E450AEB14661
:1053F0000022A74FF7E6002B00D1A2E0002A00D13F
:105400009FE0380024F018F8002825D0A14B012295
:105410009C4608E06146194113000B400A4208D13E
:105420003B54002805D001383B5C093BDBB2172B0D
:10543000F0D9380024F000F801280DD93B78222B50
:1054400001D101F06FF8272B06D101383A5C3B18E7
:10545000272A01D101F06DF8012301223900300023
:10546000FBF7AEFC55E4002F01D100F03BFD380006
:1054700023F0E2FF0200FF2800D9FF2250AEB3184C
:105480009946390030001EF05DFB00234A46137038
:105490003378202B01D0092B01D10136F8E7002BFE
:1054A00000D1CEE2300023F0C7FF002811D0012246
:1054B000784908E00F001F4113003B403A4208D1F1
:1054C0003354002805D00138335C093BDBB2172B7D
:1054D000F0D93378002B01D101F09FF800236E4FF3
:1054E000A946A24645463C00B0461E002378002B44
:1054F00006D04146601C23F05BFF002800D15BE32F
:10550000123412360135FF34FF36102DEED1634BC5
:105510004D46544675209946A0464C46604F614E14
:1055200039780134002900D007E33378002B00D10B
:1055300000E309F087FB20780028F1D14446FFF70B
:10554000E8FB3378002B01D101F0C4FB0023524F5C
:105550009A463A004346A146A846370014005646EC
:105560001D0092462378002B06D03900601C23F0E2
:105570001FFF002800D1BAE2123412360135FF3481
:10558000FF36102DEED1484B4C46454661209946DA
:10559000444EA04634004E46414F3A780136002A28
:1055A0000DD12378002B07D009F04CFB3078002870
:1055B000F3D14446FFF7ADFB1FF0CEFFF6E73B4BC0
:1055C00044461F68B14698460392002F01D100F06F
:1055D000F9FD374E33689C46591C364B1A68914288
:1055E00004D26246B8540020316078544A4611789B
:1055F000002901D1FFF78DFB42461B6817689A46C8
:105600000023039A9C4698464B46914630680133E6
:10561000002F07D0421C924504D939544146CC464C
:105620001000B95419780029F1D16346002B01D13B
:10563000FFF76FFB3060FFF76CFB1C4B1A68002A0A
:1056400001D1FFF769FB1A481A4E016836684B1CF6
:10565000B34201D3FFF760FB03600A2050540021DE
:10566000D154FFF759FB10AEB1460022084FFFF7A7
:10567000ACFBC046705E0020745E0020703E0020CF
:1056800000FEFFFF70EE021010200020A0050310A6
:10569000104A0310ECFF7FFF74220020F801031072
:1056A0003D4902203B490220CC0103108C5E0020C2
:1056B000945E0020905E0020B84EB94BA0463400A6
:1056C0001E00B84F4D303A780136002A00D0FDE078
:1056D0002378002B00D1F6E009F0B4FA30780028E6
:1056E000F1D14446A02252001100AF48FBF746F822
:1056F000AA4EAE4BA046202034001E003A78013658
:10570000002A00D09BE02378002B00D193E009F021
:1057100099FA3A7830780028F1D1444603929F4EA6
:10572000A34BA046202034001E00039A0136002A15
:105730003FD12378002B35D009F084FA3A783078BD
:105740000028F3D144460392944B20209846994B6D
:10575000994E9946994B039A9A464B46A146444620
:10576000A8461D0009E02378002B1FD009F06AFA33
:105770003078002800D1F4E03A780136002AF2D0DF
:105780002B68002BF4D05246116803914A1C8C49B7
:1057900009688A42ECD251460A60039958540021A4
:1057A0009954E5E71FF0D8FE3A78C8E71FF0D4FE19
:1057B000DEE7804B44461968B146984603920029BB
:1057C00000D1A2E17D4E33689A46012353449C46A2
:1057D0007B4B1A68944506D2624632605246885422
:1057E0000020624688544A4611780029ACD04246CF
:1057F0001B6810689A460023326898464B46A146BB
:105800001400039A94460133002807D0621C924585
:1058100004D901550021E04614008154197800296B
:10582000F1D1634603934346A4464C46002B8BD0EC
:105830006346336088E71FF08FFE3A786AE75D4B76
:1058400044461968B14698460392002900D16AE19E
:105850005A4E33689A46012353449C46584B1A6863
:10586000944506D262463260524688540020624611
:1058700088544A461178002900D150E742461B68F7
:1058800010689A460023326898464B46A146140099
:10589000039A94460133002807D0621C924504D92C
:1058A00001550021E0461400815419780029F1D1F6
:1058B000634603934346A4464C46002B00D12EE793
:1058C000634633602BE71FF047FE07E7394B44463A
:1058D0001968B14698460392002900D11CE1374E61
:1058E00033689A46012353449C46354B1A689445C5
:1058F00006D262463260524688540020624688547E
:105900004A461178002900D1ECE642461B6810682F
:105910009A460023326898464B46A1461400039AE3
:1059200094460133002807D0621C924504D90155E2
:105930000021E0461400815419780029F1D1434632
:10594000A4464C46002B00D1CCE663463360C9E642
:105950000020FBF773FCFFF7DCF96446013AFFF720
:10596000CEFA45464C46FFF7D4F90C4E154BA046EF
:10597000682034001E000B4F3A780136002A23D1EC
:105980002378002B07D009F05DF930780028F3D197
:105990004446FFF7BEF91FF0DFFDF6E73B49022062
:1059A000380203103D4902207805031064020310F9
:1059B000840203108C5E0020A0020310945E00207D
:1059C000905E00204C010310BB4B44461968B14661
:1059D00098460392002900D18AE2B84E33689C466B
:1059E0005F1CB74B1A68974204D262468854002065
:1059F0003760C8554A461178002901D1FFF789F967
:105A000042461B68176898460023039A9C469A46AC
:105A10004B46914630680133002F07D0421C904519
:105A200004D939545146CC461000B954197800298C
:105A3000F1D16346002B01D1FFF76BF93060FFF71E
:105A400068F9A04EA04BA046752034001E009F4F61
:105A50003A780136002A0DD12378002B07D009F0BF
:105A6000F1F830780028F3D14446FFF752F91FF0DF
:105A700073FDF6E7904B44461968B1469846039289
:105A8000002900D13CE28D4E33689C465F1C8C4B54
:105A90001A68974204D26246885400203760C8557D
:105AA0004A461178002901D1FFF733F942461B68B5
:105AB000176898460023039A9C469A464B4691469F
:105AC00030680133002F07D0421C904504D9395467
:105AD0005146CC461000B95419780029F1D16346DB
